{
	"contracts/Loanify_Old.sol": {
		"Loanify": {
			"abi": [
				{
					"inputs": [],
					"name": "borrowerAddress",
					"outputs": [
						{
							"internalType": "address",
							"name": "",
							"type": "address"
						}
					],
					"stateMutability": "view",
					"type": "function"
				},
				{
					"inputs": [],
					"name": "checkLoanStatus",
					"outputs": [
						{
							"internalType": "string",
							"name": "",
							"type": "string"
						}
					],
					"stateMutability": "view",
					"type": "function"
				},
				{
					"inputs": [],
					"name": "interestRate",
					"outputs": [
						{
							"internalType": "uint256",
							"name": "",
							"type": "uint256"
						}
					],
					"stateMutability": "view",
					"type": "function"
				},
				{
					"inputs": [],
					"name": "loanAmount",
					"outputs": [
						{
							"internalType": "uint256",
							"name": "",
							"type": "uint256"
						}
					],
					"stateMutability": "view",
					"type": "function"
				},
				{
					"inputs": [],
					"name": "loanDuration",
					"outputs": [
						{
							"internalType": "uint256",
							"name": "",
							"type": "uint256"
						}
					],
					"stateMutability": "view",
					"type": "function"
				},
				{
					"inputs": [],
					"name": "loanStatus",
					"outputs": [
						{
							"internalType": "string",
							"name": "",
							"type": "string"
						}
					],
					"stateMutability": "view",
					"type": "function"
				},
				{
					"inputs": [],
					"name": "releaseFunds",
					"outputs": [],
					"stateMutability": "nonpayable",
					"type": "function"
				},
				{
					"inputs": [
						{
							"internalType": "uint256",
							"name": "_loanAmount",
							"type": "uint256"
						},
						{
							"internalType": "uint256",
							"name": "_loanDuration",
							"type": "uint256"
						}
					],
					"name": "requestLoan",
					"outputs": [
						{
							"internalType": "string",
							"name": "",
							"type": "string"
						}
					],
					"stateMutability": "nonpayable",
					"type": "function"
				},
				{
					"inputs": [],
					"name": "verifyCreditworthiness",
					"outputs": [
						{
							"internalType": "bool",
							"name": "",
							"type": "bool"
						}
					],
					"stateMutability": "view",
					"type": "function"
				}
			],
			"devdoc": {
				"kind": "dev",
				"methods": {},
				"version": 1
			},
			"evm": {
				"assembly": "    /* \"contracts/Loanify_Old.sol\":56:2160  contract Loanify {... */\n  mstore(0x40, 0x80)\n  callvalue\n  dup1\n  iszero\n  tag_1\n  jumpi\n  0x00\n  dup1\n  revert\ntag_1:\n  pop\n  dataSize(sub_0)\n  dup1\n  dataOffset(sub_0)\n  0x00\n  codecopy\n  0x00\n  return\nstop\n\nsub_0: assembly {\n        /* \"contracts/Loanify_Old.sol\":56:2160  contract Loanify {... */\n      mstore(0x40, 0x80)\n      callvalue\n      dup1\n      iszero\n      tag_1\n      jumpi\n      0x00\n      dup1\n      revert\n    tag_1:\n      pop\n      jumpi(tag_2, lt(calldatasize, 0x04))\n      shr(0xe0, calldataload(0x00))\n      dup1\n      0x7c3a00fd\n      gt\n      tag_12\n      jumpi\n      dup1\n      0x7c3a00fd\n      eq\n      tag_7\n      jumpi\n      dup1\n      0x9d585f7f\n      eq\n      tag_8\n      jumpi\n      dup1\n      0xaa452fa6\n      eq\n      tag_9\n      jumpi\n      dup1\n      0xc2037eec\n      eq\n      tag_10\n      jumpi\n      dup1\n      0xf5521bf1\n      eq\n      tag_11\n      jumpi\n      jump(tag_2)\n    tag_12:\n      dup1\n      0x068b554e\n      eq\n      tag_3\n      jumpi\n      dup1\n      0x074ca966\n      eq\n      tag_4\n      jumpi\n      dup1\n      0x69d89575\n      eq\n      tag_5\n      jumpi\n      dup1\n      0x7ba61ea5\n      eq\n      tag_6\n      jumpi\n    tag_2:\n      0x00\n      dup1\n      revert\n        /* \"contracts/Loanify_Old.sol\":2057:2154  function checkLoanStatus() public view returns (string memory) {... */\n    tag_3:\n      tag_13\n      tag_14\n      jump\t// in\n    tag_13:\n      mload(0x40)\n      tag_15\n      swap2\n      swap1\n      tag_16\n      jump\t// in\n    tag_15:\n      mload(0x40)\n      dup1\n      swap2\n      sub\n      swap1\n      return\n        /* \"contracts/Loanify_Old.sol\":203:228  string  public loanStatus */\n    tag_4:\n      tag_17\n      tag_18\n      jump\t// in\n    tag_17:\n      mload(0x40)\n      tag_19\n      swap2\n      swap1\n      tag_16\n      jump\t// in\n    tag_19:\n      mload(0x40)\n      dup1\n      swap2\n      sub\n      swap1\n      return\n        /* \"contracts/Loanify_Old.sol\":1720:1997  function releaseFunds() public {... */\n    tag_5:\n      tag_20\n      tag_21\n      jump\t// in\n    tag_20:\n      stop\n        /* \"contracts/Loanify_Old.sol\":78:108  address public borrowerAddress */\n    tag_6:\n      tag_22\n      tag_23\n      jump\t// in\n    tag_22:\n      mload(0x40)\n      tag_24\n      swap2\n      swap1\n      tag_25\n      jump\t// in\n    tag_24:\n      mload(0x40)\n      dup1\n      swap2\n      sub\n      swap1\n      return\n        /* \"contracts/Loanify_Old.sol\":141:168  uint256 public interestRate */\n    tag_7:\n      tag_26\n      tag_27\n      jump\t// in\n    tag_26:\n      mload(0x40)\n      tag_28\n      swap2\n      swap1\n      tag_29\n      jump\t// in\n    tag_28:\n      mload(0x40)\n      dup1\n      swap2\n      sub\n      swap1\n      return\n        /* \"contracts/Loanify_Old.sol\":112:137  uint256 public loanAmount */\n    tag_8:\n      tag_30\n      tag_31\n      jump\t// in\n    tag_30:\n      mload(0x40)\n      tag_32\n      swap2\n      swap1\n      tag_29\n      jump\t// in\n    tag_32:\n      mload(0x40)\n      dup1\n      swap2\n      sub\n      swap1\n      return\n        /* \"contracts/Loanify_Old.sol\":433:880  function requestLoan(uint256 _loanAmount, uint256 _loanDuration) public returns (string memory) {... */\n    tag_9:\n      tag_33\n      0x04\n      dup1\n      calldatasize\n      sub\n      dup2\n      add\n      swap1\n      tag_34\n      swap2\n      swap1\n      tag_35\n      jump\t// in\n    tag_34:\n      tag_36\n      jump\t// in\n    tag_33:\n      mload(0x40)\n      tag_37\n      swap2\n      swap1\n      tag_16\n      jump\t// in\n    tag_37:\n      mload(0x40)\n      dup1\n      swap2\n      sub\n      swap1\n      return\n        /* \"contracts/Loanify_Old.sol\":1427:1660  function verifyCreditworthiness() public view returns (bool) {... */\n    tag_10:\n      tag_38\n      tag_39\n      jump\t// in\n    tag_38:\n      mload(0x40)\n      tag_40\n      swap2\n      swap1\n      tag_41\n      jump\t// in\n    tag_40:\n      mload(0x40)\n      dup1\n      swap2\n      sub\n      swap1\n      return\n        /* \"contracts/Loanify_Old.sol\":172:199  uint256 public loanDuration */\n    tag_11:\n      tag_42\n      tag_43\n      jump\t// in\n    tag_42:\n      mload(0x40)\n      tag_44\n      swap2\n      swap1\n      tag_29\n      jump\t// in\n    tag_44:\n      mload(0x40)\n      dup1\n      swap2\n      sub\n      swap1\n      return\n        /* \"contracts/Loanify_Old.sol\":2057:2154  function checkLoanStatus() public view returns (string memory) {... */\n    tag_14:\n        /* \"contracts/Loanify_Old.sol\":2105:2118  string memory */\n      0x60\n        /* \"contracts/Loanify_Old.sol\":2137:2147  loanStatus */\n      0x04\n        /* \"contracts/Loanify_Old.sol\":2130:2147  return loanStatus */\n      dup1\n      sload\n      tag_46\n      swap1\n      tag_47\n      jump\t// in\n    tag_46:\n      dup1\n      0x1f\n      add\n      0x20\n      dup1\n      swap2\n      div\n      mul\n      0x20\n      add\n      mload(0x40)\n      swap1\n      dup2\n      add\n      0x40\n      mstore\n      dup1\n      swap3\n      swap2\n      swap1\n      dup2\n      dup2\n      mstore\n      0x20\n      add\n      dup3\n      dup1\n      sload\n      tag_48\n      swap1\n      tag_47\n      jump\t// in\n    tag_48:\n      dup1\n      iszero\n      tag_49\n      jumpi\n      dup1\n      0x1f\n      lt\n      tag_50\n      jumpi\n      0x0100\n      dup1\n      dup4\n      sload\n      div\n      mul\n      dup4\n      mstore\n      swap2\n      0x20\n      add\n      swap2\n      jump(tag_49)\n    tag_50:\n      dup3\n      add\n      swap2\n      swap1\n      0x00\n      mstore\n      keccak256(0x00, 0x20)\n      swap1\n    tag_51:\n      dup2\n      sload\n      dup2\n      mstore\n      swap1\n      0x01\n      add\n      swap1\n      0x20\n      add\n      dup1\n      dup4\n      gt\n      tag_51\n      jumpi\n      dup3\n      swap1\n      sub\n      0x1f\n      and\n      dup3\n      add\n      swap2\n    tag_49:\n      pop\n      pop\n      pop\n      pop\n      pop\n      swap1\n      pop\n        /* \"contracts/Loanify_Old.sol\":2057:2154  function checkLoanStatus() public view returns (string memory) {... */\n      swap1\n      jump\t// out\n        /* \"contracts/Loanify_Old.sol\":203:228  string  public loanStatus */\n    tag_18:\n      0x04\n      dup1\n      sload\n      tag_52\n      swap1\n      tag_47\n      jump\t// in\n    tag_52:\n      dup1\n      0x1f\n      add\n      0x20\n      dup1\n      swap2\n      div\n      mul\n      0x20\n      add\n      mload(0x40)\n      swap1\n      dup2\n      add\n      0x40\n      mstore\n      dup1\n      swap3\n      swap2\n      swap1\n      dup2\n      dup2\n      mstore\n      0x20\n      add\n      dup3\n      dup1\n      sload\n      tag_53\n      swap1\n      tag_47\n      jump\t// in\n    tag_53:\n      dup1\n      iszero\n      tag_54\n      jumpi\n      dup1\n      0x1f\n      lt\n      tag_55\n      jumpi\n      0x0100\n      dup1\n      dup4\n      sload\n      div\n      mul\n      dup4\n      mstore\n      swap2\n      0x20\n      add\n      swap2\n      jump(tag_54)\n    tag_55:\n      dup3\n      add\n      swap2\n      swap1\n      0x00\n      mstore\n      keccak256(0x00, 0x20)\n      swap1\n    tag_56:\n      dup2\n      sload\n      dup2\n      mstore\n      swap1\n      0x01\n      add\n      swap1\n      0x20\n      add\n      dup1\n      dup4\n      gt\n      tag_56\n      jumpi\n      dup3\n      swap1\n      sub\n      0x1f\n      and\n      dup3\n      add\n      swap2\n    tag_54:\n      pop\n      pop\n      pop\n      pop\n      pop\n      dup2\n      jump\t// out\n        /* \"contracts/Loanify_Old.sol\":1720:1997  function releaseFunds() public {... */\n    tag_21:\n        /* \"contracts/Loanify_Old.sol\":1961:1990  loanStatus = \"funds released\" */\n      mload(0x40)\n      dup1\n      0x40\n      add\n      0x40\n      mstore\n      dup1\n      0x0e\n      dup2\n      mstore\n      0x20\n      add\n      0x66756e64732072656c6561736564000000000000000000000000000000000000\n      dup2\n      mstore\n      pop\n        /* \"contracts/Loanify_Old.sol\":1961:1971  loanStatus */\n      0x04\n        /* \"contracts/Loanify_Old.sol\":1961:1990  loanStatus = \"funds released\" */\n      swap1\n      dup2\n      tag_58\n      swap2\n      swap1\n      tag_59\n      jump\t// in\n    tag_58:\n      pop\n        /* \"contracts/Loanify_Old.sol\":1720:1997  function releaseFunds() public {... */\n      jump\t// out\n        /* \"contracts/Loanify_Old.sol\":78:108  address public borrowerAddress */\n    tag_23:\n      0x00\n      dup1\n      sload\n      swap1\n      0x0100\n      exp\n      swap1\n      div\n      0xffffffffffffffffffffffffffffffffffffffff\n      and\n      dup2\n      jump\t// out\n        /* \"contracts/Loanify_Old.sol\":141:168  uint256 public interestRate */\n    tag_27:\n      sload(0x02)\n      dup2\n      jump\t// out\n        /* \"contracts/Loanify_Old.sol\":112:137  uint256 public loanAmount */\n    tag_31:\n      sload(0x01)\n      dup2\n      jump\t// out\n        /* \"contracts/Loanify_Old.sol\":433:880  function requestLoan(uint256 _loanAmount, uint256 _loanDuration) public returns (string memory) {... */\n    tag_36:\n        /* \"contracts/Loanify_Old.sol\":514:527  string memory */\n      0x60\n        /* \"contracts/Loanify_Old.sol\":571:581  loanAmount */\n      sload(0x01)\n        /* \"contracts/Loanify_Old.sol\":547:568  address(this).balance */\n      selfbalance\n        /* \"contracts/Loanify_Old.sol\":547:581  address(this).balance > loanAmount */\n      gt\n        /* \"contracts/Loanify_Old.sol\":544:869  if(address(this).balance > loanAmount){... */\n      iszero\n      tag_61\n      jumpi\n        /* \"contracts/Loanify_Old.sol\":607:656  calculateInterestRate(_loanDuration, _loanAmount) */\n      tag_62\n        /* \"contracts/Loanify_Old.sol\":629:642  _loanDuration */\n      dup3\n        /* \"contracts/Loanify_Old.sol\":644:655  _loanAmount */\n      dup5\n        /* \"contracts/Loanify_Old.sol\":607:628  calculateInterestRate */\n      tag_63\n        /* \"contracts/Loanify_Old.sol\":607:656  calculateInterestRate(_loanDuration, _loanAmount) */\n      jump\t// in\n    tag_62:\n        /* \"contracts/Loanify_Old.sol\":593:605  interestRate */\n      0x02\n        /* \"contracts/Loanify_Old.sol\":593:656  interestRate= calculateInterestRate(_loanDuration, _loanAmount) */\n      dup2\n      swap1\n      sstore\n      pop\n        /* \"contracts/Loanify_Old.sol\":679:690  _loanAmount */\n      dup3\n        /* \"contracts/Loanify_Old.sol\":666:676  loanAmount */\n      0x01\n        /* \"contracts/Loanify_Old.sol\":666:690  loanAmount = _loanAmount */\n      dup2\n      swap1\n      sstore\n      pop\n        /* \"contracts/Loanify_Old.sol\":715:728  _loanDuration */\n      dup2\n        /* \"contracts/Loanify_Old.sol\":700:712  loanDuration */\n      0x03\n        /* \"contracts/Loanify_Old.sol\":700:728  loanDuration = _loanDuration */\n      dup2\n      swap1\n      sstore\n      pop\n        /* \"contracts/Loanify_Old.sol\":740:762  loanStatus = \"pending\" */\n      mload(0x40)\n      dup1\n      0x40\n      add\n      0x40\n      mstore\n      dup1\n      0x07\n      dup2\n      mstore\n      0x20\n      add\n      0x70656e64696e6700000000000000000000000000000000000000000000000000\n      dup2\n      mstore\n      pop\n        /* \"contracts/Loanify_Old.sol\":740:750  loanStatus */\n      0x04\n        /* \"contracts/Loanify_Old.sol\":740:762  loanStatus = \"pending\" */\n      swap1\n      dup2\n      tag_64\n      swap2\n      swap1\n      tag_59\n      jump\t// in\n    tag_64:\n      pop\n        /* \"contracts/Loanify_Old.sol\":544:869  if(address(this).balance > loanAmount){... */\n      jump(tag_65)\n    tag_61:\n        /* \"contracts/Loanify_Old.sol\":796:860  return \"We currently do not have enough ETH, check again later.\" */\n      mload(0x40)\n      dup1\n      0x60\n      add\n      0x40\n      mstore\n      dup1\n      0x37\n      dup2\n      mstore\n      0x20\n      add\n      data_7230e4cc6007c3786bb54942f04168caf6e059a9fba0f40e617e9fac5d6fe66d\n      0x37\n      swap2\n      codecopy\n      swap1\n      pop\n      jump(tag_60)\n        /* \"contracts/Loanify_Old.sol\":544:869  if(address(this).balance > loanAmount){... */\n    tag_65:\n        /* \"contracts/Loanify_Old.sol\":433:880  function requestLoan(uint256 _loanAmount, uint256 _loanDuration) public returns (string memory) {... */\n    tag_60:\n      swap3\n      swap2\n      pop\n      pop\n      jump\t// out\n        /* \"contracts/Loanify_Old.sol\":1427:1660  function verifyCreditworthiness() public view returns (bool) {... */\n    tag_39:\n        /* \"contracts/Loanify_Old.sol\":1482:1486  bool */\n      0x00\n        /* \"contracts/Loanify_Old.sol\":1651:1655  true */\n      0x01\n        /* \"contracts/Loanify_Old.sol\":1644:1655  return true */\n      swap1\n      pop\n        /* \"contracts/Loanify_Old.sol\":1427:1660  function verifyCreditworthiness() public view returns (bool) {... */\n      swap1\n      jump\t// out\n        /* \"contracts/Loanify_Old.sol\":172:199  uint256 public loanDuration */\n    tag_43:\n      sload(0x03)\n      dup2\n      jump\t// out\n        /* \"contracts/Loanify_Old.sol\":968:1359  function calculateInterestRate(uint256 _loanDuration, uint256 _loanAmount) internal returns (uint256) {... */\n    tag_63:\n        /* \"contracts/Loanify_Old.sol\":1061:1068  uint256 */\n      0x00\n        /* \"contracts/Loanify_Old.sol\":1088:1111  uint256 repaymentAmount */\n      dup1\n        /* \"contracts/Loanify_Old.sol\":1143:1145  30 */\n      0x1e\n        /* \"contracts/Loanify_Old.sol\":1126:1139  _loanDuration */\n      dup5\n        /* \"contracts/Loanify_Old.sol\":1126:1145  _loanDuration >= 30 */\n      lt\n        /* \"contracts/Loanify_Old.sol\":1122:1256  if (_loanDuration >= 30) {... */\n      tag_68\n      jumpi\n        /* \"contracts/Loanify_Old.sol\":1176:1177  5 */\n      0x05\n        /* \"contracts/Loanify_Old.sol\":1161:1173  interestRate */\n      0x02\n        /* \"contracts/Loanify_Old.sol\":1161:1177  interestRate = 5 */\n      dup2\n      swap1\n      sstore\n      pop\n        /* \"contracts/Loanify_Old.sol\":1122:1256  if (_loanDuration >= 30) {... */\n      jump(tag_69)\n    tag_68:\n        /* \"contracts/Loanify_Old.sol\":1243:1245  30 */\n      0x1e\n        /* \"contracts/Loanify_Old.sol\":1239:1240  5 */\n      0x05\n        /* \"contracts/Loanify_Old.sol\":1223:1236  _loanDuration */\n      dup6\n        /* \"contracts/Loanify_Old.sol\":1223:1240  _loanDuration * 5 */\n      tag_70\n      swap2\n      swap1\n      tag_71\n      jump\t// in\n    tag_70:\n        /* \"contracts/Loanify_Old.sol\":1223:1245  _loanDuration * 5 / 30 */\n      tag_72\n      swap2\n      swap1\n      tag_73\n      jump\t// in\n    tag_72:\n        /* \"contracts/Loanify_Old.sol\":1208:1220  interestRate */\n      0x02\n        /* \"contracts/Loanify_Old.sol\":1208:1245  interestRate = _loanDuration * 5 / 30 */\n      dup2\n      swap1\n      sstore\n      pop\n        /* \"contracts/Loanify_Old.sol\":1122:1256  if (_loanDuration >= 30) {... */\n    tag_69:\n        /* \"contracts/Loanify_Old.sol\":1321:1324  100 */\n      0x64\n        /* \"contracts/Loanify_Old.sol\":1305:1317  interestRate */\n      sload(0x02)\n        /* \"contracts/Loanify_Old.sol\":1299:1302  100 */\n      0x64\n        /* \"contracts/Loanify_Old.sol\":1299:1317  100 + interestRate */\n      tag_74\n      swap2\n      swap1\n      tag_75\n      jump\t// in\n    tag_74:\n        /* \"contracts/Loanify_Old.sol\":1284:1295  _loanAmount */\n      dup5\n        /* \"contracts/Loanify_Old.sol\":1284:1318  _loanAmount * (100 + interestRate) */\n      tag_76\n      swap2\n      swap1\n      tag_71\n      jump\t// in\n    tag_76:\n        /* \"contracts/Loanify_Old.sol\":1284:1324  _loanAmount * (100 + interestRate) / 100 */\n      tag_77\n      swap2\n      swap1\n      tag_73\n      jump\t// in\n    tag_77:\n        /* \"contracts/Loanify_Old.sol\":1266:1324  repaymentAmount = _loanAmount * (100 + interestRate) / 100 */\n      swap1\n      pop\n        /* \"contracts/Loanify_Old.sol\":1342:1354  interestRate */\n      sload(0x02)\n        /* \"contracts/Loanify_Old.sol\":1335:1354  return interestRate */\n      swap2\n      pop\n      pop\n        /* \"contracts/Loanify_Old.sol\":968:1359  function calculateInterestRate(uint256 _loanDuration, uint256 _loanAmount) internal returns (uint256) {... */\n      swap3\n      swap2\n      pop\n      pop\n      jump\t// out\n        /* \"#utility.yul\":7:106   */\n    tag_78:\n        /* \"#utility.yul\":59:65   */\n      0x00\n        /* \"#utility.yul\":93:98   */\n      dup2\n        /* \"#utility.yul\":87:99   */\n      mload\n        /* \"#utility.yul\":77:99   */\n      swap1\n      pop\n        /* \"#utility.yul\":7:106   */\n      swap2\n      swap1\n      pop\n      jump\t// out\n        /* \"#utility.yul\":112:281   */\n    tag_79:\n        /* \"#utility.yul\":196:207   */\n      0x00\n        /* \"#utility.yul\":230:236   */\n      dup3\n        /* \"#utility.yul\":225:228   */\n      dup3\n        /* \"#utility.yul\":218:237   */\n      mstore\n        /* \"#utility.yul\":270:274   */\n      0x20\n        /* \"#utility.yul\":265:268   */\n      dup3\n        /* \"#utility.yul\":261:275   */\n      add\n        /* \"#utility.yul\":246:275   */\n      swap1\n      pop\n        /* \"#utility.yul\":112:281   */\n      swap3\n      swap2\n      pop\n      pop\n      jump\t// out\n        /* \"#utility.yul\":287:533   */\n    tag_80:\n        /* \"#utility.yul\":368:369   */\n      0x00\n        /* \"#utility.yul\":378:491   */\n    tag_118:\n        /* \"#utility.yul\":392:398   */\n      dup4\n        /* \"#utility.yul\":389:390   */\n      dup2\n        /* \"#utility.yul\":386:399   */\n      lt\n        /* \"#utility.yul\":378:491   */\n      iszero\n      tag_120\n      jumpi\n        /* \"#utility.yul\":477:478   */\n      dup1\n        /* \"#utility.yul\":472:475   */\n      dup3\n        /* \"#utility.yul\":468:479   */\n      add\n        /* \"#utility.yul\":462:480   */\n      mload\n        /* \"#utility.yul\":458:459   */\n      dup2\n        /* \"#utility.yul\":453:456   */\n      dup5\n        /* \"#utility.yul\":449:460   */\n      add\n        /* \"#utility.yul\":442:481   */\n      mstore\n        /* \"#utility.yul\":414:416   */\n      0x20\n        /* \"#utility.yul\":411:412   */\n      dup2\n        /* \"#utility.yul\":407:417   */\n      add\n        /* \"#utility.yul\":402:417   */\n      swap1\n      pop\n        /* \"#utility.yul\":378:491   */\n      jump(tag_118)\n    tag_120:\n        /* \"#utility.yul\":525:526   */\n      0x00\n        /* \"#utility.yul\":516:522   */\n      dup5\n        /* \"#utility.yul\":511:514   */\n      dup5\n        /* \"#utility.yul\":507:523   */\n      add\n        /* \"#utility.yul\":500:527   */\n      mstore\n        /* \"#utility.yul\":349:533   */\n      pop\n        /* \"#utility.yul\":287:533   */\n      pop\n      pop\n      pop\n      jump\t// out\n        /* \"#utility.yul\":539:641   */\n    tag_81:\n        /* \"#utility.yul\":580:586   */\n      0x00\n        /* \"#utility.yul\":631:633   */\n      0x1f\n        /* \"#utility.yul\":627:634   */\n      not\n        /* \"#utility.yul\":622:624   */\n      0x1f\n        /* \"#utility.yul\":615:620   */\n      dup4\n        /* \"#utility.yul\":611:625   */\n      add\n        /* \"#utility.yul\":607:635   */\n      and\n        /* \"#utility.yul\":597:635   */\n      swap1\n      pop\n        /* \"#utility.yul\":539:641   */\n      swap2\n      swap1\n      pop\n      jump\t// out\n        /* \"#utility.yul\":647:1024   */\n    tag_82:\n        /* \"#utility.yul\":735:738   */\n      0x00\n        /* \"#utility.yul\":763:802   */\n      tag_123\n        /* \"#utility.yul\":796:801   */\n      dup3\n        /* \"#utility.yul\":763:802   */\n      tag_78\n      jump\t// in\n    tag_123:\n        /* \"#utility.yul\":818:889   */\n      tag_124\n        /* \"#utility.yul\":882:888   */\n      dup2\n        /* \"#utility.yul\":877:880   */\n      dup6\n        /* \"#utility.yul\":818:889   */\n      tag_79\n      jump\t// in\n    tag_124:\n        /* \"#utility.yul\":811:889   */\n      swap4\n      pop\n        /* \"#utility.yul\":898:963   */\n      tag_125\n        /* \"#utility.yul\":956:962   */\n      dup2\n        /* \"#utility.yul\":951:954   */\n      dup6\n        /* \"#utility.yul\":944:948   */\n      0x20\n        /* \"#utility.yul\":937:942   */\n      dup7\n        /* \"#utility.yul\":933:949   */\n      add\n        /* \"#utility.yul\":898:963   */\n      tag_80\n      jump\t// in\n    tag_125:\n        /* \"#utility.yul\":988:1017   */\n      tag_126\n        /* \"#utility.yul\":1010:1016   */\n      dup2\n        /* \"#utility.yul\":988:1017   */\n      tag_81\n      jump\t// in\n    tag_126:\n        /* \"#utility.yul\":983:986   */\n      dup5\n        /* \"#utility.yul\":979:1018   */\n      add\n        /* \"#utility.yul\":972:1018   */\n      swap2\n      pop\n        /* \"#utility.yul\":739:1024   */\n      pop\n        /* \"#utility.yul\":647:1024   */\n      swap3\n      swap2\n      pop\n      pop\n      jump\t// out\n        /* \"#utility.yul\":1030:1343   */\n    tag_16:\n        /* \"#utility.yul\":1143:1147   */\n      0x00\n        /* \"#utility.yul\":1181:1183   */\n      0x20\n        /* \"#utility.yul\":1170:1179   */\n      dup3\n        /* \"#utility.yul\":1166:1184   */\n      add\n        /* \"#utility.yul\":1158:1184   */\n      swap1\n      pop\n        /* \"#utility.yul\":1230:1239   */\n      dup2\n        /* \"#utility.yul\":1224:1228   */\n      dup2\n        /* \"#utility.yul\":1220:1240   */\n      sub\n        /* \"#utility.yul\":1216:1217   */\n      0x00\n        /* \"#utility.yul\":1205:1214   */\n      dup4\n        /* \"#utility.yul\":1201:1218   */\n      add\n        /* \"#utility.yul\":1194:1241   */\n      mstore\n        /* \"#utility.yul\":1258:1336   */\n      tag_128\n        /* \"#utility.yul\":1331:1335   */\n      dup2\n        /* \"#utility.yul\":1322:1328   */\n      dup5\n        /* \"#utility.yul\":1258:1336   */\n      tag_82\n      jump\t// in\n    tag_128:\n        /* \"#utility.yul\":1250:1336   */\n      swap1\n      pop\n        /* \"#utility.yul\":1030:1343   */\n      swap3\n      swap2\n      pop\n      pop\n      jump\t// out\n        /* \"#utility.yul\":1349:1475   */\n    tag_83:\n        /* \"#utility.yul\":1386:1393   */\n      0x00\n        /* \"#utility.yul\":1426:1468   */\n      0xffffffffffffffffffffffffffffffffffffffff\n        /* \"#utility.yul\":1419:1424   */\n      dup3\n        /* \"#utility.yul\":1415:1469   */\n      and\n        /* \"#utility.yul\":1404:1469   */\n      swap1\n      pop\n        /* \"#utility.yul\":1349:1475   */\n      swap2\n      swap1\n      pop\n      jump\t// out\n        /* \"#utility.yul\":1481:1577   */\n    tag_84:\n        /* \"#utility.yul\":1518:1525   */\n      0x00\n        /* \"#utility.yul\":1547:1571   */\n      tag_131\n        /* \"#utility.yul\":1565:1570   */\n      dup3\n        /* \"#utility.yul\":1547:1571   */\n      tag_83\n      jump\t// in\n    tag_131:\n        /* \"#utility.yul\":1536:1571   */\n      swap1\n      pop\n        /* \"#utility.yul\":1481:1577   */\n      swap2\n      swap1\n      pop\n      jump\t// out\n        /* \"#utility.yul\":1583:1701   */\n    tag_85:\n        /* \"#utility.yul\":1670:1694   */\n      tag_133\n        /* \"#utility.yul\":1688:1693   */\n      dup2\n        /* \"#utility.yul\":1670:1694   */\n      tag_84\n      jump\t// in\n    tag_133:\n        /* \"#utility.yul\":1665:1668   */\n      dup3\n        /* \"#utility.yul\":1658:1695   */\n      mstore\n        /* \"#utility.yul\":1583:1701   */\n      pop\n      pop\n      jump\t// out\n        /* \"#utility.yul\":1707:1929   */\n    tag_25:\n        /* \"#utility.yul\":1800:1804   */\n      0x00\n        /* \"#utility.yul\":1838:1840   */\n      0x20\n        /* \"#utility.yul\":1827:1836   */\n      dup3\n        /* \"#utility.yul\":1823:1841   */\n      add\n        /* \"#utility.yul\":1815:1841   */\n      swap1\n      pop\n        /* \"#utility.yul\":1851:1922   */\n      tag_135\n        /* \"#utility.yul\":1919:1920   */\n      0x00\n        /* \"#utility.yul\":1908:1917   */\n      dup4\n        /* \"#utility.yul\":1904:1921   */\n      add\n        /* \"#utility.yul\":1895:1901   */\n      dup5\n        /* \"#utility.yul\":1851:1922   */\n      tag_85\n      jump\t// in\n    tag_135:\n        /* \"#utility.yul\":1707:1929   */\n      swap3\n      swap2\n      pop\n      pop\n      jump\t// out\n        /* \"#utility.yul\":1935:2012   */\n    tag_86:\n        /* \"#utility.yul\":1972:1979   */\n      0x00\n        /* \"#utility.yul\":2001:2006   */\n      dup2\n        /* \"#utility.yul\":1990:2006   */\n      swap1\n      pop\n        /* \"#utility.yul\":1935:2012   */\n      swap2\n      swap1\n      pop\n      jump\t// out\n        /* \"#utility.yul\":2018:2136   */\n    tag_87:\n        /* \"#utility.yul\":2105:2129   */\n      tag_138\n        /* \"#utility.yul\":2123:2128   */\n      dup2\n        /* \"#utility.yul\":2105:2129   */\n      tag_86\n      jump\t// in\n    tag_138:\n        /* \"#utility.yul\":2100:2103   */\n      dup3\n        /* \"#utility.yul\":2093:2130   */\n      mstore\n        /* \"#utility.yul\":2018:2136   */\n      pop\n      pop\n      jump\t// out\n        /* \"#utility.yul\":2142:2364   */\n    tag_29:\n        /* \"#utility.yul\":2235:2239   */\n      0x00\n        /* \"#utility.yul\":2273:2275   */\n      0x20\n        /* \"#utility.yul\":2262:2271   */\n      dup3\n        /* \"#utility.yul\":2258:2276   */\n      add\n        /* \"#utility.yul\":2250:2276   */\n      swap1\n      pop\n        /* \"#utility.yul\":2286:2357   */\n      tag_140\n        /* \"#utility.yul\":2354:2355   */\n      0x00\n        /* \"#utility.yul\":2343:2352   */\n      dup4\n        /* \"#utility.yul\":2339:2356   */\n      add\n        /* \"#utility.yul\":2330:2336   */\n      dup5\n        /* \"#utility.yul\":2286:2357   */\n      tag_87\n      jump\t// in\n    tag_140:\n        /* \"#utility.yul\":2142:2364   */\n      swap3\n      swap2\n      pop\n      pop\n      jump\t// out\n        /* \"#utility.yul\":2451:2568   */\n    tag_89:\n        /* \"#utility.yul\":2560:2561   */\n      0x00\n        /* \"#utility.yul\":2557:2558   */\n      dup1\n        /* \"#utility.yul\":2550:2562   */\n      revert\n        /* \"#utility.yul\":2697:2819   */\n    tag_91:\n        /* \"#utility.yul\":2770:2794   */\n      tag_145\n        /* \"#utility.yul\":2788:2793   */\n      dup2\n        /* \"#utility.yul\":2770:2794   */\n      tag_86\n      jump\t// in\n    tag_145:\n        /* \"#utility.yul\":2763:2768   */\n      dup2\n        /* \"#utility.yul\":2760:2795   */\n      eq\n        /* \"#utility.yul\":2750:2813   */\n      tag_146\n      jumpi\n        /* \"#utility.yul\":2809:2810   */\n      0x00\n        /* \"#utility.yul\":2806:2807   */\n      dup1\n        /* \"#utility.yul\":2799:2811   */\n      revert\n        /* \"#utility.yul\":2750:2813   */\n    tag_146:\n        /* \"#utility.yul\":2697:2819   */\n      pop\n      jump\t// out\n        /* \"#utility.yul\":2825:2964   */\n    tag_92:\n        /* \"#utility.yul\":2871:2876   */\n      0x00\n        /* \"#utility.yul\":2909:2915   */\n      dup2\n        /* \"#utility.yul\":2896:2916   */\n      calldataload\n        /* \"#utility.yul\":2887:2916   */\n      swap1\n      pop\n        /* \"#utility.yul\":2925:2958   */\n      tag_148\n        /* \"#utility.yul\":2952:2957   */\n      dup2\n        /* \"#utility.yul\":2925:2958   */\n      tag_91\n      jump\t// in\n    tag_148:\n        /* \"#utility.yul\":2825:2964   */\n      swap3\n      swap2\n      pop\n      pop\n      jump\t// out\n        /* \"#utility.yul\":2970:3444   */\n    tag_35:\n        /* \"#utility.yul\":3038:3044   */\n      0x00\n        /* \"#utility.yul\":3046:3052   */\n      dup1\n        /* \"#utility.yul\":3095:3097   */\n      0x40\n        /* \"#utility.yul\":3083:3092   */\n      dup4\n        /* \"#utility.yul\":3074:3081   */\n      dup6\n        /* \"#utility.yul\":3070:3093   */\n      sub\n        /* \"#utility.yul\":3066:3098   */\n      slt\n        /* \"#utility.yul\":3063:3182   */\n      iszero\n      tag_150\n      jumpi\n        /* \"#utility.yul\":3101:3180   */\n      tag_151\n      tag_89\n      jump\t// in\n    tag_151:\n        /* \"#utility.yul\":3063:3182   */\n    tag_150:\n        /* \"#utility.yul\":3221:3222   */\n      0x00\n        /* \"#utility.yul\":3246:3299   */\n      tag_152\n        /* \"#utility.yul\":3291:3298   */\n      dup6\n        /* \"#utility.yul\":3282:3288   */\n      dup3\n        /* \"#utility.yul\":3271:3280   */\n      dup7\n        /* \"#utility.yul\":3267:3289   */\n      add\n        /* \"#utility.yul\":3246:3299   */\n      tag_92\n      jump\t// in\n    tag_152:\n        /* \"#utility.yul\":3236:3299   */\n      swap3\n      pop\n        /* \"#utility.yul\":3192:3309   */\n      pop\n        /* \"#utility.yul\":3348:3350   */\n      0x20\n        /* \"#utility.yul\":3374:3427   */\n      tag_153\n        /* \"#utility.yul\":3419:3426   */\n      dup6\n        /* \"#utility.yul\":3410:3416   */\n      dup3\n        /* \"#utility.yul\":3399:3408   */\n      dup7\n        /* \"#utility.yul\":3395:3417   */\n      add\n        /* \"#utility.yul\":3374:3427   */\n      tag_92\n      jump\t// in\n    tag_153:\n        /* \"#utility.yul\":3364:3427   */\n      swap2\n      pop\n        /* \"#utility.yul\":3319:3437   */\n      pop\n        /* \"#utility.yul\":2970:3444   */\n      swap3\n      pop\n      swap3\n      swap1\n      pop\n      jump\t// out\n        /* \"#utility.yul\":3450:3540   */\n    tag_93:\n        /* \"#utility.yul\":3484:3491   */\n      0x00\n        /* \"#utility.yul\":3527:3532   */\n      dup2\n        /* \"#utility.yul\":3520:3533   */\n      iszero\n        /* \"#utility.yul\":3513:3534   */\n      iszero\n        /* \"#utility.yul\":3502:3534   */\n      swap1\n      pop\n        /* \"#utility.yul\":3450:3540   */\n      swap2\n      swap1\n      pop\n      jump\t// out\n        /* \"#utility.yul\":3546:3655   */\n    tag_94:\n        /* \"#utility.yul\":3627:3648   */\n      tag_156\n        /* \"#utility.yul\":3642:3647   */\n      dup2\n        /* \"#utility.yul\":3627:3648   */\n      tag_93\n      jump\t// in\n    tag_156:\n        /* \"#utility.yul\":3622:3625   */\n      dup3\n        /* \"#utility.yul\":3615:3649   */\n      mstore\n        /* \"#utility.yul\":3546:3655   */\n      pop\n      pop\n      jump\t// out\n        /* \"#utility.yul\":3661:3871   */\n    tag_41:\n        /* \"#utility.yul\":3748:3752   */\n      0x00\n        /* \"#utility.yul\":3786:3788   */\n      0x20\n        /* \"#utility.yul\":3775:3784   */\n      dup3\n        /* \"#utility.yul\":3771:3789   */\n      add\n        /* \"#utility.yul\":3763:3789   */\n      swap1\n      pop\n        /* \"#utility.yul\":3799:3864   */\n      tag_158\n        /* \"#utility.yul\":3861:3862   */\n      0x00\n        /* \"#utility.yul\":3850:3859   */\n      dup4\n        /* \"#utility.yul\":3846:3863   */\n      add\n        /* \"#utility.yul\":3837:3843   */\n      dup5\n        /* \"#utility.yul\":3799:3864   */\n      tag_94\n      jump\t// in\n    tag_158:\n        /* \"#utility.yul\":3661:3871   */\n      swap3\n      swap2\n      pop\n      pop\n      jump\t// out\n        /* \"#utility.yul\":3877:4057   */\n    tag_95:\n        /* \"#utility.yul\":3925:4002   */\n      0x4e487b7100000000000000000000000000000000000000000000000000000000\n        /* \"#utility.yul\":3922:3923   */\n      0x00\n        /* \"#utility.yul\":3915:4003   */\n      mstore\n        /* \"#utility.yul\":4022:4026   */\n      0x22\n        /* \"#utility.yul\":4019:4020   */\n      0x04\n        /* \"#utility.yul\":4012:4027   */\n      mstore\n        /* \"#utility.yul\":4046:4050   */\n      0x24\n        /* \"#utility.yul\":4043:4044   */\n      0x00\n        /* \"#utility.yul\":4036:4051   */\n      revert\n        /* \"#utility.yul\":4063:4383   */\n    tag_47:\n        /* \"#utility.yul\":4107:4113   */\n      0x00\n        /* \"#utility.yul\":4144:4145   */\n      0x02\n        /* \"#utility.yul\":4138:4142   */\n      dup3\n        /* \"#utility.yul\":4134:4146   */\n      div\n        /* \"#utility.yul\":4124:4146   */\n      swap1\n      pop\n        /* \"#utility.yul\":4191:4192   */\n      0x01\n        /* \"#utility.yul\":4185:4189   */\n      dup3\n        /* \"#utility.yul\":4181:4193   */\n      and\n        /* \"#utility.yul\":4212:4230   */\n      dup1\n        /* \"#utility.yul\":4202:4283   */\n      tag_161\n      jumpi\n        /* \"#utility.yul\":4268:4272   */\n      0x7f\n        /* \"#utility.yul\":4260:4266   */\n      dup3\n        /* \"#utility.yul\":4256:4273   */\n      and\n        /* \"#utility.yul\":4246:4273   */\n      swap2\n      pop\n        /* \"#utility.yul\":4202:4283   */\n    tag_161:\n        /* \"#utility.yul\":4330:4332   */\n      0x20\n        /* \"#utility.yul\":4322:4328   */\n      dup3\n        /* \"#utility.yul\":4319:4333   */\n      lt\n        /* \"#utility.yul\":4299:4317   */\n      dup2\n        /* \"#utility.yul\":4296:4334   */\n      sub\n        /* \"#utility.yul\":4293:4377   */\n      tag_162\n      jumpi\n        /* \"#utility.yul\":4349:4367   */\n      tag_163\n      tag_95\n      jump\t// in\n    tag_163:\n        /* \"#utility.yul\":4293:4377   */\n    tag_162:\n        /* \"#utility.yul\":4114:4383   */\n      pop\n        /* \"#utility.yul\":4063:4383   */\n      swap2\n      swap1\n      pop\n      jump\t// out\n        /* \"#utility.yul\":4389:4569   */\n    tag_96:\n        /* \"#utility.yul\":4437:4514   */\n      0x4e487b7100000000000000000000000000000000000000000000000000000000\n        /* \"#utility.yul\":4434:4435   */\n      0x00\n        /* \"#utility.yul\":4427:4515   */\n      mstore\n        /* \"#utility.yul\":4534:4538   */\n      0x41\n        /* \"#utility.yul\":4531:4532   */\n      0x04\n        /* \"#utility.yul\":4524:4539   */\n      mstore\n        /* \"#utility.yul\":4558:4562   */\n      0x24\n        /* \"#utility.yul\":4555:4556   */\n      0x00\n        /* \"#utility.yul\":4548:4563   */\n      revert\n        /* \"#utility.yul\":4575:4716   */\n    tag_97:\n        /* \"#utility.yul\":4624:4628   */\n      0x00\n        /* \"#utility.yul\":4647:4650   */\n      dup2\n        /* \"#utility.yul\":4639:4650   */\n      swap1\n      pop\n        /* \"#utility.yul\":4670:4673   */\n      dup2\n        /* \"#utility.yul\":4667:4668   */\n      0x00\n        /* \"#utility.yul\":4660:4674   */\n      mstore\n        /* \"#utility.yul\":4704:4708   */\n      0x20\n        /* \"#utility.yul\":4701:4702   */\n      0x00\n        /* \"#utility.yul\":4691:4709   */\n      keccak256\n        /* \"#utility.yul\":4683:4709   */\n      swap1\n      pop\n        /* \"#utility.yul\":4575:4716   */\n      swap2\n      swap1\n      pop\n      jump\t// out\n        /* \"#utility.yul\":4722:4815   */\n    tag_98:\n        /* \"#utility.yul\":4759:4765   */\n      0x00\n        /* \"#utility.yul\":4806:4808   */\n      0x20\n        /* \"#utility.yul\":4801:4803   */\n      0x1f\n        /* \"#utility.yul\":4794:4799   */\n      dup4\n        /* \"#utility.yul\":4790:4804   */\n      add\n        /* \"#utility.yul\":4786:4809   */\n      div\n        /* \"#utility.yul\":4776:4809   */\n      swap1\n      pop\n        /* \"#utility.yul\":4722:4815   */\n      swap2\n      swap1\n      pop\n      jump\t// out\n        /* \"#utility.yul\":4821:4928   */\n    tag_99:\n        /* \"#utility.yul\":4865:4873   */\n      0x00\n        /* \"#utility.yul\":4915:4920   */\n      dup3\n        /* \"#utility.yul\":4909:4913   */\n      dup3\n        /* \"#utility.yul\":4905:4921   */\n      shl\n        /* \"#utility.yul\":4884:4921   */\n      swap1\n      pop\n        /* \"#utility.yul\":4821:4928   */\n      swap3\n      swap2\n      pop\n      pop\n      jump\t// out\n        /* \"#utility.yul\":4934:5327   */\n    tag_100:\n        /* \"#utility.yul\":5003:5009   */\n      0x00\n        /* \"#utility.yul\":5053:5054   */\n      0x08\n        /* \"#utility.yul\":5041:5051   */\n      dup4\n        /* \"#utility.yul\":5037:5055   */\n      mul\n        /* \"#utility.yul\":5076:5173   */\n      tag_169\n        /* \"#utility.yul\":5106:5172   */\n      0xffffffffffffffffffffffffffffffffffffffffffffffffffffffffffffffff\n        /* \"#utility.yul\":5095:5104   */\n      dup3\n        /* \"#utility.yul\":5076:5173   */\n      tag_99\n      jump\t// in\n    tag_169:\n        /* \"#utility.yul\":5194:5233   */\n      tag_170\n        /* \"#utility.yul\":5224:5232   */\n      dup7\n        /* \"#utility.yul\":5213:5222   */\n      dup4\n        /* \"#utility.yul\":5194:5233   */\n      tag_99\n      jump\t// in\n    tag_170:\n        /* \"#utility.yul\":5182:5233   */\n      swap6\n      pop\n        /* \"#utility.yul\":5266:5270   */\n      dup1\n        /* \"#utility.yul\":5262:5271   */\n      not\n        /* \"#utility.yul\":5255:5260   */\n      dup5\n        /* \"#utility.yul\":5251:5272   */\n      and\n        /* \"#utility.yul\":5242:5272   */\n      swap4\n      pop\n        /* \"#utility.yul\":5315:5319   */\n      dup1\n        /* \"#utility.yul\":5305:5313   */\n      dup7\n        /* \"#utility.yul\":5301:5320   */\n      and\n        /* \"#utility.yul\":5294:5299   */\n      dup5\n        /* \"#utility.yul\":5291:5321   */\n      or\n        /* \"#utility.yul\":5281:5321   */\n      swap3\n      pop\n        /* \"#utility.yul\":5010:5327   */\n      pop\n      pop\n        /* \"#utility.yul\":4934:5327   */\n      swap4\n      swap3\n      pop\n      pop\n      pop\n      jump\t// out\n        /* \"#utility.yul\":5333:5393   */\n    tag_101:\n        /* \"#utility.yul\":5361:5364   */\n      0x00\n        /* \"#utility.yul\":5382:5387   */\n      dup2\n        /* \"#utility.yul\":5375:5387   */\n      swap1\n      pop\n        /* \"#utility.yul\":5333:5393   */\n      swap2\n      swap1\n      pop\n      jump\t// out\n        /* \"#utility.yul\":5399:5541   */\n    tag_102:\n        /* \"#utility.yul\":5449:5458   */\n      0x00\n        /* \"#utility.yul\":5482:5535   */\n      tag_173\n        /* \"#utility.yul\":5500:5534   */\n      tag_174\n        /* \"#utility.yul\":5509:5533   */\n      tag_175\n        /* \"#utility.yul\":5527:5532   */\n      dup5\n        /* \"#utility.yul\":5509:5533   */\n      tag_86\n      jump\t// in\n    tag_175:\n        /* \"#utility.yul\":5500:5534   */\n      tag_101\n      jump\t// in\n    tag_174:\n        /* \"#utility.yul\":5482:5535   */\n      tag_86\n      jump\t// in\n    tag_173:\n        /* \"#utility.yul\":5469:5535   */\n      swap1\n      pop\n        /* \"#utility.yul\":5399:5541   */\n      swap2\n      swap1\n      pop\n      jump\t// out\n        /* \"#utility.yul\":5547:5622   */\n    tag_103:\n        /* \"#utility.yul\":5590:5593   */\n      0x00\n        /* \"#utility.yul\":5611:5616   */\n      dup2\n        /* \"#utility.yul\":5604:5616   */\n      swap1\n      pop\n        /* \"#utility.yul\":5547:5622   */\n      swap2\n      swap1\n      pop\n      jump\t// out\n        /* \"#utility.yul\":5628:5897   */\n    tag_104:\n        /* \"#utility.yul\":5738:5777   */\n      tag_178\n        /* \"#utility.yul\":5769:5776   */\n      dup4\n        /* \"#utility.yul\":5738:5777   */\n      tag_102\n      jump\t// in\n    tag_178:\n        /* \"#utility.yul\":5799:5890   */\n      tag_179\n        /* \"#utility.yul\":5848:5889   */\n      tag_180\n        /* \"#utility.yul\":5872:5888   */\n      dup3\n        /* \"#utility.yul\":5848:5889   */\n      tag_103\n      jump\t// in\n    tag_180:\n        /* \"#utility.yul\":5840:5846   */\n      dup5\n        /* \"#utility.yul\":5833:5837   */\n      dup5\n        /* \"#utility.yul\":5827:5838   */\n      sload\n        /* \"#utility.yul\":5799:5890   */\n      tag_100\n      jump\t// in\n    tag_179:\n        /* \"#utility.yul\":5793:5797   */\n      dup3\n        /* \"#utility.yul\":5786:5891   */\n      sstore\n        /* \"#utility.yul\":5704:5897   */\n      pop\n        /* \"#utility.yul\":5628:5897   */\n      pop\n      pop\n      pop\n      jump\t// out\n        /* \"#utility.yul\":5903:5976   */\n    tag_105:\n        /* \"#utility.yul\":5948:5951   */\n      0x00\n        /* \"#utility.yul\":5903:5976   */\n      swap1\n      jump\t// out\n        /* \"#utility.yul\":5982:6171   */\n    tag_106:\n        /* \"#utility.yul\":6059:6091   */\n      tag_183\n      tag_105\n      jump\t// in\n    tag_183:\n        /* \"#utility.yul\":6100:6165   */\n      tag_184\n        /* \"#utility.yul\":6158:6164   */\n      dup2\n        /* \"#utility.yul\":6150:6156   */\n      dup5\n        /* \"#utility.yul\":6144:6148   */\n      dup5\n        /* \"#utility.yul\":6100:6165   */\n      tag_104\n      jump\t// in\n    tag_184:\n        /* \"#utility.yul\":6035:6171   */\n      pop\n        /* \"#utility.yul\":5982:6171   */\n      pop\n      pop\n      jump\t// out\n        /* \"#utility.yul\":6177:6363   */\n    tag_107:\n        /* \"#utility.yul\":6237:6357   */\n    tag_186:\n        /* \"#utility.yul\":6254:6257   */\n      dup2\n        /* \"#utility.yul\":6247:6252   */\n      dup2\n        /* \"#utility.yul\":6244:6258   */\n      lt\n        /* \"#utility.yul\":6237:6357   */\n      iszero\n      tag_188\n      jumpi\n        /* \"#utility.yul\":6308:6347   */\n      tag_189\n        /* \"#utility.yul\":6345:6346   */\n      0x00\n        /* \"#utility.yul\":6338:6343   */\n      dup3\n        /* \"#utility.yul\":6308:6347   */\n      tag_106\n      jump\t// in\n    tag_189:\n        /* \"#utility.yul\":6281:6282   */\n      0x01\n        /* \"#utility.yul\":6274:6279   */\n      dup2\n        /* \"#utility.yul\":6270:6283   */\n      add\n        /* \"#utility.yul\":6261:6283   */\n      swap1\n      pop\n        /* \"#utility.yul\":6237:6357   */\n      jump(tag_186)\n    tag_188:\n        /* \"#utility.yul\":6177:6363   */\n      pop\n      pop\n      jump\t// out\n        /* \"#utility.yul\":6369:6912   */\n    tag_108:\n        /* \"#utility.yul\":6470:6472   */\n      0x1f\n        /* \"#utility.yul\":6465:6468   */\n      dup3\n        /* \"#utility.yul\":6462:6473   */\n      gt\n        /* \"#utility.yul\":6459:6905   */\n      iszero\n      tag_191\n      jumpi\n        /* \"#utility.yul\":6504:6542   */\n      tag_192\n        /* \"#utility.yul\":6536:6541   */\n      dup2\n        /* \"#utility.yul\":6504:6542   */\n      tag_97\n      jump\t// in\n    tag_192:\n        /* \"#utility.yul\":6588:6617   */\n      tag_193\n        /* \"#utility.yul\":6606:6616   */\n      dup5\n        /* \"#utility.yul\":6588:6617   */\n      tag_98\n      jump\t// in\n    tag_193:\n        /* \"#utility.yul\":6578:6586   */\n      dup2\n        /* \"#utility.yul\":6574:6618   */\n      add\n        /* \"#utility.yul\":6771:6773   */\n      0x20\n        /* \"#utility.yul\":6759:6769   */\n      dup6\n        /* \"#utility.yul\":6756:6774   */\n      lt\n        /* \"#utility.yul\":6753:6802   */\n      iszero\n      tag_194\n      jumpi\n        /* \"#utility.yul\":6792:6800   */\n      dup2\n        /* \"#utility.yul\":6777:6800   */\n      swap1\n      pop\n        /* \"#utility.yul\":6753:6802   */\n    tag_194:\n        /* \"#utility.yul\":6815:6895   */\n      tag_195\n        /* \"#utility.yul\":6871:6893   */\n      tag_196\n        /* \"#utility.yul\":6889:6892   */\n      dup6\n        /* \"#utility.yul\":6871:6893   */\n      tag_98\n      jump\t// in\n    tag_196:\n        /* \"#utility.yul\":6861:6869   */\n      dup4\n        /* \"#utility.yul\":6857:6894   */\n      add\n        /* \"#utility.yul\":6844:6855   */\n      dup3\n        /* \"#utility.yul\":6815:6895   */\n      tag_107\n      jump\t// in\n    tag_195:\n        /* \"#utility.yul\":6474:6905   */\n      pop\n      pop\n        /* \"#utility.yul\":6459:6905   */\n    tag_191:\n        /* \"#utility.yul\":6369:6912   */\n      pop\n      pop\n      pop\n      jump\t// out\n        /* \"#utility.yul\":6918:7035   */\n    tag_109:\n        /* \"#utility.yul\":6972:6980   */\n      0x00\n        /* \"#utility.yul\":7022:7027   */\n      dup3\n        /* \"#utility.yul\":7016:7020   */\n      dup3\n        /* \"#utility.yul\":7012:7028   */\n      shr\n        /* \"#utility.yul\":6991:7028   */\n      swap1\n      pop\n        /* \"#utility.yul\":6918:7035   */\n      swap3\n      swap2\n      pop\n      pop\n      jump\t// out\n        /* \"#utility.yul\":7041:7210   */\n    tag_110:\n        /* \"#utility.yul\":7085:7091   */\n      0x00\n        /* \"#utility.yul\":7118:7169   */\n      tag_199\n        /* \"#utility.yul\":7166:7167   */\n      0x00\n        /* \"#utility.yul\":7162:7168   */\n      not\n        /* \"#utility.yul\":7154:7159   */\n      dup5\n        /* \"#utility.yul\":7151:7152   */\n      0x08\n        /* \"#utility.yul\":7147:7160   */\n      mul\n        /* \"#utility.yul\":7118:7169   */\n      tag_109\n      jump\t// in\n    tag_199:\n        /* \"#utility.yul\":7114:7170   */\n      not\n        /* \"#utility.yul\":7199:7203   */\n      dup1\n        /* \"#utility.yul\":7193:7197   */\n      dup4\n        /* \"#utility.yul\":7189:7204   */\n      and\n        /* \"#utility.yul\":7179:7204   */\n      swap2\n      pop\n        /* \"#utility.yul\":7092:7210   */\n      pop\n        /* \"#utility.yul\":7041:7210   */\n      swap3\n      swap2\n      pop\n      pop\n      jump\t// out\n        /* \"#utility.yul\":7215:7510   */\n    tag_111:\n        /* \"#utility.yul\":7291:7295   */\n      0x00\n        /* \"#utility.yul\":7437:7466   */\n      tag_201\n        /* \"#utility.yul\":7462:7465   */\n      dup4\n        /* \"#utility.yul\":7456:7460   */\n      dup4\n        /* \"#utility.yul\":7437:7466   */\n      tag_110\n      jump\t// in\n    tag_201:\n        /* \"#utility.yul\":7429:7466   */\n      swap2\n      pop\n        /* \"#utility.yul\":7499:7502   */\n      dup3\n        /* \"#utility.yul\":7496:7497   */\n      0x02\n        /* \"#utility.yul\":7492:7503   */\n      mul\n        /* \"#utility.yul\":7486:7490   */\n      dup3\n        /* \"#utility.yul\":7483:7504   */\n      or\n        /* \"#utility.yul\":7475:7504   */\n      swap1\n      pop\n        /* \"#utility.yul\":7215:7510   */\n      swap3\n      swap2\n      pop\n      pop\n      jump\t// out\n        /* \"#utility.yul\":7515:8910   */\n    tag_59:\n        /* \"#utility.yul\":7632:7669   */\n      tag_203\n        /* \"#utility.yul\":7665:7668   */\n      dup3\n        /* \"#utility.yul\":7632:7669   */\n      tag_78\n      jump\t// in\n    tag_203:\n        /* \"#utility.yul\":7734:7752   */\n      0xffffffffffffffff\n        /* \"#utility.yul\":7726:7732   */\n      dup2\n        /* \"#utility.yul\":7723:7753   */\n      gt\n        /* \"#utility.yul\":7720:7776   */\n      iszero\n      tag_204\n      jumpi\n        /* \"#utility.yul\":7756:7774   */\n      tag_205\n      tag_96\n      jump\t// in\n    tag_205:\n        /* \"#utility.yul\":7720:7776   */\n    tag_204:\n        /* \"#utility.yul\":7800:7838   */\n      tag_206\n        /* \"#utility.yul\":7832:7836   */\n      dup3\n        /* \"#utility.yul\":7826:7837   */\n      sload\n        /* \"#utility.yul\":7800:7838   */\n      tag_47\n      jump\t// in\n    tag_206:\n        /* \"#utility.yul\":7885:7952   */\n      tag_207\n        /* \"#utility.yul\":7945:7951   */\n      dup3\n        /* \"#utility.yul\":7937:7943   */\n      dup3\n        /* \"#utility.yul\":7931:7935   */\n      dup6\n        /* \"#utility.yul\":7885:7952   */\n      tag_108\n      jump\t// in\n    tag_207:\n        /* \"#utility.yul\":7979:7980   */\n      0x00\n        /* \"#utility.yul\":8003:8007   */\n      0x20\n        /* \"#utility.yul\":7990:8007   */\n      swap1\n      pop\n        /* \"#utility.yul\":8035:8037   */\n      0x1f\n        /* \"#utility.yul\":8027:8033   */\n      dup4\n        /* \"#utility.yul\":8024:8038   */\n      gt\n        /* \"#utility.yul\":8052:8053   */\n      0x01\n        /* \"#utility.yul\":8047:8665   */\n      dup2\n      eq\n      tag_209\n      jumpi\n        /* \"#utility.yul\":8709:8710   */\n      0x00\n        /* \"#utility.yul\":8726:8732   */\n      dup5\n        /* \"#utility.yul\":8723:8800   */\n      iszero\n      tag_210\n      jumpi\n        /* \"#utility.yul\":8775:8784   */\n      dup3\n        /* \"#utility.yul\":8770:8773   */\n      dup8\n        /* \"#utility.yul\":8766:8785   */\n      add\n        /* \"#utility.yul\":8760:8786   */\n      mload\n        /* \"#utility.yul\":8751:8786   */\n      swap1\n      pop\n        /* \"#utility.yul\":8723:8800   */\n    tag_210:\n        /* \"#utility.yul\":8826:8893   */\n      tag_211\n        /* \"#utility.yul\":8886:8892   */\n      dup6\n        /* \"#utility.yul\":8879:8884   */\n      dup3\n        /* \"#utility.yul\":8826:8893   */\n      tag_111\n      jump\t// in\n    tag_211:\n        /* \"#utility.yul\":8820:8824   */\n      dup7\n        /* \"#utility.yul\":8813:8894   */\n      sstore\n        /* \"#utility.yul\":8682:8904   */\n      pop\n        /* \"#utility.yul\":8017:8904   */\n      jump(tag_208)\n        /* \"#utility.yul\":8047:8665   */\n    tag_209:\n        /* \"#utility.yul\":8099:8103   */\n      0x1f\n        /* \"#utility.yul\":8095:8104   */\n      not\n        /* \"#utility.yul\":8087:8093   */\n      dup5\n        /* \"#utility.yul\":8083:8105   */\n      and\n        /* \"#utility.yul\":8133:8170   */\n      tag_212\n        /* \"#utility.yul\":8165:8169   */\n      dup7\n        /* \"#utility.yul\":8133:8170   */\n      tag_97\n      jump\t// in\n    tag_212:\n        /* \"#utility.yul\":8192:8193   */\n      0x00\n        /* \"#utility.yul\":8206:8414   */\n    tag_213:\n        /* \"#utility.yul\":8220:8227   */\n      dup3\n        /* \"#utility.yul\":8217:8218   */\n      dup2\n        /* \"#utility.yul\":8214:8228   */\n      lt\n        /* \"#utility.yul\":8206:8414   */\n      iszero\n      tag_215\n      jumpi\n        /* \"#utility.yul\":8299:8308   */\n      dup5\n        /* \"#utility.yul\":8294:8297   */\n      dup10\n        /* \"#utility.yul\":8290:8309   */\n      add\n        /* \"#utility.yul\":8284:8310   */\n      mload\n        /* \"#utility.yul\":8276:8282   */\n      dup3\n        /* \"#utility.yul\":8269:8311   */\n      sstore\n        /* \"#utility.yul\":8350:8351   */\n      0x01\n        /* \"#utility.yul\":8342:8348   */\n      dup3\n        /* \"#utility.yul\":8338:8352   */\n      add\n        /* \"#utility.yul\":8328:8352   */\n      swap2\n      pop\n        /* \"#utility.yul\":8397:8399   */\n      0x20\n        /* \"#utility.yul\":8386:8395   */\n      dup6\n        /* \"#utility.yul\":8382:8400   */\n      add\n        /* \"#utility.yul\":8369:8400   */\n      swap5\n      pop\n        /* \"#utility.yul\":8243:8247   */\n      0x20\n        /* \"#utility.yul\":8240:8241   */\n      dup2\n        /* \"#utility.yul\":8236:8248   */\n      add\n        /* \"#utility.yul\":8231:8248   */\n      swap1\n      pop\n        /* \"#utility.yul\":8206:8414   */\n      jump(tag_213)\n    tag_215:\n        /* \"#utility.yul\":8442:8448   */\n      dup7\n        /* \"#utility.yul\":8433:8440   */\n      dup4\n        /* \"#utility.yul\":8430:8449   */\n      lt\n        /* \"#utility.yul\":8427:8606   */\n      iszero\n      tag_216\n      jumpi\n        /* \"#utility.yul\":8500:8509   */\n      dup5\n        /* \"#utility.yul\":8495:8498   */\n      dup10\n        /* \"#utility.yul\":8491:8510   */\n      add\n        /* \"#utility.yul\":8485:8511   */\n      mload\n        /* \"#utility.yul\":8543:8591   */\n      tag_217\n        /* \"#utility.yul\":8585:8589   */\n      0x1f\n        /* \"#utility.yul\":8577:8583   */\n      dup10\n        /* \"#utility.yul\":8573:8590   */\n      and\n        /* \"#utility.yul\":8562:8571   */\n      dup3\n        /* \"#utility.yul\":8543:8591   */\n      tag_110\n      jump\t// in\n    tag_217:\n        /* \"#utility.yul\":8535:8541   */\n      dup4\n        /* \"#utility.yul\":8528:8592   */\n      sstore\n        /* \"#utility.yul\":8450:8606   */\n      pop\n        /* \"#utility.yul\":8427:8606   */\n    tag_216:\n        /* \"#utility.yul\":8652:8653   */\n      0x01\n        /* \"#utility.yul\":8648:8649   */\n      0x02\n        /* \"#utility.yul\":8640:8646   */\n      dup9\n        /* \"#utility.yul\":8636:8650   */\n      mul\n        /* \"#utility.yul\":8632:8654   */\n      add\n        /* \"#utility.yul\":8626:8630   */\n      dup9\n        /* \"#utility.yul\":8619:8655   */\n      sstore\n        /* \"#utility.yul\":8054:8665   */\n      pop\n      pop\n      pop\n        /* \"#utility.yul\":8017:8904   */\n    tag_208:\n      pop\n        /* \"#utility.yul\":7607:8910   */\n      pop\n      pop\n      pop\n        /* \"#utility.yul\":7515:8910   */\n      pop\n      pop\n      jump\t// out\n        /* \"#utility.yul\":8916:9096   */\n    tag_112:\n        /* \"#utility.yul\":8964:9041   */\n      0x4e487b7100000000000000000000000000000000000000000000000000000000\n        /* \"#utility.yul\":8961:8962   */\n      0x00\n        /* \"#utility.yul\":8954:9042   */\n      mstore\n        /* \"#utility.yul\":9061:9065   */\n      0x11\n        /* \"#utility.yul\":9058:9059   */\n      0x04\n        /* \"#utility.yul\":9051:9066   */\n      mstore\n        /* \"#utility.yul\":9085:9089   */\n      0x24\n        /* \"#utility.yul\":9082:9083   */\n      0x00\n        /* \"#utility.yul\":9075:9090   */\n      revert\n        /* \"#utility.yul\":9102:9512   */\n    tag_71:\n        /* \"#utility.yul\":9142:9149   */\n      0x00\n        /* \"#utility.yul\":9165:9185   */\n      tag_220\n        /* \"#utility.yul\":9183:9184   */\n      dup3\n        /* \"#utility.yul\":9165:9185   */\n      tag_86\n      jump\t// in\n    tag_220:\n        /* \"#utility.yul\":9160:9185   */\n      swap2\n      pop\n        /* \"#utility.yul\":9199:9219   */\n      tag_221\n        /* \"#utility.yul\":9217:9218   */\n      dup4\n        /* \"#utility.yul\":9199:9219   */\n      tag_86\n      jump\t// in\n    tag_221:\n        /* \"#utility.yul\":9194:9219   */\n      swap3\n      pop\n        /* \"#utility.yul\":9254:9255   */\n      dup3\n        /* \"#utility.yul\":9251:9252   */\n      dup3\n        /* \"#utility.yul\":9247:9256   */\n      mul\n        /* \"#utility.yul\":9276:9306   */\n      tag_222\n        /* \"#utility.yul\":9294:9305   */\n      dup2\n        /* \"#utility.yul\":9276:9306   */\n      tag_86\n      jump\t// in\n    tag_222:\n        /* \"#utility.yul\":9265:9306   */\n      swap2\n      pop\n        /* \"#utility.yul\":9455:9456   */\n      dup3\n        /* \"#utility.yul\":9446:9453   */\n      dup3\n        /* \"#utility.yul\":9442:9457   */\n      div\n        /* \"#utility.yul\":9439:9440   */\n      dup5\n        /* \"#utility.yul\":9436:9458   */\n      eq\n        /* \"#utility.yul\":9416:9417   */\n      dup4\n        /* \"#utility.yul\":9409:9418   */\n      iszero\n        /* \"#utility.yul\":9389:9472   */\n      or\n        /* \"#utility.yul\":9366:9505   */\n      tag_223\n      jumpi\n        /* \"#utility.yul\":9485:9503   */\n      tag_224\n      tag_112\n      jump\t// in\n    tag_224:\n        /* \"#utility.yul\":9366:9505   */\n    tag_223:\n        /* \"#utility.yul\":9150:9512   */\n      pop\n        /* \"#utility.yul\":9102:9512   */\n      swap3\n      swap2\n      pop\n      pop\n      jump\t// out\n        /* \"#utility.yul\":9518:9698   */\n    tag_113:\n        /* \"#utility.yul\":9566:9643   */\n      0x4e487b7100000000000000000000000000000000000000000000000000000000\n        /* \"#utility.yul\":9563:9564   */\n      0x00\n        /* \"#utility.yul\":9556:9644   */\n      mstore\n        /* \"#utility.yul\":9663:9667   */\n      0x12\n        /* \"#utility.yul\":9660:9661   */\n      0x04\n        /* \"#utility.yul\":9653:9668   */\n      mstore\n        /* \"#utility.yul\":9687:9691   */\n      0x24\n        /* \"#utility.yul\":9684:9685   */\n      0x00\n        /* \"#utility.yul\":9677:9692   */\n      revert\n        /* \"#utility.yul\":9704:9889   */\n    tag_73:\n        /* \"#utility.yul\":9744:9745   */\n      0x00\n        /* \"#utility.yul\":9761:9781   */\n      tag_227\n        /* \"#utility.yul\":9779:9780   */\n      dup3\n        /* \"#utility.yul\":9761:9781   */\n      tag_86\n      jump\t// in\n    tag_227:\n        /* \"#utility.yul\":9756:9781   */\n      swap2\n      pop\n        /* \"#utility.yul\":9795:9815   */\n      tag_228\n        /* \"#utility.yul\":9813:9814   */\n      dup4\n        /* \"#utility.yul\":9795:9815   */\n      tag_86\n      jump\t// in\n    tag_228:\n        /* \"#utility.yul\":9790:9815   */\n      swap3\n      pop\n        /* \"#utility.yul\":9834:9835   */\n      dup3\n        /* \"#utility.yul\":9824:9859   */\n      tag_229\n      jumpi\n        /* \"#utility.yul\":9839:9857   */\n      tag_230\n      tag_113\n      jump\t// in\n    tag_230:\n        /* \"#utility.yul\":9824:9859   */\n    tag_229:\n        /* \"#utility.yul\":9881:9882   */\n      dup3\n        /* \"#utility.yul\":9878:9879   */\n      dup3\n        /* \"#utility.yul\":9874:9883   */\n      div\n        /* \"#utility.yul\":9869:9883   */\n      swap1\n      pop\n        /* \"#utility.yul\":9704:9889   */\n      swap3\n      swap2\n      pop\n      pop\n      jump\t// out\n        /* \"#utility.yul\":9895:10086   */\n    tag_75:\n        /* \"#utility.yul\":9935:9938   */\n      0x00\n        /* \"#utility.yul\":9954:9974   */\n      tag_232\n        /* \"#utility.yul\":9972:9973   */\n      dup3\n        /* \"#utility.yul\":9954:9974   */\n      tag_86\n      jump\t// in\n    tag_232:\n        /* \"#utility.yul\":9949:9974   */\n      swap2\n      pop\n        /* \"#utility.yul\":9988:10008   */\n      tag_233\n        /* \"#utility.yul\":10006:10007   */\n      dup4\n        /* \"#utility.yul\":9988:10008   */\n      tag_86\n      jump\t// in\n    tag_233:\n        /* \"#utility.yul\":9983:10008   */\n      swap3\n      pop\n        /* \"#utility.yul\":10031:10032   */\n      dup3\n        /* \"#utility.yul\":10028:10029   */\n      dup3\n        /* \"#utility.yul\":10024:10033   */\n      add\n        /* \"#utility.yul\":10017:10033   */\n      swap1\n      pop\n        /* \"#utility.yul\":10052:10055   */\n      dup1\n        /* \"#utility.yul\":10049:10050   */\n      dup3\n        /* \"#utility.yul\":10046:10056   */\n      gt\n        /* \"#utility.yul\":10043:10079   */\n      iszero\n      tag_234\n      jumpi\n        /* \"#utility.yul\":10059:10077   */\n      tag_235\n      tag_112\n      jump\t// in\n    tag_235:\n        /* \"#utility.yul\":10043:10079   */\n    tag_234:\n        /* \"#utility.yul\":9895:10086   */\n      swap3\n      swap2\n      pop\n      pop\n      jump\t// out\n    stop\n    data_7230e4cc6007c3786bb54942f04168caf6e059a9fba0f40e617e9fac5d6fe66d 57652063757272656e746c7920646f206e6f74206861766520656e6f756768204554482c20636865636b20616761696e206c617465722e\n\n    auxdata: 0xa264697066735822122010b69018a5123326c18db5b61ad93f0537fc0c56ed336d51116985825db261bd64736f6c63430008130033\n}\n",
				"bytecode": {
					"linkReferences": {},
					"object": "608060405234801561001057600080fd5b50610ab9806100206000396000f3fe608060405234801561001057600080fd5b50600436106100935760003560e01c80637c3a00fd116100665780637c3a00fd146100fc5780639d585f7f1461011a578063aa452fa614610138578063c2037eec14610168578063f5521bf11461018657610093565b8063068b554e14610098578063074ca966146100b657806369d89575146100d45780637ba61ea5146100de575b600080fd5b6100a06101a4565b6040516100ad91906104e1565b60405180910390f35b6100be610236565b6040516100cb91906104e1565b60405180910390f35b6100dc6102c4565b005b6100e661030b565b6040516100f39190610544565b60405180910390f35b61010461032f565b6040516101119190610578565b60405180910390f35b610122610335565b60405161012f9190610578565b60405180910390f35b610152600480360381019061014d91906105c4565b61033b565b60405161015f91906104e1565b60405180910390f35b6101706103d6565b60405161017d919061061f565b60405180910390f35b61018e6103df565b60405161019b9190610578565b60405180910390f35b6060600480546101b390610669565b80601f01602080910402602001604051908101604052809291908181526020018280546101df90610669565b801561022c5780601f106102015761010080835404028352916020019161022c565b820191906000526020600020905b81548152906001019060200180831161020f57829003601f168201915b5050505050905090565b6004805461024390610669565b80601f016020809104026020016040519081016040528092919081815260200182805461026f90610669565b80156102bc5780601f10610291576101008083540402835291602001916102bc565b820191906000526020600020905b81548152906001019060200180831161029f57829003601f168201915b505050505081565b6040518060400160405280600e81526020017f66756e64732072656c6561736564000000000000000000000000000000000000815250600490816103089190610875565b50565b60008054906101000a900473ffffffffffffffffffffffffffffffffffffffff1681565b60025481565b60015481565b60606001544711156103af5761035182846103e5565b60028190555082600181905550816003819055506040518060400160405280600781526020017f70656e64696e6700000000000000000000000000000000000000000000000000815250600490816103a99190610875565b506103cf565b604051806060016040528060378152602001610a4d6037913990506103d0565b5b92915050565b60006001905090565b60035481565b600080601e84106103fd57600560028190555061041d565b601e60058561040c9190610976565b61041691906109e7565b6002819055505b6064600254606461042e9190610a18565b846104399190610976565b61044391906109e7565b905060025491505092915050565b600081519050919050565b600082825260208201905092915050565b60005b8381101561048b578082015181840152602081019050610470565b60008484015250505050565b6000601f19601f8301169050919050565b60006104b382610451565b6104bd818561045c565b93506104cd81856020860161046d565b6104d681610497565b840191505092915050565b600060208201905081810360008301526104fb81846104a8565b905092915050565b600073ffffffffffffffffffffffffffffffffffffffff82169050919050565b600061052e82610503565b9050919050565b61053e81610523565b82525050565b60006020820190506105596000830184610535565b92915050565b6000819050919050565b6105728161055f565b82525050565b600060208201905061058d6000830184610569565b92915050565b600080fd5b6105a18161055f565b81146105ac57600080fd5b50565b6000813590506105be81610598565b92915050565b600080604083850312156105db576105da610593565b5b60006105e9858286016105af565b92505060206105fa858286016105af565b9150509250929050565b60008115159050919050565b61061981610604565b82525050565b60006020820190506106346000830184610610565b92915050565b7f4e487b7100000000000000000000000000000000000000000000000000000000600052602260045260246000fd5b6000600282049050600182168061068157607f821691505b6020821081036106945761069361063a565b5b50919050565b7f4e487b7100000000000000000000000000000000000000000000000000000000600052604160045260246000fd5b60008190508160005260206000209050919050565b60006020601f8301049050919050565b600082821b905092915050565b60006008830261072b7fffffffffffffffffffffffffffffffffffffffffffffffffffffffffffffffff826106ee565b61073586836106ee565b95508019841693508086168417925050509392505050565b6000819050919050565b600061077261076d6107688461055f565b61074d565b61055f565b9050919050565b6000819050919050565b61078c83610757565b6107a061079882610779565b8484546106fb565b825550505050565b600090565b6107b56107a8565b6107c0818484610783565b505050565b5b818110156107e4576107d96000826107ad565b6001810190506107c6565b5050565b601f821115610829576107fa816106c9565b610803846106de565b81016020851015610812578190505b61082661081e856106de565b8301826107c5565b50505b505050565b600082821c905092915050565b600061084c6000198460080261082e565b1980831691505092915050565b6000610865838361083b565b9150826002028217905092915050565b61087e82610451565b67ffffffffffffffff8111156108975761089661069a565b5b6108a18254610669565b6108ac8282856107e8565b600060209050601f8311600181146108df57600084156108cd578287015190505b6108d78582610859565b86555061093f565b601f1984166108ed866106c9565b60005b82811015610915578489015182556001820191506020850194506020810190506108f0565b86831015610932578489015161092e601f89168261083b565b8355505b6001600288020188555050505b505050505050565b7f4e487b7100000000000000000000000000000000000000000000000000000000600052601160045260246000fd5b60006109818261055f565b915061098c8361055f565b925082820261099a8161055f565b915082820484148315176109b1576109b0610947565b5b5092915050565b7f4e487b7100000000000000000000000000000000000000000000000000000000600052601260045260246000fd5b60006109f28261055f565b91506109fd8361055f565b925082610a0d57610a0c6109b8565b5b828204905092915050565b6000610a238261055f565b9150610a2e8361055f565b9250828201905080821115610a4657610a45610947565b5b9291505056fe57652063757272656e746c7920646f206e6f74206861766520656e6f756768204554482c20636865636b20616761696e206c617465722ea264697066735822122010b69018a5123326c18db5b61ad93f0537fc0c56ed336d51116985825db261bd64736f6c63430008130033",
					"opcodes": "PUSH1 0x80 PUSH1 0x40 MSTORE CALLVALUE DUP1 ISZERO PUSH2 0x10 JUMPI PUSH1 0x0 DUP1 REVERT JUMPDEST POP PUSH2 0xAB9 DUP1 PUSH2 0x20 PUSH1 0x0 CODECOPY PUSH1 0x0 RETURN INVALID PUSH1 0x80 PUSH1 0x40 MSTORE CALLVALUE DUP1 ISZERO PUSH2 0x10 JUMPI PUSH1 0x0 DUP1 REVERT JUMPDEST POP PUSH1 0x4 CALLDATASIZE LT PUSH2 0x93 JUMPI PUSH1 0x0 CALLDATALOAD PUSH1 0xE0 SHR DUP1 PUSH4 0x7C3A00FD GT PUSH2 0x66 JUMPI DUP1 PUSH4 0x7C3A00FD EQ PUSH2 0xFC JUMPI DUP1 PUSH4 0x9D585F7F EQ PUSH2 0x11A JUMPI DUP1 PUSH4 0xAA452FA6 EQ PUSH2 0x138 JUMPI DUP1 PUSH4 0xC2037EEC EQ PUSH2 0x168 JUMPI DUP1 PUSH4 0xF5521BF1 EQ PUSH2 0x186 JUMPI PUSH2 0x93 JUMP JUMPDEST DUP1 PUSH4 0x68B554E EQ PUSH2 0x98 JUMPI DUP1 PUSH4 0x74CA966 EQ PUSH2 0xB6 JUMPI DUP1 PUSH4 0x69D89575 EQ PUSH2 0xD4 JUMPI DUP1 PUSH4 0x7BA61EA5 EQ PUSH2 0xDE JUMPI JUMPDEST PUSH1 0x0 DUP1 REVERT JUMPDEST PUSH2 0xA0 PUSH2 0x1A4 JUMP JUMPDEST PUSH1 0x40 MLOAD PUSH2 0xAD SWAP2 SWAP1 PUSH2 0x4E1 JUMP JUMPDEST PUSH1 0x40 MLOAD DUP1 SWAP2 SUB SWAP1 RETURN JUMPDEST PUSH2 0xBE PUSH2 0x236 JUMP JUMPDEST PUSH1 0x40 MLOAD PUSH2 0xCB SWAP2 SWAP1 PUSH2 0x4E1 JUMP JUMPDEST PUSH1 0x40 MLOAD DUP1 SWAP2 SUB SWAP1 RETURN JUMPDEST PUSH2 0xDC PUSH2 0x2C4 JUMP JUMPDEST STOP JUMPDEST PUSH2 0xE6 PUSH2 0x30B JUMP JUMPDEST PUSH1 0x40 MLOAD PUSH2 0xF3 SWAP2 SWAP1 PUSH2 0x544 JUMP JUMPDEST PUSH1 0x40 MLOAD DUP1 SWAP2 SUB SWAP1 RETURN JUMPDEST PUSH2 0x104 PUSH2 0x32F JUMP JUMPDEST PUSH1 0x40 MLOAD PUSH2 0x111 SWAP2 SWAP1 PUSH2 0x578 JUMP JUMPDEST PUSH1 0x40 MLOAD DUP1 SWAP2 SUB SWAP1 RETURN JUMPDEST PUSH2 0x122 PUSH2 0x335 JUMP JUMPDEST PUSH1 0x40 MLOAD PUSH2 0x12F SWAP2 SWAP1 PUSH2 0x578 JUMP JUMPDEST PUSH1 0x40 MLOAD DUP1 SWAP2 SUB SWAP1 RETURN JUMPDEST PUSH2 0x152 PUSH1 0x4 DUP1 CALLDATASIZE SUB DUP2 ADD SWAP1 PUSH2 0x14D SWAP2 SWAP1 PUSH2 0x5C4 JUMP JUMPDEST PUSH2 0x33B JUMP JUMPDEST PUSH1 0x40 MLOAD PUSH2 0x15F SWAP2 SWAP1 PUSH2 0x4E1 JUMP JUMPDEST PUSH1 0x40 MLOAD DUP1 SWAP2 SUB SWAP1 RETURN JUMPDEST PUSH2 0x170 PUSH2 0x3D6 JUMP JUMPDEST PUSH1 0x40 MLOAD PUSH2 0x17D SWAP2 SWAP1 PUSH2 0x61F JUMP JUMPDEST PUSH1 0x40 MLOAD DUP1 SWAP2 SUB SWAP1 RETURN JUMPDEST PUSH2 0x18E PUSH2 0x3DF JUMP JUMPDEST PUSH1 0x40 MLOAD PUSH2 0x19B SWAP2 SWAP1 PUSH2 0x578 JUMP JUMPDEST PUSH1 0x40 MLOAD DUP1 SWAP2 SUB SWAP1 RETURN JUMPDEST PUSH1 0x60 PUSH1 0x4 DUP1 SLOAD PUSH2 0x1B3 SWAP1 PUSH2 0x669 JUMP JUMPDEST DUP1 PUSH1 0x1F ADD PUSH1 0x20 DUP1 SWAP2 DIV MUL PUSH1 0x20 ADD PUSH1 0x40 MLOAD SWAP1 DUP2 ADD PUSH1 0x40 MSTORE DUP1 SWAP3 SWAP2 SWAP1 DUP2 DUP2 MSTORE PUSH1 0x20 ADD DUP3 DUP1 SLOAD PUSH2 0x1DF SWAP1 PUSH2 0x669 JUMP JUMPDEST DUP1 ISZERO PUSH2 0x22C JUMPI DUP1 PUSH1 0x1F LT PUSH2 0x201 JUMPI PUSH2 0x100 DUP1 DUP4 SLOAD DIV MUL DUP4 MSTORE SWAP2 PUSH1 0x20 ADD SWAP2 PUSH2 0x22C JUMP JUMPDEST DUP3 ADD SWAP2 SWAP1 PUSH1 0x0 MSTORE PUSH1 0x20 PUSH1 0x0 KECCAK256 SWAP1 JUMPDEST DUP2 SLOAD DUP2 MSTORE SWAP1 PUSH1 0x1 ADD SWAP1 PUSH1 0x20 ADD DUP1 DUP4 GT PUSH2 0x20F JUMPI DUP3 SWAP1 SUB PUSH1 0x1F AND DUP3 ADD SWAP2 JUMPDEST POP POP POP POP POP SWAP1 POP SWAP1 JUMP JUMPDEST PUSH1 0x4 DUP1 SLOAD PUSH2 0x243 SWAP1 PUSH2 0x669 JUMP JUMPDEST DUP1 PUSH1 0x1F ADD PUSH1 0x20 DUP1 SWAP2 DIV MUL PUSH1 0x20 ADD PUSH1 0x40 MLOAD SWAP1 DUP2 ADD PUSH1 0x40 MSTORE DUP1 SWAP3 SWAP2 SWAP1 DUP2 DUP2 MSTORE PUSH1 0x20 ADD DUP3 DUP1 SLOAD PUSH2 0x26F SWAP1 PUSH2 0x669 JUMP JUMPDEST DUP1 ISZERO PUSH2 0x2BC JUMPI DUP1 PUSH1 0x1F LT PUSH2 0x291 JUMPI PUSH2 0x100 DUP1 DUP4 SLOAD DIV MUL DUP4 MSTORE SWAP2 PUSH1 0x20 ADD SWAP2 PUSH2 0x2BC JUMP JUMPDEST DUP3 ADD SWAP2 SWAP1 PUSH1 0x0 MSTORE PUSH1 0x20 PUSH1 0x0 KECCAK256 SWAP1 JUMPDEST DUP2 SLOAD DUP2 MSTORE SWAP1 PUSH1 0x1 ADD SWAP1 PUSH1 0x20 ADD DUP1 DUP4 GT PUSH2 0x29F JUMPI DUP3 SWAP1 SUB PUSH1 0x1F AND DUP3 ADD SWAP2 JUMPDEST POP POP POP POP POP DUP2 JUMP JUMPDEST PUSH1 0x40 MLOAD DUP1 PUSH1 0x40 ADD PUSH1 0x40 MSTORE DUP1 PUSH1 0xE DUP2 MSTORE PUSH1 0x20 ADD PUSH32 0x66756E64732072656C6561736564000000000000000000000000000000000000 DUP2 MSTORE POP PUSH1 0x4 SWAP1 DUP2 PUSH2 0x308 SWAP2 SWAP1 PUSH2 0x875 JUMP JUMPDEST POP JUMP JUMPDEST PUSH1 0x0 DUP1 SLOAD SWAP1 PUSH2 0x100 EXP SWAP1 DIV PUSH20 0xFFFFFFFFFFFFFFFFFFFFFFFFFFFFFFFFFFFFFFFF AND DUP2 JUMP JUMPDEST PUSH1 0x2 SLOAD DUP2 JUMP JUMPDEST PUSH1 0x1 SLOAD DUP2 JUMP JUMPDEST PUSH1 0x60 PUSH1 0x1 SLOAD SELFBALANCE GT ISZERO PUSH2 0x3AF JUMPI PUSH2 0x351 DUP3 DUP5 PUSH2 0x3E5 JUMP JUMPDEST PUSH1 0x2 DUP2 SWAP1 SSTORE POP DUP3 PUSH1 0x1 DUP2 SWAP1 SSTORE POP DUP2 PUSH1 0x3 DUP2 SWAP1 SSTORE POP PUSH1 0x40 MLOAD DUP1 PUSH1 0x40 ADD PUSH1 0x40 MSTORE DUP1 PUSH1 0x7 DUP2 MSTORE PUSH1 0x20 ADD PUSH32 0x70656E64696E6700000000000000000000000000000000000000000000000000 DUP2 MSTORE POP PUSH1 0x4 SWAP1 DUP2 PUSH2 0x3A9 SWAP2 SWAP1 PUSH2 0x875 JUMP JUMPDEST POP PUSH2 0x3CF JUMP JUMPDEST PUSH1 0x40 MLOAD DUP1 PUSH1 0x60 ADD PUSH1 0x40 MSTORE DUP1 PUSH1 0x37 DUP2 MSTORE PUSH1 0x20 ADD PUSH2 0xA4D PUSH1 0x37 SWAP2 CODECOPY SWAP1 POP PUSH2 0x3D0 JUMP JUMPDEST JUMPDEST SWAP3 SWAP2 POP POP JUMP JUMPDEST PUSH1 0x0 PUSH1 0x1 SWAP1 POP SWAP1 JUMP JUMPDEST PUSH1 0x3 SLOAD DUP2 JUMP JUMPDEST PUSH1 0x0 DUP1 PUSH1 0x1E DUP5 LT PUSH2 0x3FD JUMPI PUSH1 0x5 PUSH1 0x2 DUP2 SWAP1 SSTORE POP PUSH2 0x41D JUMP JUMPDEST PUSH1 0x1E PUSH1 0x5 DUP6 PUSH2 0x40C SWAP2 SWAP1 PUSH2 0x976 JUMP JUMPDEST PUSH2 0x416 SWAP2 SWAP1 PUSH2 0x9E7 JUMP JUMPDEST PUSH1 0x2 DUP2 SWAP1 SSTORE POP JUMPDEST PUSH1 0x64 PUSH1 0x2 SLOAD PUSH1 0x64 PUSH2 0x42E SWAP2 SWAP1 PUSH2 0xA18 JUMP JUMPDEST DUP5 PUSH2 0x439 SWAP2 SWAP1 PUSH2 0x976 JUMP JUMPDEST PUSH2 0x443 SWAP2 SWAP1 PUSH2 0x9E7 JUMP JUMPDEST SWAP1 POP PUSH1 0x2 SLOAD SWAP2 POP POP SWAP3 SWAP2 POP POP JUMP JUMPDEST PUSH1 0x0 DUP2 MLOAD SWAP1 POP SWAP2 SWAP1 POP JUMP JUMPDEST PUSH1 0x0 DUP3 DUP3 MSTORE PUSH1 0x20 DUP3 ADD SWAP1 POP SWAP3 SWAP2 POP POP JUMP JUMPDEST PUSH1 0x0 JUMPDEST DUP4 DUP2 LT ISZERO PUSH2 0x48B JUMPI DUP1 DUP3 ADD MLOAD DUP2 DUP5 ADD MSTORE PUSH1 0x20 DUP2 ADD SWAP1 POP PUSH2 0x470 JUMP JUMPDEST PUSH1 0x0 DUP5 DUP5 ADD MSTORE POP POP POP POP JUMP JUMPDEST PUSH1 0x0 PUSH1 0x1F NOT PUSH1 0x1F DUP4 ADD AND SWAP1 POP SWAP2 SWAP1 POP JUMP JUMPDEST PUSH1 0x0 PUSH2 0x4B3 DUP3 PUSH2 0x451 JUMP JUMPDEST PUSH2 0x4BD DUP2 DUP6 PUSH2 0x45C JUMP JUMPDEST SWAP4 POP PUSH2 0x4CD DUP2 DUP6 PUSH1 0x20 DUP7 ADD PUSH2 0x46D JUMP JUMPDEST PUSH2 0x4D6 DUP2 PUSH2 0x497 JUMP JUMPDEST DUP5 ADD SWAP2 POP POP SWAP3 SWAP2 POP POP JUMP JUMPDEST PUSH1 0x0 PUSH1 0x20 DUP3 ADD SWAP1 POP DUP2 DUP2 SUB PUSH1 0x0 DUP4 ADD MSTORE PUSH2 0x4FB DUP2 DUP5 PUSH2 0x4A8 JUMP JUMPDEST SWAP1 POP SWAP3 SWAP2 POP POP JUMP JUMPDEST PUSH1 0x0 PUSH20 0xFFFFFFFFFFFFFFFFFFFFFFFFFFFFFFFFFFFFFFFF DUP3 AND SWAP1 POP SWAP2 SWAP1 POP JUMP JUMPDEST PUSH1 0x0 PUSH2 0x52E DUP3 PUSH2 0x503 JUMP JUMPDEST SWAP1 POP SWAP2 SWAP1 POP JUMP JUMPDEST PUSH2 0x53E DUP2 PUSH2 0x523 JUMP JUMPDEST DUP3 MSTORE POP POP JUMP JUMPDEST PUSH1 0x0 PUSH1 0x20 DUP3 ADD SWAP1 POP PUSH2 0x559 PUSH1 0x0 DUP4 ADD DUP5 PUSH2 0x535 JUMP JUMPDEST SWAP3 SWAP2 POP POP JUMP JUMPDEST PUSH1 0x0 DUP2 SWAP1 POP SWAP2 SWAP1 POP JUMP JUMPDEST PUSH2 0x572 DUP2 PUSH2 0x55F JUMP JUMPDEST DUP3 MSTORE POP POP JUMP JUMPDEST PUSH1 0x0 PUSH1 0x20 DUP3 ADD SWAP1 POP PUSH2 0x58D PUSH1 0x0 DUP4 ADD DUP5 PUSH2 0x569 JUMP JUMPDEST SWAP3 SWAP2 POP POP JUMP JUMPDEST PUSH1 0x0 DUP1 REVERT JUMPDEST PUSH2 0x5A1 DUP2 PUSH2 0x55F JUMP JUMPDEST DUP2 EQ PUSH2 0x5AC JUMPI PUSH1 0x0 DUP1 REVERT JUMPDEST POP JUMP JUMPDEST PUSH1 0x0 DUP2 CALLDATALOAD SWAP1 POP PUSH2 0x5BE DUP2 PUSH2 0x598 JUMP JUMPDEST SWAP3 SWAP2 POP POP JUMP JUMPDEST PUSH1 0x0 DUP1 PUSH1 0x40 DUP4 DUP6 SUB SLT ISZERO PUSH2 0x5DB JUMPI PUSH2 0x5DA PUSH2 0x593 JUMP JUMPDEST JUMPDEST PUSH1 0x0 PUSH2 0x5E9 DUP6 DUP3 DUP7 ADD PUSH2 0x5AF JUMP JUMPDEST SWAP3 POP POP PUSH1 0x20 PUSH2 0x5FA DUP6 DUP3 DUP7 ADD PUSH2 0x5AF JUMP JUMPDEST SWAP2 POP POP SWAP3 POP SWAP3 SWAP1 POP JUMP JUMPDEST PUSH1 0x0 DUP2 ISZERO ISZERO SWAP1 POP SWAP2 SWAP1 POP JUMP JUMPDEST PUSH2 0x619 DUP2 PUSH2 0x604 JUMP JUMPDEST DUP3 MSTORE POP POP JUMP JUMPDEST PUSH1 0x0 PUSH1 0x20 DUP3 ADD SWAP1 POP PUSH2 0x634 PUSH1 0x0 DUP4 ADD DUP5 PUSH2 0x610 JUMP JUMPDEST SWAP3 SWAP2 POP POP JUMP JUMPDEST PUSH32 0x4E487B7100000000000000000000000000000000000000000000000000000000 PUSH1 0x0 MSTORE PUSH1 0x22 PUSH1 0x4 MSTORE PUSH1 0x24 PUSH1 0x0 REVERT JUMPDEST PUSH1 0x0 PUSH1 0x2 DUP3 DIV SWAP1 POP PUSH1 0x1 DUP3 AND DUP1 PUSH2 0x681 JUMPI PUSH1 0x7F DUP3 AND SWAP2 POP JUMPDEST PUSH1 0x20 DUP3 LT DUP2 SUB PUSH2 0x694 JUMPI PUSH2 0x693 PUSH2 0x63A JUMP JUMPDEST JUMPDEST POP SWAP2 SWAP1 POP JUMP JUMPDEST PUSH32 0x4E487B7100000000000000000000000000000000000000000000000000000000 PUSH1 0x0 MSTORE PUSH1 0x41 PUSH1 0x4 MSTORE PUSH1 0x24 PUSH1 0x0 REVERT JUMPDEST PUSH1 0x0 DUP2 SWAP1 POP DUP2 PUSH1 0x0 MSTORE PUSH1 0x20 PUSH1 0x0 KECCAK256 SWAP1 POP SWAP2 SWAP1 POP JUMP JUMPDEST PUSH1 0x0 PUSH1 0x20 PUSH1 0x1F DUP4 ADD DIV SWAP1 POP SWAP2 SWAP1 POP JUMP JUMPDEST PUSH1 0x0 DUP3 DUP3 SHL SWAP1 POP SWAP3 SWAP2 POP POP JUMP JUMPDEST PUSH1 0x0 PUSH1 0x8 DUP4 MUL PUSH2 0x72B PUSH32 0xFFFFFFFFFFFFFFFFFFFFFFFFFFFFFFFFFFFFFFFFFFFFFFFFFFFFFFFFFFFFFFFF DUP3 PUSH2 0x6EE JUMP JUMPDEST PUSH2 0x735 DUP7 DUP4 PUSH2 0x6EE JUMP JUMPDEST SWAP6 POP DUP1 NOT DUP5 AND SWAP4 POP DUP1 DUP7 AND DUP5 OR SWAP3 POP POP POP SWAP4 SWAP3 POP POP POP JUMP JUMPDEST PUSH1 0x0 DUP2 SWAP1 POP SWAP2 SWAP1 POP JUMP JUMPDEST PUSH1 0x0 PUSH2 0x772 PUSH2 0x76D PUSH2 0x768 DUP5 PUSH2 0x55F JUMP JUMPDEST PUSH2 0x74D JUMP JUMPDEST PUSH2 0x55F JUMP JUMPDEST SWAP1 POP SWAP2 SWAP1 POP JUMP JUMPDEST PUSH1 0x0 DUP2 SWAP1 POP SWAP2 SWAP1 POP JUMP JUMPDEST PUSH2 0x78C DUP4 PUSH2 0x757 JUMP JUMPDEST PUSH2 0x7A0 PUSH2 0x798 DUP3 PUSH2 0x779 JUMP JUMPDEST DUP5 DUP5 SLOAD PUSH2 0x6FB JUMP JUMPDEST DUP3 SSTORE POP POP POP POP JUMP JUMPDEST PUSH1 0x0 SWAP1 JUMP JUMPDEST PUSH2 0x7B5 PUSH2 0x7A8 JUMP JUMPDEST PUSH2 0x7C0 DUP2 DUP5 DUP5 PUSH2 0x783 JUMP JUMPDEST POP POP POP JUMP JUMPDEST JUMPDEST DUP2 DUP2 LT ISZERO PUSH2 0x7E4 JUMPI PUSH2 0x7D9 PUSH1 0x0 DUP3 PUSH2 0x7AD JUMP JUMPDEST PUSH1 0x1 DUP2 ADD SWAP1 POP PUSH2 0x7C6 JUMP JUMPDEST POP POP JUMP JUMPDEST PUSH1 0x1F DUP3 GT ISZERO PUSH2 0x829 JUMPI PUSH2 0x7FA DUP2 PUSH2 0x6C9 JUMP JUMPDEST PUSH2 0x803 DUP5 PUSH2 0x6DE JUMP JUMPDEST DUP2 ADD PUSH1 0x20 DUP6 LT ISZERO PUSH2 0x812 JUMPI DUP2 SWAP1 POP JUMPDEST PUSH2 0x826 PUSH2 0x81E DUP6 PUSH2 0x6DE JUMP JUMPDEST DUP4 ADD DUP3 PUSH2 0x7C5 JUMP JUMPDEST POP POP JUMPDEST POP POP POP JUMP JUMPDEST PUSH1 0x0 DUP3 DUP3 SHR SWAP1 POP SWAP3 SWAP2 POP POP JUMP JUMPDEST PUSH1 0x0 PUSH2 0x84C PUSH1 0x0 NOT DUP5 PUSH1 0x8 MUL PUSH2 0x82E JUMP JUMPDEST NOT DUP1 DUP4 AND SWAP2 POP POP SWAP3 SWAP2 POP POP JUMP JUMPDEST PUSH1 0x0 PUSH2 0x865 DUP4 DUP4 PUSH2 0x83B JUMP JUMPDEST SWAP2 POP DUP3 PUSH1 0x2 MUL DUP3 OR SWAP1 POP SWAP3 SWAP2 POP POP JUMP JUMPDEST PUSH2 0x87E DUP3 PUSH2 0x451 JUMP JUMPDEST PUSH8 0xFFFFFFFFFFFFFFFF DUP2 GT ISZERO PUSH2 0x897 JUMPI PUSH2 0x896 PUSH2 0x69A JUMP JUMPDEST JUMPDEST PUSH2 0x8A1 DUP3 SLOAD PUSH2 0x669 JUMP JUMPDEST PUSH2 0x8AC DUP3 DUP3 DUP6 PUSH2 0x7E8 JUMP JUMPDEST PUSH1 0x0 PUSH1 0x20 SWAP1 POP PUSH1 0x1F DUP4 GT PUSH1 0x1 DUP2 EQ PUSH2 0x8DF JUMPI PUSH1 0x0 DUP5 ISZERO PUSH2 0x8CD JUMPI DUP3 DUP8 ADD MLOAD SWAP1 POP JUMPDEST PUSH2 0x8D7 DUP6 DUP3 PUSH2 0x859 JUMP JUMPDEST DUP7 SSTORE POP PUSH2 0x93F JUMP JUMPDEST PUSH1 0x1F NOT DUP5 AND PUSH2 0x8ED DUP7 PUSH2 0x6C9 JUMP JUMPDEST PUSH1 0x0 JUMPDEST DUP3 DUP2 LT ISZERO PUSH2 0x915 JUMPI DUP5 DUP10 ADD MLOAD DUP3 SSTORE PUSH1 0x1 DUP3 ADD SWAP2 POP PUSH1 0x20 DUP6 ADD SWAP5 POP PUSH1 0x20 DUP2 ADD SWAP1 POP PUSH2 0x8F0 JUMP JUMPDEST DUP7 DUP4 LT ISZERO PUSH2 0x932 JUMPI DUP5 DUP10 ADD MLOAD PUSH2 0x92E PUSH1 0x1F DUP10 AND DUP3 PUSH2 0x83B JUMP JUMPDEST DUP4 SSTORE POP JUMPDEST PUSH1 0x1 PUSH1 0x2 DUP9 MUL ADD DUP9 SSTORE POP POP POP JUMPDEST POP POP POP POP POP POP JUMP JUMPDEST PUSH32 0x4E487B7100000000000000000000000000000000000000000000000000000000 PUSH1 0x0 MSTORE PUSH1 0x11 PUSH1 0x4 MSTORE PUSH1 0x24 PUSH1 0x0 REVERT JUMPDEST PUSH1 0x0 PUSH2 0x981 DUP3 PUSH2 0x55F JUMP JUMPDEST SWAP2 POP PUSH2 0x98C DUP4 PUSH2 0x55F JUMP JUMPDEST SWAP3 POP DUP3 DUP3 MUL PUSH2 0x99A DUP2 PUSH2 0x55F JUMP JUMPDEST SWAP2 POP DUP3 DUP3 DIV DUP5 EQ DUP4 ISZERO OR PUSH2 0x9B1 JUMPI PUSH2 0x9B0 PUSH2 0x947 JUMP JUMPDEST JUMPDEST POP SWAP3 SWAP2 POP POP JUMP JUMPDEST PUSH32 0x4E487B7100000000000000000000000000000000000000000000000000000000 PUSH1 0x0 MSTORE PUSH1 0x12 PUSH1 0x4 MSTORE PUSH1 0x24 PUSH1 0x0 REVERT JUMPDEST PUSH1 0x0 PUSH2 0x9F2 DUP3 PUSH2 0x55F JUMP JUMPDEST SWAP2 POP PUSH2 0x9FD DUP4 PUSH2 0x55F JUMP JUMPDEST SWAP3 POP DUP3 PUSH2 0xA0D JUMPI PUSH2 0xA0C PUSH2 0x9B8 JUMP JUMPDEST JUMPDEST DUP3 DUP3 DIV SWAP1 POP SWAP3 SWAP2 POP POP JUMP JUMPDEST PUSH1 0x0 PUSH2 0xA23 DUP3 PUSH2 0x55F JUMP JUMPDEST SWAP2 POP PUSH2 0xA2E DUP4 PUSH2 0x55F JUMP JUMPDEST SWAP3 POP DUP3 DUP3 ADD SWAP1 POP DUP1 DUP3 GT ISZERO PUSH2 0xA46 JUMPI PUSH2 0xA45 PUSH2 0x947 JUMP JUMPDEST JUMPDEST SWAP3 SWAP2 POP POP JUMP INVALID JUMPI PUSH6 0x206375727265 PUSH15 0x746C7920646F206E6F742068617665 KECCAK256 PUSH6 0x6E6F75676820 GASLIMIT SLOAD BASEFEE 0x2C KECCAK256 PUSH4 0x6865636B KECCAK256 PUSH2 0x6761 PUSH10 0x6E206C617465722EA264 PUSH10 0x7066735822122010B690 XOR 0xA5 SLT CALLER 0x26 0xC1 DUP14 0xB5 0xB6 BYTE 0xD9 EXTCODEHASH SDIV CALLDATACOPY 0xFC 0xC JUMP 0xED CALLER PUSH14 0x51116985825DB261BD64736F6C63 NUMBER STOP ADDMOD SGT STOP CALLER "
				},
				"gasEstimates": {
					"creation": {
						"codeDepositCost": "549000",
						"executionCost": "581",
						"totalCost": "549581"
					},
					"external": {
						"borrowerAddress()": "2578",
						"checkLoanStatus()": "infinite",
						"interestRate()": "2429",
						"loanAmount()": "2451",
						"loanDuration()": "2517",
						"loanStatus()": "infinite",
						"releaseFunds()": "infinite",
						"requestLoan(uint256,uint256)": "infinite",
						"verifyCreditworthiness()": "409"
					},
					"internal": {
						"calculateInterestRate(uint256,uint256)": "infinite"
					}
				},
				"methodIdentifiers": {
					"borrowerAddress()": "7ba61ea5",
					"checkLoanStatus()": "068b554e",
					"interestRate()": "7c3a00fd",
					"loanAmount()": "9d585f7f",
					"loanDuration()": "f5521bf1",
					"loanStatus()": "074ca966",
					"releaseFunds()": "69d89575",
					"requestLoan(uint256,uint256)": "aa452fa6",
					"verifyCreditworthiness()": "c2037eec"
				}
			},
			"storageLayout": {
				"storage": [
					{
						"astId": 3,
						"contract": "contracts/Loanify_Old.sol:Loanify",
						"label": "borrowerAddress",
						"offset": 0,
						"slot": "0",
						"type": "t_address"
					},
					{
						"astId": 5,
						"contract": "contracts/Loanify_Old.sol:Loanify",
						"label": "loanAmount",
						"offset": 0,
						"slot": "1",
						"type": "t_uint256"
					},
					{
						"astId": 7,
						"contract": "contracts/Loanify_Old.sol:Loanify",
						"label": "interestRate",
						"offset": 0,
						"slot": "2",
						"type": "t_uint256"
					},
					{
						"astId": 9,
						"contract": "contracts/Loanify_Old.sol:Loanify",
						"label": "loanDuration",
						"offset": 0,
						"slot": "3",
						"type": "t_uint256"
					},
					{
						"astId": 11,
						"contract": "contracts/Loanify_Old.sol:Loanify",
						"label": "loanStatus",
						"offset": 0,
						"slot": "4",
						"type": "t_string_storage"
					}
				],
				"types": {
					"t_address": {
						"encoding": "inplace",
						"label": "address",
						"numberOfBytes": "20"
					},
					"t_string_storage": {
						"encoding": "bytes",
						"label": "string",
						"numberOfBytes": "32"
					},
					"t_uint256": {
						"encoding": "inplace",
						"label": "uint256",
						"numberOfBytes": "32"
					}
				}
			},
			"userdoc": {
				"kind": "user",
				"methods": {},
				"version": 1
			}
		}
	}
}