{
	"contracts/NewP2P_Loanify.sol": {
		"P2PLoanify": {
			"abi": [
				{
					"inputs": [],
					"stateMutability": "payable",
					"type": "constructor"
				},
				{
					"inputs": [],
					"name": "balance",
					"outputs": [
						{
							"internalType": "uint256",
							"name": "",
							"type": "uint256"
						}
					],
					"stateMutability": "view",
					"type": "function"
				},
				{
					"inputs": [
						{
							"internalType": "uint256",
							"name": "amount",
							"type": "uint256"
						}
					],
					"name": "lend",
					"outputs": [],
					"stateMutability": "payable",
					"type": "function"
				},
				{
					"inputs": [],
					"name": "lender",
					"outputs": [
						{
							"internalType": "address payable",
							"name": "",
							"type": "address"
						}
					],
					"stateMutability": "view",
					"type": "function"
				},
				{
					"inputs": [
						{
							"internalType": "uint256",
							"name": "amount",
							"type": "uint256"
						}
					],
					"name": "repay",
					"outputs": [],
					"stateMutability": "payable",
					"type": "function"
				}
			],
			"devdoc": {
				"kind": "dev",
				"methods": {},
				"version": 1
			},
			"evm": {
				"assembly": "    /* \"contracts/NewP2P_Loanify.sol\":57:760  contract P2PLoanify {... */\n  mstore(0x40, 0x80)\n    /* \"contracts/NewP2P_Loanify.sol\":193:203  msg.sender */\n  caller\n    /* \"contracts/NewP2P_Loanify.sol\":176:182  lender */\n  0x00\n  dup1\n    /* \"contracts/NewP2P_Loanify.sol\":176:204  lender = payable(msg.sender) */\n  0x0100\n  exp\n  dup2\n  sload\n  dup2\n  0xffffffffffffffffffffffffffffffffffffffff\n  mul\n  not\n  and\n  swap1\n  dup4\n  0xffffffffffffffffffffffffffffffffffffffff\n  and\n  mul\n  or\n  swap1\n  sstore\n  pop\n    /* \"contracts/NewP2P_Loanify.sol\":224:233  msg.value */\n  callvalue\n    /* \"contracts/NewP2P_Loanify.sol\":214:221  balance */\n  0x01\n    /* \"contracts/NewP2P_Loanify.sol\":214:233  balance = msg.value */\n  dup2\n  swap1\n  sstore\n  pop\n    /* \"contracts/NewP2P_Loanify.sol\":57:760  contract P2PLoanify {... */\n  dataSize(sub_0)\n  dup1\n  dataOffset(sub_0)\n  0x00\n  codecopy\n  0x00\n  return\nstop\n\nsub_0: assembly {\n        /* \"contracts/NewP2P_Loanify.sol\":57:760  contract P2PLoanify {... */\n      mstore(0x40, 0x80)\n      jumpi(tag_1, lt(calldatasize, 0x04))\n      shr(0xe0, calldataload(0x00))\n      dup1\n      0x371fd8e6\n      eq\n      tag_2\n      jumpi\n      dup1\n      0xa6aa57ce\n      eq\n      tag_3\n      jumpi\n      dup1\n      0xb69ef8a8\n      eq\n      tag_4\n      jumpi\n      dup1\n      0xbcead63e\n      eq\n      tag_5\n      jumpi\n    tag_1:\n      0x00\n      dup1\n      revert\n        /* \"contracts/NewP2P_Loanify.sol\":393:758  function repay(uint256 amount) payable public {... */\n    tag_2:\n      tag_6\n      0x04\n      dup1\n      calldatasize\n      sub\n      dup2\n      add\n      swap1\n      tag_7\n      swap2\n      swap1\n      tag_8\n      jump\t// in\n    tag_7:\n      tag_9\n      jump\t// in\n    tag_6:\n      stop\n        /* \"contracts/NewP2P_Loanify.sol\":246:387  function lend(uint256 amount) payable public {... */\n    tag_3:\n      tag_10\n      0x04\n      dup1\n      calldatasize\n      sub\n      dup2\n      add\n      swap1\n      tag_11\n      swap2\n      swap1\n      tag_8\n      jump\t// in\n    tag_11:\n      tag_12\n      jump\t// in\n    tag_10:\n      stop\n        /* \"contracts/NewP2P_Loanify.sol\":118:137  uint public balance */\n    tag_4:\n      callvalue\n      dup1\n      iszero\n      tag_13\n      jumpi\n      0x00\n      dup1\n      revert\n    tag_13:\n      pop\n      tag_14\n      tag_15\n      jump\t// in\n    tag_14:\n      mload(0x40)\n      tag_16\n      swap2\n      swap1\n      tag_17\n      jump\t// in\n    tag_16:\n      mload(0x40)\n      dup1\n      swap2\n      sub\n      swap1\n      return\n        /* \"contracts/NewP2P_Loanify.sol\":83:112  address payable public lender */\n    tag_5:\n      callvalue\n      dup1\n      iszero\n      tag_18\n      jumpi\n      0x00\n      dup1\n      revert\n    tag_18:\n      pop\n      tag_19\n      tag_20\n      jump\t// in\n    tag_19:\n      mload(0x40)\n      tag_21\n      swap2\n      swap1\n      tag_22\n      jump\t// in\n    tag_21:\n      mload(0x40)\n      dup1\n      swap2\n      sub\n      swap1\n      return\n        /* \"contracts/NewP2P_Loanify.sol\":393:758  function repay(uint256 amount) payable public {... */\n    tag_9:\n        /* \"contracts/NewP2P_Loanify.sol\":466:467  0 */\n      0x00\n        /* \"contracts/NewP2P_Loanify.sol\":457:463  amount */\n      dup2\n        /* \"contracts/NewP2P_Loanify.sol\":457:467  amount > 0 */\n      gt\n        /* \"contracts/NewP2P_Loanify.sol\":449:501  require(amount > 0, \"Amount must be greater than 0\") */\n      tag_24\n      jumpi\n      mload(0x40)\n      0x08c379a000000000000000000000000000000000000000000000000000000000\n      dup2\n      mstore\n      0x04\n      add\n      tag_25\n      swap1\n      tag_26\n      jump\t// in\n    tag_25:\n      mload(0x40)\n      dup1\n      swap2\n      sub\n      swap1\n      revert\n    tag_24:\n        /* \"contracts/NewP2P_Loanify.sol\":533:539  lender */\n      0x00\n      dup1\n      sload\n      swap1\n      0x0100\n      exp\n      swap1\n      div\n      0xffffffffffffffffffffffffffffffffffffffff\n      and\n        /* \"contracts/NewP2P_Loanify.sol\":519:539  msg.sender == lender */\n      0xffffffffffffffffffffffffffffffffffffffff\n      and\n        /* \"contracts/NewP2P_Loanify.sol\":519:529  msg.sender */\n      caller\n        /* \"contracts/NewP2P_Loanify.sol\":519:539  msg.sender == lender */\n      0xffffffffffffffffffffffffffffffffffffffff\n      and\n      eq\n        /* \"contracts/NewP2P_Loanify.sol\":511:574  require(msg.sender == lender, \"Only lender can repay the loan\") */\n      tag_27\n      jumpi\n      mload(0x40)\n      0x08c379a000000000000000000000000000000000000000000000000000000000\n      dup2\n      mstore\n      0x04\n      add\n      tag_28\n      swap1\n      tag_29\n      jump\t// in\n    tag_28:\n      mload(0x40)\n      dup1\n      swap2\n      sub\n      swap1\n      revert\n    tag_27:\n        /* \"contracts/NewP2P_Loanify.sol\":602:609  balance */\n      sload(0x01)\n        /* \"contracts/NewP2P_Loanify.sol\":592:598  amount */\n      dup2\n        /* \"contracts/NewP2P_Loanify.sol\":592:609  amount <= balance */\n      gt\n      iszero\n        /* \"contracts/NewP2P_Loanify.sol\":584:652  require(amount <= balance, \"Cannot repay more than the loan amount\") */\n      tag_30\n      jumpi\n      mload(0x40)\n      0x08c379a000000000000000000000000000000000000000000000000000000000\n      dup2\n      mstore\n      0x04\n      add\n      tag_31\n      swap1\n      tag_32\n      jump\t// in\n    tag_31:\n      mload(0x40)\n      dup1\n      swap2\n      sub\n      swap1\n      revert\n    tag_30:\n        /* \"contracts/NewP2P_Loanify.sol\":673:679  amount */\n      dup1\n        /* \"contracts/NewP2P_Loanify.sol\":662:669  balance */\n      0x01\n      0x00\n        /* \"contracts/NewP2P_Loanify.sol\":662:679  balance -= amount */\n      dup3\n      dup3\n      sload\n      tag_33\n      swap2\n      swap1\n      tag_34\n      jump\t// in\n    tag_33:\n      swap3\n      pop\n      pop\n      dup2\n      swap1\n      sstore\n      pop\n        /* \"contracts/NewP2P_Loanify.sol\":704:705  0 */\n      0x00\n        /* \"contracts/NewP2P_Loanify.sol\":693:700  balance */\n      sload(0x01)\n        /* \"contracts/NewP2P_Loanify.sol\":693:705  balance == 0 */\n      eq\n        /* \"contracts/NewP2P_Loanify.sol\":689:752  if (balance == 0) {... */\n      iszero\n      tag_35\n      jumpi\n        /* \"contracts/NewP2P_Loanify.sol\":734:740  lender */\n      0x00\n      dup1\n      sload\n      swap1\n      0x0100\n      exp\n      swap1\n      div\n      0xffffffffffffffffffffffffffffffffffffffff\n      and\n        /* \"contracts/NewP2P_Loanify.sol\":721:741  selfdestruct(lender) */\n      0xffffffffffffffffffffffffffffffffffffffff\n      and\n      selfdestruct\n        /* \"contracts/NewP2P_Loanify.sol\":689:752  if (balance == 0) {... */\n    tag_35:\n        /* \"contracts/NewP2P_Loanify.sol\":393:758  function repay(uint256 amount) payable public {... */\n      pop\n      jump\t// out\n        /* \"contracts/NewP2P_Loanify.sol\":246:387  function lend(uint256 amount) payable public {... */\n    tag_12:\n        /* \"contracts/NewP2P_Loanify.sol\":318:319  0 */\n      0x00\n        /* \"contracts/NewP2P_Loanify.sol\":309:315  amount */\n      dup2\n        /* \"contracts/NewP2P_Loanify.sol\":309:319  amount > 0 */\n      gt\n        /* \"contracts/NewP2P_Loanify.sol\":301:353  require(amount > 0, \"Amount must be greater than 0\") */\n      tag_37\n      jumpi\n      mload(0x40)\n      0x08c379a000000000000000000000000000000000000000000000000000000000\n      dup2\n      mstore\n      0x04\n      add\n      tag_38\n      swap1\n      tag_26\n      jump\t// in\n    tag_38:\n      mload(0x40)\n      dup1\n      swap2\n      sub\n      swap1\n      revert\n    tag_37:\n        /* \"contracts/NewP2P_Loanify.sol\":374:380  amount */\n      dup1\n        /* \"contracts/NewP2P_Loanify.sol\":363:370  balance */\n      0x01\n      0x00\n        /* \"contracts/NewP2P_Loanify.sol\":363:380  balance += amount */\n      dup3\n      dup3\n      sload\n      tag_39\n      swap2\n      swap1\n      tag_40\n      jump\t// in\n    tag_39:\n      swap3\n      pop\n      pop\n      dup2\n      swap1\n      sstore\n      pop\n        /* \"contracts/NewP2P_Loanify.sol\":246:387  function lend(uint256 amount) payable public {... */\n      pop\n      jump\t// out\n        /* \"contracts/NewP2P_Loanify.sol\":118:137  uint public balance */\n    tag_15:\n      sload(0x01)\n      dup2\n      jump\t// out\n        /* \"contracts/NewP2P_Loanify.sol\":83:112  address payable public lender */\n    tag_20:\n      0x00\n      dup1\n      sload\n      swap1\n      0x0100\n      exp\n      swap1\n      div\n      0xffffffffffffffffffffffffffffffffffffffff\n      and\n      dup2\n      jump\t// out\n        /* \"#utility.yul\":7:146   */\n    tag_42:\n      0x00\n        /* \"#utility.yul\":91:97   */\n      dup2\n        /* \"#utility.yul\":78:98   */\n      calldataload\n        /* \"#utility.yul\":69:98   */\n      swap1\n      pop\n        /* \"#utility.yul\":107:140   */\n      tag_44\n        /* \"#utility.yul\":134:139   */\n      dup2\n        /* \"#utility.yul\":107:140   */\n      tag_45\n      jump\t// in\n    tag_44:\n        /* \"#utility.yul\":59:146   */\n      swap3\n      swap2\n      pop\n      pop\n      jump\t// out\n        /* \"#utility.yul\":152:414   */\n    tag_8:\n      0x00\n        /* \"#utility.yul\":260:262   */\n      0x20\n        /* \"#utility.yul\":248:257   */\n      dup3\n        /* \"#utility.yul\":239:246   */\n      dup5\n        /* \"#utility.yul\":235:258   */\n      sub\n        /* \"#utility.yul\":231:263   */\n      slt\n        /* \"#utility.yul\":228:230   */\n      iszero\n      tag_47\n      jumpi\n        /* \"#utility.yul\":276:277   */\n      0x00\n        /* \"#utility.yul\":273:274   */\n      dup1\n        /* \"#utility.yul\":266:278   */\n      revert\n        /* \"#utility.yul\":228:230   */\n    tag_47:\n        /* \"#utility.yul\":319:320   */\n      0x00\n        /* \"#utility.yul\":344:397   */\n      tag_48\n        /* \"#utility.yul\":389:396   */\n      dup5\n        /* \"#utility.yul\":380:386   */\n      dup3\n        /* \"#utility.yul\":369:378   */\n      dup6\n        /* \"#utility.yul\":365:387   */\n      add\n        /* \"#utility.yul\":344:397   */\n      tag_42\n      jump\t// in\n    tag_48:\n        /* \"#utility.yul\":334:397   */\n      swap2\n      pop\n        /* \"#utility.yul\":290:407   */\n      pop\n        /* \"#utility.yul\":218:414   */\n      swap3\n      swap2\n      pop\n      pop\n      jump\t// out\n        /* \"#utility.yul\":420:562   */\n    tag_49:\n        /* \"#utility.yul\":523:555   */\n      tag_51\n        /* \"#utility.yul\":549:554   */\n      dup2\n        /* \"#utility.yul\":523:555   */\n      tag_52\n      jump\t// in\n    tag_51:\n        /* \"#utility.yul\":518:521   */\n      dup3\n        /* \"#utility.yul\":511:556   */\n      mstore\n        /* \"#utility.yul\":501:562   */\n      pop\n      pop\n      jump\t// out\n        /* \"#utility.yul\":568:895   */\n    tag_53:\n      0x00\n        /* \"#utility.yul\":731:798   */\n      tag_55\n        /* \"#utility.yul\":795:797   */\n      0x1d\n        /* \"#utility.yul\":790:793   */\n      dup4\n        /* \"#utility.yul\":731:798   */\n      tag_56\n      jump\t// in\n    tag_55:\n        /* \"#utility.yul\":724:798   */\n      swap2\n      pop\n        /* \"#utility.yul\":828:859   */\n      0x416d6f756e74206d7573742062652067726561746572207468616e2030000000\n        /* \"#utility.yul\":824:825   */\n      0x00\n        /* \"#utility.yul\":819:822   */\n      dup4\n        /* \"#utility.yul\":815:826   */\n      add\n        /* \"#utility.yul\":808:860   */\n      mstore\n        /* \"#utility.yul\":886:888   */\n      0x20\n        /* \"#utility.yul\":881:884   */\n      dup3\n        /* \"#utility.yul\":877:889   */\n      add\n        /* \"#utility.yul\":870:889   */\n      swap1\n      pop\n        /* \"#utility.yul\":714:895   */\n      swap2\n      swap1\n      pop\n      jump\t// out\n        /* \"#utility.yul\":901:1229   */\n    tag_57:\n      0x00\n        /* \"#utility.yul\":1064:1131   */\n      tag_59\n        /* \"#utility.yul\":1128:1130   */\n      0x1e\n        /* \"#utility.yul\":1123:1126   */\n      dup4\n        /* \"#utility.yul\":1064:1131   */\n      tag_56\n      jump\t// in\n    tag_59:\n        /* \"#utility.yul\":1057:1131   */\n      swap2\n      pop\n        /* \"#utility.yul\":1161:1193   */\n      0x4f6e6c79206c656e6465722063616e20726570617920746865206c6f616e0000\n        /* \"#utility.yul\":1157:1158   */\n      0x00\n        /* \"#utility.yul\":1152:1155   */\n      dup4\n        /* \"#utility.yul\":1148:1159   */\n      add\n        /* \"#utility.yul\":1141:1194   */\n      mstore\n        /* \"#utility.yul\":1220:1222   */\n      0x20\n        /* \"#utility.yul\":1215:1218   */\n      dup3\n        /* \"#utility.yul\":1211:1223   */\n      add\n        /* \"#utility.yul\":1204:1223   */\n      swap1\n      pop\n        /* \"#utility.yul\":1047:1229   */\n      swap2\n      swap1\n      pop\n      jump\t// out\n        /* \"#utility.yul\":1235:1605   */\n    tag_60:\n      0x00\n        /* \"#utility.yul\":1398:1465   */\n      tag_62\n        /* \"#utility.yul\":1462:1464   */\n      0x26\n        /* \"#utility.yul\":1457:1460   */\n      dup4\n        /* \"#utility.yul\":1398:1465   */\n      tag_56\n      jump\t// in\n    tag_62:\n        /* \"#utility.yul\":1391:1465   */\n      swap2\n      pop\n        /* \"#utility.yul\":1495:1529   */\n      0x43616e6e6f74207265706179206d6f7265207468616e20746865206c6f616e20\n        /* \"#utility.yul\":1491:1492   */\n      0x00\n        /* \"#utility.yul\":1486:1489   */\n      dup4\n        /* \"#utility.yul\":1482:1493   */\n      add\n        /* \"#utility.yul\":1475:1530   */\n      mstore\n        /* \"#utility.yul\":1561:1569   */\n      0x616d6f756e740000000000000000000000000000000000000000000000000000\n        /* \"#utility.yul\":1556:1558   */\n      0x20\n        /* \"#utility.yul\":1551:1554   */\n      dup4\n        /* \"#utility.yul\":1547:1559   */\n      add\n        /* \"#utility.yul\":1540:1570   */\n      mstore\n        /* \"#utility.yul\":1596:1598   */\n      0x40\n        /* \"#utility.yul\":1591:1594   */\n      dup3\n        /* \"#utility.yul\":1587:1599   */\n      add\n        /* \"#utility.yul\":1580:1599   */\n      swap1\n      pop\n        /* \"#utility.yul\":1381:1605   */\n      swap2\n      swap1\n      pop\n      jump\t// out\n        /* \"#utility.yul\":1611:1729   */\n    tag_63:\n        /* \"#utility.yul\":1698:1722   */\n      tag_65\n        /* \"#utility.yul\":1716:1721   */\n      dup2\n        /* \"#utility.yul\":1698:1722   */\n      tag_66\n      jump\t// in\n    tag_65:\n        /* \"#utility.yul\":1693:1696   */\n      dup3\n        /* \"#utility.yul\":1686:1723   */\n      mstore\n        /* \"#utility.yul\":1676:1729   */\n      pop\n      pop\n      jump\t// out\n        /* \"#utility.yul\":1735:1989   */\n    tag_22:\n      0x00\n        /* \"#utility.yul\":1882:1884   */\n      0x20\n        /* \"#utility.yul\":1871:1880   */\n      dup3\n        /* \"#utility.yul\":1867:1885   */\n      add\n        /* \"#utility.yul\":1859:1885   */\n      swap1\n      pop\n        /* \"#utility.yul\":1895:1982   */\n      tag_68\n        /* \"#utility.yul\":1979:1980   */\n      0x00\n        /* \"#utility.yul\":1968:1977   */\n      dup4\n        /* \"#utility.yul\":1964:1981   */\n      add\n        /* \"#utility.yul\":1955:1961   */\n      dup5\n        /* \"#utility.yul\":1895:1982   */\n      tag_49\n      jump\t// in\n    tag_68:\n        /* \"#utility.yul\":1849:1989   */\n      swap3\n      swap2\n      pop\n      pop\n      jump\t// out\n        /* \"#utility.yul\":1995:2414   */\n    tag_26:\n      0x00\n        /* \"#utility.yul\":2199:2201   */\n      0x20\n        /* \"#utility.yul\":2188:2197   */\n      dup3\n        /* \"#utility.yul\":2184:2202   */\n      add\n        /* \"#utility.yul\":2176:2202   */\n      swap1\n      pop\n        /* \"#utility.yul\":2248:2257   */\n      dup2\n        /* \"#utility.yul\":2242:2246   */\n      dup2\n        /* \"#utility.yul\":2238:2258   */\n      sub\n        /* \"#utility.yul\":2234:2235   */\n      0x00\n        /* \"#utility.yul\":2223:2232   */\n      dup4\n        /* \"#utility.yul\":2219:2236   */\n      add\n        /* \"#utility.yul\":2212:2259   */\n      mstore\n        /* \"#utility.yul\":2276:2407   */\n      tag_70\n        /* \"#utility.yul\":2402:2406   */\n      dup2\n        /* \"#utility.yul\":2276:2407   */\n      tag_53\n      jump\t// in\n    tag_70:\n        /* \"#utility.yul\":2268:2407   */\n      swap1\n      pop\n        /* \"#utility.yul\":2166:2414   */\n      swap2\n      swap1\n      pop\n      jump\t// out\n        /* \"#utility.yul\":2420:2839   */\n    tag_29:\n      0x00\n        /* \"#utility.yul\":2624:2626   */\n      0x20\n        /* \"#utility.yul\":2613:2622   */\n      dup3\n        /* \"#utility.yul\":2609:2627   */\n      add\n        /* \"#utility.yul\":2601:2627   */\n      swap1\n      pop\n        /* \"#utility.yul\":2673:2682   */\n      dup2\n        /* \"#utility.yul\":2667:2671   */\n      dup2\n        /* \"#utility.yul\":2663:2683   */\n      sub\n        /* \"#utility.yul\":2659:2660   */\n      0x00\n        /* \"#utility.yul\":2648:2657   */\n      dup4\n        /* \"#utility.yul\":2644:2661   */\n      add\n        /* \"#utility.yul\":2637:2684   */\n      mstore\n        /* \"#utility.yul\":2701:2832   */\n      tag_72\n        /* \"#utility.yul\":2827:2831   */\n      dup2\n        /* \"#utility.yul\":2701:2832   */\n      tag_57\n      jump\t// in\n    tag_72:\n        /* \"#utility.yul\":2693:2832   */\n      swap1\n      pop\n        /* \"#utility.yul\":2591:2839   */\n      swap2\n      swap1\n      pop\n      jump\t// out\n        /* \"#utility.yul\":2845:3264   */\n    tag_32:\n      0x00\n        /* \"#utility.yul\":3049:3051   */\n      0x20\n        /* \"#utility.yul\":3038:3047   */\n      dup3\n        /* \"#utility.yul\":3034:3052   */\n      add\n        /* \"#utility.yul\":3026:3052   */\n      swap1\n      pop\n        /* \"#utility.yul\":3098:3107   */\n      dup2\n        /* \"#utility.yul\":3092:3096   */\n      dup2\n        /* \"#utility.yul\":3088:3108   */\n      sub\n        /* \"#utility.yul\":3084:3085   */\n      0x00\n        /* \"#utility.yul\":3073:3082   */\n      dup4\n        /* \"#utility.yul\":3069:3086   */\n      add\n        /* \"#utility.yul\":3062:3109   */\n      mstore\n        /* \"#utility.yul\":3126:3257   */\n      tag_74\n        /* \"#utility.yul\":3252:3256   */\n      dup2\n        /* \"#utility.yul\":3126:3257   */\n      tag_60\n      jump\t// in\n    tag_74:\n        /* \"#utility.yul\":3118:3257   */\n      swap1\n      pop\n        /* \"#utility.yul\":3016:3264   */\n      swap2\n      swap1\n      pop\n      jump\t// out\n        /* \"#utility.yul\":3270:3492   */\n    tag_17:\n      0x00\n        /* \"#utility.yul\":3401:3403   */\n      0x20\n        /* \"#utility.yul\":3390:3399   */\n      dup3\n        /* \"#utility.yul\":3386:3404   */\n      add\n        /* \"#utility.yul\":3378:3404   */\n      swap1\n      pop\n        /* \"#utility.yul\":3414:3485   */\n      tag_76\n        /* \"#utility.yul\":3482:3483   */\n      0x00\n        /* \"#utility.yul\":3471:3480   */\n      dup4\n        /* \"#utility.yul\":3467:3484   */\n      add\n        /* \"#utility.yul\":3458:3464   */\n      dup5\n        /* \"#utility.yul\":3414:3485   */\n      tag_63\n      jump\t// in\n    tag_76:\n        /* \"#utility.yul\":3368:3492   */\n      swap3\n      swap2\n      pop\n      pop\n      jump\t// out\n        /* \"#utility.yul\":3498:3667   */\n    tag_56:\n      0x00\n        /* \"#utility.yul\":3616:3622   */\n      dup3\n        /* \"#utility.yul\":3611:3614   */\n      dup3\n        /* \"#utility.yul\":3604:3623   */\n      mstore\n        /* \"#utility.yul\":3656:3660   */\n      0x20\n        /* \"#utility.yul\":3651:3654   */\n      dup3\n        /* \"#utility.yul\":3647:3661   */\n      add\n        /* \"#utility.yul\":3632:3661   */\n      swap1\n      pop\n        /* \"#utility.yul\":3594:3667   */\n      swap3\n      swap2\n      pop\n      pop\n      jump\t// out\n        /* \"#utility.yul\":3673:3978   */\n    tag_40:\n      0x00\n        /* \"#utility.yul\":3732:3752   */\n      tag_79\n        /* \"#utility.yul\":3750:3751   */\n      dup3\n        /* \"#utility.yul\":3732:3752   */\n      tag_66\n      jump\t// in\n    tag_79:\n        /* \"#utility.yul\":3727:3752   */\n      swap2\n      pop\n        /* \"#utility.yul\":3766:3786   */\n      tag_80\n        /* \"#utility.yul\":3784:3785   */\n      dup4\n        /* \"#utility.yul\":3766:3786   */\n      tag_66\n      jump\t// in\n    tag_80:\n        /* \"#utility.yul\":3761:3786   */\n      swap3\n      pop\n        /* \"#utility.yul\":3920:3921   */\n      dup3\n        /* \"#utility.yul\":3852:3918   */\n      0xffffffffffffffffffffffffffffffffffffffffffffffffffffffffffffffff\n        /* \"#utility.yul\":3848:3922   */\n      sub\n        /* \"#utility.yul\":3845:3846   */\n      dup3\n        /* \"#utility.yul\":3842:3923   */\n      gt\n        /* \"#utility.yul\":3839:3841   */\n      iszero\n      tag_81\n      jumpi\n        /* \"#utility.yul\":3926:3944   */\n      tag_82\n      tag_83\n      jump\t// in\n    tag_82:\n        /* \"#utility.yul\":3839:3841   */\n    tag_81:\n        /* \"#utility.yul\":3970:3971   */\n      dup3\n        /* \"#utility.yul\":3967:3968   */\n      dup3\n        /* \"#utility.yul\":3963:3972   */\n      add\n        /* \"#utility.yul\":3956:3972   */\n      swap1\n      pop\n        /* \"#utility.yul\":3717:3978   */\n      swap3\n      swap2\n      pop\n      pop\n      jump\t// out\n        /* \"#utility.yul\":3984:4175   */\n    tag_34:\n      0x00\n        /* \"#utility.yul\":4044:4064   */\n      tag_85\n        /* \"#utility.yul\":4062:4063   */\n      dup3\n        /* \"#utility.yul\":4044:4064   */\n      tag_66\n      jump\t// in\n    tag_85:\n        /* \"#utility.yul\":4039:4064   */\n      swap2\n      pop\n        /* \"#utility.yul\":4078:4098   */\n      tag_86\n        /* \"#utility.yul\":4096:4097   */\n      dup4\n        /* \"#utility.yul\":4078:4098   */\n      tag_66\n      jump\t// in\n    tag_86:\n        /* \"#utility.yul\":4073:4098   */\n      swap3\n      pop\n        /* \"#utility.yul\":4117:4118   */\n      dup3\n        /* \"#utility.yul\":4114:4115   */\n      dup3\n        /* \"#utility.yul\":4111:4119   */\n      lt\n        /* \"#utility.yul\":4108:4110   */\n      iszero\n      tag_87\n      jumpi\n        /* \"#utility.yul\":4122:4140   */\n      tag_88\n      tag_83\n      jump\t// in\n    tag_88:\n        /* \"#utility.yul\":4108:4110   */\n    tag_87:\n        /* \"#utility.yul\":4167:4168   */\n      dup3\n        /* \"#utility.yul\":4164:4165   */\n      dup3\n        /* \"#utility.yul\":4160:4169   */\n      sub\n        /* \"#utility.yul\":4152:4169   */\n      swap1\n      pop\n        /* \"#utility.yul\":4029:4175   */\n      swap3\n      swap2\n      pop\n      pop\n      jump\t// out\n        /* \"#utility.yul\":4181:4285   */\n    tag_52:\n      0x00\n        /* \"#utility.yul\":4255:4279   */\n      tag_90\n        /* \"#utility.yul\":4273:4278   */\n      dup3\n        /* \"#utility.yul\":4255:4279   */\n      tag_91\n      jump\t// in\n    tag_90:\n        /* \"#utility.yul\":4244:4279   */\n      swap1\n      pop\n        /* \"#utility.yul\":4234:4285   */\n      swap2\n      swap1\n      pop\n      jump\t// out\n        /* \"#utility.yul\":4291:4417   */\n    tag_91:\n      0x00\n        /* \"#utility.yul\":4368:4410   */\n      0xffffffffffffffffffffffffffffffffffffffff\n        /* \"#utility.yul\":4361:4366   */\n      dup3\n        /* \"#utility.yul\":4357:4411   */\n      and\n        /* \"#utility.yul\":4346:4411   */\n      swap1\n      pop\n        /* \"#utility.yul\":4336:4417   */\n      swap2\n      swap1\n      pop\n      jump\t// out\n        /* \"#utility.yul\":4423:4500   */\n    tag_66:\n      0x00\n        /* \"#utility.yul\":4489:4494   */\n      dup2\n        /* \"#utility.yul\":4478:4494   */\n      swap1\n      pop\n        /* \"#utility.yul\":4468:4500   */\n      swap2\n      swap1\n      pop\n      jump\t// out\n        /* \"#utility.yul\":4506:4686   */\n    tag_83:\n        /* \"#utility.yul\":4554:4631   */\n      0x4e487b7100000000000000000000000000000000000000000000000000000000\n        /* \"#utility.yul\":4551:4552   */\n      0x00\n        /* \"#utility.yul\":4544:4632   */\n      mstore\n        /* \"#utility.yul\":4651:4655   */\n      0x11\n        /* \"#utility.yul\":4648:4649   */\n      0x04\n        /* \"#utility.yul\":4641:4656   */\n      mstore\n        /* \"#utility.yul\":4675:4679   */\n      0x24\n        /* \"#utility.yul\":4672:4673   */\n      0x00\n        /* \"#utility.yul\":4665:4680   */\n      revert\n        /* \"#utility.yul\":4692:4814   */\n    tag_45:\n        /* \"#utility.yul\":4765:4789   */\n      tag_96\n        /* \"#utility.yul\":4783:4788   */\n      dup2\n        /* \"#utility.yul\":4765:4789   */\n      tag_66\n      jump\t// in\n    tag_96:\n        /* \"#utility.yul\":4758:4763   */\n      dup2\n        /* \"#utility.yul\":4755:4790   */\n      eq\n        /* \"#utility.yul\":4745:4747   */\n      tag_97\n      jumpi\n        /* \"#utility.yul\":4804:4805   */\n      0x00\n        /* \"#utility.yul\":4801:4802   */\n      dup1\n        /* \"#utility.yul\":4794:4806   */\n      revert\n        /* \"#utility.yul\":4745:4747   */\n    tag_97:\n        /* \"#utility.yul\":4735:4814   */\n      pop\n      jump\t// out\n\n    auxdata: 0xa26469706673582212209eeb56b9df905682e961b1174da1a79a8cd34096f8f1f0ce9eb22e5872ad12cd64736f6c63430008000033\n}\n",
				"bytecode": {
					"linkReferences": {},
					"object": "6080604052336000806101000a81548173ffffffffffffffffffffffffffffffffffffffff021916908373ffffffffffffffffffffffffffffffffffffffff160217905550346001819055506105fc8061005a6000396000f3fe60806040526004361061003f5760003560e01c8063371fd8e614610044578063a6aa57ce14610060578063b69ef8a81461007c578063bcead63e146100a7575b600080fd5b61005e600480360381019061005991906102e6565b6100d2565b005b61007a600480360381019061007591906102e6565b610248565b005b34801561008857600080fd5b506100916102a7565b60405161009e919061048e565b60405180910390f35b3480156100b357600080fd5b506100bc6102ad565b6040516100c99190610413565b60405180910390f35b60008111610115576040517f08c379a000000000000000000000000000000000000000000000000000000000815260040161010c9061042e565b60405180910390fd5b60008054906101000a900473ffffffffffffffffffffffffffffffffffffffff1673ffffffffffffffffffffffffffffffffffffffff163373ffffffffffffffffffffffffffffffffffffffff16146101a3576040517f08c379a000000000000000000000000000000000000000000000000000000000815260040161019a9061044e565b60405180910390fd5b6001548111156101e8576040517f08c379a00000000000000000000000000000000000000000000000000000000081526004016101df9061046e565b60405180910390fd5b80600160008282546101fa9190610510565b92505081905550600060015414156102455760008054906101000a900473ffffffffffffffffffffffffffffffffffffffff1673ffffffffffffffffffffffffffffffffffffffff16ff5b50565b6000811161028b576040517f08c379a00000000000000000000000000000000000000000000000000000000081526004016102829061042e565b60405180910390fd5b806001600082825461029d91906104ba565b9250508190555050565b60015481565b60008054906101000a900473ffffffffffffffffffffffffffffffffffffffff1681565b6000813590506102e0816105af565b92915050565b6000602082840312156102f857600080fd5b6000610306848285016102d1565b91505092915050565b61031881610544565b82525050565b600061032b601d836104a9565b91507f416d6f756e74206d7573742062652067726561746572207468616e20300000006000830152602082019050919050565b600061036b601e836104a9565b91507f4f6e6c79206c656e6465722063616e20726570617920746865206c6f616e00006000830152602082019050919050565b60006103ab6026836104a9565b91507f43616e6e6f74207265706179206d6f7265207468616e20746865206c6f616e2060008301527f616d6f756e7400000000000000000000000000000000000000000000000000006020830152604082019050919050565b61040d81610576565b82525050565b6000602082019050610428600083018461030f565b92915050565b600060208201905081810360008301526104478161031e565b9050919050565b600060208201905081810360008301526104678161035e565b9050919050565b600060208201905081810360008301526104878161039e565b9050919050565b60006020820190506104a36000830184610404565b92915050565b600082825260208201905092915050565b60006104c582610576565b91506104d083610576565b9250827fffffffffffffffffffffffffffffffffffffffffffffffffffffffffffffffff0382111561050557610504610580565b5b828201905092915050565b600061051b82610576565b915061052683610576565b92508282101561053957610538610580565b5b828203905092915050565b600061054f82610556565b9050919050565b600073ffffffffffffffffffffffffffffffffffffffff82169050919050565b6000819050919050565b7f4e487b7100000000000000000000000000000000000000000000000000000000600052601160045260246000fd5b6105b881610576565b81146105c357600080fd5b5056fea26469706673582212209eeb56b9df905682e961b1174da1a79a8cd34096f8f1f0ce9eb22e5872ad12cd64736f6c63430008000033",
					"opcodes": "PUSH1 0x80 PUSH1 0x40 MSTORE CALLER PUSH1 0x0 DUP1 PUSH2 0x100 EXP DUP2 SLOAD DUP2 PUSH20 0xFFFFFFFFFFFFFFFFFFFFFFFFFFFFFFFFFFFFFFFF MUL NOT AND SWAP1 DUP4 PUSH20 0xFFFFFFFFFFFFFFFFFFFFFFFFFFFFFFFFFFFFFFFF AND MUL OR SWAP1 SSTORE POP CALLVALUE PUSH1 0x1 DUP2 SWAP1 SSTORE POP PUSH2 0x5FC DUP1 PUSH2 0x5A PUSH1 0x0 CODECOPY PUSH1 0x0 RETURN INVALID PUSH1 0x80 PUSH1 0x40 MSTORE PUSH1 0x4 CALLDATASIZE LT PUSH2 0x3F JUMPI PUSH1 0x0 CALLDATALOAD PUSH1 0xE0 SHR DUP1 PUSH4 0x371FD8E6 EQ PUSH2 0x44 JUMPI DUP1 PUSH4 0xA6AA57CE EQ PUSH2 0x60 JUMPI DUP1 PUSH4 0xB69EF8A8 EQ PUSH2 0x7C JUMPI DUP1 PUSH4 0xBCEAD63E EQ PUSH2 0xA7 JUMPI JUMPDEST PUSH1 0x0 DUP1 REVERT JUMPDEST PUSH2 0x5E PUSH1 0x4 DUP1 CALLDATASIZE SUB DUP2 ADD SWAP1 PUSH2 0x59 SWAP2 SWAP1 PUSH2 0x2E6 JUMP JUMPDEST PUSH2 0xD2 JUMP JUMPDEST STOP JUMPDEST PUSH2 0x7A PUSH1 0x4 DUP1 CALLDATASIZE SUB DUP2 ADD SWAP1 PUSH2 0x75 SWAP2 SWAP1 PUSH2 0x2E6 JUMP JUMPDEST PUSH2 0x248 JUMP JUMPDEST STOP JUMPDEST CALLVALUE DUP1 ISZERO PUSH2 0x88 JUMPI PUSH1 0x0 DUP1 REVERT JUMPDEST POP PUSH2 0x91 PUSH2 0x2A7 JUMP JUMPDEST PUSH1 0x40 MLOAD PUSH2 0x9E SWAP2 SWAP1 PUSH2 0x48E JUMP JUMPDEST PUSH1 0x40 MLOAD DUP1 SWAP2 SUB SWAP1 RETURN JUMPDEST CALLVALUE DUP1 ISZERO PUSH2 0xB3 JUMPI PUSH1 0x0 DUP1 REVERT JUMPDEST POP PUSH2 0xBC PUSH2 0x2AD JUMP JUMPDEST PUSH1 0x40 MLOAD PUSH2 0xC9 SWAP2 SWAP1 PUSH2 0x413 JUMP JUMPDEST PUSH1 0x40 MLOAD DUP1 SWAP2 SUB SWAP1 RETURN JUMPDEST PUSH1 0x0 DUP2 GT PUSH2 0x115 JUMPI PUSH1 0x40 MLOAD PUSH32 0x8C379A000000000000000000000000000000000000000000000000000000000 DUP2 MSTORE PUSH1 0x4 ADD PUSH2 0x10C SWAP1 PUSH2 0x42E JUMP JUMPDEST PUSH1 0x40 MLOAD DUP1 SWAP2 SUB SWAP1 REVERT JUMPDEST PUSH1 0x0 DUP1 SLOAD SWAP1 PUSH2 0x100 EXP SWAP1 DIV PUSH20 0xFFFFFFFFFFFFFFFFFFFFFFFFFFFFFFFFFFFFFFFF AND PUSH20 0xFFFFFFFFFFFFFFFFFFFFFFFFFFFFFFFFFFFFFFFF AND CALLER PUSH20 0xFFFFFFFFFFFFFFFFFFFFFFFFFFFFFFFFFFFFFFFF AND EQ PUSH2 0x1A3 JUMPI PUSH1 0x40 MLOAD PUSH32 0x8C379A000000000000000000000000000000000000000000000000000000000 DUP2 MSTORE PUSH1 0x4 ADD PUSH2 0x19A SWAP1 PUSH2 0x44E JUMP JUMPDEST PUSH1 0x40 MLOAD DUP1 SWAP2 SUB SWAP1 REVERT JUMPDEST PUSH1 0x1 SLOAD DUP2 GT ISZERO PUSH2 0x1E8 JUMPI PUSH1 0x40 MLOAD PUSH32 0x8C379A000000000000000000000000000000000000000000000000000000000 DUP2 MSTORE PUSH1 0x4 ADD PUSH2 0x1DF SWAP1 PUSH2 0x46E JUMP JUMPDEST PUSH1 0x40 MLOAD DUP1 SWAP2 SUB SWAP1 REVERT JUMPDEST DUP1 PUSH1 0x1 PUSH1 0x0 DUP3 DUP3 SLOAD PUSH2 0x1FA SWAP2 SWAP1 PUSH2 0x510 JUMP JUMPDEST SWAP3 POP POP DUP2 SWAP1 SSTORE POP PUSH1 0x0 PUSH1 0x1 SLOAD EQ ISZERO PUSH2 0x245 JUMPI PUSH1 0x0 DUP1 SLOAD SWAP1 PUSH2 0x100 EXP SWAP1 DIV PUSH20 0xFFFFFFFFFFFFFFFFFFFFFFFFFFFFFFFFFFFFFFFF AND PUSH20 0xFFFFFFFFFFFFFFFFFFFFFFFFFFFFFFFFFFFFFFFF AND SELFDESTRUCT JUMPDEST POP JUMP JUMPDEST PUSH1 0x0 DUP2 GT PUSH2 0x28B JUMPI PUSH1 0x40 MLOAD PUSH32 0x8C379A000000000000000000000000000000000000000000000000000000000 DUP2 MSTORE PUSH1 0x4 ADD PUSH2 0x282 SWAP1 PUSH2 0x42E JUMP JUMPDEST PUSH1 0x40 MLOAD DUP1 SWAP2 SUB SWAP1 REVERT JUMPDEST DUP1 PUSH1 0x1 PUSH1 0x0 DUP3 DUP3 SLOAD PUSH2 0x29D SWAP2 SWAP1 PUSH2 0x4BA JUMP JUMPDEST SWAP3 POP POP DUP2 SWAP1 SSTORE POP POP JUMP JUMPDEST PUSH1 0x1 SLOAD DUP2 JUMP JUMPDEST PUSH1 0x0 DUP1 SLOAD SWAP1 PUSH2 0x100 EXP SWAP1 DIV PUSH20 0xFFFFFFFFFFFFFFFFFFFFFFFFFFFFFFFFFFFFFFFF AND DUP2 JUMP JUMPDEST PUSH1 0x0 DUP2 CALLDATALOAD SWAP1 POP PUSH2 0x2E0 DUP2 PUSH2 0x5AF JUMP JUMPDEST SWAP3 SWAP2 POP POP JUMP JUMPDEST PUSH1 0x0 PUSH1 0x20 DUP3 DUP5 SUB SLT ISZERO PUSH2 0x2F8 JUMPI PUSH1 0x0 DUP1 REVERT JUMPDEST PUSH1 0x0 PUSH2 0x306 DUP5 DUP3 DUP6 ADD PUSH2 0x2D1 JUMP JUMPDEST SWAP2 POP POP SWAP3 SWAP2 POP POP JUMP JUMPDEST PUSH2 0x318 DUP2 PUSH2 0x544 JUMP JUMPDEST DUP3 MSTORE POP POP JUMP JUMPDEST PUSH1 0x0 PUSH2 0x32B PUSH1 0x1D DUP4 PUSH2 0x4A9 JUMP JUMPDEST SWAP2 POP PUSH32 0x416D6F756E74206D7573742062652067726561746572207468616E2030000000 PUSH1 0x0 DUP4 ADD MSTORE PUSH1 0x20 DUP3 ADD SWAP1 POP SWAP2 SWAP1 POP JUMP JUMPDEST PUSH1 0x0 PUSH2 0x36B PUSH1 0x1E DUP4 PUSH2 0x4A9 JUMP JUMPDEST SWAP2 POP PUSH32 0x4F6E6C79206C656E6465722063616E20726570617920746865206C6F616E0000 PUSH1 0x0 DUP4 ADD MSTORE PUSH1 0x20 DUP3 ADD SWAP1 POP SWAP2 SWAP1 POP JUMP JUMPDEST PUSH1 0x0 PUSH2 0x3AB PUSH1 0x26 DUP4 PUSH2 0x4A9 JUMP JUMPDEST SWAP2 POP PUSH32 0x43616E6E6F74207265706179206D6F7265207468616E20746865206C6F616E20 PUSH1 0x0 DUP4 ADD MSTORE PUSH32 0x616D6F756E740000000000000000000000000000000000000000000000000000 PUSH1 0x20 DUP4 ADD MSTORE PUSH1 0x40 DUP3 ADD SWAP1 POP SWAP2 SWAP1 POP JUMP JUMPDEST PUSH2 0x40D DUP2 PUSH2 0x576 JUMP JUMPDEST DUP3 MSTORE POP POP JUMP JUMPDEST PUSH1 0x0 PUSH1 0x20 DUP3 ADD SWAP1 POP PUSH2 0x428 PUSH1 0x0 DUP4 ADD DUP5 PUSH2 0x30F JUMP JUMPDEST SWAP3 SWAP2 POP POP JUMP JUMPDEST PUSH1 0x0 PUSH1 0x20 DUP3 ADD SWAP1 POP DUP2 DUP2 SUB PUSH1 0x0 DUP4 ADD MSTORE PUSH2 0x447 DUP2 PUSH2 0x31E JUMP JUMPDEST SWAP1 POP SWAP2 SWAP1 POP JUMP JUMPDEST PUSH1 0x0 PUSH1 0x20 DUP3 ADD SWAP1 POP DUP2 DUP2 SUB PUSH1 0x0 DUP4 ADD MSTORE PUSH2 0x467 DUP2 PUSH2 0x35E JUMP JUMPDEST SWAP1 POP SWAP2 SWAP1 POP JUMP JUMPDEST PUSH1 0x0 PUSH1 0x20 DUP3 ADD SWAP1 POP DUP2 DUP2 SUB PUSH1 0x0 DUP4 ADD MSTORE PUSH2 0x487 DUP2 PUSH2 0x39E JUMP JUMPDEST SWAP1 POP SWAP2 SWAP1 POP JUMP JUMPDEST PUSH1 0x0 PUSH1 0x20 DUP3 ADD SWAP1 POP PUSH2 0x4A3 PUSH1 0x0 DUP4 ADD DUP5 PUSH2 0x404 JUMP JUMPDEST SWAP3 SWAP2 POP POP JUMP JUMPDEST PUSH1 0x0 DUP3 DUP3 MSTORE PUSH1 0x20 DUP3 ADD SWAP1 POP SWAP3 SWAP2 POP POP JUMP JUMPDEST PUSH1 0x0 PUSH2 0x4C5 DUP3 PUSH2 0x576 JUMP JUMPDEST SWAP2 POP PUSH2 0x4D0 DUP4 PUSH2 0x576 JUMP JUMPDEST SWAP3 POP DUP3 PUSH32 0xFFFFFFFFFFFFFFFFFFFFFFFFFFFFFFFFFFFFFFFFFFFFFFFFFFFFFFFFFFFFFFFF SUB DUP3 GT ISZERO PUSH2 0x505 JUMPI PUSH2 0x504 PUSH2 0x580 JUMP JUMPDEST JUMPDEST DUP3 DUP3 ADD SWAP1 POP SWAP3 SWAP2 POP POP JUMP JUMPDEST PUSH1 0x0 PUSH2 0x51B DUP3 PUSH2 0x576 JUMP JUMPDEST SWAP2 POP PUSH2 0x526 DUP4 PUSH2 0x576 JUMP JUMPDEST SWAP3 POP DUP3 DUP3 LT ISZERO PUSH2 0x539 JUMPI PUSH2 0x538 PUSH2 0x580 JUMP JUMPDEST JUMPDEST DUP3 DUP3 SUB SWAP1 POP SWAP3 SWAP2 POP POP JUMP JUMPDEST PUSH1 0x0 PUSH2 0x54F DUP3 PUSH2 0x556 JUMP JUMPDEST SWAP1 POP SWAP2 SWAP1 POP JUMP JUMPDEST PUSH1 0x0 PUSH20 0xFFFFFFFFFFFFFFFFFFFFFFFFFFFFFFFFFFFFFFFF DUP3 AND SWAP1 POP SWAP2 SWAP1 POP JUMP JUMPDEST PUSH1 0x0 DUP2 SWAP1 POP SWAP2 SWAP1 POP JUMP JUMPDEST PUSH32 0x4E487B7100000000000000000000000000000000000000000000000000000000 PUSH1 0x0 MSTORE PUSH1 0x11 PUSH1 0x4 MSTORE PUSH1 0x24 PUSH1 0x0 REVERT JUMPDEST PUSH2 0x5B8 DUP2 PUSH2 0x576 JUMP JUMPDEST DUP2 EQ PUSH2 0x5C3 JUMPI PUSH1 0x0 DUP1 REVERT JUMPDEST POP JUMP INVALID LOG2 PUSH5 0x6970667358 0x22 SLT KECCAK256 SWAP15 0xEB JUMP 0xB9 0xDF SWAP1 JUMP DUP3 0xE9 PUSH2 0xB117 0x4D LOG1 0xA7 SWAP11 DUP13 0xD3 BLOCKHASH SWAP7 0xF8 CALL CREATE 0xCE SWAP15 0xB2 0x2E PC PUSH19 0xAD12CD64736F6C634300080000330000000000 "
				},
				"gasEstimates": {
					"creation": {
						"codeDepositCost": "306400",
						"executionCost": "41198",
						"totalCost": "347598"
					},
					"external": {
						"balance()": "1151",
						"lend(uint256)": "infinite",
						"lender()": "1255",
						"repay(uint256)": "infinite"
					}
				},
				"methodIdentifiers": {
					"balance()": "b69ef8a8",
					"lend(uint256)": "a6aa57ce",
					"lender()": "bcead63e",
					"repay(uint256)": "371fd8e6"
				}
			},
			"storageLayout": {
				"storage": [
					{
						"astId": 3,
						"contract": "contracts/NewP2P_Loanify.sol:P2PLoanify",
						"label": "lender",
						"offset": 0,
						"slot": "0",
						"type": "t_address_payable"
					},
					{
						"astId": 5,
						"contract": "contracts/NewP2P_Loanify.sol:P2PLoanify",
						"label": "balance",
						"offset": 0,
						"slot": "1",
						"type": "t_uint256"
					}
				],
				"types": {
					"t_address_payable": {
						"encoding": "inplace",
						"label": "address payable",
						"numberOfBytes": "20"
					},
					"t_uint256": {
						"encoding": "inplace",
						"label": "uint256",
						"numberOfBytes": "32"
					}
				}
			},
			"userdoc": {
				"kind": "user",
				"methods": {},
				"version": 1
			}
		}
	}
}