{
	"contracts/P2P_Loanify.sol": {
		"P2PLoanify": {
			"abi": [
				{
					"inputs": [],
					"stateMutability": "payable",
					"type": "constructor"
				},
				{
					"inputs": [
						{
							"internalType": "address",
							"name": "_customer",
							"type": "address"
						},
						{
							"internalType": "uint256",
							"name": "_creditScore",
							"type": "uint256"
						},
						{
							"internalType": "uint256",
							"name": "_netIncome",
							"type": "uint256"
						},
						{
							"internalType": "uint256",
							"name": "_customer_balance",
							"type": "uint256"
						}
					],
					"name": "add_customer",
					"outputs": [],
					"stateMutability": "nonpayable",
					"type": "function"
				},
				{
					"inputs": [
						{
							"internalType": "uint256",
							"name": "offerId",
							"type": "uint256"
						},
						{
							"internalType": "address payable",
							"name": "borrower",
							"type": "address"
						}
					],
					"name": "apply_for_loan",
					"outputs": [
						{
							"internalType": "string",
							"name": "",
							"type": "string"
						}
					],
					"stateMutability": "payable",
					"type": "function"
				},
				{
					"inputs": [
						{
							"internalType": "address",
							"name": "",
							"type": "address"
						}
					],
					"name": "borrowerBalance",
					"outputs": [
						{
							"internalType": "uint256",
							"name": "",
							"type": "uint256"
						}
					],
					"stateMutability": "view",
					"type": "function"
				},
				{
					"inputs": [
						{
							"internalType": "address",
							"name": "",
							"type": "address"
						}
					],
					"name": "borrowerCredit",
					"outputs": [
						{
							"internalType": "uint256",
							"name": "",
							"type": "uint256"
						}
					],
					"stateMutability": "view",
					"type": "function"
				},
				{
					"inputs": [
						{
							"internalType": "address",
							"name": "",
							"type": "address"
						}
					],
					"name": "borrowerIncomePY",
					"outputs": [
						{
							"internalType": "uint256",
							"name": "",
							"type": "uint256"
						}
					],
					"stateMutability": "view",
					"type": "function"
				},
				{
					"inputs": [
						{
							"internalType": "uint256",
							"name": "_offerAmount",
							"type": "uint256"
						},
						{
							"internalType": "uint256",
							"name": "_loanDuration",
							"type": "uint256"
						},
						{
							"internalType": "uint256",
							"name": "_loanRate",
							"type": "uint256"
						}
					],
					"name": "create_offer",
					"outputs": [
						{
							"internalType": "string",
							"name": "",
							"type": "string"
						}
					],
					"stateMutability": "payable",
					"type": "function"
				},
				{
					"inputs": [
						{
							"internalType": "uint256",
							"name": "",
							"type": "uint256"
						}
					],
					"name": "customerArray",
					"outputs": [
						{
							"internalType": "address",
							"name": "borrowerAddress",
							"type": "address"
						},
						{
							"internalType": "uint256",
							"name": "borrowerCredit",
							"type": "uint256"
						},
						{
							"internalType": "uint256",
							"name": "borrowerBalance",
							"type": "uint256"
						},
						{
							"internalType": "uint256",
							"name": "borrowerIncomePY",
							"type": "uint256"
						}
					],
					"stateMutability": "view",
					"type": "function"
				},
				{
					"inputs": [
						{
							"internalType": "uint256",
							"name": "offerId",
							"type": "uint256"
						},
						{
							"internalType": "uint256",
							"name": "amount",
							"type": "uint256"
						},
						{
							"internalType": "address payable",
							"name": "giver",
							"type": "address"
						}
					],
					"name": "delete_offer",
					"outputs": [
						{
							"internalType": "string",
							"name": "",
							"type": "string"
						}
					],
					"stateMutability": "payable",
					"type": "function"
				},
				{
					"inputs": [],
					"name": "get_credit_score",
					"outputs": [
						{
							"internalType": "uint256",
							"name": "",
							"type": "uint256"
						}
					],
					"stateMutability": "view",
					"type": "function"
				},
				{
					"inputs": [],
					"name": "get_myLoans",
					"outputs": [
						{
							"components": [
								{
									"internalType": "address payable",
									"name": "lender",
									"type": "address"
								},
								{
									"internalType": "uint256",
									"name": "offerID",
									"type": "uint256"
								},
								{
									"internalType": "uint256",
									"name": "offer_amount",
									"type": "uint256"
								},
								{
									"internalType": "uint256",
									"name": "lend_rate",
									"type": "uint256"
								},
								{
									"internalType": "address",
									"name": "owner",
									"type": "address"
								},
								{
									"internalType": "uint256",
									"name": "lend_duration",
									"type": "uint256"
								},
								{
									"internalType": "uint256",
									"name": "lend_repayment",
									"type": "uint256"
								},
								{
									"internalType": "bool",
									"name": "isAvailable",
									"type": "bool"
								},
								{
									"internalType": "bool",
									"name": "isCancelled",
									"type": "bool"
								},
								{
									"internalType": "bool",
									"name": "isDue",
									"type": "bool"
								}
							],
							"internalType": "struct P2PLoanify.offerSchema[]",
							"name": "",
							"type": "tuple[]"
						}
					],
					"stateMutability": "view",
					"type": "function"
				},
				{
					"inputs": [],
					"name": "get_net_income",
					"outputs": [
						{
							"internalType": "uint256",
							"name": "",
							"type": "uint256"
						}
					],
					"stateMutability": "view",
					"type": "function"
				},
				{
					"inputs": [],
					"name": "get_offers",
					"outputs": [
						{
							"components": [
								{
									"internalType": "address payable",
									"name": "lender",
									"type": "address"
								},
								{
									"internalType": "uint256",
									"name": "offerID",
									"type": "uint256"
								},
								{
									"internalType": "uint256",
									"name": "offer_amount",
									"type": "uint256"
								},
								{
									"internalType": "uint256",
									"name": "lend_rate",
									"type": "uint256"
								},
								{
									"internalType": "address",
									"name": "owner",
									"type": "address"
								},
								{
									"internalType": "uint256",
									"name": "lend_duration",
									"type": "uint256"
								},
								{
									"internalType": "uint256",
									"name": "lend_repayment",
									"type": "uint256"
								},
								{
									"internalType": "bool",
									"name": "isAvailable",
									"type": "bool"
								},
								{
									"internalType": "bool",
									"name": "isCancelled",
									"type": "bool"
								},
								{
									"internalType": "bool",
									"name": "isDue",
									"type": "bool"
								}
							],
							"internalType": "struct P2PLoanify.offerSchema[]",
							"name": "",
							"type": "tuple[]"
						}
					],
					"stateMutability": "view",
					"type": "function"
				},
				{
					"inputs": [
						{
							"internalType": "uint256",
							"name": "",
							"type": "uint256"
						}
					],
					"name": "isAvailable",
					"outputs": [
						{
							"internalType": "bool",
							"name": "",
							"type": "bool"
						}
					],
					"stateMutability": "view",
					"type": "function"
				},
				{
					"inputs": [
						{
							"internalType": "uint256",
							"name": "",
							"type": "uint256"
						}
					],
					"name": "isDeleted",
					"outputs": [
						{
							"internalType": "bool",
							"name": "",
							"type": "bool"
						}
					],
					"stateMutability": "view",
					"type": "function"
				},
				{
					"inputs": [
						{
							"internalType": "uint256",
							"name": "",
							"type": "uint256"
						}
					],
					"name": "isDue",
					"outputs": [
						{
							"internalType": "bool",
							"name": "",
							"type": "bool"
						}
					],
					"stateMutability": "view",
					"type": "function"
				},
				{
					"inputs": [
						{
							"internalType": "uint256",
							"name": "",
							"type": "uint256"
						}
					],
					"name": "isMine",
					"outputs": [
						{
							"internalType": "bool",
							"name": "",
							"type": "bool"
						}
					],
					"stateMutability": "view",
					"type": "function"
				},
				{
					"inputs": [
						{
							"internalType": "uint256",
							"name": "",
							"type": "uint256"
						}
					],
					"name": "lender",
					"outputs": [
						{
							"internalType": "address payable",
							"name": "",
							"type": "address"
						}
					],
					"stateMutability": "view",
					"type": "function"
				},
				{
					"inputs": [
						{
							"internalType": "uint256",
							"name": "",
							"type": "uint256"
						}
					],
					"name": "myLoans",
					"outputs": [
						{
							"internalType": "address payable",
							"name": "lender",
							"type": "address"
						},
						{
							"internalType": "uint256",
							"name": "offerID",
							"type": "uint256"
						},
						{
							"internalType": "uint256",
							"name": "offer_amount",
							"type": "uint256"
						},
						{
							"internalType": "uint256",
							"name": "lend_rate",
							"type": "uint256"
						},
						{
							"internalType": "address",
							"name": "owner",
							"type": "address"
						},
						{
							"internalType": "uint256",
							"name": "lend_duration",
							"type": "uint256"
						},
						{
							"internalType": "uint256",
							"name": "lend_repayment",
							"type": "uint256"
						},
						{
							"internalType": "bool",
							"name": "isAvailable",
							"type": "bool"
						},
						{
							"internalType": "bool",
							"name": "isCancelled",
							"type": "bool"
						},
						{
							"internalType": "bool",
							"name": "isDue",
							"type": "bool"
						}
					],
					"stateMutability": "view",
					"type": "function"
				},
				{
					"inputs": [
						{
							"internalType": "uint256",
							"name": "",
							"type": "uint256"
						}
					],
					"name": "offerAmount",
					"outputs": [
						{
							"internalType": "uint256",
							"name": "",
							"type": "uint256"
						}
					],
					"stateMutability": "view",
					"type": "function"
				},
				{
					"inputs": [
						{
							"internalType": "uint256",
							"name": "",
							"type": "uint256"
						}
					],
					"name": "offerDuration",
					"outputs": [
						{
							"internalType": "uint256",
							"name": "",
							"type": "uint256"
						}
					],
					"stateMutability": "view",
					"type": "function"
				},
				{
					"inputs": [
						{
							"internalType": "uint256",
							"name": "",
							"type": "uint256"
						}
					],
					"name": "offerRate",
					"outputs": [
						{
							"internalType": "uint256",
							"name": "",
							"type": "uint256"
						}
					],
					"stateMutability": "view",
					"type": "function"
				},
				{
					"inputs": [
						{
							"internalType": "uint256",
							"name": "",
							"type": "uint256"
						}
					],
					"name": "offersArray",
					"outputs": [
						{
							"internalType": "address payable",
							"name": "lender",
							"type": "address"
						},
						{
							"internalType": "uint256",
							"name": "offerID",
							"type": "uint256"
						},
						{
							"internalType": "uint256",
							"name": "offer_amount",
							"type": "uint256"
						},
						{
							"internalType": "uint256",
							"name": "lend_rate",
							"type": "uint256"
						},
						{
							"internalType": "address",
							"name": "owner",
							"type": "address"
						},
						{
							"internalType": "uint256",
							"name": "lend_duration",
							"type": "uint256"
						},
						{
							"internalType": "uint256",
							"name": "lend_repayment",
							"type": "uint256"
						},
						{
							"internalType": "bool",
							"name": "isAvailable",
							"type": "bool"
						},
						{
							"internalType": "bool",
							"name": "isCancelled",
							"type": "bool"
						},
						{
							"internalType": "bool",
							"name": "isDue",
							"type": "bool"
						}
					],
					"stateMutability": "view",
					"type": "function"
				},
				{
					"inputs": [
						{
							"internalType": "uint256",
							"name": "",
							"type": "uint256"
						}
					],
					"name": "owner",
					"outputs": [
						{
							"internalType": "address",
							"name": "",
							"type": "address"
						}
					],
					"stateMutability": "view",
					"type": "function"
				},
				{
					"inputs": [
						{
							"internalType": "uint256",
							"name": "offerId",
							"type": "uint256"
						}
					],
					"name": "remove_my_loan",
					"outputs": [],
					"stateMutability": "payable",
					"type": "function"
				},
				{
					"inputs": [
						{
							"internalType": "uint256",
							"name": "offerId",
							"type": "uint256"
						}
					],
					"name": "remove_offer",
					"outputs": [],
					"stateMutability": "payable",
					"type": "function"
				},
				{
					"inputs": [
						{
							"internalType": "uint256",
							"name": "offerId",
							"type": "uint256"
						}
					],
					"name": "repay_loan",
					"outputs": [
						{
							"internalType": "bool",
							"name": "",
							"type": "bool"
						}
					],
					"stateMutability": "payable",
					"type": "function"
				}
			],
			"devdoc": {
				"kind": "dev",
				"methods": {},
				"version": 1
			},
			"evm": {
				"assembly": "    /* \"contracts/P2P_Loanify.sol\":55:9128  contract P2PLoanify{... */\n  mstore(0x40, 0x80)\n    /* \"contracts/P2P_Loanify.sol\":158:159  0 */\n  0x00\n    /* \"contracts/P2P_Loanify.sol\":142:157  contractBalance */\n  dup1\n    /* \"contracts/P2P_Loanify.sol\":142:159  contractBalance=0 */\n  dup2\n  swap1\n  sstore\n  pop\n    /* \"contracts/P2P_Loanify.sol\":55:9128  contract P2PLoanify{... */\n  dataSize(sub_0)\n  dup1\n  dataOffset(sub_0)\n  0x00\n  codecopy\n  0x00\n  return\nstop\n\nsub_0: assembly {\n        /* \"contracts/P2P_Loanify.sol\":55:9128  contract P2PLoanify{... */\n      mstore(0x40, 0x80)\n      jumpi(tag_1, lt(calldatasize, 0x04))\n      shr(0xe0, calldataload(0x00))\n      dup1\n      0x74f6b7b5\n      gt\n      tag_28\n      jumpi\n      dup1\n      0xba5eceb6\n      gt\n      tag_29\n      jumpi\n      dup1\n      0xd1863349\n      gt\n      tag_30\n      jumpi\n      dup1\n      0xd1863349\n      eq\n      tag_24\n      jumpi\n      dup1\n      0xe151c8bd\n      eq\n      tag_25\n      jumpi\n      dup1\n      0xe7a75949\n      eq\n      tag_26\n      jumpi\n      dup1\n      0xf6117cce\n      eq\n      tag_27\n      jumpi\n      jump(tag_1)\n    tag_30:\n      dup1\n      0xba5eceb6\n      eq\n      tag_21\n      jumpi\n      dup1\n      0xcb7e142e\n      eq\n      tag_22\n      jumpi\n      dup1\n      0xcf48dfc4\n      eq\n      tag_23\n      jumpi\n      jump(tag_1)\n    tag_29:\n      dup1\n      0x74f6b7b5\n      eq\n      tag_15\n      jumpi\n      dup1\n      0x75dc9ad9\n      eq\n      tag_16\n      jumpi\n      dup1\n      0x94182c36\n      eq\n      tag_17\n      jumpi\n      dup1\n      0x9ab88914\n      eq\n      tag_18\n      jumpi\n      dup1\n      0xa123c33e\n      eq\n      tag_19\n      jumpi\n      dup1\n      0xac1c7c99\n      eq\n      tag_20\n      jumpi\n      jump(tag_1)\n    tag_28:\n      dup1\n      0x5583a930\n      gt\n      tag_31\n      jumpi\n      dup1\n      0x6bf4c157\n      gt\n      tag_32\n      jumpi\n      dup1\n      0x6bf4c157\n      eq\n      tag_11\n      jumpi\n      dup1\n      0x71593d41\n      eq\n      tag_12\n      jumpi\n      dup1\n      0x715eb34d\n      eq\n      tag_13\n      jumpi\n      dup1\n      0x729c7e83\n      eq\n      tag_14\n      jumpi\n      jump(tag_1)\n    tag_32:\n      dup1\n      0x5583a930\n      eq\n      tag_8\n      jumpi\n      dup1\n      0x5f9634e0\n      eq\n      tag_9\n      jumpi\n      dup1\n      0x64afd1c7\n      eq\n      tag_10\n      jumpi\n      jump(tag_1)\n    tag_31:\n      dup1\n      0x1ee3782c\n      eq\n      tag_2\n      jumpi\n      dup1\n      0x213455a2\n      eq\n      tag_3\n      jumpi\n      dup1\n      0x24b7eb8c\n      eq\n      tag_4\n      jumpi\n      dup1\n      0x30b65511\n      eq\n      tag_5\n      jumpi\n      dup1\n      0x3a178d99\n      eq\n      tag_6\n      jumpi\n      dup1\n      0x552bca80\n      eq\n      tag_7\n      jumpi\n    tag_1:\n      0x00\n      dup1\n      revert\n        /* \"contracts/P2P_Loanify.sol\":3418:4261  function delete_offer(uint256 offerId, uint256 amount, address payable giver) external payable returns(string memory) {... */\n    tag_2:\n      tag_33\n      0x04\n      dup1\n      calldatasize\n      sub\n      dup2\n      add\n      swap1\n      tag_34\n      swap2\n      swap1\n      tag_35\n      jump\t// in\n    tag_34:\n      tag_36\n      jump\t// in\n    tag_33:\n      mload(0x40)\n      tag_37\n      swap2\n      swap1\n      tag_38\n      jump\t// in\n    tag_37:\n      mload(0x40)\n      dup1\n      swap2\n      sub\n      swap1\n      return\n        /* \"contracts/P2P_Loanify.sol\":6101:6410  function get_credit_score() public view returns (uint256) {... */\n    tag_3:\n      callvalue\n      dup1\n      iszero\n      tag_39\n      jumpi\n      0x00\n      dup1\n      revert\n    tag_39:\n      pop\n      tag_40\n      tag_41\n      jump\t// in\n    tag_40:\n      mload(0x40)\n      tag_42\n      swap2\n      swap1\n      tag_43\n      jump\t// in\n    tag_42:\n      mload(0x40)\n      dup1\n      swap2\n      sub\n      swap1\n      return\n        /* \"contracts/P2P_Loanify.sol\":5159:5196  borrowerSchema[] public customerArray */\n    tag_4:\n      callvalue\n      dup1\n      iszero\n      tag_44\n      jumpi\n      0x00\n      dup1\n      revert\n    tag_44:\n      pop\n      tag_45\n      0x04\n      dup1\n      calldatasize\n      sub\n      dup2\n      add\n      swap1\n      tag_46\n      swap2\n      swap1\n      tag_47\n      jump\t// in\n    tag_46:\n      tag_48\n      jump\t// in\n    tag_45:\n      mload(0x40)\n      tag_49\n      swap5\n      swap4\n      swap3\n      swap2\n      swap1\n      tag_50\n      jump\t// in\n    tag_49:\n      mload(0x40)\n      dup1\n      swap2\n      sub\n      swap1\n      return\n        /* \"contracts/P2P_Loanify.sol\":4302:4710  function remove_offer(uint256 offerId) public payable{  ... */\n    tag_5:\n      tag_51\n      0x04\n      dup1\n      calldatasize\n      sub\n      dup2\n      add\n      swap1\n      tag_52\n      swap2\n      swap1\n      tag_47\n      jump\t// in\n    tag_52:\n      tag_53\n      jump\t// in\n    tag_51:\n      stop\n        /* \"contracts/P2P_Loanify.sol\":915:958  mapping(uint256 => bool) public isAvailable */\n    tag_6:\n      callvalue\n      dup1\n      iszero\n      tag_54\n      jumpi\n      0x00\n      dup1\n      revert\n    tag_54:\n      pop\n      tag_55\n      0x04\n      dup1\n      calldatasize\n      sub\n      dup2\n      add\n      swap1\n      tag_56\n      swap2\n      swap1\n      tag_47\n      jump\t// in\n    tag_56:\n      tag_57\n      jump\t// in\n    tag_55:\n      mload(0x40)\n      tag_58\n      swap2\n      swap1\n      tag_59\n      jump\t// in\n    tag_58:\n      mload(0x40)\n      dup1\n      swap2\n      sub\n      swap1\n      return\n        /* \"contracts/P2P_Loanify.sol\":5281:6028  function add_customer(address _customer, uint256 _creditScore, uint256 _netIncome, uint _customer_balance) public {... */\n    tag_7:\n      callvalue\n      dup1\n      iszero\n      tag_60\n      jumpi\n      0x00\n      dup1\n      revert\n    tag_60:\n      pop\n      tag_61\n      0x04\n      dup1\n      calldatasize\n      sub\n      dup2\n      add\n      swap1\n      tag_62\n      swap2\n      swap1\n      tag_63\n      jump\t// in\n    tag_62:\n      tag_64\n      jump\t// in\n    tag_61:\n      stop\n        /* \"contracts/P2P_Loanify.sol\":1055:1092  mapping(uint256 => bool) public isDue */\n    tag_8:\n      callvalue\n      dup1\n      iszero\n      tag_65\n      jumpi\n      0x00\n      dup1\n      revert\n    tag_65:\n      pop\n      tag_66\n      0x04\n      dup1\n      calldatasize\n      sub\n      dup2\n      add\n      swap1\n      tag_67\n      swap2\n      swap1\n      tag_47\n      jump\t// in\n    tag_67:\n      tag_68\n      jump\t// in\n    tag_66:\n      mload(0x40)\n      tag_69\n      swap2\n      swap1\n      tag_59\n      jump\t// in\n    tag_69:\n      mload(0x40)\n      dup1\n      swap2\n      sub\n      swap1\n      return\n        /* \"contracts/P2P_Loanify.sol\":964:1002  mapping(uint256 => bool) public isMine */\n    tag_9:\n      callvalue\n      dup1\n      iszero\n      tag_70\n      jumpi\n      0x00\n      dup1\n      revert\n    tag_70:\n      pop\n      tag_71\n      0x04\n      dup1\n      calldatasize\n      sub\n      dup2\n      add\n      swap1\n      tag_72\n      swap2\n      swap1\n      tag_47\n      jump\t// in\n    tag_72:\n      tag_73\n      jump\t// in\n    tag_71:\n      mload(0x40)\n      tag_74\n      swap2\n      swap1\n      tag_59\n      jump\t// in\n    tag_74:\n      mload(0x40)\n      dup1\n      swap2\n      sub\n      swap1\n      return\n        /* \"contracts/P2P_Loanify.sol\":4716:5109  function remove_my_loan(uint256 offerId) public payable{  ... */\n    tag_10:\n      tag_75\n      0x04\n      dup1\n      calldatasize\n      sub\n      dup2\n      add\n      swap1\n      tag_76\n      swap2\n      swap1\n      tag_47\n      jump\t// in\n    tag_76:\n      tag_77\n      jump\t// in\n    tag_75:\n      stop\n        /* \"contracts/P2P_Loanify.sol\":1608:1636  offerSchema[] public myLoans */\n    tag_11:\n      callvalue\n      dup1\n      iszero\n      tag_78\n      jumpi\n      0x00\n      dup1\n      revert\n    tag_78:\n      pop\n      tag_79\n      0x04\n      dup1\n      calldatasize\n      sub\n      dup2\n      add\n      swap1\n      tag_80\n      swap2\n      swap1\n      tag_47\n      jump\t// in\n    tag_80:\n      tag_81\n      jump\t// in\n    tag_79:\n      mload(0x40)\n      tag_82\n      swap11\n      swap10\n      swap9\n      swap8\n      swap7\n      swap6\n      swap5\n      swap4\n      swap3\n      swap2\n      swap1\n      tag_83\n      jump\t// in\n    tag_82:\n      mload(0x40)\n      dup1\n      swap2\n      sub\n      swap1\n      return\n        /* \"contracts/P2P_Loanify.sol\":765:813  mapping(uint256 => uint256) public offerDuration */\n    tag_12:\n      callvalue\n      dup1\n      iszero\n      tag_84\n      jumpi\n      0x00\n      dup1\n      revert\n    tag_84:\n      pop\n      tag_85\n      0x04\n      dup1\n      calldatasize\n      sub\n      dup2\n      add\n      swap1\n      tag_86\n      swap2\n      swap1\n      tag_47\n      jump\t// in\n    tag_86:\n      tag_87\n      jump\t// in\n    tag_85:\n      mload(0x40)\n      tag_88\n      swap2\n      swap1\n      tag_43\n      jump\t// in\n    tag_88:\n      mload(0x40)\n      dup1\n      swap2\n      sub\n      swap1\n      return\n        /* \"contracts/P2P_Loanify.sol\":6795:8480  function apply_for_loan(uint256 offerId, address payable borrower) public payable returns (string memory){... */\n    tag_13:\n      tag_89\n      0x04\n      dup1\n      calldatasize\n      sub\n      dup2\n      add\n      swap1\n      tag_90\n      swap2\n      swap1\n      tag_91\n      jump\t// in\n    tag_90:\n      tag_92\n      jump\t// in\n    tag_89:\n      mload(0x40)\n      tag_93\n      swap2\n      swap1\n      tag_38\n      jump\t// in\n    tag_93:\n      mload(0x40)\n      dup1\n      swap2\n      sub\n      swap1\n      return\n        /* \"contracts/P2P_Loanify.sol\":8521:9125  function repay_loan(uint256 offerId) public payable returns(bool){... */\n    tag_14:\n      tag_94\n      0x04\n      dup1\n      calldatasize\n      sub\n      dup2\n      add\n      swap1\n      tag_95\n      swap2\n      swap1\n      tag_47\n      jump\t// in\n    tag_95:\n      tag_96\n      jump\t// in\n    tag_94:\n      mload(0x40)\n      tag_97\n      swap2\n      swap1\n      tag_59\n      jump\t// in\n    tag_97:\n      mload(0x40)\n      dup1\n      swap2\n      sub\n      swap1\n      return\n        /* \"contracts/P2P_Loanify.sol\":1679:1778  function get_offers() public view returns (offerSchema[] memory){... */\n    tag_15:\n      callvalue\n      dup1\n      iszero\n      tag_98\n      jumpi\n      0x00\n      dup1\n      revert\n    tag_98:\n      pop\n      tag_99\n      tag_100\n      jump\t// in\n    tag_99:\n      mload(0x40)\n      tag_101\n      swap2\n      swap1\n      tag_102\n      jump\t// in\n    tag_101:\n      mload(0x40)\n      dup1\n      swap2\n      sub\n      swap1\n      return\n        /* \"contracts/P2P_Loanify.sol\":234:283  mapping(address => uint256) public borrowerCredit */\n    tag_16:\n      callvalue\n      dup1\n      iszero\n      tag_103\n      jumpi\n      0x00\n      dup1\n      revert\n    tag_103:\n      pop\n      tag_104\n      0x04\n      dup1\n      calldatasize\n      sub\n      dup2\n      add\n      swap1\n      tag_105\n      swap2\n      swap1\n      tag_106\n      jump\t// in\n    tag_105:\n      tag_107\n      jump\t// in\n    tag_104:\n      mload(0x40)\n      tag_108\n      swap2\n      swap1\n      tag_43\n      jump\t// in\n    tag_108:\n      mload(0x40)\n      dup1\n      swap2\n      sub\n      swap1\n      return\n        /* \"contracts/P2P_Loanify.sol\":1008:1049  mapping(uint256 => bool) public isDeleted */\n    tag_17:\n      callvalue\n      dup1\n      iszero\n      tag_109\n      jumpi\n      0x00\n      dup1\n      revert\n    tag_109:\n      pop\n      tag_110\n      0x04\n      dup1\n      calldatasize\n      sub\n      dup2\n      add\n      swap1\n      tag_111\n      swap2\n      swap1\n      tag_47\n      jump\t// in\n    tag_111:\n      tag_112\n      jump\t// in\n    tag_110:\n      mload(0x40)\n      tag_113\n      swap2\n      swap1\n      tag_59\n      jump\t// in\n    tag_113:\n      mload(0x40)\n      dup1\n      swap2\n      sub\n      swap1\n      return\n        /* \"contracts/P2P_Loanify.sol\":657:707  mapping(uint256 => address payable ) public lender */\n    tag_18:\n      callvalue\n      dup1\n      iszero\n      tag_114\n      jumpi\n      0x00\n      dup1\n      revert\n    tag_114:\n      pop\n      tag_115\n      0x04\n      dup1\n      calldatasize\n      sub\n      dup2\n      add\n      swap1\n      tag_116\n      swap2\n      swap1\n      tag_47\n      jump\t// in\n    tag_116:\n      tag_117\n      jump\t// in\n    tag_115:\n      mload(0x40)\n      tag_118\n      swap2\n      swap1\n      tag_119\n      jump\t// in\n    tag_118:\n      mload(0x40)\n      dup1\n      swap2\n      sub\n      swap1\n      return\n        /* \"contracts/P2P_Loanify.sol\":869:909  mapping(uint256 => address) public owner */\n    tag_19:\n      callvalue\n      dup1\n      iszero\n      tag_120\n      jumpi\n      0x00\n      dup1\n      revert\n    tag_120:\n      pop\n      tag_121\n      0x04\n      dup1\n      calldatasize\n      sub\n      dup2\n      add\n      swap1\n      tag_122\n      swap2\n      swap1\n      tag_47\n      jump\t// in\n    tag_122:\n      tag_123\n      jump\t// in\n    tag_121:\n      mload(0x40)\n      tag_124\n      swap2\n      swap1\n      tag_125\n      jump\t// in\n    tag_124:\n      mload(0x40)\n      dup1\n      swap2\n      sub\n      swap1\n      return\n        /* \"contracts/P2P_Loanify.sol\":819:863  mapping(uint256 => uint256) public offerRate */\n    tag_20:\n      callvalue\n      dup1\n      iszero\n      tag_126\n      jumpi\n      0x00\n      dup1\n      revert\n    tag_126:\n      pop\n      tag_127\n      0x04\n      dup1\n      calldatasize\n      sub\n      dup2\n      add\n      swap1\n      tag_128\n      swap2\n      swap1\n      tag_47\n      jump\t// in\n    tag_128:\n      tag_129\n      jump\t// in\n    tag_127:\n      mload(0x40)\n      tag_130\n      swap2\n      swap1\n      tag_43\n      jump\t// in\n    tag_130:\n      mload(0x40)\n      dup1\n      swap2\n      sub\n      swap1\n      return\n        /* \"contracts/P2P_Loanify.sol\":346:396  mapping(address => uint256) public borrowerBalance */\n    tag_21:\n      callvalue\n      dup1\n      iszero\n      tag_131\n      jumpi\n      0x00\n      dup1\n      revert\n    tag_131:\n      pop\n      tag_132\n      0x04\n      dup1\n      calldatasize\n      sub\n      dup2\n      add\n      swap1\n      tag_133\n      swap2\n      swap1\n      tag_106\n      jump\t// in\n    tag_133:\n      tag_134\n      jump\t// in\n    tag_132:\n      mload(0x40)\n      tag_135\n      swap2\n      swap1\n      tag_43\n      jump\t// in\n    tag_135:\n      mload(0x40)\n      dup1\n      swap2\n      sub\n      swap1\n      return\n        /* \"contracts/P2P_Loanify.sol\":1968:3381  function create_offer(uint256 _offerAmount, uint256 _loanDuration, uint256 _loanRate) external payable returns(string memory){... */\n    tag_22:\n      tag_136\n      0x04\n      dup1\n      calldatasize\n      sub\n      dup2\n      add\n      swap1\n      tag_137\n      swap2\n      swap1\n      tag_138\n      jump\t// in\n    tag_137:\n      tag_139\n      jump\t// in\n    tag_136:\n      mload(0x40)\n      tag_140\n      swap2\n      swap1\n      tag_38\n      jump\t// in\n    tag_140:\n      mload(0x40)\n      dup1\n      swap2\n      sub\n      swap1\n      return\n        /* \"contracts/P2P_Loanify.sol\":1827:1928  function get_myLoans() public view returns (offerSchema[] memory){... */\n    tag_23:\n      callvalue\n      dup1\n      iszero\n      tag_141\n      jumpi\n      0x00\n      dup1\n      revert\n    tag_141:\n      pop\n      tag_142\n      tag_143\n      jump\t// in\n    tag_142:\n      mload(0x40)\n      tag_144\n      swap2\n      swap1\n      tag_102\n      jump\t// in\n    tag_144:\n      mload(0x40)\n      dup1\n      swap2\n      sub\n      swap1\n      return\n        /* \"contracts/P2P_Loanify.sol\":289:340  mapping(address => uint256) public borrowerIncomePY */\n    tag_24:\n      callvalue\n      dup1\n      iszero\n      tag_145\n      jumpi\n      0x00\n      dup1\n      revert\n    tag_145:\n      pop\n      tag_146\n      0x04\n      dup1\n      calldatasize\n      sub\n      dup2\n      add\n      swap1\n      tag_147\n      swap2\n      swap1\n      tag_106\n      jump\t// in\n    tag_147:\n      tag_148\n      jump\t// in\n    tag_146:\n      mload(0x40)\n      tag_149\n      swap2\n      swap1\n      tag_43\n      jump\t// in\n    tag_149:\n      mload(0x40)\n      dup1\n      swap2\n      sub\n      swap1\n      return\n        /* \"contracts/P2P_Loanify.sol\":6481:6788  function get_net_income() public view returns (uint256) {... */\n    tag_25:\n      callvalue\n      dup1\n      iszero\n      tag_150\n      jumpi\n      0x00\n      dup1\n      revert\n    tag_150:\n      pop\n      tag_151\n      tag_152\n      jump\t// in\n    tag_151:\n      mload(0x40)\n      tag_153\n      swap2\n      swap1\n      tag_43\n      jump\t// in\n    tag_153:\n      mload(0x40)\n      dup1\n      swap2\n      sub\n      swap1\n      return\n        /* \"contracts/P2P_Loanify.sol\":713:759  mapping(uint256 => uint256) public offerAmount */\n    tag_26:\n      callvalue\n      dup1\n      iszero\n      tag_154\n      jumpi\n      0x00\n      dup1\n      revert\n    tag_154:\n      pop\n      tag_155\n      0x04\n      dup1\n      calldatasize\n      sub\n      dup2\n      add\n      swap1\n      tag_156\n      swap2\n      swap1\n      tag_47\n      jump\t// in\n    tag_156:\n      tag_157\n      jump\t// in\n    tag_155:\n      mload(0x40)\n      tag_158\n      swap2\n      swap1\n      tag_43\n      jump\t// in\n    tag_158:\n      mload(0x40)\n      dup1\n      swap2\n      sub\n      swap1\n      return\n        /* \"contracts/P2P_Loanify.sol\":1485:1517  offerSchema[] public offersArray */\n    tag_27:\n      callvalue\n      dup1\n      iszero\n      tag_159\n      jumpi\n      0x00\n      dup1\n      revert\n    tag_159:\n      pop\n      tag_160\n      0x04\n      dup1\n      calldatasize\n      sub\n      dup2\n      add\n      swap1\n      tag_161\n      swap2\n      swap1\n      tag_47\n      jump\t// in\n    tag_161:\n      tag_162\n      jump\t// in\n    tag_160:\n      mload(0x40)\n      tag_163\n      swap11\n      swap10\n      swap9\n      swap8\n      swap7\n      swap6\n      swap5\n      swap4\n      swap3\n      swap2\n      swap1\n      tag_83\n      jump\t// in\n    tag_163:\n      mload(0x40)\n      dup1\n      swap2\n      sub\n      swap1\n      return\n        /* \"contracts/P2P_Loanify.sol\":3418:4261  function delete_offer(uint256 offerId, uint256 amount, address payable giver) external payable returns(string memory) {... */\n    tag_36:\n        /* \"contracts/P2P_Loanify.sol\":3521:3534  string memory */\n      0x60\n        /* \"contracts/P2P_Loanify.sol\":3564:3575  offersArray */\n      0x0f\n        /* \"contracts/P2P_Loanify.sol\":3576:3583  offerId */\n      dup5\n        /* \"contracts/P2P_Loanify.sol\":3564:3584  offersArray[offerId] */\n      dup2\n      sload\n      dup2\n      lt\n      tag_165\n      jumpi\n      mstore(0x00, 0x4e487b7100000000000000000000000000000000000000000000000000000000)\n      mstore(0x04, 0x32)\n      revert(0x00, 0x24)\n    tag_165:\n      swap1\n      0x00\n      mstore\n      keccak256(0x00, 0x20)\n      swap1\n      0x08\n      mul\n      add\n        /* \"contracts/P2P_Loanify.sol\":3564:3597  offersArray[offerId].offer_amount */\n      0x02\n      add\n      sload\n        /* \"contracts/P2P_Loanify.sol\":3555:3597  amount = offersArray[offerId].offer_amount */\n      swap3\n      pop\n        /* \"contracts/P2P_Loanify.sol\":3607:3629  uint256 lastOfferIndex */\n      0x00\n        /* \"contracts/P2P_Loanify.sol\":3653:3654  1 */\n      0x01\n        /* \"contracts/P2P_Loanify.sol\":3632:3643  offersArray */\n      0x0f\n        /* \"contracts/P2P_Loanify.sol\":3632:3650  offersArray.length */\n      dup1\n      sload\n      swap1\n      pop\n        /* \"contracts/P2P_Loanify.sol\":3632:3654  offersArray.length - 1 */\n      tag_167\n      swap2\n      swap1\n      tag_168\n      jump\t// in\n    tag_167:\n        /* \"contracts/P2P_Loanify.sol\":3607:3654  uint256 lastOfferIndex = offersArray.length - 1 */\n      swap1\n      pop\n        /* \"contracts/P2P_Loanify.sol\":3690:3691  0 */\n      0x00\n        /* \"contracts/P2P_Loanify.sol\":3672:3686  lastOfferIndex */\n      dup2\n        /* \"contracts/P2P_Loanify.sol\":3672:3691  lastOfferIndex >= 0 */\n      lt\n      iszero\n        /* \"contracts/P2P_Loanify.sol\":3664:3721  require(lastOfferIndex >= 0, \"No offers exist to delete\") */\n      tag_169\n      jumpi\n      mload(0x40)\n      0x08c379a000000000000000000000000000000000000000000000000000000000\n      dup2\n      mstore\n      0x04\n      add\n      tag_170\n      swap1\n      tag_171\n      jump\t// in\n    tag_170:\n      mload(0x40)\n      dup1\n      swap2\n      sub\n      swap1\n      revert\n    tag_169:\n        /* \"contracts/P2P_Loanify.sol\":3750:3764  lastOfferIndex */\n      dup1\n        /* \"contracts/P2P_Loanify.sol\":3739:3746  offerId */\n      dup6\n        /* \"contracts/P2P_Loanify.sol\":3739:3764  offerId <= lastOfferIndex */\n      gt\n      iszero\n        /* \"contracts/P2P_Loanify.sol\":3731:3798  require(offerId <= lastOfferIndex, \"Offer does not exist in array\") */\n      tag_172\n      jumpi\n      mload(0x40)\n      0x08c379a000000000000000000000000000000000000000000000000000000000\n      dup2\n      mstore\n      0x04\n      add\n      tag_173\n      swap1\n      tag_174\n      jump\t// in\n    tag_173:\n      mload(0x40)\n      dup1\n      swap2\n      sub\n      swap1\n      revert\n    tag_172:\n        /* \"contracts/P2P_Loanify.sol\":3822:3836  lastOfferIndex */\n      dup1\n        /* \"contracts/P2P_Loanify.sol\":3812:3819  offerId */\n      dup6\n        /* \"contracts/P2P_Loanify.sol\":3812:3836  offerId < lastOfferIndex */\n      lt\n        /* \"contracts/P2P_Loanify.sol\":3808:3913  if (offerId < lastOfferIndex) {... */\n      iszero\n      tag_175\n      jumpi\n        /* \"contracts/P2P_Loanify.sol\":3875:3886  offersArray */\n      0x0f\n        /* \"contracts/P2P_Loanify.sol\":3887:3901  lastOfferIndex */\n      dup2\n        /* \"contracts/P2P_Loanify.sol\":3875:3902  offersArray[lastOfferIndex] */\n      dup2\n      sload\n      dup2\n      lt\n      tag_176\n      jumpi\n      mstore(0x00, 0x4e487b7100000000000000000000000000000000000000000000000000000000)\n      mstore(0x04, 0x32)\n      revert(0x00, 0x24)\n    tag_176:\n      swap1\n      0x00\n      mstore\n      keccak256(0x00, 0x20)\n      swap1\n      0x08\n      mul\n      add\n        /* \"contracts/P2P_Loanify.sol\":3852:3863  offersArray */\n      0x0f\n        /* \"contracts/P2P_Loanify.sol\":3864:3871  offerId */\n      dup7\n        /* \"contracts/P2P_Loanify.sol\":3852:3872  offersArray[offerId] */\n      dup2\n      sload\n      dup2\n      lt\n      tag_178\n      jumpi\n      mstore(0x00, 0x4e487b7100000000000000000000000000000000000000000000000000000000)\n      mstore(0x04, 0x32)\n      revert(0x00, 0x24)\n    tag_178:\n      swap1\n      0x00\n      mstore\n      keccak256(0x00, 0x20)\n      swap1\n      0x08\n      mul\n      add\n        /* \"contracts/P2P_Loanify.sol\":3852:3902  offersArray[offerId] = offersArray[lastOfferIndex] */\n      0x00\n      dup3\n      add\n      0x00\n      swap1\n      sload\n      swap1\n      0x0100\n      exp\n      swap1\n      div\n      0xffffffffffffffffffffffffffffffffffffffff\n      and\n      dup2\n      0x00\n      add\n      exp(0x0100, 0x00)\n      dup2\n      sload\n      dup2\n      0xffffffffffffffffffffffffffffffffffffffff\n      mul\n      not\n      and\n      swap1\n      dup4\n      0xffffffffffffffffffffffffffffffffffffffff\n      and\n      mul\n      or\n      swap1\n      sstore\n      pop\n      0x01\n      dup3\n      add\n      sload\n      dup2\n      0x01\n      add\n      sstore\n      0x02\n      dup3\n      add\n      sload\n      dup2\n      0x02\n      add\n      sstore\n      0x03\n      dup3\n      add\n      sload\n      dup2\n      0x03\n      add\n      sstore\n      0x04\n      dup3\n      add\n      0x00\n      swap1\n      sload\n      swap1\n      0x0100\n      exp\n      swap1\n      div\n      0xffffffffffffffffffffffffffffffffffffffff\n      and\n      dup2\n      0x04\n      add\n      exp(0x0100, 0x00)\n      dup2\n      sload\n      dup2\n      0xffffffffffffffffffffffffffffffffffffffff\n      mul\n      not\n      and\n      swap1\n      dup4\n      0xffffffffffffffffffffffffffffffffffffffff\n      and\n      mul\n      or\n      swap1\n      sstore\n      pop\n      0x05\n      dup3\n      add\n      sload\n      dup2\n      0x05\n      add\n      sstore\n      0x06\n      dup3\n      add\n      sload\n      dup2\n      0x06\n      add\n      sstore\n      0x07\n      dup3\n      add\n      0x00\n      swap1\n      sload\n      swap1\n      0x0100\n      exp\n      swap1\n      div\n      0xff\n      and\n      dup2\n      0x07\n      add\n      exp(0x0100, 0x00)\n      dup2\n      sload\n      dup2\n      0xff\n      mul\n      not\n      and\n      swap1\n      dup4\n      iszero\n      iszero\n      mul\n      or\n      swap1\n      sstore\n      pop\n      0x07\n      dup3\n      add\n      0x01\n      swap1\n      sload\n      swap1\n      0x0100\n      exp\n      swap1\n      div\n      0xff\n      and\n      dup2\n      0x07\n      add\n      exp(0x0100, 0x01)\n      dup2\n      sload\n      dup2\n      0xff\n      mul\n      not\n      and\n      swap1\n      dup4\n      iszero\n      iszero\n      mul\n      or\n      swap1\n      sstore\n      pop\n      0x07\n      dup3\n      add\n      0x02\n      swap1\n      sload\n      swap1\n      0x0100\n      exp\n      swap1\n      div\n      0xff\n      and\n      dup2\n      0x07\n      add\n      exp(0x0100, 0x02)\n      dup2\n      sload\n      dup2\n      0xff\n      mul\n      not\n      and\n      swap1\n      dup4\n      iszero\n      iszero\n      mul\n      or\n      swap1\n      sstore\n      pop\n      swap1\n      pop\n      pop\n        /* \"contracts/P2P_Loanify.sol\":3808:3913  if (offerId < lastOfferIndex) {... */\n    tag_175:\n        /* \"contracts/P2P_Loanify.sol\":3922:3933  offersArray */\n      0x0f\n        /* \"contracts/P2P_Loanify.sol\":3922:3939  offersArray.pop() */\n      dup1\n      sload\n      dup1\n      tag_180\n      jumpi\n      mstore(0x00, 0x4e487b7100000000000000000000000000000000000000000000000000000000)\n      mstore(0x04, 0x31)\n      revert(0x00, 0x24)\n    tag_180:\n      0x01\n      swap1\n      sub\n      dup2\n      dup2\n      swap1\n      0x00\n      mstore\n      keccak256(0x00, 0x20)\n      swap1\n      0x08\n      mul\n      add\n      0x00\n      dup1\n      dup3\n      add\n      exp(0x0100, 0x00)\n      dup2\n      sload\n      swap1\n      0xffffffffffffffffffffffffffffffffffffffff\n      mul\n      not\n      and\n      swap1\n      sstore\n      0x01\n      dup3\n      add\n      0x00\n      swap1\n      sstore\n      0x02\n      dup3\n      add\n      0x00\n      swap1\n      sstore\n      0x03\n      dup3\n      add\n      0x00\n      swap1\n      sstore\n      0x04\n      dup3\n      add\n      exp(0x0100, 0x00)\n      dup2\n      sload\n      swap1\n      0xffffffffffffffffffffffffffffffffffffffff\n      mul\n      not\n      and\n      swap1\n      sstore\n      0x05\n      dup3\n      add\n      0x00\n      swap1\n      sstore\n      0x06\n      dup3\n      add\n      0x00\n      swap1\n      sstore\n      0x07\n      dup3\n      add\n      exp(0x0100, 0x00)\n      dup2\n      sload\n      swap1\n      0xff\n      mul\n      not\n      and\n      swap1\n      sstore\n      0x07\n      dup3\n      add\n      exp(0x0100, 0x01)\n      dup2\n      sload\n      swap1\n      0xff\n      mul\n      not\n      and\n      swap1\n      sstore\n      0x07\n      dup3\n      add\n      exp(0x0100, 0x02)\n      dup2\n      sload\n      swap1\n      0xff\n      mul\n      not\n      and\n      swap1\n      sstore\n      pop\n      pop\n      swap1\n      sstore\n        /* \"contracts/P2P_Loanify.sol\":3950:3962  bool success */\n      0x00\n        /* \"contracts/P2P_Loanify.sol\":3965:3970  giver */\n      dup4\n        /* \"contracts/P2P_Loanify.sol\":3965:3975  giver.send */\n      0xffffffffffffffffffffffffffffffffffffffff\n      and\n        /* \"contracts/P2P_Loanify.sol\":3965:3988  giver.send(amount*1e18) */\n      0x08fc\n        /* \"contracts/P2P_Loanify.sol\":3983:3987  1e18 */\n      0x0de0b6b3a7640000\n        /* \"contracts/P2P_Loanify.sol\":3976:3982  amount */\n      dup8\n        /* \"contracts/P2P_Loanify.sol\":3976:3987  amount*1e18 */\n      tag_182\n      swap2\n      swap1\n      tag_183\n      jump\t// in\n    tag_182:\n        /* \"contracts/P2P_Loanify.sol\":3965:3988  giver.send(amount*1e18) */\n      swap1\n      dup2\n      iszero\n      mul\n      swap1\n      mload(0x40)\n      0x00\n      mload(0x40)\n      dup1\n      dup4\n      sub\n      dup2\n      dup6\n      dup9\n      dup9\n      call\n      swap4\n      pop\n      pop\n      pop\n      pop\n        /* \"contracts/P2P_Loanify.sol\":3950:3988  bool success = giver.send(amount*1e18) */\n      swap1\n      pop\n        /* \"contracts/P2P_Loanify.sol\":4002:4009  success */\n      dup1\n        /* \"contracts/P2P_Loanify.sol\":3998:4254  if (success) {... */\n      iszero\n      tag_185\n      jumpi\n        /* \"contracts/P2P_Loanify.sol\":4085:4122  return \"Your offer has been refunded\" */\n      mload(0x40)\n      dup1\n      0x40\n      add\n      0x40\n      mstore\n      dup1\n      0x1c\n      dup2\n      mstore\n      0x20\n      add\n      0x596f7572206f6666657220686173206265656e20726566756e64656400000000\n      dup2\n      mstore\n      pop\n      swap3\n      pop\n      pop\n      pop\n      jump(tag_164)\n        /* \"contracts/P2P_Loanify.sol\":3998:4254  if (success) {... */\n    tag_185:\n        /* \"contracts/P2P_Loanify.sol\":4209:4243  return \"Failed to transfer funds.\" */\n      mload(0x40)\n      dup1\n      0x40\n      add\n      0x40\n      mstore\n      dup1\n      0x19\n      dup2\n      mstore\n      0x20\n      add\n      0x4661696c656420746f207472616e736665722066756e64732e00000000000000\n      dup2\n      mstore\n      pop\n      swap3\n      pop\n      pop\n      pop\n        /* \"contracts/P2P_Loanify.sol\":3418:4261  function delete_offer(uint256 offerId, uint256 amount, address payable giver) external payable returns(string memory) {... */\n    tag_164:\n      swap4\n      swap3\n      pop\n      pop\n      pop\n      jump\t// out\n        /* \"contracts/P2P_Loanify.sol\":6101:6410  function get_credit_score() public view returns (uint256) {... */\n    tag_41:\n        /* \"contracts/P2P_Loanify.sol\":6150:6157  uint256 */\n      0x00\n        /* \"contracts/P2P_Loanify.sol\":6323:6324  0 */\n      dup1\n        /* \"contracts/P2P_Loanify.sol\":6293:6307  borrowerCredit */\n      0x02\n        /* \"contracts/P2P_Loanify.sol\":6293:6319  borrowerCredit[msg.sender] */\n      0x00\n        /* \"contracts/P2P_Loanify.sol\":6308:6318  msg.sender */\n      caller\n        /* \"contracts/P2P_Loanify.sol\":6293:6319  borrowerCredit[msg.sender] */\n      0xffffffffffffffffffffffffffffffffffffffff\n      and\n      0xffffffffffffffffffffffffffffffffffffffff\n      and\n      dup2\n      mstore\n      0x20\n      add\n      swap1\n      dup2\n      mstore\n      0x20\n      add\n      0x00\n      keccak256\n      sload\n        /* \"contracts/P2P_Loanify.sol\":6293:6324  borrowerCredit[msg.sender] != 0 */\n      eq\n      iszero\n        /* \"contracts/P2P_Loanify.sol\":6285:6359  require(borrowerCredit[msg.sender] != 0,\"Error getting your credit score\") */\n      tag_188\n      jumpi\n      mload(0x40)\n      0x08c379a000000000000000000000000000000000000000000000000000000000\n      dup2\n      mstore\n      0x04\n      add\n      tag_189\n      swap1\n      tag_190\n      jump\t// in\n    tag_189:\n      mload(0x40)\n      dup1\n      swap2\n      sub\n      swap1\n      revert\n    tag_188:\n        /* \"contracts/P2P_Loanify.sol\":6376:6390  borrowerCredit */\n      0x02\n        /* \"contracts/P2P_Loanify.sol\":6376:6402  borrowerCredit[msg.sender] */\n      0x00\n        /* \"contracts/P2P_Loanify.sol\":6391:6401  msg.sender */\n      caller\n        /* \"contracts/P2P_Loanify.sol\":6376:6402  borrowerCredit[msg.sender] */\n      0xffffffffffffffffffffffffffffffffffffffff\n      and\n      0xffffffffffffffffffffffffffffffffffffffff\n      and\n      dup2\n      mstore\n      0x20\n      add\n      swap1\n      dup2\n      mstore\n      0x20\n      add\n      0x00\n      keccak256\n      sload\n        /* \"contracts/P2P_Loanify.sol\":6369:6402  return borrowerCredit[msg.sender] */\n      swap1\n      pop\n        /* \"contracts/P2P_Loanify.sol\":6101:6410  function get_credit_score() public view returns (uint256) {... */\n      swap1\n      jump\t// out\n        /* \"contracts/P2P_Loanify.sol\":5159:5196  borrowerSchema[] public customerArray */\n    tag_48:\n      0x11\n      dup2\n      dup2\n      sload\n      dup2\n      lt\n      tag_191\n      jumpi\n      0x00\n      dup1\n      revert\n    tag_191:\n      swap1\n      0x00\n      mstore\n      keccak256(0x00, 0x20)\n      swap1\n      0x04\n      mul\n      add\n      0x00\n      swap2\n      pop\n      swap1\n      pop\n      dup1\n      0x00\n      add\n      0x00\n      swap1\n      sload\n      swap1\n      0x0100\n      exp\n      swap1\n      div\n      0xffffffffffffffffffffffffffffffffffffffff\n      and\n      swap1\n      dup1\n      0x01\n      add\n      sload\n      swap1\n      dup1\n      0x02\n      add\n      sload\n      swap1\n      dup1\n      0x03\n      add\n      sload\n      swap1\n      pop\n      dup5\n      jump\t// out\n        /* \"contracts/P2P_Loanify.sol\":4302:4710  function remove_offer(uint256 offerId) public payable{  ... */\n    tag_53:\n        /* \"contracts/P2P_Loanify.sol\":4367:4389  uint256 lastOfferIndex */\n      0x00\n        /* \"contracts/P2P_Loanify.sol\":4413:4414  1 */\n      0x01\n        /* \"contracts/P2P_Loanify.sol\":4392:4403  offersArray */\n      0x0f\n        /* \"contracts/P2P_Loanify.sol\":4392:4410  offersArray.length */\n      dup1\n      sload\n      swap1\n      pop\n        /* \"contracts/P2P_Loanify.sol\":4392:4414  offersArray.length - 1 */\n      tag_194\n      swap2\n      swap1\n      tag_168\n      jump\t// in\n    tag_194:\n        /* \"contracts/P2P_Loanify.sol\":4367:4414  uint256 lastOfferIndex = offersArray.length - 1 */\n      swap1\n      pop\n        /* \"contracts/P2P_Loanify.sol\":4450:4451  0 */\n      0x00\n        /* \"contracts/P2P_Loanify.sol\":4432:4446  lastOfferIndex */\n      dup2\n        /* \"contracts/P2P_Loanify.sol\":4432:4451  lastOfferIndex >= 0 */\n      lt\n      iszero\n        /* \"contracts/P2P_Loanify.sol\":4424:4481  require(lastOfferIndex >= 0, \"No offers exist to delete\") */\n      tag_195\n      jumpi\n      mload(0x40)\n      0x08c379a000000000000000000000000000000000000000000000000000000000\n      dup2\n      mstore\n      0x04\n      add\n      tag_196\n      swap1\n      tag_171\n      jump\t// in\n    tag_196:\n      mload(0x40)\n      dup1\n      swap2\n      sub\n      swap1\n      revert\n    tag_195:\n        /* \"contracts/P2P_Loanify.sol\":4510:4524  lastOfferIndex */\n      dup1\n        /* \"contracts/P2P_Loanify.sol\":4499:4506  offerId */\n      dup3\n        /* \"contracts/P2P_Loanify.sol\":4499:4524  offerId <= lastOfferIndex */\n      gt\n      iszero\n        /* \"contracts/P2P_Loanify.sol\":4491:4558  require(offerId <= lastOfferIndex, \"Offer does not exist in array\") */\n      tag_197\n      jumpi\n      mload(0x40)\n      0x08c379a000000000000000000000000000000000000000000000000000000000\n      dup2\n      mstore\n      0x04\n      add\n      tag_198\n      swap1\n      tag_174\n      jump\t// in\n    tag_198:\n      mload(0x40)\n      dup1\n      swap2\n      sub\n      swap1\n      revert\n    tag_197:\n        /* \"contracts/P2P_Loanify.sol\":4582:4596  lastOfferIndex */\n      dup1\n        /* \"contracts/P2P_Loanify.sol\":4572:4579  offerId */\n      dup3\n        /* \"contracts/P2P_Loanify.sol\":4572:4596  offerId < lastOfferIndex */\n      lt\n        /* \"contracts/P2P_Loanify.sol\":4568:4673  if (offerId < lastOfferIndex) {... */\n      iszero\n      tag_199\n      jumpi\n        /* \"contracts/P2P_Loanify.sol\":4635:4646  offersArray */\n      0x0f\n        /* \"contracts/P2P_Loanify.sol\":4647:4661  lastOfferIndex */\n      dup2\n        /* \"contracts/P2P_Loanify.sol\":4635:4662  offersArray[lastOfferIndex] */\n      dup2\n      sload\n      dup2\n      lt\n      tag_200\n      jumpi\n      mstore(0x00, 0x4e487b7100000000000000000000000000000000000000000000000000000000)\n      mstore(0x04, 0x32)\n      revert(0x00, 0x24)\n    tag_200:\n      swap1\n      0x00\n      mstore\n      keccak256(0x00, 0x20)\n      swap1\n      0x08\n      mul\n      add\n        /* \"contracts/P2P_Loanify.sol\":4612:4623  offersArray */\n      0x0f\n        /* \"contracts/P2P_Loanify.sol\":4624:4631  offerId */\n      dup4\n        /* \"contracts/P2P_Loanify.sol\":4612:4632  offersArray[offerId] */\n      dup2\n      sload\n      dup2\n      lt\n      tag_202\n      jumpi\n      mstore(0x00, 0x4e487b7100000000000000000000000000000000000000000000000000000000)\n      mstore(0x04, 0x32)\n      revert(0x00, 0x24)\n    tag_202:\n      swap1\n      0x00\n      mstore\n      keccak256(0x00, 0x20)\n      swap1\n      0x08\n      mul\n      add\n        /* \"contracts/P2P_Loanify.sol\":4612:4662  offersArray[offerId] = offersArray[lastOfferIndex] */\n      0x00\n      dup3\n      add\n      0x00\n      swap1\n      sload\n      swap1\n      0x0100\n      exp\n      swap1\n      div\n      0xffffffffffffffffffffffffffffffffffffffff\n      and\n      dup2\n      0x00\n      add\n      exp(0x0100, 0x00)\n      dup2\n      sload\n      dup2\n      0xffffffffffffffffffffffffffffffffffffffff\n      mul\n      not\n      and\n      swap1\n      dup4\n      0xffffffffffffffffffffffffffffffffffffffff\n      and\n      mul\n      or\n      swap1\n      sstore\n      pop\n      0x01\n      dup3\n      add\n      sload\n      dup2\n      0x01\n      add\n      sstore\n      0x02\n      dup3\n      add\n      sload\n      dup2\n      0x02\n      add\n      sstore\n      0x03\n      dup3\n      add\n      sload\n      dup2\n      0x03\n      add\n      sstore\n      0x04\n      dup3\n      add\n      0x00\n      swap1\n      sload\n      swap1\n      0x0100\n      exp\n      swap1\n      div\n      0xffffffffffffffffffffffffffffffffffffffff\n      and\n      dup2\n      0x04\n      add\n      exp(0x0100, 0x00)\n      dup2\n      sload\n      dup2\n      0xffffffffffffffffffffffffffffffffffffffff\n      mul\n      not\n      and\n      swap1\n      dup4\n      0xffffffffffffffffffffffffffffffffffffffff\n      and\n      mul\n      or\n      swap1\n      sstore\n      pop\n      0x05\n      dup3\n      add\n      sload\n      dup2\n      0x05\n      add\n      sstore\n      0x06\n      dup3\n      add\n      sload\n      dup2\n      0x06\n      add\n      sstore\n      0x07\n      dup3\n      add\n      0x00\n      swap1\n      sload\n      swap1\n      0x0100\n      exp\n      swap1\n      div\n      0xff\n      and\n      dup2\n      0x07\n      add\n      exp(0x0100, 0x00)\n      dup2\n      sload\n      dup2\n      0xff\n      mul\n      not\n      and\n      swap1\n      dup4\n      iszero\n      iszero\n      mul\n      or\n      swap1\n      sstore\n      pop\n      0x07\n      dup3\n      add\n      0x01\n      swap1\n      sload\n      swap1\n      0x0100\n      exp\n      swap1\n      div\n      0xff\n      and\n      dup2\n      0x07\n      add\n      exp(0x0100, 0x01)\n      dup2\n      sload\n      dup2\n      0xff\n      mul\n      not\n      and\n      swap1\n      dup4\n      iszero\n      iszero\n      mul\n      or\n      swap1\n      sstore\n      pop\n      0x07\n      dup3\n      add\n      0x02\n      swap1\n      sload\n      swap1\n      0x0100\n      exp\n      swap1\n      div\n      0xff\n      and\n      dup2\n      0x07\n      add\n      exp(0x0100, 0x02)\n      dup2\n      sload\n      dup2\n      0xff\n      mul\n      not\n      and\n      swap1\n      dup4\n      iszero\n      iszero\n      mul\n      or\n      swap1\n      sstore\n      pop\n      swap1\n      pop\n      pop\n        /* \"contracts/P2P_Loanify.sol\":4568:4673  if (offerId < lastOfferIndex) {... */\n    tag_199:\n        /* \"contracts/P2P_Loanify.sol\":4682:4693  offersArray */\n      0x0f\n        /* \"contracts/P2P_Loanify.sol\":4682:4699  offersArray.pop() */\n      dup1\n      sload\n      dup1\n      tag_204\n      jumpi\n      mstore(0x00, 0x4e487b7100000000000000000000000000000000000000000000000000000000)\n      mstore(0x04, 0x31)\n      revert(0x00, 0x24)\n    tag_204:\n      0x01\n      swap1\n      sub\n      dup2\n      dup2\n      swap1\n      0x00\n      mstore\n      keccak256(0x00, 0x20)\n      swap1\n      0x08\n      mul\n      add\n      0x00\n      dup1\n      dup3\n      add\n      exp(0x0100, 0x00)\n      dup2\n      sload\n      swap1\n      0xffffffffffffffffffffffffffffffffffffffff\n      mul\n      not\n      and\n      swap1\n      sstore\n      0x01\n      dup3\n      add\n      0x00\n      swap1\n      sstore\n      0x02\n      dup3\n      add\n      0x00\n      swap1\n      sstore\n      0x03\n      dup3\n      add\n      0x00\n      swap1\n      sstore\n      0x04\n      dup3\n      add\n      exp(0x0100, 0x00)\n      dup2\n      sload\n      swap1\n      0xffffffffffffffffffffffffffffffffffffffff\n      mul\n      not\n      and\n      swap1\n      sstore\n      0x05\n      dup3\n      add\n      0x00\n      swap1\n      sstore\n      0x06\n      dup3\n      add\n      0x00\n      swap1\n      sstore\n      0x07\n      dup3\n      add\n      exp(0x0100, 0x00)\n      dup2\n      sload\n      swap1\n      0xff\n      mul\n      not\n      and\n      swap1\n      sstore\n      0x07\n      dup3\n      add\n      exp(0x0100, 0x01)\n      dup2\n      sload\n      swap1\n      0xff\n      mul\n      not\n      and\n      swap1\n      sstore\n      0x07\n      dup3\n      add\n      exp(0x0100, 0x02)\n      dup2\n      sload\n      swap1\n      0xff\n      mul\n      not\n      and\n      swap1\n      sstore\n      pop\n      pop\n      swap1\n      sstore\n        /* \"contracts/P2P_Loanify.sol\":4302:4710  function remove_offer(uint256 offerId) public payable{  ... */\n      pop\n      pop\n      jump\t// out\n        /* \"contracts/P2P_Loanify.sol\":915:958  mapping(uint256 => bool) public isAvailable */\n    tag_57:\n      mstore(0x20, 0x0b)\n      dup1\n      0x00\n      mstore\n      keccak256(0x00, 0x40)\n      0x00\n      swap2\n      pop\n      sload\n      swap1\n      0x0100\n      exp\n      swap1\n      div\n      0xff\n      and\n      dup2\n      jump\t// out\n        /* \"contracts/P2P_Loanify.sol\":5281:6028  function add_customer(address _customer, uint256 _creditScore, uint256 _netIncome, uint _customer_balance) public {... */\n    tag_64:\n        /* \"contracts/P2P_Loanify.sol\":5492:5504  _creditScore */\n      dup3\n        /* \"contracts/P2P_Loanify.sol\":5464:5478  borrowerCredit */\n      0x02\n        /* \"contracts/P2P_Loanify.sol\":5464:5489  borrowerCredit[_customer] */\n      0x00\n        /* \"contracts/P2P_Loanify.sol\":5479:5488  _customer */\n      dup7\n        /* \"contracts/P2P_Loanify.sol\":5464:5489  borrowerCredit[_customer] */\n      0xffffffffffffffffffffffffffffffffffffffff\n      and\n      0xffffffffffffffffffffffffffffffffffffffff\n      and\n      dup2\n      mstore\n      0x20\n      add\n      swap1\n      dup2\n      mstore\n      0x20\n      add\n      0x00\n      keccak256\n        /* \"contracts/P2P_Loanify.sol\":5464:5504  borrowerCredit[_customer] = _creditScore */\n      dup2\n      swap1\n      sstore\n      pop\n        /* \"contracts/P2P_Loanify.sol\":5544:5554  _netIncome */\n      dup2\n        /* \"contracts/P2P_Loanify.sol\":5514:5530  borrowerIncomePY */\n      0x03\n        /* \"contracts/P2P_Loanify.sol\":5514:5541  borrowerIncomePY[_customer] */\n      0x00\n        /* \"contracts/P2P_Loanify.sol\":5531:5540  _customer */\n      dup7\n        /* \"contracts/P2P_Loanify.sol\":5514:5541  borrowerIncomePY[_customer] */\n      0xffffffffffffffffffffffffffffffffffffffff\n      and\n      0xffffffffffffffffffffffffffffffffffffffff\n      and\n      dup2\n      mstore\n      0x20\n      add\n      swap1\n      dup2\n      mstore\n      0x20\n      add\n      0x00\n      keccak256\n        /* \"contracts/P2P_Loanify.sol\":5514:5554  borrowerIncomePY[_customer] = _netIncome */\n      dup2\n      swap1\n      sstore\n      pop\n        /* \"contracts/P2P_Loanify.sol\":5593:5610  _customer_balance */\n      dup1\n        /* \"contracts/P2P_Loanify.sol\":5564:5579  borrowerBalance */\n      0x04\n        /* \"contracts/P2P_Loanify.sol\":5564:5590  borrowerBalance[_customer] */\n      0x00\n        /* \"contracts/P2P_Loanify.sol\":5580:5589  _customer */\n      dup7\n        /* \"contracts/P2P_Loanify.sol\":5564:5590  borrowerBalance[_customer] */\n      0xffffffffffffffffffffffffffffffffffffffff\n      and\n      0xffffffffffffffffffffffffffffffffffffffff\n      and\n      dup2\n      mstore\n      0x20\n      add\n      swap1\n      dup2\n      mstore\n      0x20\n      add\n      0x00\n      keccak256\n        /* \"contracts/P2P_Loanify.sol\":5564:5610  borrowerBalance[_customer] = _customer_balance */\n      dup2\n      swap1\n      sstore\n      pop\n        /* \"contracts/P2P_Loanify.sol\":5690:5723  borrowerSchema memory newCustomer */\n      0x00\n        /* \"contracts/P2P_Loanify.sol\":5726:5924  borrowerSchema({... */\n      mload(0x40)\n      dup1\n      0x80\n      add\n      0x40\n      mstore\n      dup1\n        /* \"contracts/P2P_Loanify.sol\":5772:5781  _customer */\n      dup7\n        /* \"contracts/P2P_Loanify.sol\":5726:5924  borrowerSchema({... */\n      0xffffffffffffffffffffffffffffffffffffffff\n      and\n      dup2\n      mstore\n      0x20\n      add\n        /* \"contracts/P2P_Loanify.sol\":5811:5823  _creditScore */\n      dup6\n        /* \"contracts/P2P_Loanify.sol\":5726:5924  borrowerSchema({... */\n      dup2\n      mstore\n      0x20\n      add\n        /* \"contracts/P2P_Loanify.sol\":5854:5871  _customer_balance */\n      dup4\n        /* \"contracts/P2P_Loanify.sol\":5726:5924  borrowerSchema({... */\n      dup2\n      mstore\n      0x20\n      add\n        /* \"contracts/P2P_Loanify.sol\":5903:5913  _netIncome */\n      dup5\n        /* \"contracts/P2P_Loanify.sol\":5726:5924  borrowerSchema({... */\n      dup2\n      mstore\n      pop\n        /* \"contracts/P2P_Loanify.sol\":5690:5924  borrowerSchema memory newCustomer = borrowerSchema({... */\n      swap1\n      pop\n        /* \"contracts/P2P_Loanify.sol\":5990:6003  customerArray */\n      0x11\n        /* \"contracts/P2P_Loanify.sol\":6009:6020  newCustomer */\n      dup2\n        /* \"contracts/P2P_Loanify.sol\":5990:6021  customerArray.push(newCustomer) */\n      swap1\n      dup1\n      0x01\n      dup2\n      sload\n      add\n      dup1\n      dup3\n      sstore\n      dup1\n      swap2\n      pop\n      pop\n      0x01\n      swap1\n      sub\n      swap1\n      0x00\n      mstore\n      keccak256(0x00, 0x20)\n      swap1\n      0x04\n      mul\n      add\n      0x00\n      swap1\n      swap2\n      swap1\n      swap2\n      swap1\n      swap2\n      pop\n      0x00\n      dup3\n      add\n      mload\n      dup2\n      0x00\n      add\n      exp(0x0100, 0x00)\n      dup2\n      sload\n      dup2\n      0xffffffffffffffffffffffffffffffffffffffff\n      mul\n      not\n      and\n      swap1\n      dup4\n      0xffffffffffffffffffffffffffffffffffffffff\n      and\n      mul\n      or\n      swap1\n      sstore\n      pop\n      0x20\n      dup3\n      add\n      mload\n      dup2\n      0x01\n      add\n      sstore\n      0x40\n      dup3\n      add\n      mload\n      dup2\n      0x02\n      add\n      sstore\n      0x60\n      dup3\n      add\n      mload\n      dup2\n      0x03\n      add\n      sstore\n      pop\n      pop\n        /* \"contracts/P2P_Loanify.sol\":5281:6028  function add_customer(address _customer, uint256 _creditScore, uint256 _netIncome, uint _customer_balance) public {... */\n      pop\n      pop\n      pop\n      pop\n      pop\n      jump\t// out\n        /* \"contracts/P2P_Loanify.sol\":1055:1092  mapping(uint256 => bool) public isDue */\n    tag_68:\n      mstore(0x20, 0x0e)\n      dup1\n      0x00\n      mstore\n      keccak256(0x00, 0x40)\n      0x00\n      swap2\n      pop\n      sload\n      swap1\n      0x0100\n      exp\n      swap1\n      div\n      0xff\n      and\n      dup2\n      jump\t// out\n        /* \"contracts/P2P_Loanify.sol\":964:1002  mapping(uint256 => bool) public isMine */\n    tag_73:\n      mstore(0x20, 0x0c)\n      dup1\n      0x00\n      mstore\n      keccak256(0x00, 0x40)\n      0x00\n      swap2\n      pop\n      sload\n      swap1\n      0x0100\n      exp\n      swap1\n      div\n      0xff\n      and\n      dup2\n      jump\t// out\n        /* \"contracts/P2P_Loanify.sol\":4716:5109  function remove_my_loan(uint256 offerId) public payable{  ... */\n    tag_77:\n        /* \"contracts/P2P_Loanify.sol\":4783:4805  uint256 lastOfferIndex */\n      0x00\n        /* \"contracts/P2P_Loanify.sol\":4825:4826  1 */\n      0x01\n        /* \"contracts/P2P_Loanify.sol\":4808:4815  myLoans */\n      0x10\n        /* \"contracts/P2P_Loanify.sol\":4808:4822  myLoans.length */\n      dup1\n      sload\n      swap1\n      pop\n        /* \"contracts/P2P_Loanify.sol\":4808:4826  myLoans.length - 1 */\n      tag_209\n      swap2\n      swap1\n      tag_168\n      jump\t// in\n    tag_209:\n        /* \"contracts/P2P_Loanify.sol\":4783:4826  uint256 lastOfferIndex = myLoans.length - 1 */\n      swap1\n      pop\n        /* \"contracts/P2P_Loanify.sol\":4862:4863  0 */\n      0x00\n        /* \"contracts/P2P_Loanify.sol\":4844:4858  lastOfferIndex */\n      dup2\n        /* \"contracts/P2P_Loanify.sol\":4844:4863  lastOfferIndex >= 0 */\n      lt\n      iszero\n        /* \"contracts/P2P_Loanify.sol\":4836:4893  require(lastOfferIndex >= 0, \"No offers exist to delete\") */\n      tag_210\n      jumpi\n      mload(0x40)\n      0x08c379a000000000000000000000000000000000000000000000000000000000\n      dup2\n      mstore\n      0x04\n      add\n      tag_211\n      swap1\n      tag_171\n      jump\t// in\n    tag_211:\n      mload(0x40)\n      dup1\n      swap2\n      sub\n      swap1\n      revert\n    tag_210:\n        /* \"contracts/P2P_Loanify.sol\":4922:4936  lastOfferIndex */\n      dup1\n        /* \"contracts/P2P_Loanify.sol\":4911:4918  offerId */\n      dup3\n        /* \"contracts/P2P_Loanify.sol\":4911:4936  offerId <= lastOfferIndex */\n      gt\n      iszero\n        /* \"contracts/P2P_Loanify.sol\":4903:4970  require(offerId <= lastOfferIndex, \"Offer does not exist in array\") */\n      tag_212\n      jumpi\n      mload(0x40)\n      0x08c379a000000000000000000000000000000000000000000000000000000000\n      dup2\n      mstore\n      0x04\n      add\n      tag_213\n      swap1\n      tag_174\n      jump\t// in\n    tag_213:\n      mload(0x40)\n      dup1\n      swap2\n      sub\n      swap1\n      revert\n    tag_212:\n        /* \"contracts/P2P_Loanify.sol\":4994:5008  lastOfferIndex */\n      dup1\n        /* \"contracts/P2P_Loanify.sol\":4984:4991  offerId */\n      dup3\n        /* \"contracts/P2P_Loanify.sol\":4984:5008  offerId < lastOfferIndex */\n      lt\n        /* \"contracts/P2P_Loanify.sol\":4980:5077  if (offerId < lastOfferIndex) {... */\n      iszero\n      tag_214\n      jumpi\n        /* \"contracts/P2P_Loanify.sol\":5043:5050  myLoans */\n      0x10\n        /* \"contracts/P2P_Loanify.sol\":5051:5065  lastOfferIndex */\n      dup2\n        /* \"contracts/P2P_Loanify.sol\":5043:5066  myLoans[lastOfferIndex] */\n      dup2\n      sload\n      dup2\n      lt\n      tag_215\n      jumpi\n      mstore(0x00, 0x4e487b7100000000000000000000000000000000000000000000000000000000)\n      mstore(0x04, 0x32)\n      revert(0x00, 0x24)\n    tag_215:\n      swap1\n      0x00\n      mstore\n      keccak256(0x00, 0x20)\n      swap1\n      0x08\n      mul\n      add\n        /* \"contracts/P2P_Loanify.sol\":5024:5031  myLoans */\n      0x10\n        /* \"contracts/P2P_Loanify.sol\":5032:5039  offerId */\n      dup4\n        /* \"contracts/P2P_Loanify.sol\":5024:5040  myLoans[offerId] */\n      dup2\n      sload\n      dup2\n      lt\n      tag_217\n      jumpi\n      mstore(0x00, 0x4e487b7100000000000000000000000000000000000000000000000000000000)\n      mstore(0x04, 0x32)\n      revert(0x00, 0x24)\n    tag_217:\n      swap1\n      0x00\n      mstore\n      keccak256(0x00, 0x20)\n      swap1\n      0x08\n      mul\n      add\n        /* \"contracts/P2P_Loanify.sol\":5024:5066  myLoans[offerId] = myLoans[lastOfferIndex] */\n      0x00\n      dup3\n      add\n      0x00\n      swap1\n      sload\n      swap1\n      0x0100\n      exp\n      swap1\n      div\n      0xffffffffffffffffffffffffffffffffffffffff\n      and\n      dup2\n      0x00\n      add\n      exp(0x0100, 0x00)\n      dup2\n      sload\n      dup2\n      0xffffffffffffffffffffffffffffffffffffffff\n      mul\n      not\n      and\n      swap1\n      dup4\n      0xffffffffffffffffffffffffffffffffffffffff\n      and\n      mul\n      or\n      swap1\n      sstore\n      pop\n      0x01\n      dup3\n      add\n      sload\n      dup2\n      0x01\n      add\n      sstore\n      0x02\n      dup3\n      add\n      sload\n      dup2\n      0x02\n      add\n      sstore\n      0x03\n      dup3\n      add\n      sload\n      dup2\n      0x03\n      add\n      sstore\n      0x04\n      dup3\n      add\n      0x00\n      swap1\n      sload\n      swap1\n      0x0100\n      exp\n      swap1\n      div\n      0xffffffffffffffffffffffffffffffffffffffff\n      and\n      dup2\n      0x04\n      add\n      exp(0x0100, 0x00)\n      dup2\n      sload\n      dup2\n      0xffffffffffffffffffffffffffffffffffffffff\n      mul\n      not\n      and\n      swap1\n      dup4\n      0xffffffffffffffffffffffffffffffffffffffff\n      and\n      mul\n      or\n      swap1\n      sstore\n      pop\n      0x05\n      dup3\n      add\n      sload\n      dup2\n      0x05\n      add\n      sstore\n      0x06\n      dup3\n      add\n      sload\n      dup2\n      0x06\n      add\n      sstore\n      0x07\n      dup3\n      add\n      0x00\n      swap1\n      sload\n      swap1\n      0x0100\n      exp\n      swap1\n      div\n      0xff\n      and\n      dup2\n      0x07\n      add\n      exp(0x0100, 0x00)\n      dup2\n      sload\n      dup2\n      0xff\n      mul\n      not\n      and\n      swap1\n      dup4\n      iszero\n      iszero\n      mul\n      or\n      swap1\n      sstore\n      pop\n      0x07\n      dup3\n      add\n      0x01\n      swap1\n      sload\n      swap1\n      0x0100\n      exp\n      swap1\n      div\n      0xff\n      and\n      dup2\n      0x07\n      add\n      exp(0x0100, 0x01)\n      dup2\n      sload\n      dup2\n      0xff\n      mul\n      not\n      and\n      swap1\n      dup4\n      iszero\n      iszero\n      mul\n      or\n      swap1\n      sstore\n      pop\n      0x07\n      dup3\n      add\n      0x02\n      swap1\n      sload\n      swap1\n      0x0100\n      exp\n      swap1\n      div\n      0xff\n      and\n      dup2\n      0x07\n      add\n      exp(0x0100, 0x02)\n      dup2\n      sload\n      dup2\n      0xff\n      mul\n      not\n      and\n      swap1\n      dup4\n      iszero\n      iszero\n      mul\n      or\n      swap1\n      sstore\n      pop\n      swap1\n      pop\n      pop\n        /* \"contracts/P2P_Loanify.sol\":4980:5077  if (offerId < lastOfferIndex) {... */\n    tag_214:\n        /* \"contracts/P2P_Loanify.sol\":5086:5093  myLoans */\n      0x10\n        /* \"contracts/P2P_Loanify.sol\":5086:5099  myLoans.pop() */\n      dup1\n      sload\n      dup1\n      tag_219\n      jumpi\n      mstore(0x00, 0x4e487b7100000000000000000000000000000000000000000000000000000000)\n      mstore(0x04, 0x31)\n      revert(0x00, 0x24)\n    tag_219:\n      0x01\n      swap1\n      sub\n      dup2\n      dup2\n      swap1\n      0x00\n      mstore\n      keccak256(0x00, 0x20)\n      swap1\n      0x08\n      mul\n      add\n      0x00\n      dup1\n      dup3\n      add\n      exp(0x0100, 0x00)\n      dup2\n      sload\n      swap1\n      0xffffffffffffffffffffffffffffffffffffffff\n      mul\n      not\n      and\n      swap1\n      sstore\n      0x01\n      dup3\n      add\n      0x00\n      swap1\n      sstore\n      0x02\n      dup3\n      add\n      0x00\n      swap1\n      sstore\n      0x03\n      dup3\n      add\n      0x00\n      swap1\n      sstore\n      0x04\n      dup3\n      add\n      exp(0x0100, 0x00)\n      dup2\n      sload\n      swap1\n      0xffffffffffffffffffffffffffffffffffffffff\n      mul\n      not\n      and\n      swap1\n      sstore\n      0x05\n      dup3\n      add\n      0x00\n      swap1\n      sstore\n      0x06\n      dup3\n      add\n      0x00\n      swap1\n      sstore\n      0x07\n      dup3\n      add\n      exp(0x0100, 0x00)\n      dup2\n      sload\n      swap1\n      0xff\n      mul\n      not\n      and\n      swap1\n      sstore\n      0x07\n      dup3\n      add\n      exp(0x0100, 0x01)\n      dup2\n      sload\n      swap1\n      0xff\n      mul\n      not\n      and\n      swap1\n      sstore\n      0x07\n      dup3\n      add\n      exp(0x0100, 0x02)\n      dup2\n      sload\n      swap1\n      0xff\n      mul\n      not\n      and\n      swap1\n      sstore\n      pop\n      pop\n      swap1\n      sstore\n        /* \"contracts/P2P_Loanify.sol\":4716:5109  function remove_my_loan(uint256 offerId) public payable{  ... */\n      pop\n      pop\n      jump\t// out\n        /* \"contracts/P2P_Loanify.sol\":1608:1636  offerSchema[] public myLoans */\n    tag_81:\n      0x10\n      dup2\n      dup2\n      sload\n      dup2\n      lt\n      tag_221\n      jumpi\n      0x00\n      dup1\n      revert\n    tag_221:\n      swap1\n      0x00\n      mstore\n      keccak256(0x00, 0x20)\n      swap1\n      0x08\n      mul\n      add\n      0x00\n      swap2\n      pop\n      swap1\n      pop\n      dup1\n      0x00\n      add\n      0x00\n      swap1\n      sload\n      swap1\n      0x0100\n      exp\n      swap1\n      div\n      0xffffffffffffffffffffffffffffffffffffffff\n      and\n      swap1\n      dup1\n      0x01\n      add\n      sload\n      swap1\n      dup1\n      0x02\n      add\n      sload\n      swap1\n      dup1\n      0x03\n      add\n      sload\n      swap1\n      dup1\n      0x04\n      add\n      0x00\n      swap1\n      sload\n      swap1\n      0x0100\n      exp\n      swap1\n      div\n      0xffffffffffffffffffffffffffffffffffffffff\n      and\n      swap1\n      dup1\n      0x05\n      add\n      sload\n      swap1\n      dup1\n      0x06\n      add\n      sload\n      swap1\n      dup1\n      0x07\n      add\n      0x00\n      swap1\n      sload\n      swap1\n      0x0100\n      exp\n      swap1\n      div\n      0xff\n      and\n      swap1\n      dup1\n      0x07\n      add\n      0x01\n      swap1\n      sload\n      swap1\n      0x0100\n      exp\n      swap1\n      div\n      0xff\n      and\n      swap1\n      dup1\n      0x07\n      add\n      0x02\n      swap1\n      sload\n      swap1\n      0x0100\n      exp\n      swap1\n      div\n      0xff\n      and\n      swap1\n      pop\n      dup11\n      jump\t// out\n        /* \"contracts/P2P_Loanify.sol\":765:813  mapping(uint256 => uint256) public offerDuration */\n    tag_87:\n      mstore(0x20, 0x08)\n      dup1\n      0x00\n      mstore\n      keccak256(0x00, 0x40)\n      0x00\n      swap2\n      pop\n      swap1\n      pop\n      sload\n      dup2\n      jump\t// out\n        /* \"contracts/P2P_Loanify.sol\":6795:8480  function apply_for_loan(uint256 offerId, address payable borrower) public payable returns (string memory){... */\n    tag_92:\n        /* \"contracts/P2P_Loanify.sol\":6886:6899  string memory */\n      0x60\n        /* \"contracts/P2P_Loanify.sol\":6919:6933  uint256 amount */\n      0x00\n        /* \"contracts/P2P_Loanify.sol\":6936:6947  offersArray */\n      0x0f\n        /* \"contracts/P2P_Loanify.sol\":6948:6955  offerId */\n      dup5\n        /* \"contracts/P2P_Loanify.sol\":6936:6956  offersArray[offerId] */\n      dup2\n      sload\n      dup2\n      lt\n      tag_224\n      jumpi\n      mstore(0x00, 0x4e487b7100000000000000000000000000000000000000000000000000000000)\n      mstore(0x04, 0x32)\n      revert(0x00, 0x24)\n    tag_224:\n      swap1\n      0x00\n      mstore\n      keccak256(0x00, 0x20)\n      swap1\n      0x08\n      mul\n      add\n        /* \"contracts/P2P_Loanify.sol\":6936:6969  offersArray[offerId].offer_amount */\n      0x02\n      add\n      sload\n        /* \"contracts/P2P_Loanify.sol\":6919:6969  uint256 amount = offersArray[offerId].offer_amount */\n      swap1\n      pop\n        /* \"contracts/P2P_Loanify.sol\":7099:7110  offersArray */\n      0x0f\n        /* \"contracts/P2P_Loanify.sol\":7111:7118  offerId */\n      dup5\n        /* \"contracts/P2P_Loanify.sol\":7099:7119  offersArray[offerId] */\n      dup2\n      sload\n      dup2\n      lt\n      tag_226\n      jumpi\n      mstore(0x00, 0x4e487b7100000000000000000000000000000000000000000000000000000000)\n      mstore(0x04, 0x32)\n      revert(0x00, 0x24)\n    tag_226:\n      swap1\n      0x00\n      mstore\n      keccak256(0x00, 0x20)\n      swap1\n      0x08\n      mul\n      add\n        /* \"contracts/P2P_Loanify.sol\":7099:7126  offersArray[offerId].lender */\n      0x00\n      add\n      0x00\n      swap1\n      sload\n      swap1\n      0x0100\n      exp\n      swap1\n      div\n      0xffffffffffffffffffffffffffffffffffffffff\n      and\n        /* \"contracts/P2P_Loanify.sol\":7085:7126  msg.sender != offersArray[offerId].lender */\n      0xffffffffffffffffffffffffffffffffffffffff\n      and\n        /* \"contracts/P2P_Loanify.sol\":7085:7095  msg.sender */\n      caller\n        /* \"contracts/P2P_Loanify.sol\":7085:7126  msg.sender != offersArray[offerId].lender */\n      0xffffffffffffffffffffffffffffffffffffffff\n      and\n      eq\n      iszero\n        /* \"contracts/P2P_Loanify.sol\":7077:7166  require(msg.sender != offersArray[offerId].lender, \"You cannot apply for your own loan.\") */\n      tag_228\n      jumpi\n      mload(0x40)\n      0x08c379a000000000000000000000000000000000000000000000000000000000\n      dup2\n      mstore\n      0x04\n      add\n      tag_229\n      swap1\n      tag_230\n      jump\t// in\n    tag_229:\n      mload(0x40)\n      dup1\n      swap2\n      sub\n      swap1\n      revert\n    tag_228:\n        /* \"contracts/P2P_Loanify.sol\":7261:7277  uint256 myCredit */\n      0x00\n        /* \"contracts/P2P_Loanify.sol\":7280:7298  get_credit_score() */\n      tag_231\n        /* \"contracts/P2P_Loanify.sol\":7280:7296  get_credit_score */\n      tag_41\n        /* \"contracts/P2P_Loanify.sol\":7280:7298  get_credit_score() */\n      jump\t// in\n    tag_231:\n        /* \"contracts/P2P_Loanify.sol\":7261:7298  uint256 myCredit = get_credit_score() */\n      swap1\n      pop\n        /* \"contracts/P2P_Loanify.sol\":7308:7324  uint256 myIncome */\n      0x00\n        /* \"contracts/P2P_Loanify.sol\":7327:7343  get_net_income() */\n      tag_232\n        /* \"contracts/P2P_Loanify.sol\":7327:7341  get_net_income */\n      tag_152\n        /* \"contracts/P2P_Loanify.sol\":7327:7343  get_net_income() */\n      jump\t// in\n    tag_232:\n        /* \"contracts/P2P_Loanify.sol\":7308:7343  uint256 myIncome = get_net_income() */\n      swap1\n      pop\n        /* \"contracts/P2P_Loanify.sol\":7446:7449  300 */\n      0x012c\n        /* \"contracts/P2P_Loanify.sol\":7434:7442  myCredit */\n      dup3\n        /* \"contracts/P2P_Loanify.sol\":7434:7449  myCredit >= 300 */\n      lt\n      iszero\n        /* \"contracts/P2P_Loanify.sol\":7426:7482  require(myCredit >= 300,\"Your credit score is too low.\") */\n      tag_233\n      jumpi\n      mload(0x40)\n      0x08c379a000000000000000000000000000000000000000000000000000000000\n      dup2\n      mstore\n      0x04\n      add\n      tag_234\n      swap1\n      tag_235\n      jump\t// in\n    tag_234:\n      mload(0x40)\n      dup1\n      swap2\n      sub\n      swap1\n      revert\n    tag_233:\n        /* \"contracts/P2P_Loanify.sol\":7607:7618  offersArray */\n      0x0f\n        /* \"contracts/P2P_Loanify.sol\":7619:7626  offerId */\n      dup7\n        /* \"contracts/P2P_Loanify.sol\":7607:7627  offersArray[offerId] */\n      dup2\n      sload\n      dup2\n      lt\n      tag_236\n      jumpi\n      mstore(0x00, 0x4e487b7100000000000000000000000000000000000000000000000000000000)\n      mstore(0x04, 0x32)\n      revert(0x00, 0x24)\n    tag_236:\n      swap1\n      0x00\n      mstore\n      keccak256(0x00, 0x20)\n      swap1\n      0x08\n      mul\n      add\n        /* \"contracts/P2P_Loanify.sol\":7607:7642  offersArray[offerId].lend_repayment */\n      0x06\n      add\n      sload\n        /* \"contracts/P2P_Loanify.sol\":7603:7604  5 */\n      0x05\n        /* \"contracts/P2P_Loanify.sol\":7603:7642  5 * offersArray[offerId].lend_repayment */\n      tag_238\n      swap2\n      swap1\n      tag_183\n      jump\t// in\n    tag_238:\n        /* \"contracts/P2P_Loanify.sol\":7591:7599  myIncome */\n      dup2\n        /* \"contracts/P2P_Loanify.sol\":7591:7642  myIncome >= 5 * offersArray[offerId].lend_repayment */\n      lt\n      iszero\n        /* \"contracts/P2P_Loanify.sol\":7583:7690  require(myIncome >= 5 * offersArray[offerId].lend_repayment, \"Your income level is too low for this loan.\") */\n      tag_239\n      jumpi\n      mload(0x40)\n      0x08c379a000000000000000000000000000000000000000000000000000000000\n      dup2\n      mstore\n      0x04\n      add\n      tag_240\n      swap1\n      tag_241\n      jump\t// in\n    tag_240:\n      mload(0x40)\n      dup1\n      swap2\n      sub\n      swap1\n      revert\n    tag_239:\n        /* \"contracts/P2P_Loanify.sol\":7819:7824  false */\n      0x00\n        /* \"contracts/P2P_Loanify.sol\":7784:7795  offersArray */\n      0x0f\n        /* \"contracts/P2P_Loanify.sol\":7796:7803  offerId */\n      dup8\n        /* \"contracts/P2P_Loanify.sol\":7784:7804  offersArray[offerId] */\n      dup2\n      sload\n      dup2\n      lt\n      tag_242\n      jumpi\n      mstore(0x00, 0x4e487b7100000000000000000000000000000000000000000000000000000000)\n      mstore(0x04, 0x32)\n      revert(0x00, 0x24)\n    tag_242:\n      swap1\n      0x00\n      mstore\n      keccak256(0x00, 0x20)\n      swap1\n      0x08\n      mul\n      add\n        /* \"contracts/P2P_Loanify.sol\":7784:7816  offersArray[offerId].isAvailable */\n      0x07\n      add\n      0x00\n        /* \"contracts/P2P_Loanify.sol\":7784:7824  offersArray[offerId].isAvailable = false */\n      0x0100\n      exp\n      dup2\n      sload\n      dup2\n      0xff\n      mul\n      not\n      and\n      swap1\n      dup4\n      iszero\n      iszero\n      mul\n      or\n      swap1\n      sstore\n      pop\n        /* \"contracts/P2P_Loanify.sol\":7912:7922  msg.sender */\n      caller\n        /* \"contracts/P2P_Loanify.sol\":7883:7894  offersArray */\n      0x0f\n        /* \"contracts/P2P_Loanify.sol\":7895:7902  offerId */\n      dup8\n        /* \"contracts/P2P_Loanify.sol\":7883:7903  offersArray[offerId] */\n      dup2\n      sload\n      dup2\n      lt\n      tag_244\n      jumpi\n      mstore(0x00, 0x4e487b7100000000000000000000000000000000000000000000000000000000)\n      mstore(0x04, 0x32)\n      revert(0x00, 0x24)\n    tag_244:\n      swap1\n      0x00\n      mstore\n      keccak256(0x00, 0x20)\n      swap1\n      0x08\n      mul\n      add\n        /* \"contracts/P2P_Loanify.sol\":7883:7909  offersArray[offerId].owner */\n      0x04\n      add\n      0x00\n        /* \"contracts/P2P_Loanify.sol\":7883:7922  offersArray[offerId].owner = msg.sender */\n      0x0100\n      exp\n      dup2\n      sload\n      dup2\n      0xffffffffffffffffffffffffffffffffffffffff\n      mul\n      not\n      and\n      swap1\n      dup4\n      0xffffffffffffffffffffffffffffffffffffffff\n      and\n      mul\n      or\n      swap1\n      sstore\n      pop\n        /* \"contracts/P2P_Loanify.sol\":8009:8016  myLoans */\n      0x10\n        /* \"contracts/P2P_Loanify.sol\":8022:8033  offersArray */\n      0x0f\n        /* \"contracts/P2P_Loanify.sol\":8034:8041  offerId */\n      dup8\n        /* \"contracts/P2P_Loanify.sol\":8022:8042  offersArray[offerId] */\n      dup2\n      sload\n      dup2\n      lt\n      tag_246\n      jumpi\n      mstore(0x00, 0x4e487b7100000000000000000000000000000000000000000000000000000000)\n      mstore(0x04, 0x32)\n      revert(0x00, 0x24)\n    tag_246:\n      swap1\n      0x00\n      mstore\n      keccak256(0x00, 0x20)\n      swap1\n      0x08\n      mul\n      add\n        /* \"contracts/P2P_Loanify.sol\":8009:8043  myLoans.push(offersArray[offerId]) */\n      swap1\n      dup1\n      0x01\n      dup2\n      sload\n      add\n      dup1\n      dup3\n      sstore\n      dup1\n      swap2\n      pop\n      pop\n      0x01\n      swap1\n      sub\n      swap1\n      0x00\n      mstore\n      keccak256(0x00, 0x20)\n      swap1\n      0x08\n      mul\n      add\n      0x00\n      swap1\n      swap2\n      swap1\n      swap2\n      swap1\n      swap2\n      pop\n      0x00\n      dup3\n      add\n      0x00\n      swap1\n      sload\n      swap1\n      0x0100\n      exp\n      swap1\n      div\n      0xffffffffffffffffffffffffffffffffffffffff\n      and\n      dup2\n      0x00\n      add\n      exp(0x0100, 0x00)\n      dup2\n      sload\n      dup2\n      0xffffffffffffffffffffffffffffffffffffffff\n      mul\n      not\n      and\n      swap1\n      dup4\n      0xffffffffffffffffffffffffffffffffffffffff\n      and\n      mul\n      or\n      swap1\n      sstore\n      pop\n      0x01\n      dup3\n      add\n      sload\n      dup2\n      0x01\n      add\n      sstore\n      0x02\n      dup3\n      add\n      sload\n      dup2\n      0x02\n      add\n      sstore\n      0x03\n      dup3\n      add\n      sload\n      dup2\n      0x03\n      add\n      sstore\n      0x04\n      dup3\n      add\n      0x00\n      swap1\n      sload\n      swap1\n      0x0100\n      exp\n      swap1\n      div\n      0xffffffffffffffffffffffffffffffffffffffff\n      and\n      dup2\n      0x04\n      add\n      exp(0x0100, 0x00)\n      dup2\n      sload\n      dup2\n      0xffffffffffffffffffffffffffffffffffffffff\n      mul\n      not\n      and\n      swap1\n      dup4\n      0xffffffffffffffffffffffffffffffffffffffff\n      and\n      mul\n      or\n      swap1\n      sstore\n      pop\n      0x05\n      dup3\n      add\n      sload\n      dup2\n      0x05\n      add\n      sstore\n      0x06\n      dup3\n      add\n      sload\n      dup2\n      0x06\n      add\n      sstore\n      0x07\n      dup3\n      add\n      0x00\n      swap1\n      sload\n      swap1\n      0x0100\n      exp\n      swap1\n      div\n      0xff\n      and\n      dup2\n      0x07\n      add\n      exp(0x0100, 0x00)\n      dup2\n      sload\n      dup2\n      0xff\n      mul\n      not\n      and\n      swap1\n      dup4\n      iszero\n      iszero\n      mul\n      or\n      swap1\n      sstore\n      pop\n      0x07\n      dup3\n      add\n      0x01\n      swap1\n      sload\n      swap1\n      0x0100\n      exp\n      swap1\n      div\n      0xff\n      and\n      dup2\n      0x07\n      add\n      exp(0x0100, 0x01)\n      dup2\n      sload\n      dup2\n      0xff\n      mul\n      not\n      and\n      swap1\n      dup4\n      iszero\n      iszero\n      mul\n      or\n      swap1\n      sstore\n      pop\n      0x07\n      dup3\n      add\n      0x02\n      swap1\n      sload\n      swap1\n      0x0100\n      exp\n      swap1\n      div\n      0xff\n      and\n      dup2\n      0x07\n      add\n      exp(0x0100, 0x02)\n      dup2\n      sload\n      dup2\n      0xff\n      mul\n      not\n      and\n      swap1\n      dup4\n      iszero\n      iszero\n      mul\n      or\n      swap1\n      sstore\n      pop\n      pop\n      pop\n        /* \"contracts/P2P_Loanify.sol\":8099:8120  remove_offer(offerId) */\n      tag_249\n        /* \"contracts/P2P_Loanify.sol\":8112:8119  offerId */\n      dup7\n        /* \"contracts/P2P_Loanify.sol\":8099:8111  remove_offer */\n      tag_53\n        /* \"contracts/P2P_Loanify.sol\":8099:8120  remove_offer(offerId) */\n      jump\t// in\n    tag_249:\n        /* \"contracts/P2P_Loanify.sol\":8131:8143  bool success */\n      0x00\n        /* \"contracts/P2P_Loanify.sol\":8146:8154  borrower */\n      dup6\n        /* \"contracts/P2P_Loanify.sol\":8146:8159  borrower.send */\n      0xffffffffffffffffffffffffffffffffffffffff\n      and\n        /* \"contracts/P2P_Loanify.sol\":8146:8172  borrower.send(amount*1e18) */\n      0x08fc\n        /* \"contracts/P2P_Loanify.sol\":8167:8171  1e18 */\n      0x0de0b6b3a7640000\n        /* \"contracts/P2P_Loanify.sol\":8160:8166  amount */\n      dup7\n        /* \"contracts/P2P_Loanify.sol\":8160:8171  amount*1e18 */\n      tag_250\n      swap2\n      swap1\n      tag_183\n      jump\t// in\n    tag_250:\n        /* \"contracts/P2P_Loanify.sol\":8146:8172  borrower.send(amount*1e18) */\n      swap1\n      dup2\n      iszero\n      mul\n      swap1\n      mload(0x40)\n      0x00\n      mload(0x40)\n      dup1\n      dup4\n      sub\n      dup2\n      dup6\n      dup9\n      dup9\n      call\n      swap4\n      pop\n      pop\n      pop\n      pop\n        /* \"contracts/P2P_Loanify.sol\":8131:8172  bool success = borrower.send(amount*1e18) */\n      swap1\n      pop\n        /* \"contracts/P2P_Loanify.sol\":8186:8193  success */\n      dup1\n        /* \"contracts/P2P_Loanify.sol\":8182:8473  if (success) {... */\n      iszero\n      tag_252\n      jumpi\n        /* \"contracts/P2P_Loanify.sol\":8269:8334  return \"Loan Approved. Funds can now be accessed in your wallet.\" */\n      mload(0x40)\n      dup1\n      0x60\n      add\n      0x40\n      mstore\n      dup1\n      0x38\n      dup2\n      mstore\n      0x20\n      add\n      data_fc1f430daf57c886d5fc7ef1ec28d53c3bddbd0b7e3afb182675971bc91c83a5\n      0x38\n      swap2\n      codecopy\n      swap5\n      pop\n      pop\n      pop\n      pop\n      pop\n      jump(tag_223)\n        /* \"contracts/P2P_Loanify.sol\":8182:8473  if (success) {... */\n    tag_252:\n        /* \"contracts/P2P_Loanify.sol\":8421:8462  return \"Error: Failed to transfer funds.\" */\n      mload(0x40)\n      dup1\n      0x40\n      add\n      0x40\n      mstore\n      dup1\n      0x20\n      dup2\n      mstore\n      0x20\n      add\n      0x4572726f723a204661696c656420746f207472616e736665722066756e64732e\n      dup2\n      mstore\n      pop\n      swap5\n      pop\n      pop\n      pop\n      pop\n      pop\n        /* \"contracts/P2P_Loanify.sol\":6795:8480  function apply_for_loan(uint256 offerId, address payable borrower) public payable returns (string memory){... */\n    tag_223:\n      swap3\n      swap2\n      pop\n      pop\n      jump\t// out\n        /* \"contracts/P2P_Loanify.sol\":8521:9125  function repay_loan(uint256 offerId) public payable returns(bool){... */\n    tag_96:\n        /* \"contracts/P2P_Loanify.sol\":8581:8585  bool */\n      0x00\n        /* \"contracts/P2P_Loanify.sol\":8687:8696  msg.value */\n      callvalue\n        /* \"contracts/P2P_Loanify.sol\":8665:8675  msg.sender */\n      caller\n        /* \"contracts/P2P_Loanify.sol\":8665:8683  msg.sender.balance */\n      0xffffffffffffffffffffffffffffffffffffffff\n      and\n      balance\n        /* \"contracts/P2P_Loanify.sol\":8665:8696  msg.sender.balance >= msg.value */\n      lt\n      iszero\n        /* \"contracts/P2P_Loanify.sol\":8657:8721  require(msg.sender.balance >= msg.value, \"Insufficient balance\") */\n      tag_255\n      jumpi\n      mload(0x40)\n      0x08c379a000000000000000000000000000000000000000000000000000000000\n      dup2\n      mstore\n      0x04\n      add\n      tag_256\n      swap1\n      tag_257\n      jump\t// in\n    tag_256:\n      mload(0x40)\n      dup1\n      swap2\n      sub\n      swap1\n      revert\n    tag_255:\n        /* \"contracts/P2P_Loanify.sol\":8831:8840  msg.value */\n      callvalue\n        /* \"contracts/P2P_Loanify.sol\":8806:8827  address(this).balance */\n      selfbalance\n        /* \"contracts/P2P_Loanify.sol\":8806:8840  address(this).balance >= msg.value */\n      lt\n      iszero\n        /* \"contracts/P2P_Loanify.sol\":8798:8875  require(address(this).balance >= msg.value, \"Insufficient funds in contract\") */\n      tag_258\n      jumpi\n      mload(0x40)\n      0x08c379a000000000000000000000000000000000000000000000000000000000\n      dup2\n      mstore\n      0x04\n      add\n      tag_259\n      swap1\n      tag_260\n      jump\t// in\n    tag_259:\n      mload(0x40)\n      dup1\n      swap2\n      sub\n      swap1\n      revert\n    tag_258:\n        /* \"contracts/P2P_Loanify.sol\":8959:8966  myLoans */\n      0x10\n        /* \"contracts/P2P_Loanify.sol\":8967:8974  offerId */\n      dup3\n        /* \"contracts/P2P_Loanify.sol\":8959:8975  myLoans[offerId] */\n      dup2\n      sload\n      dup2\n      lt\n      tag_261\n      jumpi\n      mstore(0x00, 0x4e487b7100000000000000000000000000000000000000000000000000000000)\n      mstore(0x04, 0x32)\n      revert(0x00, 0x24)\n    tag_261:\n      swap1\n      0x00\n      mstore\n      keccak256(0x00, 0x20)\n      swap1\n      0x08\n      mul\n      add\n        /* \"contracts/P2P_Loanify.sol\":8959:8982  myLoans[offerId].lender */\n      0x00\n      add\n      0x00\n      swap1\n      sload\n      swap1\n      0x0100\n      exp\n      swap1\n      div\n      0xffffffffffffffffffffffffffffffffffffffff\n      and\n        /* \"contracts/P2P_Loanify.sol\":8951:8992  payable(myLoans[offerId].lender).transfer */\n      0xffffffffffffffffffffffffffffffffffffffff\n      and\n        /* \"contracts/P2P_Loanify.sol\":8951:9003  payable(myLoans[offerId].lender).transfer(msg.value) */\n      0x08fc\n        /* \"contracts/P2P_Loanify.sol\":8993:9002  msg.value */\n      callvalue\n        /* \"contracts/P2P_Loanify.sol\":8951:9003  payable(myLoans[offerId].lender).transfer(msg.value) */\n      swap1\n      dup2\n      iszero\n      mul\n      swap1\n      mload(0x40)\n      0x00\n      mload(0x40)\n      dup1\n      dup4\n      sub\n      dup2\n      dup6\n      dup9\n      dup9\n      call\n      swap4\n      pop\n      pop\n      pop\n      pop\n      iszero\n      dup1\n      iszero\n      tag_264\n      jumpi\n      returndatasize\n      0x00\n      dup1\n      returndatacopy\n      revert(0x00, returndatasize)\n    tag_264:\n      pop\n        /* \"contracts/P2P_Loanify.sol\":9065:9088  remove_my_loan(offerId) */\n      tag_265\n        /* \"contracts/P2P_Loanify.sol\":9080:9087  offerId */\n      dup3\n        /* \"contracts/P2P_Loanify.sol\":9065:9079  remove_my_loan */\n      tag_77\n        /* \"contracts/P2P_Loanify.sol\":9065:9088  remove_my_loan(offerId) */\n      jump\t// in\n    tag_265:\n        /* \"contracts/P2P_Loanify.sol\":9106:9110  true */\n      0x01\n        /* \"contracts/P2P_Loanify.sol\":9099:9110  return true */\n      swap1\n      pop\n        /* \"contracts/P2P_Loanify.sol\":8521:9125  function repay_loan(uint256 offerId) public payable returns(bool){... */\n      swap2\n      swap1\n      pop\n      jump\t// out\n        /* \"contracts/P2P_Loanify.sol\":1679:1778  function get_offers() public view returns (offerSchema[] memory){... */\n    tag_100:\n        /* \"contracts/P2P_Loanify.sol\":1722:1742  offerSchema[] memory */\n      0x60\n        /* \"contracts/P2P_Loanify.sol\":1760:1771  offersArray */\n      0x0f\n        /* \"contracts/P2P_Loanify.sol\":1753:1771  return offersArray */\n      dup1\n      sload\n      dup1\n      0x20\n      mul\n      0x20\n      add\n      mload(0x40)\n      swap1\n      dup2\n      add\n      0x40\n      mstore\n      dup1\n      swap3\n      swap2\n      swap1\n      dup2\n      dup2\n      mstore\n      0x20\n      add\n      0x00\n      swap1\n    tag_267:\n      dup3\n      dup3\n      lt\n      iszero\n      tag_268\n      jumpi\n      dup4\n      dup3\n      swap1\n      0x00\n      mstore\n      keccak256(0x00, 0x20)\n      swap1\n      0x08\n      mul\n      add\n      mload(0x40)\n      dup1\n      0x0140\n      add\n      0x40\n      mstore\n      swap1\n      dup2\n      0x00\n      dup3\n      add\n      0x00\n      swap1\n      sload\n      swap1\n      0x0100\n      exp\n      swap1\n      div\n      0xffffffffffffffffffffffffffffffffffffffff\n      and\n      0xffffffffffffffffffffffffffffffffffffffff\n      and\n      0xffffffffffffffffffffffffffffffffffffffff\n      and\n      dup2\n      mstore\n      0x20\n      add\n      0x01\n      dup3\n      add\n      sload\n      dup2\n      mstore\n      0x20\n      add\n      0x02\n      dup3\n      add\n      sload\n      dup2\n      mstore\n      0x20\n      add\n      0x03\n      dup3\n      add\n      sload\n      dup2\n      mstore\n      0x20\n      add\n      0x04\n      dup3\n      add\n      0x00\n      swap1\n      sload\n      swap1\n      0x0100\n      exp\n      swap1\n      div\n      0xffffffffffffffffffffffffffffffffffffffff\n      and\n      0xffffffffffffffffffffffffffffffffffffffff\n      and\n      0xffffffffffffffffffffffffffffffffffffffff\n      and\n      dup2\n      mstore\n      0x20\n      add\n      0x05\n      dup3\n      add\n      sload\n      dup2\n      mstore\n      0x20\n      add\n      0x06\n      dup3\n      add\n      sload\n      dup2\n      mstore\n      0x20\n      add\n      0x07\n      dup3\n      add\n      0x00\n      swap1\n      sload\n      swap1\n      0x0100\n      exp\n      swap1\n      div\n      0xff\n      and\n      iszero\n      iszero\n      iszero\n      iszero\n      dup2\n      mstore\n      0x20\n      add\n      0x07\n      dup3\n      add\n      0x01\n      swap1\n      sload\n      swap1\n      0x0100\n      exp\n      swap1\n      div\n      0xff\n      and\n      iszero\n      iszero\n      iszero\n      iszero\n      dup2\n      mstore\n      0x20\n      add\n      0x07\n      dup3\n      add\n      0x02\n      swap1\n      sload\n      swap1\n      0x0100\n      exp\n      swap1\n      div\n      0xff\n      and\n      iszero\n      iszero\n      iszero\n      iszero\n      dup2\n      mstore\n      pop\n      pop\n      dup2\n      mstore\n      0x20\n      add\n      swap1\n      0x01\n      add\n      swap1\n      jump(tag_267)\n    tag_268:\n      pop\n      pop\n      pop\n      pop\n      swap1\n      pop\n        /* \"contracts/P2P_Loanify.sol\":1679:1778  function get_offers() public view returns (offerSchema[] memory){... */\n      swap1\n      jump\t// out\n        /* \"contracts/P2P_Loanify.sol\":234:283  mapping(address => uint256) public borrowerCredit */\n    tag_107:\n      mstore(0x20, 0x02)\n      dup1\n      0x00\n      mstore\n      keccak256(0x00, 0x40)\n      0x00\n      swap2\n      pop\n      swap1\n      pop\n      sload\n      dup2\n      jump\t// out\n        /* \"contracts/P2P_Loanify.sol\":1008:1049  mapping(uint256 => bool) public isDeleted */\n    tag_112:\n      mstore(0x20, 0x0d)\n      dup1\n      0x00\n      mstore\n      keccak256(0x00, 0x40)\n      0x00\n      swap2\n      pop\n      sload\n      swap1\n      0x0100\n      exp\n      swap1\n      div\n      0xff\n      and\n      dup2\n      jump\t// out\n        /* \"contracts/P2P_Loanify.sol\":657:707  mapping(uint256 => address payable ) public lender */\n    tag_117:\n      mstore(0x20, 0x06)\n      dup1\n      0x00\n      mstore\n      keccak256(0x00, 0x40)\n      0x00\n      swap2\n      pop\n      sload\n      swap1\n      0x0100\n      exp\n      swap1\n      div\n      0xffffffffffffffffffffffffffffffffffffffff\n      and\n      dup2\n      jump\t// out\n        /* \"contracts/P2P_Loanify.sol\":869:909  mapping(uint256 => address) public owner */\n    tag_123:\n      mstore(0x20, 0x0a)\n      dup1\n      0x00\n      mstore\n      keccak256(0x00, 0x40)\n      0x00\n      swap2\n      pop\n      sload\n      swap1\n      0x0100\n      exp\n      swap1\n      div\n      0xffffffffffffffffffffffffffffffffffffffff\n      and\n      dup2\n      jump\t// out\n        /* \"contracts/P2P_Loanify.sol\":819:863  mapping(uint256 => uint256) public offerRate */\n    tag_129:\n      mstore(0x20, 0x09)\n      dup1\n      0x00\n      mstore\n      keccak256(0x00, 0x40)\n      0x00\n      swap2\n      pop\n      swap1\n      pop\n      sload\n      dup2\n      jump\t// out\n        /* \"contracts/P2P_Loanify.sol\":346:396  mapping(address => uint256) public borrowerBalance */\n    tag_134:\n      mstore(0x20, 0x04)\n      dup1\n      0x00\n      mstore\n      keccak256(0x00, 0x40)\n      0x00\n      swap2\n      pop\n      swap1\n      pop\n      sload\n      dup2\n      jump\t// out\n        /* \"contracts/P2P_Loanify.sol\":1968:3381  function create_offer(uint256 _offerAmount, uint256 _loanDuration, uint256 _loanRate) external payable returns(string memory){... */\n    tag_139:\n        /* \"contracts/P2P_Loanify.sol\":2079:2092  string memory */\n      0x60\n        /* \"contracts/P2P_Loanify.sol\":2135:2136  0 */\n      0x00\n        /* \"contracts/P2P_Loanify.sol\":2120:2132  _offerAmount */\n      dup5\n        /* \"contracts/P2P_Loanify.sol\":2120:2136  _offerAmount > 0 */\n      gt\n        /* \"contracts/P2P_Loanify.sol\":2120:2157  _offerAmount > 0 && _loanDuration > 0 */\n      dup1\n      iszero\n      tag_271\n      jumpi\n      pop\n        /* \"contracts/P2P_Loanify.sol\":2156:2157  0 */\n      0x00\n        /* \"contracts/P2P_Loanify.sol\":2140:2153  _loanDuration */\n      dup4\n        /* \"contracts/P2P_Loanify.sol\":2140:2157  _loanDuration > 0 */\n      gt\n        /* \"contracts/P2P_Loanify.sol\":2120:2157  _offerAmount > 0 && _loanDuration > 0 */\n    tag_271:\n        /* \"contracts/P2P_Loanify.sol\":2120:2174  _offerAmount > 0 && _loanDuration > 0 && _loanRate > 0 */\n      dup1\n      iszero\n      tag_272\n      jumpi\n      pop\n        /* \"contracts/P2P_Loanify.sol\":2173:2174  0 */\n      0x00\n        /* \"contracts/P2P_Loanify.sol\":2161:2170  _loanRate */\n      dup3\n        /* \"contracts/P2P_Loanify.sol\":2161:2174  _loanRate > 0 */\n      gt\n        /* \"contracts/P2P_Loanify.sol\":2120:2174  _offerAmount > 0 && _loanDuration > 0 && _loanRate > 0 */\n    tag_272:\n        /* \"contracts/P2P_Loanify.sol\":2112:2207  require(_offerAmount > 0 && _loanDuration > 0 && _loanRate > 0, \"Fill in the required fields\" ) */\n      tag_273\n      jumpi\n      mload(0x40)\n      0x08c379a000000000000000000000000000000000000000000000000000000000\n      dup2\n      mstore\n      0x04\n      add\n      tag_274\n      swap1\n      tag_275\n      jump\t// in\n    tag_274:\n      mload(0x40)\n      dup1\n      swap2\n      sub\n      swap1\n      revert\n    tag_273:\n        /* \"contracts/P2P_Loanify.sol\":2262:2269  offerID */\n      0x05\n      0x00\n        /* \"contracts/P2P_Loanify.sol\":2262:2271  offerID++ */\n      dup2\n      sload\n      dup1\n      swap3\n      swap2\n      swap1\n      tag_276\n      swap1\n      tag_277\n      jump\t// in\n    tag_276:\n      swap2\n      swap1\n      pop\n      sstore\n      pop\n        /* \"contracts/P2P_Loanify.sol\":2308:2318  msg.sender */\n      caller\n        /* \"contracts/P2P_Loanify.sol\":2281:2287  lender */\n      0x06\n        /* \"contracts/P2P_Loanify.sol\":2281:2296  lender[offerID] */\n      0x00\n        /* \"contracts/P2P_Loanify.sol\":2288:2295  offerID */\n      sload(0x05)\n        /* \"contracts/P2P_Loanify.sol\":2281:2296  lender[offerID] */\n      dup2\n      mstore\n      0x20\n      add\n      swap1\n      dup2\n      mstore\n      0x20\n      add\n      0x00\n      keccak256\n      0x00\n        /* \"contracts/P2P_Loanify.sol\":2281:2319  lender[offerID] = payable (msg.sender) */\n      0x0100\n      exp\n      dup2\n      sload\n      dup2\n      0xffffffffffffffffffffffffffffffffffffffff\n      mul\n      not\n      and\n      swap1\n      dup4\n      0xffffffffffffffffffffffffffffffffffffffff\n      and\n      mul\n      or\n      swap1\n      sstore\n      pop\n        /* \"contracts/P2P_Loanify.sol\":2352:2364  _offerAmount */\n      dup4\n        /* \"contracts/P2P_Loanify.sol\":2329:2340  offerAmount */\n      0x07\n        /* \"contracts/P2P_Loanify.sol\":2329:2349  offerAmount[offerID] */\n      0x00\n        /* \"contracts/P2P_Loanify.sol\":2341:2348  offerID */\n      sload(0x05)\n        /* \"contracts/P2P_Loanify.sol\":2329:2349  offerAmount[offerID] */\n      dup2\n      mstore\n      0x20\n      add\n      swap1\n      dup2\n      mstore\n      0x20\n      add\n      0x00\n      keccak256\n        /* \"contracts/P2P_Loanify.sol\":2329:2364  offerAmount[offerID] = _offerAmount */\n      dup2\n      swap1\n      sstore\n      pop\n        /* \"contracts/P2P_Loanify.sol\":2399:2412  _loanDuration */\n      dup3\n        /* \"contracts/P2P_Loanify.sol\":2374:2387  offerDuration */\n      0x08\n        /* \"contracts/P2P_Loanify.sol\":2374:2396  offerDuration[offerID] */\n      0x00\n        /* \"contracts/P2P_Loanify.sol\":2388:2395  offerID */\n      sload(0x05)\n        /* \"contracts/P2P_Loanify.sol\":2374:2396  offerDuration[offerID] */\n      dup2\n      mstore\n      0x20\n      add\n      swap1\n      dup2\n      mstore\n      0x20\n      add\n      0x00\n      keccak256\n        /* \"contracts/P2P_Loanify.sol\":2374:2412  offerDuration[offerID] = _loanDuration */\n      dup2\n      swap1\n      sstore\n      pop\n        /* \"contracts/P2P_Loanify.sol\":2443:2452  _loanRate */\n      dup2\n        /* \"contracts/P2P_Loanify.sol\":2422:2431  offerRate */\n      0x09\n        /* \"contracts/P2P_Loanify.sol\":2422:2440  offerRate[offerID] */\n      0x00\n        /* \"contracts/P2P_Loanify.sol\":2432:2439  offerID */\n      sload(0x05)\n        /* \"contracts/P2P_Loanify.sol\":2422:2440  offerRate[offerID] */\n      dup2\n      mstore\n      0x20\n      add\n      swap1\n      dup2\n      mstore\n      0x20\n      add\n      0x00\n      keccak256\n        /* \"contracts/P2P_Loanify.sol\":2422:2452  offerRate[offerID] = _loanRate */\n      dup2\n      swap1\n      sstore\n      pop\n        /* \"contracts/P2P_Loanify.sol\":2512:2539  offerSchema memory newOffer */\n      0x00\n        /* \"contracts/P2P_Loanify.sol\":2542:2963  offerSchema({... */\n      mload(0x40)\n      dup1\n      0x0140\n      add\n      0x40\n      mstore\n      dup1\n        /* \"contracts/P2P_Loanify.sol\":2585:2595  msg.sender */\n      caller\n        /* \"contracts/P2P_Loanify.sol\":2542:2963  offerSchema({... */\n      0xffffffffffffffffffffffffffffffffffffffff\n      and\n      dup2\n      mstore\n      0x20\n      add\n        /* \"contracts/P2P_Loanify.sol\":2619:2626  offerID */\n      sload(0x05)\n        /* \"contracts/P2P_Loanify.sol\":2542:2963  offerSchema({... */\n      dup2\n      mstore\n      0x20\n      add\n        /* \"contracts/P2P_Loanify.sol\":2654:2666  _offerAmount */\n      dup7\n        /* \"contracts/P2P_Loanify.sol\":2542:2963  offerSchema({... */\n      dup2\n      mstore\n      0x20\n      add\n        /* \"contracts/P2P_Loanify.sol\":2690:2699  _loanRate */\n      dup5\n        /* \"contracts/P2P_Loanify.sol\":2542:2963  offerSchema({... */\n      dup2\n      mstore\n      0x20\n      add\n        /* \"contracts/P2P_Loanify.sol\":2719:2729  msg.sender */\n      caller\n        /* \"contracts/P2P_Loanify.sol\":2542:2963  offerSchema({... */\n      0xffffffffffffffffffffffffffffffffffffffff\n      and\n      dup2\n      mstore\n      0x20\n      add\n        /* \"contracts/P2P_Loanify.sol\":2758:2771  _loanDuration */\n      dup6\n        /* \"contracts/P2P_Loanify.sol\":2542:2963  offerSchema({... */\n      dup2\n      mstore\n      0x20\n      add\n        /* \"contracts/P2P_Loanify.sol\":2852:2865  _loanDuration */\n      dup6\n        /* \"contracts/P2P_Loanify.sol\":2845:2848  100 */\n      0x64\n        /* \"contracts/P2P_Loanify.sol\":2833:2842  _loanRate */\n      dup7\n        /* \"contracts/P2P_Loanify.sol\":2833:2848  _loanRate / 100 */\n      tag_278\n      swap2\n      swap1\n      tag_279\n      jump\t// in\n    tag_278:\n        /* \"contracts/P2P_Loanify.sol\":2817:2829  _offerAmount */\n      dup9\n        /* \"contracts/P2P_Loanify.sol\":2817:2849  _offerAmount * (_loanRate / 100) */\n      tag_280\n      swap2\n      swap1\n      tag_183\n      jump\t// in\n    tag_280:\n        /* \"contracts/P2P_Loanify.sol\":2817:2865  _offerAmount * (_loanRate / 100) * _loanDuration */\n      tag_281\n      swap2\n      swap1\n      tag_183\n      jump\t// in\n    tag_281:\n        /* \"contracts/P2P_Loanify.sol\":2801:2813  _offerAmount */\n      dup8\n        /* \"contracts/P2P_Loanify.sol\":2801:2866  _offerAmount + (_offerAmount * (_loanRate / 100) * _loanDuration) */\n      tag_282\n      swap2\n      swap1\n      tag_283\n      jump\t// in\n    tag_282:\n        /* \"contracts/P2P_Loanify.sol\":2542:2963  offerSchema({... */\n      dup2\n      mstore\n      0x20\n      add\n        /* \"contracts/P2P_Loanify.sol\":2892:2896  true */\n      0x01\n        /* \"contracts/P2P_Loanify.sol\":2542:2963  offerSchema({... */\n      iszero\n      iszero\n      dup2\n      mstore\n      0x20\n      add\n        /* \"contracts/P2P_Loanify.sol\":2922:2927  false */\n      0x00\n        /* \"contracts/P2P_Loanify.sol\":2542:2963  offerSchema({... */\n      iszero\n      iszero\n      dup2\n      mstore\n      0x20\n      add\n        /* \"contracts/P2P_Loanify.sol\":2947:2952  false */\n      0x00\n        /* \"contracts/P2P_Loanify.sol\":2542:2963  offerSchema({... */\n      iszero\n      iszero\n      dup2\n      mstore\n      pop\n        /* \"contracts/P2P_Loanify.sol\":2512:2963  offerSchema memory newOffer = offerSchema({... */\n      swap1\n      pop\n        /* \"contracts/P2P_Loanify.sol\":3026:3047  uint256 newOfferIndex */\n      0x00\n        /* \"contracts/P2P_Loanify.sol\":3050:3061  offersArray */\n      0x0f\n        /* \"contracts/P2P_Loanify.sol\":3050:3068  offersArray.length */\n      dup1\n      sload\n      swap1\n      pop\n        /* \"contracts/P2P_Loanify.sol\":3026:3068  uint256 newOfferIndex = offersArray.length */\n      swap1\n      pop\n        /* \"contracts/P2P_Loanify.sol\":3118:3129  offersArray */\n      0x0f\n        /* \"contracts/P2P_Loanify.sol\":3135:3143  newOffer */\n      dup3\n        /* \"contracts/P2P_Loanify.sol\":3118:3144  offersArray.push(newOffer) */\n      swap1\n      dup1\n      0x01\n      dup2\n      sload\n      add\n      dup1\n      dup3\n      sstore\n      dup1\n      swap2\n      pop\n      pop\n      0x01\n      swap1\n      sub\n      swap1\n      0x00\n      mstore\n      keccak256(0x00, 0x20)\n      swap1\n      0x08\n      mul\n      add\n      0x00\n      swap1\n      swap2\n      swap1\n      swap2\n      swap1\n      swap2\n      pop\n      0x00\n      dup3\n      add\n      mload\n      dup2\n      0x00\n      add\n      exp(0x0100, 0x00)\n      dup2\n      sload\n      dup2\n      0xffffffffffffffffffffffffffffffffffffffff\n      mul\n      not\n      and\n      swap1\n      dup4\n      0xffffffffffffffffffffffffffffffffffffffff\n      and\n      mul\n      or\n      swap1\n      sstore\n      pop\n      0x20\n      dup3\n      add\n      mload\n      dup2\n      0x01\n      add\n      sstore\n      0x40\n      dup3\n      add\n      mload\n      dup2\n      0x02\n      add\n      sstore\n      0x60\n      dup3\n      add\n      mload\n      dup2\n      0x03\n      add\n      sstore\n      0x80\n      dup3\n      add\n      mload\n      dup2\n      0x04\n      add\n      exp(0x0100, 0x00)\n      dup2\n      sload\n      dup2\n      0xffffffffffffffffffffffffffffffffffffffff\n      mul\n      not\n      and\n      swap1\n      dup4\n      0xffffffffffffffffffffffffffffffffffffffff\n      and\n      mul\n      or\n      swap1\n      sstore\n      pop\n      0xa0\n      dup3\n      add\n      mload\n      dup2\n      0x05\n      add\n      sstore\n      0xc0\n      dup3\n      add\n      mload\n      dup2\n      0x06\n      add\n      sstore\n      0xe0\n      dup3\n      add\n      mload\n      dup2\n      0x07\n      add\n      exp(0x0100, 0x00)\n      dup2\n      sload\n      dup2\n      0xff\n      mul\n      not\n      and\n      swap1\n      dup4\n      iszero\n      iszero\n      mul\n      or\n      swap1\n      sstore\n      pop\n      0x0100\n      dup3\n      add\n      mload\n      dup2\n      0x07\n      add\n      exp(0x0100, 0x01)\n      dup2\n      sload\n      dup2\n      0xff\n      mul\n      not\n      and\n      swap1\n      dup4\n      iszero\n      iszero\n      mul\n      or\n      swap1\n      sstore\n      pop\n      0x0120\n      dup3\n      add\n      mload\n      dup2\n      0x07\n      add\n      exp(0x0100, 0x02)\n      dup2\n      sload\n      dup2\n      0xff\n      mul\n      not\n      and\n      swap1\n      dup4\n      iszero\n      iszero\n      mul\n      or\n      swap1\n      sstore\n      pop\n      pop\n      pop\n        /* \"contracts/P2P_Loanify.sol\":3301:3302  1 */\n      0x01\n        /* \"contracts/P2P_Loanify.sol\":3285:3298  newOfferIndex */\n      dup2\n        /* \"contracts/P2P_Loanify.sol\":3285:3302  newOfferIndex + 1 */\n      tag_285\n      swap2\n      swap1\n      tag_283\n      jump\t// in\n    tag_285:\n        /* \"contracts/P2P_Loanify.sol\":3263:3274  offersArray */\n      0x0f\n        /* \"contracts/P2P_Loanify.sol\":3263:3281  offersArray.length */\n      dup1\n      sload\n      swap1\n      pop\n        /* \"contracts/P2P_Loanify.sol\":3263:3302  offersArray.length == newOfferIndex + 1 */\n      eq\n        /* \"contracts/P2P_Loanify.sol\":3255:3341  require(offersArray.length == newOfferIndex + 1, \"Error creating an offer, try again\") */\n      tag_286\n      jumpi\n      mload(0x40)\n      0x08c379a000000000000000000000000000000000000000000000000000000000\n      dup2\n      mstore\n      0x04\n      add\n      tag_287\n      swap1\n      tag_288\n      jump\t// in\n    tag_287:\n      mload(0x40)\n      dup1\n      swap2\n      sub\n      swap1\n      revert\n    tag_286:\n        /* \"contracts/P2P_Loanify.sol\":3352:3374  return \"Offer Created\" */\n      mload(0x40)\n      dup1\n      0x40\n      add\n      0x40\n      mstore\n      dup1\n      0x0d\n      dup2\n      mstore\n      0x20\n      add\n      0x4f66666572204372656174656400000000000000000000000000000000000000\n      dup2\n      mstore\n      pop\n      swap3\n      pop\n      pop\n      pop\n        /* \"contracts/P2P_Loanify.sol\":1968:3381  function create_offer(uint256 _offerAmount, uint256 _loanDuration, uint256 _loanRate) external payable returns(string memory){... */\n      swap4\n      swap3\n      pop\n      pop\n      pop\n      jump\t// out\n        /* \"contracts/P2P_Loanify.sol\":1827:1928  function get_myLoans() public view returns (offerSchema[] memory){... */\n    tag_143:\n        /* \"contracts/P2P_Loanify.sol\":1871:1891  offerSchema[] memory */\n      0x60\n        /* \"contracts/P2P_Loanify.sol\":1909:1916  myLoans */\n      0x10\n        /* \"contracts/P2P_Loanify.sol\":1902:1916  return myLoans */\n      dup1\n      sload\n      dup1\n      0x20\n      mul\n      0x20\n      add\n      mload(0x40)\n      swap1\n      dup2\n      add\n      0x40\n      mstore\n      dup1\n      swap3\n      swap2\n      swap1\n      dup2\n      dup2\n      mstore\n      0x20\n      add\n      0x00\n      swap1\n    tag_290:\n      dup3\n      dup3\n      lt\n      iszero\n      tag_291\n      jumpi\n      dup4\n      dup3\n      swap1\n      0x00\n      mstore\n      keccak256(0x00, 0x20)\n      swap1\n      0x08\n      mul\n      add\n      mload(0x40)\n      dup1\n      0x0140\n      add\n      0x40\n      mstore\n      swap1\n      dup2\n      0x00\n      dup3\n      add\n      0x00\n      swap1\n      sload\n      swap1\n      0x0100\n      exp\n      swap1\n      div\n      0xffffffffffffffffffffffffffffffffffffffff\n      and\n      0xffffffffffffffffffffffffffffffffffffffff\n      and\n      0xffffffffffffffffffffffffffffffffffffffff\n      and\n      dup2\n      mstore\n      0x20\n      add\n      0x01\n      dup3\n      add\n      sload\n      dup2\n      mstore\n      0x20\n      add\n      0x02\n      dup3\n      add\n      sload\n      dup2\n      mstore\n      0x20\n      add\n      0x03\n      dup3\n      add\n      sload\n      dup2\n      mstore\n      0x20\n      add\n      0x04\n      dup3\n      add\n      0x00\n      swap1\n      sload\n      swap1\n      0x0100\n      exp\n      swap1\n      div\n      0xffffffffffffffffffffffffffffffffffffffff\n      and\n      0xffffffffffffffffffffffffffffffffffffffff\n      and\n      0xffffffffffffffffffffffffffffffffffffffff\n      and\n      dup2\n      mstore\n      0x20\n      add\n      0x05\n      dup3\n      add\n      sload\n      dup2\n      mstore\n      0x20\n      add\n      0x06\n      dup3\n      add\n      sload\n      dup2\n      mstore\n      0x20\n      add\n      0x07\n      dup3\n      add\n      0x00\n      swap1\n      sload\n      swap1\n      0x0100\n      exp\n      swap1\n      div\n      0xff\n      and\n      iszero\n      iszero\n      iszero\n      iszero\n      dup2\n      mstore\n      0x20\n      add\n      0x07\n      dup3\n      add\n      0x01\n      swap1\n      sload\n      swap1\n      0x0100\n      exp\n      swap1\n      div\n      0xff\n      and\n      iszero\n      iszero\n      iszero\n      iszero\n      dup2\n      mstore\n      0x20\n      add\n      0x07\n      dup3\n      add\n      0x02\n      swap1\n      sload\n      swap1\n      0x0100\n      exp\n      swap1\n      div\n      0xff\n      and\n      iszero\n      iszero\n      iszero\n      iszero\n      dup2\n      mstore\n      pop\n      pop\n      dup2\n      mstore\n      0x20\n      add\n      swap1\n      0x01\n      add\n      swap1\n      jump(tag_290)\n    tag_291:\n      pop\n      pop\n      pop\n      pop\n      swap1\n      pop\n        /* \"contracts/P2P_Loanify.sol\":1827:1928  function get_myLoans() public view returns (offerSchema[] memory){... */\n      swap1\n      jump\t// out\n        /* \"contracts/P2P_Loanify.sol\":289:340  mapping(address => uint256) public borrowerIncomePY */\n    tag_148:\n      mstore(0x20, 0x03)\n      dup1\n      0x00\n      mstore\n      keccak256(0x00, 0x40)\n      0x00\n      swap2\n      pop\n      swap1\n      pop\n      sload\n      dup2\n      jump\t// out\n        /* \"contracts/P2P_Loanify.sol\":6481:6788  function get_net_income() public view returns (uint256) {... */\n    tag_152:\n        /* \"contracts/P2P_Loanify.sol\":6528:6535  uint256 */\n      0x00\n        /* \"contracts/P2P_Loanify.sol\":6701:6702  0 */\n      dup1\n        /* \"contracts/P2P_Loanify.sol\":6669:6685  borrowerIncomePY */\n      0x03\n        /* \"contracts/P2P_Loanify.sol\":6669:6697  borrowerIncomePY[msg.sender] */\n      0x00\n        /* \"contracts/P2P_Loanify.sol\":6686:6696  msg.sender */\n      caller\n        /* \"contracts/P2P_Loanify.sol\":6669:6697  borrowerIncomePY[msg.sender] */\n      0xffffffffffffffffffffffffffffffffffffffff\n      and\n      0xffffffffffffffffffffffffffffffffffffffff\n      and\n      dup2\n      mstore\n      0x20\n      add\n      swap1\n      dup2\n      mstore\n      0x20\n      add\n      0x00\n      keccak256\n      sload\n        /* \"contracts/P2P_Loanify.sol\":6669:6702  borrowerIncomePY[msg.sender] != 0 */\n      eq\n      iszero\n        /* \"contracts/P2P_Loanify.sol\":6661:6735  require(borrowerIncomePY[msg.sender] != 0,\"Error getting your net income\") */\n      tag_294\n      jumpi\n      mload(0x40)\n      0x08c379a000000000000000000000000000000000000000000000000000000000\n      dup2\n      mstore\n      0x04\n      add\n      tag_295\n      swap1\n      tag_296\n      jump\t// in\n    tag_295:\n      mload(0x40)\n      dup1\n      swap2\n      sub\n      swap1\n      revert\n    tag_294:\n        /* \"contracts/P2P_Loanify.sol\":6752:6768  borrowerIncomePY */\n      0x03\n        /* \"contracts/P2P_Loanify.sol\":6752:6780  borrowerIncomePY[msg.sender] */\n      0x00\n        /* \"contracts/P2P_Loanify.sol\":6769:6779  msg.sender */\n      caller\n        /* \"contracts/P2P_Loanify.sol\":6752:6780  borrowerIncomePY[msg.sender] */\n      0xffffffffffffffffffffffffffffffffffffffff\n      and\n      0xffffffffffffffffffffffffffffffffffffffff\n      and\n      dup2\n      mstore\n      0x20\n      add\n      swap1\n      dup2\n      mstore\n      0x20\n      add\n      0x00\n      keccak256\n      sload\n        /* \"contracts/P2P_Loanify.sol\":6745:6780  return borrowerIncomePY[msg.sender] */\n      swap1\n      pop\n        /* \"contracts/P2P_Loanify.sol\":6481:6788  function get_net_income() public view returns (uint256) {... */\n      swap1\n      jump\t// out\n        /* \"contracts/P2P_Loanify.sol\":713:759  mapping(uint256 => uint256) public offerAmount */\n    tag_157:\n      mstore(0x20, 0x07)\n      dup1\n      0x00\n      mstore\n      keccak256(0x00, 0x40)\n      0x00\n      swap2\n      pop\n      swap1\n      pop\n      sload\n      dup2\n      jump\t// out\n        /* \"contracts/P2P_Loanify.sol\":1485:1517  offerSchema[] public offersArray */\n    tag_162:\n      0x0f\n      dup2\n      dup2\n      sload\n      dup2\n      lt\n      tag_297\n      jumpi\n      0x00\n      dup1\n      revert\n    tag_297:\n      swap1\n      0x00\n      mstore\n      keccak256(0x00, 0x20)\n      swap1\n      0x08\n      mul\n      add\n      0x00\n      swap2\n      pop\n      swap1\n      pop\n      dup1\n      0x00\n      add\n      0x00\n      swap1\n      sload\n      swap1\n      0x0100\n      exp\n      swap1\n      div\n      0xffffffffffffffffffffffffffffffffffffffff\n      and\n      swap1\n      dup1\n      0x01\n      add\n      sload\n      swap1\n      dup1\n      0x02\n      add\n      sload\n      swap1\n      dup1\n      0x03\n      add\n      sload\n      swap1\n      dup1\n      0x04\n      add\n      0x00\n      swap1\n      sload\n      swap1\n      0x0100\n      exp\n      swap1\n      div\n      0xffffffffffffffffffffffffffffffffffffffff\n      and\n      swap1\n      dup1\n      0x05\n      add\n      sload\n      swap1\n      dup1\n      0x06\n      add\n      sload\n      swap1\n      dup1\n      0x07\n      add\n      0x00\n      swap1\n      sload\n      swap1\n      0x0100\n      exp\n      swap1\n      div\n      0xff\n      and\n      swap1\n      dup1\n      0x07\n      add\n      0x01\n      swap1\n      sload\n      swap1\n      0x0100\n      exp\n      swap1\n      div\n      0xff\n      and\n      swap1\n      dup1\n      0x07\n      add\n      0x02\n      swap1\n      sload\n      swap1\n      0x0100\n      exp\n      swap1\n      div\n      0xff\n      and\n      swap1\n      pop\n      dup11\n      jump\t// out\n        /* \"#utility.yul\":7:146   */\n    tag_300:\n      0x00\n        /* \"#utility.yul\":91:97   */\n      dup2\n        /* \"#utility.yul\":78:98   */\n      calldataload\n        /* \"#utility.yul\":69:98   */\n      swap1\n      pop\n        /* \"#utility.yul\":107:140   */\n      tag_302\n        /* \"#utility.yul\":134:139   */\n      dup2\n        /* \"#utility.yul\":107:140   */\n      tag_303\n      jump\t// in\n    tag_302:\n        /* \"#utility.yul\":59:146   */\n      swap3\n      swap2\n      pop\n      pop\n      jump\t// out\n        /* \"#utility.yul\":152:307   */\n    tag_304:\n      0x00\n        /* \"#utility.yul\":244:250   */\n      dup2\n        /* \"#utility.yul\":231:251   */\n      calldataload\n        /* \"#utility.yul\":222:251   */\n      swap1\n      pop\n        /* \"#utility.yul\":260:301   */\n      tag_306\n        /* \"#utility.yul\":295:300   */\n      dup2\n        /* \"#utility.yul\":260:301   */\n      tag_307\n      jump\t// in\n    tag_306:\n        /* \"#utility.yul\":212:307   */\n      swap3\n      swap2\n      pop\n      pop\n      jump\t// out\n        /* \"#utility.yul\":313:452   */\n    tag_308:\n      0x00\n        /* \"#utility.yul\":397:403   */\n      dup2\n        /* \"#utility.yul\":384:404   */\n      calldataload\n        /* \"#utility.yul\":375:404   */\n      swap1\n      pop\n        /* \"#utility.yul\":413:446   */\n      tag_310\n        /* \"#utility.yul\":440:445   */\n      dup2\n        /* \"#utility.yul\":413:446   */\n      tag_311\n      jump\t// in\n    tag_310:\n        /* \"#utility.yul\":365:452   */\n      swap3\n      swap2\n      pop\n      pop\n      jump\t// out\n        /* \"#utility.yul\":458:720   */\n    tag_106:\n      0x00\n        /* \"#utility.yul\":566:568   */\n      0x20\n        /* \"#utility.yul\":554:563   */\n      dup3\n        /* \"#utility.yul\":545:552   */\n      dup5\n        /* \"#utility.yul\":541:564   */\n      sub\n        /* \"#utility.yul\":537:569   */\n      slt\n        /* \"#utility.yul\":534:536   */\n      iszero\n      tag_313\n      jumpi\n        /* \"#utility.yul\":582:583   */\n      0x00\n        /* \"#utility.yul\":579:580   */\n      dup1\n        /* \"#utility.yul\":572:584   */\n      revert\n        /* \"#utility.yul\":534:536   */\n    tag_313:\n        /* \"#utility.yul\":625:626   */\n      0x00\n        /* \"#utility.yul\":650:703   */\n      tag_314\n        /* \"#utility.yul\":695:702   */\n      dup5\n        /* \"#utility.yul\":686:692   */\n      dup3\n        /* \"#utility.yul\":675:684   */\n      dup6\n        /* \"#utility.yul\":671:693   */\n      add\n        /* \"#utility.yul\":650:703   */\n      tag_300\n      jump\t// in\n    tag_314:\n        /* \"#utility.yul\":640:703   */\n      swap2\n      pop\n        /* \"#utility.yul\":596:713   */\n      pop\n        /* \"#utility.yul\":524:720   */\n      swap3\n      swap2\n      pop\n      pop\n      jump\t// out\n        /* \"#utility.yul\":726:1424   */\n    tag_63:\n      0x00\n      dup1\n      0x00\n      dup1\n        /* \"#utility.yul\":885:888   */\n      0x80\n        /* \"#utility.yul\":873:882   */\n      dup6\n        /* \"#utility.yul\":864:871   */\n      dup8\n        /* \"#utility.yul\":860:883   */\n      sub\n        /* \"#utility.yul\":856:889   */\n      slt\n        /* \"#utility.yul\":853:855   */\n      iszero\n      tag_316\n      jumpi\n        /* \"#utility.yul\":902:903   */\n      0x00\n        /* \"#utility.yul\":899:900   */\n      dup1\n        /* \"#utility.yul\":892:904   */\n      revert\n        /* \"#utility.yul\":853:855   */\n    tag_316:\n        /* \"#utility.yul\":945:946   */\n      0x00\n        /* \"#utility.yul\":970:1023   */\n      tag_317\n        /* \"#utility.yul\":1015:1022   */\n      dup8\n        /* \"#utility.yul\":1006:1012   */\n      dup3\n        /* \"#utility.yul\":995:1004   */\n      dup9\n        /* \"#utility.yul\":991:1013   */\n      add\n        /* \"#utility.yul\":970:1023   */\n      tag_300\n      jump\t// in\n    tag_317:\n        /* \"#utility.yul\":960:1023   */\n      swap5\n      pop\n        /* \"#utility.yul\":916:1033   */\n      pop\n        /* \"#utility.yul\":1072:1074   */\n      0x20\n        /* \"#utility.yul\":1098:1151   */\n      tag_318\n        /* \"#utility.yul\":1143:1150   */\n      dup8\n        /* \"#utility.yul\":1134:1140   */\n      dup3\n        /* \"#utility.yul\":1123:1132   */\n      dup9\n        /* \"#utility.yul\":1119:1141   */\n      add\n        /* \"#utility.yul\":1098:1151   */\n      tag_308\n      jump\t// in\n    tag_318:\n        /* \"#utility.yul\":1088:1151   */\n      swap4\n      pop\n        /* \"#utility.yul\":1043:1161   */\n      pop\n        /* \"#utility.yul\":1200:1202   */\n      0x40\n        /* \"#utility.yul\":1226:1279   */\n      tag_319\n        /* \"#utility.yul\":1271:1278   */\n      dup8\n        /* \"#utility.yul\":1262:1268   */\n      dup3\n        /* \"#utility.yul\":1251:1260   */\n      dup9\n        /* \"#utility.yul\":1247:1269   */\n      add\n        /* \"#utility.yul\":1226:1279   */\n      tag_308\n      jump\t// in\n    tag_319:\n        /* \"#utility.yul\":1216:1279   */\n      swap3\n      pop\n        /* \"#utility.yul\":1171:1289   */\n      pop\n        /* \"#utility.yul\":1328:1330   */\n      0x60\n        /* \"#utility.yul\":1354:1407   */\n      tag_320\n        /* \"#utility.yul\":1399:1406   */\n      dup8\n        /* \"#utility.yul\":1390:1396   */\n      dup3\n        /* \"#utility.yul\":1379:1388   */\n      dup9\n        /* \"#utility.yul\":1375:1397   */\n      add\n        /* \"#utility.yul\":1354:1407   */\n      tag_308\n      jump\t// in\n    tag_320:\n        /* \"#utility.yul\":1344:1407   */\n      swap2\n      pop\n        /* \"#utility.yul\":1299:1417   */\n      pop\n        /* \"#utility.yul\":843:1424   */\n      swap3\n      swap6\n      swap2\n      swap5\n      pop\n      swap3\n      pop\n      jump\t// out\n        /* \"#utility.yul\":1430:1692   */\n    tag_47:\n      0x00\n        /* \"#utility.yul\":1538:1540   */\n      0x20\n        /* \"#utility.yul\":1526:1535   */\n      dup3\n        /* \"#utility.yul\":1517:1524   */\n      dup5\n        /* \"#utility.yul\":1513:1536   */\n      sub\n        /* \"#utility.yul\":1509:1541   */\n      slt\n        /* \"#utility.yul\":1506:1508   */\n      iszero\n      tag_322\n      jumpi\n        /* \"#utility.yul\":1554:1555   */\n      0x00\n        /* \"#utility.yul\":1551:1552   */\n      dup1\n        /* \"#utility.yul\":1544:1556   */\n      revert\n        /* \"#utility.yul\":1506:1508   */\n    tag_322:\n        /* \"#utility.yul\":1597:1598   */\n      0x00\n        /* \"#utility.yul\":1622:1675   */\n      tag_323\n        /* \"#utility.yul\":1667:1674   */\n      dup5\n        /* \"#utility.yul\":1658:1664   */\n      dup3\n        /* \"#utility.yul\":1647:1656   */\n      dup6\n        /* \"#utility.yul\":1643:1665   */\n      add\n        /* \"#utility.yul\":1622:1675   */\n      tag_308\n      jump\t// in\n    tag_323:\n        /* \"#utility.yul\":1612:1675   */\n      swap2\n      pop\n        /* \"#utility.yul\":1568:1685   */\n      pop\n        /* \"#utility.yul\":1496:1692   */\n      swap3\n      swap2\n      pop\n      pop\n      jump\t// out\n        /* \"#utility.yul\":1698:2121   */\n    tag_91:\n      0x00\n      dup1\n        /* \"#utility.yul\":1831:1833   */\n      0x40\n        /* \"#utility.yul\":1819:1828   */\n      dup4\n        /* \"#utility.yul\":1810:1817   */\n      dup6\n        /* \"#utility.yul\":1806:1829   */\n      sub\n        /* \"#utility.yul\":1802:1834   */\n      slt\n        /* \"#utility.yul\":1799:1801   */\n      iszero\n      tag_325\n      jumpi\n        /* \"#utility.yul\":1847:1848   */\n      0x00\n        /* \"#utility.yul\":1844:1845   */\n      dup1\n        /* \"#utility.yul\":1837:1849   */\n      revert\n        /* \"#utility.yul\":1799:1801   */\n    tag_325:\n        /* \"#utility.yul\":1890:1891   */\n      0x00\n        /* \"#utility.yul\":1915:1968   */\n      tag_326\n        /* \"#utility.yul\":1960:1967   */\n      dup6\n        /* \"#utility.yul\":1951:1957   */\n      dup3\n        /* \"#utility.yul\":1940:1949   */\n      dup7\n        /* \"#utility.yul\":1936:1958   */\n      add\n        /* \"#utility.yul\":1915:1968   */\n      tag_308\n      jump\t// in\n    tag_326:\n        /* \"#utility.yul\":1905:1968   */\n      swap3\n      pop\n        /* \"#utility.yul\":1861:1978   */\n      pop\n        /* \"#utility.yul\":2017:2019   */\n      0x20\n        /* \"#utility.yul\":2043:2104   */\n      tag_327\n        /* \"#utility.yul\":2096:2103   */\n      dup6\n        /* \"#utility.yul\":2087:2093   */\n      dup3\n        /* \"#utility.yul\":2076:2085   */\n      dup7\n        /* \"#utility.yul\":2072:2094   */\n      add\n        /* \"#utility.yul\":2043:2104   */\n      tag_304\n      jump\t// in\n    tag_327:\n        /* \"#utility.yul\":2033:2104   */\n      swap2\n      pop\n        /* \"#utility.yul\":1988:2114   */\n      pop\n        /* \"#utility.yul\":1789:2121   */\n      swap3\n      pop\n      swap3\n      swap1\n      pop\n      jump\t// out\n        /* \"#utility.yul\":2127:2695   */\n    tag_35:\n      0x00\n      dup1\n      0x00\n        /* \"#utility.yul\":2277:2279   */\n      0x60\n        /* \"#utility.yul\":2265:2274   */\n      dup5\n        /* \"#utility.yul\":2256:2263   */\n      dup7\n        /* \"#utility.yul\":2252:2275   */\n      sub\n        /* \"#utility.yul\":2248:2280   */\n      slt\n        /* \"#utility.yul\":2245:2247   */\n      iszero\n      tag_329\n      jumpi\n        /* \"#utility.yul\":2293:2294   */\n      0x00\n        /* \"#utility.yul\":2290:2291   */\n      dup1\n        /* \"#utility.yul\":2283:2295   */\n      revert\n        /* \"#utility.yul\":2245:2247   */\n    tag_329:\n        /* \"#utility.yul\":2336:2337   */\n      0x00\n        /* \"#utility.yul\":2361:2414   */\n      tag_330\n        /* \"#utility.yul\":2406:2413   */\n      dup7\n        /* \"#utility.yul\":2397:2403   */\n      dup3\n        /* \"#utility.yul\":2386:2395   */\n      dup8\n        /* \"#utility.yul\":2382:2404   */\n      add\n        /* \"#utility.yul\":2361:2414   */\n      tag_308\n      jump\t// in\n    tag_330:\n        /* \"#utility.yul\":2351:2414   */\n      swap4\n      pop\n        /* \"#utility.yul\":2307:2424   */\n      pop\n        /* \"#utility.yul\":2463:2465   */\n      0x20\n        /* \"#utility.yul\":2489:2542   */\n      tag_331\n        /* \"#utility.yul\":2534:2541   */\n      dup7\n        /* \"#utility.yul\":2525:2531   */\n      dup3\n        /* \"#utility.yul\":2514:2523   */\n      dup8\n        /* \"#utility.yul\":2510:2532   */\n      add\n        /* \"#utility.yul\":2489:2542   */\n      tag_308\n      jump\t// in\n    tag_331:\n        /* \"#utility.yul\":2479:2542   */\n      swap3\n      pop\n        /* \"#utility.yul\":2434:2552   */\n      pop\n        /* \"#utility.yul\":2591:2593   */\n      0x40\n        /* \"#utility.yul\":2617:2678   */\n      tag_332\n        /* \"#utility.yul\":2670:2677   */\n      dup7\n        /* \"#utility.yul\":2661:2667   */\n      dup3\n        /* \"#utility.yul\":2650:2659   */\n      dup8\n        /* \"#utility.yul\":2646:2668   */\n      add\n        /* \"#utility.yul\":2617:2678   */\n      tag_304\n      jump\t// in\n    tag_332:\n        /* \"#utility.yul\":2607:2678   */\n      swap2\n      pop\n        /* \"#utility.yul\":2562:2688   */\n      pop\n        /* \"#utility.yul\":2235:2695   */\n      swap3\n      pop\n      swap3\n      pop\n      swap3\n      jump\t// out\n        /* \"#utility.yul\":2701:3253   */\n    tag_138:\n      0x00\n      dup1\n      0x00\n        /* \"#utility.yul\":2843:2845   */\n      0x60\n        /* \"#utility.yul\":2831:2840   */\n      dup5\n        /* \"#utility.yul\":2822:2829   */\n      dup7\n        /* \"#utility.yul\":2818:2841   */\n      sub\n        /* \"#utility.yul\":2814:2846   */\n      slt\n        /* \"#utility.yul\":2811:2813   */\n      iszero\n      tag_334\n      jumpi\n        /* \"#utility.yul\":2859:2860   */\n      0x00\n        /* \"#utility.yul\":2856:2857   */\n      dup1\n        /* \"#utility.yul\":2849:2861   */\n      revert\n        /* \"#utility.yul\":2811:2813   */\n    tag_334:\n        /* \"#utility.yul\":2902:2903   */\n      0x00\n        /* \"#utility.yul\":2927:2980   */\n      tag_335\n        /* \"#utility.yul\":2972:2979   */\n      dup7\n        /* \"#utility.yul\":2963:2969   */\n      dup3\n        /* \"#utility.yul\":2952:2961   */\n      dup8\n        /* \"#utility.yul\":2948:2970   */\n      add\n        /* \"#utility.yul\":2927:2980   */\n      tag_308\n      jump\t// in\n    tag_335:\n        /* \"#utility.yul\":2917:2980   */\n      swap4\n      pop\n        /* \"#utility.yul\":2873:2990   */\n      pop\n        /* \"#utility.yul\":3029:3031   */\n      0x20\n        /* \"#utility.yul\":3055:3108   */\n      tag_336\n        /* \"#utility.yul\":3100:3107   */\n      dup7\n        /* \"#utility.yul\":3091:3097   */\n      dup3\n        /* \"#utility.yul\":3080:3089   */\n      dup8\n        /* \"#utility.yul\":3076:3098   */\n      add\n        /* \"#utility.yul\":3055:3108   */\n      tag_308\n      jump\t// in\n    tag_336:\n        /* \"#utility.yul\":3045:3108   */\n      swap3\n      pop\n        /* \"#utility.yul\":3000:3118   */\n      pop\n        /* \"#utility.yul\":3157:3159   */\n      0x40\n        /* \"#utility.yul\":3183:3236   */\n      tag_337\n        /* \"#utility.yul\":3228:3235   */\n      dup7\n        /* \"#utility.yul\":3219:3225   */\n      dup3\n        /* \"#utility.yul\":3208:3217   */\n      dup8\n        /* \"#utility.yul\":3204:3226   */\n      add\n        /* \"#utility.yul\":3183:3236   */\n      tag_308\n      jump\t// in\n    tag_337:\n        /* \"#utility.yul\":3173:3236   */\n      swap2\n      pop\n        /* \"#utility.yul\":3128:3246   */\n      pop\n        /* \"#utility.yul\":2801:3253   */\n      swap3\n      pop\n      swap3\n      pop\n      swap3\n      jump\t// out\n        /* \"#utility.yul\":3259:3548   */\n    tag_338:\n      0x00\n        /* \"#utility.yul\":3403:3503   */\n      tag_340\n        /* \"#utility.yul\":3499:3502   */\n      dup4\n        /* \"#utility.yul\":3491:3497   */\n      dup4\n        /* \"#utility.yul\":3403:3503   */\n      tag_341\n      jump\t// in\n    tag_340:\n        /* \"#utility.yul\":3535:3541   */\n      0x0140\n        /* \"#utility.yul\":3530:3533   */\n      dup4\n        /* \"#utility.yul\":3526:3542   */\n      add\n        /* \"#utility.yul\":3512:3542   */\n      swap1\n      pop\n        /* \"#utility.yul\":3393:3548   */\n      swap3\n      swap2\n      pop\n      pop\n      jump\t// out\n        /* \"#utility.yul\":3554:3686   */\n    tag_342:\n        /* \"#utility.yul\":3647:3679   */\n      tag_344\n        /* \"#utility.yul\":3673:3678   */\n      dup2\n        /* \"#utility.yul\":3647:3679   */\n      tag_345\n      jump\t// in\n    tag_344:\n        /* \"#utility.yul\":3642:3645   */\n      dup3\n        /* \"#utility.yul\":3635:3680   */\n      mstore\n        /* \"#utility.yul\":3625:3686   */\n      pop\n      pop\n      jump\t// out\n        /* \"#utility.yul\":3692:3834   */\n    tag_346:\n        /* \"#utility.yul\":3795:3827   */\n      tag_348\n        /* \"#utility.yul\":3821:3826   */\n      dup2\n        /* \"#utility.yul\":3795:3827   */\n      tag_345\n      jump\t// in\n    tag_348:\n        /* \"#utility.yul\":3790:3793   */\n      dup3\n        /* \"#utility.yul\":3783:3828   */\n      mstore\n        /* \"#utility.yul\":3773:3834   */\n      pop\n      pop\n      jump\t// out\n        /* \"#utility.yul\":3840:3948   */\n    tag_349:\n        /* \"#utility.yul\":3917:3941   */\n      tag_351\n        /* \"#utility.yul\":3935:3940   */\n      dup2\n        /* \"#utility.yul\":3917:3941   */\n      tag_352\n      jump\t// in\n    tag_351:\n        /* \"#utility.yul\":3912:3915   */\n      dup3\n        /* \"#utility.yul\":3905:3942   */\n      mstore\n        /* \"#utility.yul\":3895:3948   */\n      pop\n      pop\n      jump\t// out\n        /* \"#utility.yul\":3954:4072   */\n    tag_353:\n        /* \"#utility.yul\":4041:4065   */\n      tag_355\n        /* \"#utility.yul\":4059:4064   */\n      dup2\n        /* \"#utility.yul\":4041:4065   */\n      tag_352\n      jump\t// in\n    tag_355:\n        /* \"#utility.yul\":4036:4039   */\n      dup3\n        /* \"#utility.yul\":4029:4066   */\n      mstore\n        /* \"#utility.yul\":4019:4072   */\n      pop\n      pop\n      jump\t// out\n        /* \"#utility.yul\":4152:5100   */\n    tag_356:\n      0x00\n        /* \"#utility.yul\":4354:4435   */\n      tag_358\n        /* \"#utility.yul\":4429:4434   */\n      dup3\n        /* \"#utility.yul\":4354:4435   */\n      tag_359\n      jump\t// in\n    tag_358:\n        /* \"#utility.yul\":4451:4564   */\n      tag_360\n        /* \"#utility.yul\":4557:4563   */\n      dup2\n        /* \"#utility.yul\":4552:4555   */\n      dup6\n        /* \"#utility.yul\":4451:4564   */\n      tag_361\n      jump\t// in\n    tag_360:\n        /* \"#utility.yul\":4444:4564   */\n      swap4\n      pop\n        /* \"#utility.yul\":4588:4671   */\n      tag_362\n        /* \"#utility.yul\":4665:4670   */\n      dup4\n        /* \"#utility.yul\":4588:4671   */\n      tag_363\n      jump\t// in\n    tag_362:\n        /* \"#utility.yul\":4694:4701   */\n      dup1\n        /* \"#utility.yul\":4725:4726   */\n      0x00\n        /* \"#utility.yul\":4710:5075   */\n    tag_364:\n        /* \"#utility.yul\":4735:4741   */\n      dup4\n        /* \"#utility.yul\":4732:4733   */\n      dup2\n        /* \"#utility.yul\":4729:4742   */\n      lt\n        /* \"#utility.yul\":4710:5075   */\n      iszero\n      tag_366\n      jumpi\n        /* \"#utility.yul\":4811:4817   */\n      dup2\n        /* \"#utility.yul\":4805:4818   */\n      mload\n        /* \"#utility.yul\":4838:4955   */\n      tag_367\n        /* \"#utility.yul\":4951:4954   */\n      dup9\n        /* \"#utility.yul\":4936:4949   */\n      dup3\n        /* \"#utility.yul\":4838:4955   */\n      tag_338\n      jump\t// in\n    tag_367:\n        /* \"#utility.yul\":4831:4955   */\n      swap8\n      pop\n        /* \"#utility.yul\":4978:5065   */\n      tag_368\n        /* \"#utility.yul\":5058:5064   */\n      dup4\n        /* \"#utility.yul\":4978:5065   */\n      tag_369\n      jump\t// in\n    tag_368:\n        /* \"#utility.yul\":4968:5065   */\n      swap3\n      pop\n        /* \"#utility.yul\":4770:5075   */\n      pop\n        /* \"#utility.yul\":4757:4758   */\n      0x01\n        /* \"#utility.yul\":4754:4755   */\n      dup2\n        /* \"#utility.yul\":4750:4759   */\n      add\n        /* \"#utility.yul\":4745:4759   */\n      swap1\n      pop\n        /* \"#utility.yul\":4710:5075   */\n      jump(tag_364)\n    tag_366:\n        /* \"#utility.yul\":4714:4728   */\n      pop\n        /* \"#utility.yul\":5091:5094   */\n      dup6\n        /* \"#utility.yul\":5084:5094   */\n      swap4\n      pop\n        /* \"#utility.yul\":4330:5100   */\n      pop\n      pop\n      pop\n      swap3\n      swap2\n      pop\n      pop\n      jump\t// out\n        /* \"#utility.yul\":5106:5205   */\n    tag_370:\n        /* \"#utility.yul\":5177:5198   */\n      tag_372\n        /* \"#utility.yul\":5192:5197   */\n      dup2\n        /* \"#utility.yul\":5177:5198   */\n      tag_373\n      jump\t// in\n    tag_372:\n        /* \"#utility.yul\":5172:5175   */\n      dup3\n        /* \"#utility.yul\":5165:5199   */\n      mstore\n        /* \"#utility.yul\":5155:5205   */\n      pop\n      pop\n      jump\t// out\n        /* \"#utility.yul\":5211:5320   */\n    tag_374:\n        /* \"#utility.yul\":5292:5313   */\n      tag_376\n        /* \"#utility.yul\":5307:5312   */\n      dup2\n        /* \"#utility.yul\":5292:5313   */\n      tag_373\n      jump\t// in\n    tag_376:\n        /* \"#utility.yul\":5287:5290   */\n      dup3\n        /* \"#utility.yul\":5280:5314   */\n      mstore\n        /* \"#utility.yul\":5270:5320   */\n      pop\n      pop\n      jump\t// out\n        /* \"#utility.yul\":5326:5690   */\n    tag_377:\n      0x00\n        /* \"#utility.yul\":5442:5481   */\n      tag_379\n        /* \"#utility.yul\":5475:5480   */\n      dup3\n        /* \"#utility.yul\":5442:5481   */\n      tag_380\n      jump\t// in\n    tag_379:\n        /* \"#utility.yul\":5497:5568   */\n      tag_381\n        /* \"#utility.yul\":5561:5567   */\n      dup2\n        /* \"#utility.yul\":5556:5559   */\n      dup6\n        /* \"#utility.yul\":5497:5568   */\n      tag_382\n      jump\t// in\n    tag_381:\n        /* \"#utility.yul\":5490:5568   */\n      swap4\n      pop\n        /* \"#utility.yul\":5577:5629   */\n      tag_383\n        /* \"#utility.yul\":5622:5628   */\n      dup2\n        /* \"#utility.yul\":5617:5620   */\n      dup6\n        /* \"#utility.yul\":5610:5614   */\n      0x20\n        /* \"#utility.yul\":5603:5608   */\n      dup7\n        /* \"#utility.yul\":5599:5615   */\n      add\n        /* \"#utility.yul\":5577:5629   */\n      tag_384\n      jump\t// in\n    tag_383:\n        /* \"#utility.yul\":5654:5683   */\n      tag_385\n        /* \"#utility.yul\":5676:5682   */\n      dup2\n        /* \"#utility.yul\":5654:5683   */\n      tag_386\n      jump\t// in\n    tag_385:\n        /* \"#utility.yul\":5649:5652   */\n      dup5\n        /* \"#utility.yul\":5645:5684   */\n      add\n        /* \"#utility.yul\":5638:5684   */\n      swap2\n      pop\n        /* \"#utility.yul\":5418:5690   */\n      pop\n      swap3\n      swap2\n      pop\n      pop\n      jump\t// out\n        /* \"#utility.yul\":5696:6023   */\n    tag_387:\n      0x00\n        /* \"#utility.yul\":5859:5926   */\n      tag_389\n        /* \"#utility.yul\":5923:5925   */\n      0x1d\n        /* \"#utility.yul\":5918:5921   */\n      dup4\n        /* \"#utility.yul\":5859:5926   */\n      tag_382\n      jump\t// in\n    tag_389:\n        /* \"#utility.yul\":5852:5926   */\n      swap2\n      pop\n        /* \"#utility.yul\":5956:5987   */\n      0x596f7572206372656469742073636f726520697320746f6f206c6f772e000000\n        /* \"#utility.yul\":5952:5953   */\n      0x00\n        /* \"#utility.yul\":5947:5950   */\n      dup4\n        /* \"#utility.yul\":5943:5954   */\n      add\n        /* \"#utility.yul\":5936:5988   */\n      mstore\n        /* \"#utility.yul\":6014:6016   */\n      0x20\n        /* \"#utility.yul\":6009:6012   */\n      dup3\n        /* \"#utility.yul\":6005:6017   */\n      add\n        /* \"#utility.yul\":5998:6017   */\n      swap1\n      pop\n        /* \"#utility.yul\":5842:6023   */\n      swap2\n      swap1\n      pop\n      jump\t// out\n        /* \"#utility.yul\":6029:6395   */\n    tag_390:\n      0x00\n        /* \"#utility.yul\":6192:6259   */\n      tag_392\n        /* \"#utility.yul\":6256:6258   */\n      0x22\n        /* \"#utility.yul\":6251:6254   */\n      dup4\n        /* \"#utility.yul\":6192:6259   */\n      tag_382\n      jump\t// in\n    tag_392:\n        /* \"#utility.yul\":6185:6259   */\n      swap2\n      pop\n        /* \"#utility.yul\":6289:6323   */\n      0x4572726f72206372656174696e6720616e206f666665722c2074727920616761\n        /* \"#utility.yul\":6285:6286   */\n      0x00\n        /* \"#utility.yul\":6280:6283   */\n      dup4\n        /* \"#utility.yul\":6276:6287   */\n      add\n        /* \"#utility.yul\":6269:6324   */\n      mstore\n        /* \"#utility.yul\":6355:6359   */\n      0x696e000000000000000000000000000000000000000000000000000000000000\n        /* \"#utility.yul\":6350:6352   */\n      0x20\n        /* \"#utility.yul\":6345:6348   */\n      dup4\n        /* \"#utility.yul\":6341:6353   */\n      add\n        /* \"#utility.yul\":6334:6360   */\n      mstore\n        /* \"#utility.yul\":6386:6388   */\n      0x40\n        /* \"#utility.yul\":6381:6384   */\n      dup3\n        /* \"#utility.yul\":6377:6389   */\n      add\n        /* \"#utility.yul\":6370:6389   */\n      swap1\n      pop\n        /* \"#utility.yul\":6175:6395   */\n      swap2\n      swap1\n      pop\n      jump\t// out\n        /* \"#utility.yul\":6401:6724   */\n    tag_393:\n      0x00\n        /* \"#utility.yul\":6564:6631   */\n      tag_395\n        /* \"#utility.yul\":6628:6630   */\n      0x19\n        /* \"#utility.yul\":6623:6626   */\n      dup4\n        /* \"#utility.yul\":6564:6631   */\n      tag_382\n      jump\t// in\n    tag_395:\n        /* \"#utility.yul\":6557:6631   */\n      swap2\n      pop\n        /* \"#utility.yul\":6661:6688   */\n      0x4e6f206f666665727320657869737420746f2064656c65746500000000000000\n        /* \"#utility.yul\":6657:6658   */\n      0x00\n        /* \"#utility.yul\":6652:6655   */\n      dup4\n        /* \"#utility.yul\":6648:6659   */\n      add\n        /* \"#utility.yul\":6641:6689   */\n      mstore\n        /* \"#utility.yul\":6715:6717   */\n      0x20\n        /* \"#utility.yul\":6710:6713   */\n      dup3\n        /* \"#utility.yul\":6706:6718   */\n      add\n        /* \"#utility.yul\":6699:6718   */\n      swap1\n      pop\n        /* \"#utility.yul\":6547:6724   */\n      swap2\n      swap1\n      pop\n      jump\t// out\n        /* \"#utility.yul\":6730:7048   */\n    tag_396:\n      0x00\n        /* \"#utility.yul\":6893:6960   */\n      tag_398\n        /* \"#utility.yul\":6957:6959   */\n      0x14\n        /* \"#utility.yul\":6952:6955   */\n      dup4\n        /* \"#utility.yul\":6893:6960   */\n      tag_382\n      jump\t// in\n    tag_398:\n        /* \"#utility.yul\":6886:6960   */\n      swap2\n      pop\n        /* \"#utility.yul\":6990:7012   */\n      0x496e73756666696369656e742062616c616e6365000000000000000000000000\n        /* \"#utility.yul\":6986:6987   */\n      0x00\n        /* \"#utility.yul\":6981:6984   */\n      dup4\n        /* \"#utility.yul\":6977:6988   */\n      add\n        /* \"#utility.yul\":6970:7013   */\n      mstore\n        /* \"#utility.yul\":7039:7041   */\n      0x20\n        /* \"#utility.yul\":7034:7037   */\n      dup3\n        /* \"#utility.yul\":7030:7042   */\n      add\n        /* \"#utility.yul\":7023:7042   */\n      swap1\n      pop\n        /* \"#utility.yul\":6876:7048   */\n      swap2\n      swap1\n      pop\n      jump\t// out\n        /* \"#utility.yul\":7054:7421   */\n    tag_399:\n      0x00\n        /* \"#utility.yul\":7217:7284   */\n      tag_401\n        /* \"#utility.yul\":7281:7283   */\n      0x23\n        /* \"#utility.yul\":7276:7279   */\n      dup4\n        /* \"#utility.yul\":7217:7284   */\n      tag_382\n      jump\t// in\n    tag_401:\n        /* \"#utility.yul\":7210:7284   */\n      swap2\n      pop\n        /* \"#utility.yul\":7314:7348   */\n      0x596f752063616e6e6f74206170706c7920666f7220796f7572206f776e206c6f\n        /* \"#utility.yul\":7310:7311   */\n      0x00\n        /* \"#utility.yul\":7305:7308   */\n      dup4\n        /* \"#utility.yul\":7301:7312   */\n      add\n        /* \"#utility.yul\":7294:7349   */\n      mstore\n        /* \"#utility.yul\":7380:7385   */\n      0x616e2e0000000000000000000000000000000000000000000000000000000000\n        /* \"#utility.yul\":7375:7377   */\n      0x20\n        /* \"#utility.yul\":7370:7373   */\n      dup4\n        /* \"#utility.yul\":7366:7378   */\n      add\n        /* \"#utility.yul\":7359:7386   */\n      mstore\n        /* \"#utility.yul\":7412:7414   */\n      0x40\n        /* \"#utility.yul\":7407:7410   */\n      dup3\n        /* \"#utility.yul\":7403:7415   */\n      add\n        /* \"#utility.yul\":7396:7415   */\n      swap1\n      pop\n        /* \"#utility.yul\":7200:7421   */\n      swap2\n      swap1\n      pop\n      jump\t// out\n        /* \"#utility.yul\":7427:7754   */\n    tag_402:\n      0x00\n        /* \"#utility.yul\":7590:7657   */\n      tag_404\n        /* \"#utility.yul\":7654:7656   */\n      0x1d\n        /* \"#utility.yul\":7649:7652   */\n      dup4\n        /* \"#utility.yul\":7590:7657   */\n      tag_382\n      jump\t// in\n    tag_404:\n        /* \"#utility.yul\":7583:7657   */\n      swap2\n      pop\n        /* \"#utility.yul\":7687:7718   */\n      0x4572726f722067657474696e6720796f7572206e657420696e636f6d65000000\n        /* \"#utility.yul\":7683:7684   */\n      0x00\n        /* \"#utility.yul\":7678:7681   */\n      dup4\n        /* \"#utility.yul\":7674:7685   */\n      add\n        /* \"#utility.yul\":7667:7719   */\n      mstore\n        /* \"#utility.yul\":7745:7747   */\n      0x20\n        /* \"#utility.yul\":7740:7743   */\n      dup3\n        /* \"#utility.yul\":7736:7748   */\n      add\n        /* \"#utility.yul\":7729:7748   */\n      swap1\n      pop\n        /* \"#utility.yul\":7573:7754   */\n      swap2\n      swap1\n      pop\n      jump\t// out\n        /* \"#utility.yul\":7760:8085   */\n    tag_405:\n      0x00\n        /* \"#utility.yul\":7923:7990   */\n      tag_407\n        /* \"#utility.yul\":7987:7989   */\n      0x1b\n        /* \"#utility.yul\":7982:7985   */\n      dup4\n        /* \"#utility.yul\":7923:7990   */\n      tag_382\n      jump\t// in\n    tag_407:\n        /* \"#utility.yul\":7916:7990   */\n      swap2\n      pop\n        /* \"#utility.yul\":8020:8049   */\n      0x46696c6c20696e20746865207265717569726564206669656c64730000000000\n        /* \"#utility.yul\":8016:8017   */\n      0x00\n        /* \"#utility.yul\":8011:8014   */\n      dup4\n        /* \"#utility.yul\":8007:8018   */\n      add\n        /* \"#utility.yul\":8000:8050   */\n      mstore\n        /* \"#utility.yul\":8076:8078   */\n      0x20\n        /* \"#utility.yul\":8071:8074   */\n      dup3\n        /* \"#utility.yul\":8067:8079   */\n      add\n        /* \"#utility.yul\":8060:8079   */\n      swap1\n      pop\n        /* \"#utility.yul\":7906:8085   */\n      swap2\n      swap1\n      pop\n      jump\t// out\n        /* \"#utility.yul\":8091:8420   */\n    tag_408:\n      0x00\n        /* \"#utility.yul\":8254:8321   */\n      tag_410\n        /* \"#utility.yul\":8318:8320   */\n      0x1f\n        /* \"#utility.yul\":8313:8316   */\n      dup4\n        /* \"#utility.yul\":8254:8321   */\n      tag_382\n      jump\t// in\n    tag_410:\n        /* \"#utility.yul\":8247:8321   */\n      swap2\n      pop\n        /* \"#utility.yul\":8351:8384   */\n      0x4572726f722067657474696e6720796f7572206372656469742073636f726500\n        /* \"#utility.yul\":8347:8348   */\n      0x00\n        /* \"#utility.yul\":8342:8345   */\n      dup4\n        /* \"#utility.yul\":8338:8349   */\n      add\n        /* \"#utility.yul\":8331:8385   */\n      mstore\n        /* \"#utility.yul\":8411:8413   */\n      0x20\n        /* \"#utility.yul\":8406:8409   */\n      dup3\n        /* \"#utility.yul\":8402:8414   */\n      add\n        /* \"#utility.yul\":8395:8414   */\n      swap1\n      pop\n        /* \"#utility.yul\":8237:8420   */\n      swap2\n      swap1\n      pop\n      jump\t// out\n        /* \"#utility.yul\":8426:8754   */\n    tag_411:\n      0x00\n        /* \"#utility.yul\":8589:8656   */\n      tag_413\n        /* \"#utility.yul\":8653:8655   */\n      0x1e\n        /* \"#utility.yul\":8648:8651   */\n      dup4\n        /* \"#utility.yul\":8589:8656   */\n      tag_382\n      jump\t// in\n    tag_413:\n        /* \"#utility.yul\":8582:8656   */\n      swap2\n      pop\n        /* \"#utility.yul\":8686:8718   */\n      0x496e73756666696369656e742066756e647320696e20636f6e74726163740000\n        /* \"#utility.yul\":8682:8683   */\n      0x00\n        /* \"#utility.yul\":8677:8680   */\n      dup4\n        /* \"#utility.yul\":8673:8684   */\n      add\n        /* \"#utility.yul\":8666:8719   */\n      mstore\n        /* \"#utility.yul\":8745:8747   */\n      0x20\n        /* \"#utility.yul\":8740:8743   */\n      dup3\n        /* \"#utility.yul\":8736:8748   */\n      add\n        /* \"#utility.yul\":8729:8748   */\n      swap1\n      pop\n        /* \"#utility.yul\":8572:8754   */\n      swap2\n      swap1\n      pop\n      jump\t// out\n        /* \"#utility.yul\":8760:9087   */\n    tag_414:\n      0x00\n        /* \"#utility.yul\":8923:8990   */\n      tag_416\n        /* \"#utility.yul\":8987:8989   */\n      0x1d\n        /* \"#utility.yul\":8982:8985   */\n      dup4\n        /* \"#utility.yul\":8923:8990   */\n      tag_382\n      jump\t// in\n    tag_416:\n        /* \"#utility.yul\":8916:8990   */\n      swap2\n      pop\n        /* \"#utility.yul\":9020:9051   */\n      0x4f6666657220646f6573206e6f7420657869737420696e206172726179000000\n        /* \"#utility.yul\":9016:9017   */\n      0x00\n        /* \"#utility.yul\":9011:9014   */\n      dup4\n        /* \"#utility.yul\":9007:9018   */\n      add\n        /* \"#utility.yul\":9000:9052   */\n      mstore\n        /* \"#utility.yul\":9078:9080   */\n      0x20\n        /* \"#utility.yul\":9073:9076   */\n      dup3\n        /* \"#utility.yul\":9069:9081   */\n      add\n        /* \"#utility.yul\":9062:9081   */\n      swap1\n      pop\n        /* \"#utility.yul\":8906:9087   */\n      swap2\n      swap1\n      pop\n      jump\t// out\n        /* \"#utility.yul\":9093:9468   */\n    tag_417:\n      0x00\n        /* \"#utility.yul\":9256:9323   */\n      tag_419\n        /* \"#utility.yul\":9320:9322   */\n      0x2b\n        /* \"#utility.yul\":9315:9318   */\n      dup4\n        /* \"#utility.yul\":9256:9323   */\n      tag_382\n      jump\t// in\n    tag_419:\n        /* \"#utility.yul\":9249:9323   */\n      swap2\n      pop\n        /* \"#utility.yul\":9353:9387   */\n      0x596f757220696e636f6d65206c6576656c20697320746f6f206c6f7720666f72\n        /* \"#utility.yul\":9349:9350   */\n      0x00\n        /* \"#utility.yul\":9344:9347   */\n      dup4\n        /* \"#utility.yul\":9340:9351   */\n      add\n        /* \"#utility.yul\":9333:9388   */\n      mstore\n        /* \"#utility.yul\":9419:9432   */\n      0x2074686973206c6f616e2e000000000000000000000000000000000000000000\n        /* \"#utility.yul\":9414:9416   */\n      0x20\n        /* \"#utility.yul\":9409:9412   */\n      dup4\n        /* \"#utility.yul\":9405:9417   */\n      add\n        /* \"#utility.yul\":9398:9433   */\n      mstore\n        /* \"#utility.yul\":9459:9461   */\n      0x40\n        /* \"#utility.yul\":9454:9457   */\n      dup3\n        /* \"#utility.yul\":9450:9462   */\n      add\n        /* \"#utility.yul\":9443:9462   */\n      swap1\n      pop\n        /* \"#utility.yul\":9239:9468   */\n      swap2\n      swap1\n      pop\n      jump\t// out\n        /* \"#utility.yul\":9544:11498   */\n    tag_341:\n        /* \"#utility.yul\":9685:9691   */\n      0x0140\n        /* \"#utility.yul\":9680:9683   */\n      dup3\n        /* \"#utility.yul\":9676:9692   */\n      add\n        /* \"#utility.yul\":9776:9780   */\n      0x00\n        /* \"#utility.yul\":9769:9774   */\n      dup3\n        /* \"#utility.yul\":9765:9781   */\n      add\n        /* \"#utility.yul\":9759:9782   */\n      mload\n        /* \"#utility.yul\":9795:9874   */\n      tag_421\n        /* \"#utility.yul\":9868:9872   */\n      0x00\n        /* \"#utility.yul\":9863:9866   */\n      dup6\n        /* \"#utility.yul\":9859:9873   */\n      add\n        /* \"#utility.yul\":9845:9857   */\n      dup3\n        /* \"#utility.yul\":9795:9874   */\n      tag_342\n      jump\t// in\n    tag_421:\n        /* \"#utility.yul\":9702:9884   */\n      pop\n        /* \"#utility.yul\":9969:9973   */\n      0x20\n        /* \"#utility.yul\":9962:9967   */\n      dup3\n        /* \"#utility.yul\":9958:9974   */\n      add\n        /* \"#utility.yul\":9952:9975   */\n      mload\n        /* \"#utility.yul\":9988:10051   */\n      tag_422\n        /* \"#utility.yul\":10045:10049   */\n      0x20\n        /* \"#utility.yul\":10040:10043   */\n      dup6\n        /* \"#utility.yul\":10036:10050   */\n      add\n        /* \"#utility.yul\":10022:10034   */\n      dup3\n        /* \"#utility.yul\":9988:10051   */\n      tag_423\n      jump\t// in\n    tag_422:\n        /* \"#utility.yul\":9894:10061   */\n      pop\n        /* \"#utility.yul\":10151:10155   */\n      0x40\n        /* \"#utility.yul\":10144:10149   */\n      dup3\n        /* \"#utility.yul\":10140:10156   */\n      add\n        /* \"#utility.yul\":10134:10157   */\n      mload\n        /* \"#utility.yul\":10170:10233   */\n      tag_424\n        /* \"#utility.yul\":10227:10231   */\n      0x40\n        /* \"#utility.yul\":10222:10225   */\n      dup6\n        /* \"#utility.yul\":10218:10232   */\n      add\n        /* \"#utility.yul\":10204:10216   */\n      dup3\n        /* \"#utility.yul\":10170:10233   */\n      tag_423\n      jump\t// in\n    tag_424:\n        /* \"#utility.yul\":10071:10243   */\n      pop\n        /* \"#utility.yul\":10330:10334   */\n      0x60\n        /* \"#utility.yul\":10323:10328   */\n      dup3\n        /* \"#utility.yul\":10319:10335   */\n      add\n        /* \"#utility.yul\":10313:10336   */\n      mload\n        /* \"#utility.yul\":10349:10412   */\n      tag_425\n        /* \"#utility.yul\":10406:10410   */\n      0x60\n        /* \"#utility.yul\":10401:10404   */\n      dup6\n        /* \"#utility.yul\":10397:10411   */\n      add\n        /* \"#utility.yul\":10383:10395   */\n      dup3\n        /* \"#utility.yul\":10349:10412   */\n      tag_423\n      jump\t// in\n    tag_425:\n        /* \"#utility.yul\":10253:10422   */\n      pop\n        /* \"#utility.yul\":10505:10509   */\n      0x80\n        /* \"#utility.yul\":10498:10503   */\n      dup3\n        /* \"#utility.yul\":10494:10510   */\n      add\n        /* \"#utility.yul\":10488:10511   */\n      mload\n        /* \"#utility.yul\":10524:10587   */\n      tag_426\n        /* \"#utility.yul\":10581:10585   */\n      0x80\n        /* \"#utility.yul\":10576:10579   */\n      dup6\n        /* \"#utility.yul\":10572:10586   */\n      add\n        /* \"#utility.yul\":10558:10570   */\n      dup3\n        /* \"#utility.yul\":10524:10587   */\n      tag_349\n      jump\t// in\n    tag_426:\n        /* \"#utility.yul\":10432:10597   */\n      pop\n        /* \"#utility.yul\":10688:10692   */\n      0xa0\n        /* \"#utility.yul\":10681:10686   */\n      dup3\n        /* \"#utility.yul\":10677:10693   */\n      add\n        /* \"#utility.yul\":10671:10694   */\n      mload\n        /* \"#utility.yul\":10707:10770   */\n      tag_427\n        /* \"#utility.yul\":10764:10768   */\n      0xa0\n        /* \"#utility.yul\":10759:10762   */\n      dup6\n        /* \"#utility.yul\":10755:10769   */\n      add\n        /* \"#utility.yul\":10741:10753   */\n      dup3\n        /* \"#utility.yul\":10707:10770   */\n      tag_423\n      jump\t// in\n    tag_427:\n        /* \"#utility.yul\":10607:10780   */\n      pop\n        /* \"#utility.yul\":10872:10876   */\n      0xc0\n        /* \"#utility.yul\":10865:10870   */\n      dup3\n        /* \"#utility.yul\":10861:10877   */\n      add\n        /* \"#utility.yul\":10855:10878   */\n      mload\n        /* \"#utility.yul\":10891:10954   */\n      tag_428\n        /* \"#utility.yul\":10948:10952   */\n      0xc0\n        /* \"#utility.yul\":10943:10946   */\n      dup6\n        /* \"#utility.yul\":10939:10953   */\n      add\n        /* \"#utility.yul\":10925:10937   */\n      dup3\n        /* \"#utility.yul\":10891:10954   */\n      tag_423\n      jump\t// in\n    tag_428:\n        /* \"#utility.yul\":10790:10964   */\n      pop\n        /* \"#utility.yul\":11053:11057   */\n      0xe0\n        /* \"#utility.yul\":11046:11051   */\n      dup3\n        /* \"#utility.yul\":11042:11058   */\n      add\n        /* \"#utility.yul\":11036:11059   */\n      mload\n        /* \"#utility.yul\":11072:11129   */\n      tag_429\n        /* \"#utility.yul\":11123:11127   */\n      0xe0\n        /* \"#utility.yul\":11118:11121   */\n      dup6\n        /* \"#utility.yul\":11114:11128   */\n      add\n        /* \"#utility.yul\":11100:11112   */\n      dup3\n        /* \"#utility.yul\":11072:11129   */\n      tag_370\n      jump\t// in\n    tag_429:\n        /* \"#utility.yul\":10974:11139   */\n      pop\n        /* \"#utility.yul\":11228:11234   */\n      0x0100\n        /* \"#utility.yul\":11221:11226   */\n      dup3\n        /* \"#utility.yul\":11217:11235   */\n      add\n        /* \"#utility.yul\":11211:11236   */\n      mload\n        /* \"#utility.yul\":11249:11308   */\n      tag_430\n        /* \"#utility.yul\":11300:11306   */\n      0x0100\n        /* \"#utility.yul\":11295:11298   */\n      dup6\n        /* \"#utility.yul\":11291:11307   */\n      add\n        /* \"#utility.yul\":11277:11289   */\n      dup3\n        /* \"#utility.yul\":11249:11308   */\n      tag_370\n      jump\t// in\n    tag_430:\n        /* \"#utility.yul\":11149:11318   */\n      pop\n        /* \"#utility.yul\":11401:11407   */\n      0x0120\n        /* \"#utility.yul\":11394:11399   */\n      dup3\n        /* \"#utility.yul\":11390:11408   */\n      add\n        /* \"#utility.yul\":11384:11409   */\n      mload\n        /* \"#utility.yul\":11422:11481   */\n      tag_431\n        /* \"#utility.yul\":11473:11479   */\n      0x0120\n        /* \"#utility.yul\":11468:11471   */\n      dup6\n        /* \"#utility.yul\":11464:11480   */\n      add\n        /* \"#utility.yul\":11450:11462   */\n      dup3\n        /* \"#utility.yul\":11422:11481   */\n      tag_370\n      jump\t// in\n    tag_431:\n        /* \"#utility.yul\":11328:11491   */\n      pop\n        /* \"#utility.yul\":9654:11498   */\n      pop\n      pop\n      pop\n      jump\t// out\n        /* \"#utility.yul\":11504:11612   */\n    tag_423:\n        /* \"#utility.yul\":11581:11605   */\n      tag_433\n        /* \"#utility.yul\":11599:11604   */\n      dup2\n        /* \"#utility.yul\":11581:11605   */\n      tag_434\n      jump\t// in\n    tag_433:\n        /* \"#utility.yul\":11576:11579   */\n      dup3\n        /* \"#utility.yul\":11569:11606   */\n      mstore\n        /* \"#utility.yul\":11559:11612   */\n      pop\n      pop\n      jump\t// out\n        /* \"#utility.yul\":11618:11736   */\n    tag_435:\n        /* \"#utility.yul\":11705:11729   */\n      tag_437\n        /* \"#utility.yul\":11723:11728   */\n      dup2\n        /* \"#utility.yul\":11705:11729   */\n      tag_434\n      jump\t// in\n    tag_437:\n        /* \"#utility.yul\":11700:11703   */\n      dup3\n        /* \"#utility.yul\":11693:11730   */\n      mstore\n        /* \"#utility.yul\":11683:11736   */\n      pop\n      pop\n      jump\t// out\n        /* \"#utility.yul\":11742:11964   */\n    tag_125:\n      0x00\n        /* \"#utility.yul\":11873:11875   */\n      0x20\n        /* \"#utility.yul\":11862:11871   */\n      dup3\n        /* \"#utility.yul\":11858:11876   */\n      add\n        /* \"#utility.yul\":11850:11876   */\n      swap1\n      pop\n        /* \"#utility.yul\":11886:11957   */\n      tag_439\n        /* \"#utility.yul\":11954:11955   */\n      0x00\n        /* \"#utility.yul\":11943:11952   */\n      dup4\n        /* \"#utility.yul\":11939:11956   */\n      add\n        /* \"#utility.yul\":11930:11936   */\n      dup5\n        /* \"#utility.yul\":11886:11957   */\n      tag_353\n      jump\t// in\n    tag_439:\n        /* \"#utility.yul\":11840:11964   */\n      swap3\n      swap2\n      pop\n      pop\n      jump\t// out\n        /* \"#utility.yul\":11970:12224   */\n    tag_119:\n      0x00\n        /* \"#utility.yul\":12117:12119   */\n      0x20\n        /* \"#utility.yul\":12106:12115   */\n      dup3\n        /* \"#utility.yul\":12102:12120   */\n      add\n        /* \"#utility.yul\":12094:12120   */\n      swap1\n      pop\n        /* \"#utility.yul\":12130:12217   */\n      tag_441\n        /* \"#utility.yul\":12214:12215   */\n      0x00\n        /* \"#utility.yul\":12203:12212   */\n      dup4\n        /* \"#utility.yul\":12199:12216   */\n      add\n        /* \"#utility.yul\":12190:12196   */\n      dup5\n        /* \"#utility.yul\":12130:12217   */\n      tag_346\n      jump\t// in\n    tag_441:\n        /* \"#utility.yul\":12084:12224   */\n      swap3\n      swap2\n      pop\n      pop\n      jump\t// out\n        /* \"#utility.yul\":12230:13445   */\n    tag_83:\n      0x00\n        /* \"#utility.yul\":12611:12614   */\n      0x0140\n        /* \"#utility.yul\":12600:12609   */\n      dup3\n        /* \"#utility.yul\":12596:12615   */\n      add\n        /* \"#utility.yul\":12588:12615   */\n      swap1\n      pop\n        /* \"#utility.yul\":12625:12712   */\n      tag_443\n        /* \"#utility.yul\":12709:12710   */\n      0x00\n        /* \"#utility.yul\":12698:12707   */\n      dup4\n        /* \"#utility.yul\":12694:12711   */\n      add\n        /* \"#utility.yul\":12685:12691   */\n      dup14\n        /* \"#utility.yul\":12625:12712   */\n      tag_346\n      jump\t// in\n    tag_443:\n        /* \"#utility.yul\":12722:12794   */\n      tag_444\n        /* \"#utility.yul\":12790:12792   */\n      0x20\n        /* \"#utility.yul\":12779:12788   */\n      dup4\n        /* \"#utility.yul\":12775:12793   */\n      add\n        /* \"#utility.yul\":12766:12772   */\n      dup13\n        /* \"#utility.yul\":12722:12794   */\n      tag_435\n      jump\t// in\n    tag_444:\n        /* \"#utility.yul\":12804:12876   */\n      tag_445\n        /* \"#utility.yul\":12872:12874   */\n      0x40\n        /* \"#utility.yul\":12861:12870   */\n      dup4\n        /* \"#utility.yul\":12857:12875   */\n      add\n        /* \"#utility.yul\":12848:12854   */\n      dup12\n        /* \"#utility.yul\":12804:12876   */\n      tag_435\n      jump\t// in\n    tag_445:\n        /* \"#utility.yul\":12886:12958   */\n      tag_446\n        /* \"#utility.yul\":12954:12956   */\n      0x60\n        /* \"#utility.yul\":12943:12952   */\n      dup4\n        /* \"#utility.yul\":12939:12957   */\n      add\n        /* \"#utility.yul\":12930:12936   */\n      dup11\n        /* \"#utility.yul\":12886:12958   */\n      tag_435\n      jump\t// in\n    tag_446:\n        /* \"#utility.yul\":12968:13041   */\n      tag_447\n        /* \"#utility.yul\":13036:13039   */\n      0x80\n        /* \"#utility.yul\":13025:13034   */\n      dup4\n        /* \"#utility.yul\":13021:13040   */\n      add\n        /* \"#utility.yul\":13012:13018   */\n      dup10\n        /* \"#utility.yul\":12968:13041   */\n      tag_353\n      jump\t// in\n    tag_447:\n        /* \"#utility.yul\":13051:13124   */\n      tag_448\n        /* \"#utility.yul\":13119:13122   */\n      0xa0\n        /* \"#utility.yul\":13108:13117   */\n      dup4\n        /* \"#utility.yul\":13104:13123   */\n      add\n        /* \"#utility.yul\":13095:13101   */\n      dup9\n        /* \"#utility.yul\":13051:13124   */\n      tag_435\n      jump\t// in\n    tag_448:\n        /* \"#utility.yul\":13134:13207   */\n      tag_449\n        /* \"#utility.yul\":13202:13205   */\n      0xc0\n        /* \"#utility.yul\":13191:13200   */\n      dup4\n        /* \"#utility.yul\":13187:13206   */\n      add\n        /* \"#utility.yul\":13178:13184   */\n      dup8\n        /* \"#utility.yul\":13134:13207   */\n      tag_435\n      jump\t// in\n    tag_449:\n        /* \"#utility.yul\":13217:13284   */\n      tag_450\n        /* \"#utility.yul\":13279:13282   */\n      0xe0\n        /* \"#utility.yul\":13268:13277   */\n      dup4\n        /* \"#utility.yul\":13264:13283   */\n      add\n        /* \"#utility.yul\":13255:13261   */\n      dup7\n        /* \"#utility.yul\":13217:13284   */\n      tag_374\n      jump\t// in\n    tag_450:\n        /* \"#utility.yul\":13294:13361   */\n      tag_451\n        /* \"#utility.yul\":13356:13359   */\n      0x0100\n        /* \"#utility.yul\":13345:13354   */\n      dup4\n        /* \"#utility.yul\":13341:13360   */\n      add\n        /* \"#utility.yul\":13332:13338   */\n      dup6\n        /* \"#utility.yul\":13294:13361   */\n      tag_374\n      jump\t// in\n    tag_451:\n        /* \"#utility.yul\":13371:13438   */\n      tag_452\n        /* \"#utility.yul\":13433:13436   */\n      0x0120\n        /* \"#utility.yul\":13422:13431   */\n      dup4\n        /* \"#utility.yul\":13418:13437   */\n      add\n        /* \"#utility.yul\":13409:13415   */\n      dup5\n        /* \"#utility.yul\":13371:13438   */\n      tag_374\n      jump\t// in\n    tag_452:\n        /* \"#utility.yul\":12578:13445   */\n      swap12\n      swap11\n      pop\n      pop\n      pop\n      pop\n      pop\n      pop\n      pop\n      pop\n      pop\n      pop\n      pop\n      jump\t// out\n        /* \"#utility.yul\":13451:14004   */\n    tag_50:\n      0x00\n        /* \"#utility.yul\":13666:13669   */\n      0x80\n        /* \"#utility.yul\":13655:13664   */\n      dup3\n        /* \"#utility.yul\":13651:13670   */\n      add\n        /* \"#utility.yul\":13643:13670   */\n      swap1\n      pop\n        /* \"#utility.yul\":13680:13751   */\n      tag_454\n        /* \"#utility.yul\":13748:13749   */\n      0x00\n        /* \"#utility.yul\":13737:13746   */\n      dup4\n        /* \"#utility.yul\":13733:13750   */\n      add\n        /* \"#utility.yul\":13724:13730   */\n      dup8\n        /* \"#utility.yul\":13680:13751   */\n      tag_353\n      jump\t// in\n    tag_454:\n        /* \"#utility.yul\":13761:13833   */\n      tag_455\n        /* \"#utility.yul\":13829:13831   */\n      0x20\n        /* \"#utility.yul\":13818:13827   */\n      dup4\n        /* \"#utility.yul\":13814:13832   */\n      add\n        /* \"#utility.yul\":13805:13811   */\n      dup7\n        /* \"#utility.yul\":13761:13833   */\n      tag_435\n      jump\t// in\n    tag_455:\n        /* \"#utility.yul\":13843:13915   */\n      tag_456\n        /* \"#utility.yul\":13911:13913   */\n      0x40\n        /* \"#utility.yul\":13900:13909   */\n      dup4\n        /* \"#utility.yul\":13896:13914   */\n      add\n        /* \"#utility.yul\":13887:13893   */\n      dup6\n        /* \"#utility.yul\":13843:13915   */\n      tag_435\n      jump\t// in\n    tag_456:\n        /* \"#utility.yul\":13925:13997   */\n      tag_457\n        /* \"#utility.yul\":13993:13995   */\n      0x60\n        /* \"#utility.yul\":13982:13991   */\n      dup4\n        /* \"#utility.yul\":13978:13996   */\n      add\n        /* \"#utility.yul\":13969:13975   */\n      dup5\n        /* \"#utility.yul\":13925:13997   */\n      tag_435\n      jump\t// in\n    tag_457:\n        /* \"#utility.yul\":13633:14004   */\n      swap6\n      swap5\n      pop\n      pop\n      pop\n      pop\n      pop\n      jump\t// out\n        /* \"#utility.yul\":14010:14491   */\n    tag_102:\n      0x00\n        /* \"#utility.yul\":14245:14247   */\n      0x20\n        /* \"#utility.yul\":14234:14243   */\n      dup3\n        /* \"#utility.yul\":14230:14248   */\n      add\n        /* \"#utility.yul\":14222:14248   */\n      swap1\n      pop\n        /* \"#utility.yul\":14294:14303   */\n      dup2\n        /* \"#utility.yul\":14288:14292   */\n      dup2\n        /* \"#utility.yul\":14284:14304   */\n      sub\n        /* \"#utility.yul\":14280:14281   */\n      0x00\n        /* \"#utility.yul\":14269:14278   */\n      dup4\n        /* \"#utility.yul\":14265:14282   */\n      add\n        /* \"#utility.yul\":14258:14305   */\n      mstore\n        /* \"#utility.yul\":14322:14484   */\n      tag_459\n        /* \"#utility.yul\":14479:14483   */\n      dup2\n        /* \"#utility.yul\":14470:14476   */\n      dup5\n        /* \"#utility.yul\":14322:14484   */\n      tag_356\n      jump\t// in\n    tag_459:\n        /* \"#utility.yul\":14314:14484   */\n      swap1\n      pop\n        /* \"#utility.yul\":14212:14491   */\n      swap3\n      swap2\n      pop\n      pop\n      jump\t// out\n        /* \"#utility.yul\":14497:14707   */\n    tag_59:\n      0x00\n        /* \"#utility.yul\":14622:14624   */\n      0x20\n        /* \"#utility.yul\":14611:14620   */\n      dup3\n        /* \"#utility.yul\":14607:14625   */\n      add\n        /* \"#utility.yul\":14599:14625   */\n      swap1\n      pop\n        /* \"#utility.yul\":14635:14700   */\n      tag_461\n        /* \"#utility.yul\":14697:14698   */\n      0x00\n        /* \"#utility.yul\":14686:14695   */\n      dup4\n        /* \"#utility.yul\":14682:14699   */\n      add\n        /* \"#utility.yul\":14673:14679   */\n      dup5\n        /* \"#utility.yul\":14635:14700   */\n      tag_374\n      jump\t// in\n    tag_461:\n        /* \"#utility.yul\":14589:14707   */\n      swap3\n      swap2\n      pop\n      pop\n      jump\t// out\n        /* \"#utility.yul\":14713:15026   */\n    tag_38:\n      0x00\n        /* \"#utility.yul\":14864:14866   */\n      0x20\n        /* \"#utility.yul\":14853:14862   */\n      dup3\n        /* \"#utility.yul\":14849:14867   */\n      add\n        /* \"#utility.yul\":14841:14867   */\n      swap1\n      pop\n        /* \"#utility.yul\":14913:14922   */\n      dup2\n        /* \"#utility.yul\":14907:14911   */\n      dup2\n        /* \"#utility.yul\":14903:14923   */\n      sub\n        /* \"#utility.yul\":14899:14900   */\n      0x00\n        /* \"#utility.yul\":14888:14897   */\n      dup4\n        /* \"#utility.yul\":14884:14901   */\n      add\n        /* \"#utility.yul\":14877:14924   */\n      mstore\n        /* \"#utility.yul\":14941:15019   */\n      tag_463\n        /* \"#utility.yul\":15014:15018   */\n      dup2\n        /* \"#utility.yul\":15005:15011   */\n      dup5\n        /* \"#utility.yul\":14941:15019   */\n      tag_377\n      jump\t// in\n    tag_463:\n        /* \"#utility.yul\":14933:15019   */\n      swap1\n      pop\n        /* \"#utility.yul\":14831:15026   */\n      swap3\n      swap2\n      pop\n      pop\n      jump\t// out\n        /* \"#utility.yul\":15032:15451   */\n    tag_235:\n      0x00\n        /* \"#utility.yul\":15236:15238   */\n      0x20\n        /* \"#utility.yul\":15225:15234   */\n      dup3\n        /* \"#utility.yul\":15221:15239   */\n      add\n        /* \"#utility.yul\":15213:15239   */\n      swap1\n      pop\n        /* \"#utility.yul\":15285:15294   */\n      dup2\n        /* \"#utility.yul\":15279:15283   */\n      dup2\n        /* \"#utility.yul\":15275:15295   */\n      sub\n        /* \"#utility.yul\":15271:15272   */\n      0x00\n        /* \"#utility.yul\":15260:15269   */\n      dup4\n        /* \"#utility.yul\":15256:15273   */\n      add\n        /* \"#utility.yul\":15249:15296   */\n      mstore\n        /* \"#utility.yul\":15313:15444   */\n      tag_465\n        /* \"#utility.yul\":15439:15443   */\n      dup2\n        /* \"#utility.yul\":15313:15444   */\n      tag_387\n      jump\t// in\n    tag_465:\n        /* \"#utility.yul\":15305:15444   */\n      swap1\n      pop\n        /* \"#utility.yul\":15203:15451   */\n      swap2\n      swap1\n      pop\n      jump\t// out\n        /* \"#utility.yul\":15457:15876   */\n    tag_288:\n      0x00\n        /* \"#utility.yul\":15661:15663   */\n      0x20\n        /* \"#utility.yul\":15650:15659   */\n      dup3\n        /* \"#utility.yul\":15646:15664   */\n      add\n        /* \"#utility.yul\":15638:15664   */\n      swap1\n      pop\n        /* \"#utility.yul\":15710:15719   */\n      dup2\n        /* \"#utility.yul\":15704:15708   */\n      dup2\n        /* \"#utility.yul\":15700:15720   */\n      sub\n        /* \"#utility.yul\":15696:15697   */\n      0x00\n        /* \"#utility.yul\":15685:15694   */\n      dup4\n        /* \"#utility.yul\":15681:15698   */\n      add\n        /* \"#utility.yul\":15674:15721   */\n      mstore\n        /* \"#utility.yul\":15738:15869   */\n      tag_467\n        /* \"#utility.yul\":15864:15868   */\n      dup2\n        /* \"#utility.yul\":15738:15869   */\n      tag_390\n      jump\t// in\n    tag_467:\n        /* \"#utility.yul\":15730:15869   */\n      swap1\n      pop\n        /* \"#utility.yul\":15628:15876   */\n      swap2\n      swap1\n      pop\n      jump\t// out\n        /* \"#utility.yul\":15882:16301   */\n    tag_171:\n      0x00\n        /* \"#utility.yul\":16086:16088   */\n      0x20\n        /* \"#utility.yul\":16075:16084   */\n      dup3\n        /* \"#utility.yul\":16071:16089   */\n      add\n        /* \"#utility.yul\":16063:16089   */\n      swap1\n      pop\n        /* \"#utility.yul\":16135:16144   */\n      dup2\n        /* \"#utility.yul\":16129:16133   */\n      dup2\n        /* \"#utility.yul\":16125:16145   */\n      sub\n        /* \"#utility.yul\":16121:16122   */\n      0x00\n        /* \"#utility.yul\":16110:16119   */\n      dup4\n        /* \"#utility.yul\":16106:16123   */\n      add\n        /* \"#utility.yul\":16099:16146   */\n      mstore\n        /* \"#utility.yul\":16163:16294   */\n      tag_469\n        /* \"#utility.yul\":16289:16293   */\n      dup2\n        /* \"#utility.yul\":16163:16294   */\n      tag_393\n      jump\t// in\n    tag_469:\n        /* \"#utility.yul\":16155:16294   */\n      swap1\n      pop\n        /* \"#utility.yul\":16053:16301   */\n      swap2\n      swap1\n      pop\n      jump\t// out\n        /* \"#utility.yul\":16307:16726   */\n    tag_257:\n      0x00\n        /* \"#utility.yul\":16511:16513   */\n      0x20\n        /* \"#utility.yul\":16500:16509   */\n      dup3\n        /* \"#utility.yul\":16496:16514   */\n      add\n        /* \"#utility.yul\":16488:16514   */\n      swap1\n      pop\n        /* \"#utility.yul\":16560:16569   */\n      dup2\n        /* \"#utility.yul\":16554:16558   */\n      dup2\n        /* \"#utility.yul\":16550:16570   */\n      sub\n        /* \"#utility.yul\":16546:16547   */\n      0x00\n        /* \"#utility.yul\":16535:16544   */\n      dup4\n        /* \"#utility.yul\":16531:16548   */\n      add\n        /* \"#utility.yul\":16524:16571   */\n      mstore\n        /* \"#utility.yul\":16588:16719   */\n      tag_471\n        /* \"#utility.yul\":16714:16718   */\n      dup2\n        /* \"#utility.yul\":16588:16719   */\n      tag_396\n      jump\t// in\n    tag_471:\n        /* \"#utility.yul\":16580:16719   */\n      swap1\n      pop\n        /* \"#utility.yul\":16478:16726   */\n      swap2\n      swap1\n      pop\n      jump\t// out\n        /* \"#utility.yul\":16732:17151   */\n    tag_230:\n      0x00\n        /* \"#utility.yul\":16936:16938   */\n      0x20\n        /* \"#utility.yul\":16925:16934   */\n      dup3\n        /* \"#utility.yul\":16921:16939   */\n      add\n        /* \"#utility.yul\":16913:16939   */\n      swap1\n      pop\n        /* \"#utility.yul\":16985:16994   */\n      dup2\n        /* \"#utility.yul\":16979:16983   */\n      dup2\n        /* \"#utility.yul\":16975:16995   */\n      sub\n        /* \"#utility.yul\":16971:16972   */\n      0x00\n        /* \"#utility.yul\":16960:16969   */\n      dup4\n        /* \"#utility.yul\":16956:16973   */\n      add\n        /* \"#utility.yul\":16949:16996   */\n      mstore\n        /* \"#utility.yul\":17013:17144   */\n      tag_473\n        /* \"#utility.yul\":17139:17143   */\n      dup2\n        /* \"#utility.yul\":17013:17144   */\n      tag_399\n      jump\t// in\n    tag_473:\n        /* \"#utility.yul\":17005:17144   */\n      swap1\n      pop\n        /* \"#utility.yul\":16903:17151   */\n      swap2\n      swap1\n      pop\n      jump\t// out\n        /* \"#utility.yul\":17157:17576   */\n    tag_296:\n      0x00\n        /* \"#utility.yul\":17361:17363   */\n      0x20\n        /* \"#utility.yul\":17350:17359   */\n      dup3\n        /* \"#utility.yul\":17346:17364   */\n      add\n        /* \"#utility.yul\":17338:17364   */\n      swap1\n      pop\n        /* \"#utility.yul\":17410:17419   */\n      dup2\n        /* \"#utility.yul\":17404:17408   */\n      dup2\n        /* \"#utility.yul\":17400:17420   */\n      sub\n        /* \"#utility.yul\":17396:17397   */\n      0x00\n        /* \"#utility.yul\":17385:17394   */\n      dup4\n        /* \"#utility.yul\":17381:17398   */\n      add\n        /* \"#utility.yul\":17374:17421   */\n      mstore\n        /* \"#utility.yul\":17438:17569   */\n      tag_475\n        /* \"#utility.yul\":17564:17568   */\n      dup2\n        /* \"#utility.yul\":17438:17569   */\n      tag_402\n      jump\t// in\n    tag_475:\n        /* \"#utility.yul\":17430:17569   */\n      swap1\n      pop\n        /* \"#utility.yul\":17328:17576   */\n      swap2\n      swap1\n      pop\n      jump\t// out\n        /* \"#utility.yul\":17582:18001   */\n    tag_275:\n      0x00\n        /* \"#utility.yul\":17786:17788   */\n      0x20\n        /* \"#utility.yul\":17775:17784   */\n      dup3\n        /* \"#utility.yul\":17771:17789   */\n      add\n        /* \"#utility.yul\":17763:17789   */\n      swap1\n      pop\n        /* \"#utility.yul\":17835:17844   */\n      dup2\n        /* \"#utility.yul\":17829:17833   */\n      dup2\n        /* \"#utility.yul\":17825:17845   */\n      sub\n        /* \"#utility.yul\":17821:17822   */\n      0x00\n        /* \"#utility.yul\":17810:17819   */\n      dup4\n        /* \"#utility.yul\":17806:17823   */\n      add\n        /* \"#utility.yul\":17799:17846   */\n      mstore\n        /* \"#utility.yul\":17863:17994   */\n      tag_477\n        /* \"#utility.yul\":17989:17993   */\n      dup2\n        /* \"#utility.yul\":17863:17994   */\n      tag_405\n      jump\t// in\n    tag_477:\n        /* \"#utility.yul\":17855:17994   */\n      swap1\n      pop\n        /* \"#utility.yul\":17753:18001   */\n      swap2\n      swap1\n      pop\n      jump\t// out\n        /* \"#utility.yul\":18007:18426   */\n    tag_190:\n      0x00\n        /* \"#utility.yul\":18211:18213   */\n      0x20\n        /* \"#utility.yul\":18200:18209   */\n      dup3\n        /* \"#utility.yul\":18196:18214   */\n      add\n        /* \"#utility.yul\":18188:18214   */\n      swap1\n      pop\n        /* \"#utility.yul\":18260:18269   */\n      dup2\n        /* \"#utility.yul\":18254:18258   */\n      dup2\n        /* \"#utility.yul\":18250:18270   */\n      sub\n        /* \"#utility.yul\":18246:18247   */\n      0x00\n        /* \"#utility.yul\":18235:18244   */\n      dup4\n        /* \"#utility.yul\":18231:18248   */\n      add\n        /* \"#utility.yul\":18224:18271   */\n      mstore\n        /* \"#utility.yul\":18288:18419   */\n      tag_479\n        /* \"#utility.yul\":18414:18418   */\n      dup2\n        /* \"#utility.yul\":18288:18419   */\n      tag_408\n      jump\t// in\n    tag_479:\n        /* \"#utility.yul\":18280:18419   */\n      swap1\n      pop\n        /* \"#utility.yul\":18178:18426   */\n      swap2\n      swap1\n      pop\n      jump\t// out\n        /* \"#utility.yul\":18432:18851   */\n    tag_260:\n      0x00\n        /* \"#utility.yul\":18636:18638   */\n      0x20\n        /* \"#utility.yul\":18625:18634   */\n      dup3\n        /* \"#utility.yul\":18621:18639   */\n      add\n        /* \"#utility.yul\":18613:18639   */\n      swap1\n      pop\n        /* \"#utility.yul\":18685:18694   */\n      dup2\n        /* \"#utility.yul\":18679:18683   */\n      dup2\n        /* \"#utility.yul\":18675:18695   */\n      sub\n        /* \"#utility.yul\":18671:18672   */\n      0x00\n        /* \"#utility.yul\":18660:18669   */\n      dup4\n        /* \"#utility.yul\":18656:18673   */\n      add\n        /* \"#utility.yul\":18649:18696   */\n      mstore\n        /* \"#utility.yul\":18713:18844   */\n      tag_481\n        /* \"#utility.yul\":18839:18843   */\n      dup2\n        /* \"#utility.yul\":18713:18844   */\n      tag_411\n      jump\t// in\n    tag_481:\n        /* \"#utility.yul\":18705:18844   */\n      swap1\n      pop\n        /* \"#utility.yul\":18603:18851   */\n      swap2\n      swap1\n      pop\n      jump\t// out\n        /* \"#utility.yul\":18857:19276   */\n    tag_174:\n      0x00\n        /* \"#utility.yul\":19061:19063   */\n      0x20\n        /* \"#utility.yul\":19050:19059   */\n      dup3\n        /* \"#utility.yul\":19046:19064   */\n      add\n        /* \"#utility.yul\":19038:19064   */\n      swap1\n      pop\n        /* \"#utility.yul\":19110:19119   */\n      dup2\n        /* \"#utility.yul\":19104:19108   */\n      dup2\n        /* \"#utility.yul\":19100:19120   */\n      sub\n        /* \"#utility.yul\":19096:19097   */\n      0x00\n        /* \"#utility.yul\":19085:19094   */\n      dup4\n        /* \"#utility.yul\":19081:19098   */\n      add\n        /* \"#utility.yul\":19074:19121   */\n      mstore\n        /* \"#utility.yul\":19138:19269   */\n      tag_483\n        /* \"#utility.yul\":19264:19268   */\n      dup2\n        /* \"#utility.yul\":19138:19269   */\n      tag_414\n      jump\t// in\n    tag_483:\n        /* \"#utility.yul\":19130:19269   */\n      swap1\n      pop\n        /* \"#utility.yul\":19028:19276   */\n      swap2\n      swap1\n      pop\n      jump\t// out\n        /* \"#utility.yul\":19282:19701   */\n    tag_241:\n      0x00\n        /* \"#utility.yul\":19486:19488   */\n      0x20\n        /* \"#utility.yul\":19475:19484   */\n      dup3\n        /* \"#utility.yul\":19471:19489   */\n      add\n        /* \"#utility.yul\":19463:19489   */\n      swap1\n      pop\n        /* \"#utility.yul\":19535:19544   */\n      dup2\n        /* \"#utility.yul\":19529:19533   */\n      dup2\n        /* \"#utility.yul\":19525:19545   */\n      sub\n        /* \"#utility.yul\":19521:19522   */\n      0x00\n        /* \"#utility.yul\":19510:19519   */\n      dup4\n        /* \"#utility.yul\":19506:19523   */\n      add\n        /* \"#utility.yul\":19499:19546   */\n      mstore\n        /* \"#utility.yul\":19563:19694   */\n      tag_485\n        /* \"#utility.yul\":19689:19693   */\n      dup2\n        /* \"#utility.yul\":19563:19694   */\n      tag_417\n      jump\t// in\n    tag_485:\n        /* \"#utility.yul\":19555:19694   */\n      swap1\n      pop\n        /* \"#utility.yul\":19453:19701   */\n      swap2\n      swap1\n      pop\n      jump\t// out\n        /* \"#utility.yul\":19707:19929   */\n    tag_43:\n      0x00\n        /* \"#utility.yul\":19838:19840   */\n      0x20\n        /* \"#utility.yul\":19827:19836   */\n      dup3\n        /* \"#utility.yul\":19823:19841   */\n      add\n        /* \"#utility.yul\":19815:19841   */\n      swap1\n      pop\n        /* \"#utility.yul\":19851:19922   */\n      tag_487\n        /* \"#utility.yul\":19919:19920   */\n      0x00\n        /* \"#utility.yul\":19908:19917   */\n      dup4\n        /* \"#utility.yul\":19904:19921   */\n      add\n        /* \"#utility.yul\":19895:19901   */\n      dup5\n        /* \"#utility.yul\":19851:19922   */\n      tag_435\n      jump\t// in\n    tag_487:\n        /* \"#utility.yul\":19805:19929   */\n      swap3\n      swap2\n      pop\n      pop\n      jump\t// out\n        /* \"#utility.yul\":19935:20094   */\n    tag_363:\n      0x00\n        /* \"#utility.yul\":20052:20055   */\n      dup2\n        /* \"#utility.yul\":20044:20055   */\n      swap1\n      pop\n        /* \"#utility.yul\":20082:20086   */\n      0x20\n        /* \"#utility.yul\":20077:20080   */\n      dup3\n        /* \"#utility.yul\":20073:20087   */\n      add\n        /* \"#utility.yul\":20065:20087   */\n      swap1\n      pop\n        /* \"#utility.yul\":20034:20094   */\n      swap2\n      swap1\n      pop\n      jump\t// out\n        /* \"#utility.yul\":20100:20241   */\n    tag_359:\n      0x00\n        /* \"#utility.yul\":20228:20233   */\n      dup2\n        /* \"#utility.yul\":20222:20234   */\n      mload\n        /* \"#utility.yul\":20212:20234   */\n      swap1\n      pop\n        /* \"#utility.yul\":20201:20241   */\n      swap2\n      swap1\n      pop\n      jump\t// out\n        /* \"#utility.yul\":20247:20346   */\n    tag_380:\n      0x00\n        /* \"#utility.yul\":20333:20338   */\n      dup2\n        /* \"#utility.yul\":20327:20339   */\n      mload\n        /* \"#utility.yul\":20317:20339   */\n      swap1\n      pop\n        /* \"#utility.yul\":20306:20346   */\n      swap2\n      swap1\n      pop\n      jump\t// out\n        /* \"#utility.yul\":20352:20492   */\n    tag_369:\n      0x00\n        /* \"#utility.yul\":20481:20485   */\n      0x20\n        /* \"#utility.yul\":20476:20479   */\n      dup3\n        /* \"#utility.yul\":20472:20486   */\n      add\n        /* \"#utility.yul\":20464:20486   */\n      swap1\n      pop\n        /* \"#utility.yul\":20454:20492   */\n      swap2\n      swap1\n      pop\n      jump\t// out\n        /* \"#utility.yul\":20498:20709   */\n    tag_361:\n      0x00\n        /* \"#utility.yul\":20658:20664   */\n      dup3\n        /* \"#utility.yul\":20653:20656   */\n      dup3\n        /* \"#utility.yul\":20646:20665   */\n      mstore\n        /* \"#utility.yul\":20698:20702   */\n      0x20\n        /* \"#utility.yul\":20693:20696   */\n      dup3\n        /* \"#utility.yul\":20689:20703   */\n      add\n        /* \"#utility.yul\":20674:20703   */\n      swap1\n      pop\n        /* \"#utility.yul\":20636:20709   */\n      swap3\n      swap2\n      pop\n      pop\n      jump\t// out\n        /* \"#utility.yul\":20715:20884   */\n    tag_382:\n      0x00\n        /* \"#utility.yul\":20833:20839   */\n      dup3\n        /* \"#utility.yul\":20828:20831   */\n      dup3\n        /* \"#utility.yul\":20821:20840   */\n      mstore\n        /* \"#utility.yul\":20873:20877   */\n      0x20\n        /* \"#utility.yul\":20868:20871   */\n      dup3\n        /* \"#utility.yul\":20864:20878   */\n      add\n        /* \"#utility.yul\":20849:20878   */\n      swap1\n      pop\n        /* \"#utility.yul\":20811:20884   */\n      swap3\n      swap2\n      pop\n      pop\n      jump\t// out\n        /* \"#utility.yul\":20890:21195   */\n    tag_283:\n      0x00\n        /* \"#utility.yul\":20949:20969   */\n      tag_495\n        /* \"#utility.yul\":20967:20968   */\n      dup3\n        /* \"#utility.yul\":20949:20969   */\n      tag_434\n      jump\t// in\n    tag_495:\n        /* \"#utility.yul\":20944:20969   */\n      swap2\n      pop\n        /* \"#utility.yul\":20983:21003   */\n      tag_496\n        /* \"#utility.yul\":21001:21002   */\n      dup4\n        /* \"#utility.yul\":20983:21003   */\n      tag_434\n      jump\t// in\n    tag_496:\n        /* \"#utility.yul\":20978:21003   */\n      swap3\n      pop\n        /* \"#utility.yul\":21137:21138   */\n      dup3\n        /* \"#utility.yul\":21069:21135   */\n      0xffffffffffffffffffffffffffffffffffffffffffffffffffffffffffffffff\n        /* \"#utility.yul\":21065:21139   */\n      sub\n        /* \"#utility.yul\":21062:21063   */\n      dup3\n        /* \"#utility.yul\":21059:21140   */\n      gt\n        /* \"#utility.yul\":21056:21058   */\n      iszero\n      tag_497\n      jumpi\n        /* \"#utility.yul\":21143:21161   */\n      tag_498\n      tag_499\n      jump\t// in\n    tag_498:\n        /* \"#utility.yul\":21056:21058   */\n    tag_497:\n        /* \"#utility.yul\":21187:21188   */\n      dup3\n        /* \"#utility.yul\":21184:21185   */\n      dup3\n        /* \"#utility.yul\":21180:21189   */\n      add\n        /* \"#utility.yul\":21173:21189   */\n      swap1\n      pop\n        /* \"#utility.yul\":20934:21195   */\n      swap3\n      swap2\n      pop\n      pop\n      jump\t// out\n        /* \"#utility.yul\":21201:21386   */\n    tag_279:\n      0x00\n        /* \"#utility.yul\":21258:21278   */\n      tag_501\n        /* \"#utility.yul\":21276:21277   */\n      dup3\n        /* \"#utility.yul\":21258:21278   */\n      tag_434\n      jump\t// in\n    tag_501:\n        /* \"#utility.yul\":21253:21278   */\n      swap2\n      pop\n        /* \"#utility.yul\":21292:21312   */\n      tag_502\n        /* \"#utility.yul\":21310:21311   */\n      dup4\n        /* \"#utility.yul\":21292:21312   */\n      tag_434\n      jump\t// in\n    tag_502:\n        /* \"#utility.yul\":21287:21312   */\n      swap3\n      pop\n        /* \"#utility.yul\":21331:21332   */\n      dup3\n        /* \"#utility.yul\":21321:21323   */\n      tag_503\n      jumpi\n        /* \"#utility.yul\":21336:21354   */\n      tag_504\n      tag_505\n      jump\t// in\n    tag_504:\n        /* \"#utility.yul\":21321:21323   */\n    tag_503:\n        /* \"#utility.yul\":21378:21379   */\n      dup3\n        /* \"#utility.yul\":21375:21376   */\n      dup3\n        /* \"#utility.yul\":21371:21380   */\n      div\n        /* \"#utility.yul\":21366:21380   */\n      swap1\n      pop\n        /* \"#utility.yul\":21243:21386   */\n      swap3\n      swap2\n      pop\n      pop\n      jump\t// out\n        /* \"#utility.yul\":21392:21740   */\n    tag_183:\n      0x00\n        /* \"#utility.yul\":21455:21475   */\n      tag_507\n        /* \"#utility.yul\":21473:21474   */\n      dup3\n        /* \"#utility.yul\":21455:21475   */\n      tag_434\n      jump\t// in\n    tag_507:\n        /* \"#utility.yul\":21450:21475   */\n      swap2\n      pop\n        /* \"#utility.yul\":21489:21509   */\n      tag_508\n        /* \"#utility.yul\":21507:21508   */\n      dup4\n        /* \"#utility.yul\":21489:21509   */\n      tag_434\n      jump\t// in\n    tag_508:\n        /* \"#utility.yul\":21484:21509   */\n      swap3\n      pop\n        /* \"#utility.yul\":21677:21678   */\n      dup2\n        /* \"#utility.yul\":21609:21675   */\n      0xffffffffffffffffffffffffffffffffffffffffffffffffffffffffffffffff\n        /* \"#utility.yul\":21605:21679   */\n      div\n        /* \"#utility.yul\":21602:21603   */\n      dup4\n        /* \"#utility.yul\":21599:21680   */\n      gt\n        /* \"#utility.yul\":21594:21595   */\n      dup3\n        /* \"#utility.yul\":21587:21596   */\n      iszero\n        /* \"#utility.yul\":21580:21597   */\n      iszero\n        /* \"#utility.yul\":21576:21681   */\n      and\n        /* \"#utility.yul\":21573:21575   */\n      iszero\n      tag_509\n      jumpi\n        /* \"#utility.yul\":21684:21702   */\n      tag_510\n      tag_499\n      jump\t// in\n    tag_510:\n        /* \"#utility.yul\":21573:21575   */\n    tag_509:\n        /* \"#utility.yul\":21732:21733   */\n      dup3\n        /* \"#utility.yul\":21729:21730   */\n      dup3\n        /* \"#utility.yul\":21725:21734   */\n      mul\n        /* \"#utility.yul\":21714:21734   */\n      swap1\n      pop\n        /* \"#utility.yul\":21440:21740   */\n      swap3\n      swap2\n      pop\n      pop\n      jump\t// out\n        /* \"#utility.yul\":21746:21937   */\n    tag_168:\n      0x00\n        /* \"#utility.yul\":21806:21826   */\n      tag_512\n        /* \"#utility.yul\":21824:21825   */\n      dup3\n        /* \"#utility.yul\":21806:21826   */\n      tag_434\n      jump\t// in\n    tag_512:\n        /* \"#utility.yul\":21801:21826   */\n      swap2\n      pop\n        /* \"#utility.yul\":21840:21860   */\n      tag_513\n        /* \"#utility.yul\":21858:21859   */\n      dup4\n        /* \"#utility.yul\":21840:21860   */\n      tag_434\n      jump\t// in\n    tag_513:\n        /* \"#utility.yul\":21835:21860   */\n      swap3\n      pop\n        /* \"#utility.yul\":21879:21880   */\n      dup3\n        /* \"#utility.yul\":21876:21877   */\n      dup3\n        /* \"#utility.yul\":21873:21881   */\n      lt\n        /* \"#utility.yul\":21870:21872   */\n      iszero\n      tag_514\n      jumpi\n        /* \"#utility.yul\":21884:21902   */\n      tag_515\n      tag_499\n      jump\t// in\n    tag_515:\n        /* \"#utility.yul\":21870:21872   */\n    tag_514:\n        /* \"#utility.yul\":21929:21930   */\n      dup3\n        /* \"#utility.yul\":21926:21927   */\n      dup3\n        /* \"#utility.yul\":21922:21931   */\n      sub\n        /* \"#utility.yul\":21914:21931   */\n      swap1\n      pop\n        /* \"#utility.yul\":21791:21937   */\n      swap3\n      swap2\n      pop\n      pop\n      jump\t// out\n        /* \"#utility.yul\":21943:22039   */\n    tag_352:\n      0x00\n        /* \"#utility.yul\":22009:22033   */\n      tag_517\n        /* \"#utility.yul\":22027:22032   */\n      dup3\n        /* \"#utility.yul\":22009:22033   */\n      tag_518\n      jump\t// in\n    tag_517:\n        /* \"#utility.yul\":21998:22033   */\n      swap1\n      pop\n        /* \"#utility.yul\":21988:22039   */\n      swap2\n      swap1\n      pop\n      jump\t// out\n        /* \"#utility.yul\":22045:22149   */\n    tag_345:\n      0x00\n        /* \"#utility.yul\":22119:22143   */\n      tag_520\n        /* \"#utility.yul\":22137:22142   */\n      dup3\n        /* \"#utility.yul\":22119:22143   */\n      tag_518\n      jump\t// in\n    tag_520:\n        /* \"#utility.yul\":22108:22143   */\n      swap1\n      pop\n        /* \"#utility.yul\":22098:22149   */\n      swap2\n      swap1\n      pop\n      jump\t// out\n        /* \"#utility.yul\":22155:22245   */\n    tag_373:\n      0x00\n        /* \"#utility.yul\":22232:22237   */\n      dup2\n        /* \"#utility.yul\":22225:22238   */\n      iszero\n        /* \"#utility.yul\":22218:22239   */\n      iszero\n        /* \"#utility.yul\":22207:22239   */\n      swap1\n      pop\n        /* \"#utility.yul\":22197:22245   */\n      swap2\n      swap1\n      pop\n      jump\t// out\n        /* \"#utility.yul\":22251:22377   */\n    tag_518:\n      0x00\n        /* \"#utility.yul\":22328:22370   */\n      0xffffffffffffffffffffffffffffffffffffffff\n        /* \"#utility.yul\":22321:22326   */\n      dup3\n        /* \"#utility.yul\":22317:22371   */\n      and\n        /* \"#utility.yul\":22306:22371   */\n      swap1\n      pop\n        /* \"#utility.yul\":22296:22377   */\n      swap2\n      swap1\n      pop\n      jump\t// out\n        /* \"#utility.yul\":22383:22460   */\n    tag_434:\n      0x00\n        /* \"#utility.yul\":22449:22454   */\n      dup2\n        /* \"#utility.yul\":22438:22454   */\n      swap1\n      pop\n        /* \"#utility.yul\":22428:22460   */\n      swap2\n      swap1\n      pop\n      jump\t// out\n        /* \"#utility.yul\":22466:22773   */\n    tag_384:\n        /* \"#utility.yul\":22534:22535   */\n      0x00\n        /* \"#utility.yul\":22544:22657   */\n    tag_525:\n        /* \"#utility.yul\":22558:22564   */\n      dup4\n        /* \"#utility.yul\":22555:22556   */\n      dup2\n        /* \"#utility.yul\":22552:22565   */\n      lt\n        /* \"#utility.yul\":22544:22657   */\n      iszero\n      tag_527\n      jumpi\n        /* \"#utility.yul\":22643:22644   */\n      dup1\n        /* \"#utility.yul\":22638:22641   */\n      dup3\n        /* \"#utility.yul\":22634:22645   */\n      add\n        /* \"#utility.yul\":22628:22646   */\n      mload\n        /* \"#utility.yul\":22624:22625   */\n      dup2\n        /* \"#utility.yul\":22619:22622   */\n      dup5\n        /* \"#utility.yul\":22615:22626   */\n      add\n        /* \"#utility.yul\":22608:22647   */\n      mstore\n        /* \"#utility.yul\":22580:22582   */\n      0x20\n        /* \"#utility.yul\":22577:22578   */\n      dup2\n        /* \"#utility.yul\":22573:22583   */\n      add\n        /* \"#utility.yul\":22568:22583   */\n      swap1\n      pop\n        /* \"#utility.yul\":22544:22657   */\n      jump(tag_525)\n    tag_527:\n        /* \"#utility.yul\":22675:22681   */\n      dup4\n        /* \"#utility.yul\":22672:22673   */\n      dup2\n        /* \"#utility.yul\":22669:22682   */\n      gt\n        /* \"#utility.yul\":22666:22668   */\n      iszero\n      tag_528\n      jumpi\n        /* \"#utility.yul\":22755:22756   */\n      0x00\n        /* \"#utility.yul\":22746:22752   */\n      dup5\n        /* \"#utility.yul\":22741:22744   */\n      dup5\n        /* \"#utility.yul\":22737:22753   */\n      add\n        /* \"#utility.yul\":22730:22757   */\n      mstore\n        /* \"#utility.yul\":22666:22668   */\n    tag_528:\n        /* \"#utility.yul\":22515:22773   */\n      pop\n      pop\n      pop\n      pop\n      jump\t// out\n        /* \"#utility.yul\":22779:23012   */\n    tag_277:\n      0x00\n        /* \"#utility.yul\":22841:22865   */\n      tag_530\n        /* \"#utility.yul\":22859:22864   */\n      dup3\n        /* \"#utility.yul\":22841:22865   */\n      tag_434\n      jump\t// in\n    tag_530:\n        /* \"#utility.yul\":22832:22865   */\n      swap2\n      pop\n        /* \"#utility.yul\":22887:22953   */\n      0xffffffffffffffffffffffffffffffffffffffffffffffffffffffffffffffff\n        /* \"#utility.yul\":22880:22885   */\n      dup3\n        /* \"#utility.yul\":22877:22954   */\n      eq\n        /* \"#utility.yul\":22874:22876   */\n      iszero\n      tag_531\n      jumpi\n        /* \"#utility.yul\":22957:22975   */\n      tag_532\n      tag_499\n      jump\t// in\n    tag_532:\n        /* \"#utility.yul\":22874:22876   */\n    tag_531:\n        /* \"#utility.yul\":23004:23005   */\n      0x01\n        /* \"#utility.yul\":22997:23002   */\n      dup3\n        /* \"#utility.yul\":22993:23006   */\n      add\n        /* \"#utility.yul\":22986:23006   */\n      swap1\n      pop\n        /* \"#utility.yul\":22822:23012   */\n      swap2\n      swap1\n      pop\n      jump\t// out\n        /* \"#utility.yul\":23018:23198   */\n    tag_499:\n        /* \"#utility.yul\":23066:23143   */\n      0x4e487b7100000000000000000000000000000000000000000000000000000000\n        /* \"#utility.yul\":23063:23064   */\n      0x00\n        /* \"#utility.yul\":23056:23144   */\n      mstore\n        /* \"#utility.yul\":23163:23167   */\n      0x11\n        /* \"#utility.yul\":23160:23161   */\n      0x04\n        /* \"#utility.yul\":23153:23168   */\n      mstore\n        /* \"#utility.yul\":23187:23191   */\n      0x24\n        /* \"#utility.yul\":23184:23185   */\n      0x00\n        /* \"#utility.yul\":23177:23192   */\n      revert\n        /* \"#utility.yul\":23204:23384   */\n    tag_505:\n        /* \"#utility.yul\":23252:23329   */\n      0x4e487b7100000000000000000000000000000000000000000000000000000000\n        /* \"#utility.yul\":23249:23250   */\n      0x00\n        /* \"#utility.yul\":23242:23330   */\n      mstore\n        /* \"#utility.yul\":23349:23353   */\n      0x12\n        /* \"#utility.yul\":23346:23347   */\n      0x04\n        /* \"#utility.yul\":23339:23354   */\n      mstore\n        /* \"#utility.yul\":23373:23377   */\n      0x24\n        /* \"#utility.yul\":23370:23371   */\n      0x00\n        /* \"#utility.yul\":23363:23378   */\n      revert\n        /* \"#utility.yul\":23390:23492   */\n    tag_386:\n      0x00\n        /* \"#utility.yul\":23482:23484   */\n      0x1f\n        /* \"#utility.yul\":23478:23485   */\n      not\n        /* \"#utility.yul\":23473:23475   */\n      0x1f\n        /* \"#utility.yul\":23466:23471   */\n      dup4\n        /* \"#utility.yul\":23462:23476   */\n      add\n        /* \"#utility.yul\":23458:23486   */\n      and\n        /* \"#utility.yul\":23448:23486   */\n      swap1\n      pop\n        /* \"#utility.yul\":23438:23492   */\n      swap2\n      swap1\n      pop\n      jump\t// out\n        /* \"#utility.yul\":23498:23620   */\n    tag_303:\n        /* \"#utility.yul\":23571:23595   */\n      tag_537\n        /* \"#utility.yul\":23589:23594   */\n      dup2\n        /* \"#utility.yul\":23571:23595   */\n      tag_352\n      jump\t// in\n    tag_537:\n        /* \"#utility.yul\":23564:23569   */\n      dup2\n        /* \"#utility.yul\":23561:23596   */\n      eq\n        /* \"#utility.yul\":23551:23553   */\n      tag_538\n      jumpi\n        /* \"#utility.yul\":23610:23611   */\n      0x00\n        /* \"#utility.yul\":23607:23608   */\n      dup1\n        /* \"#utility.yul\":23600:23612   */\n      revert\n        /* \"#utility.yul\":23551:23553   */\n    tag_538:\n        /* \"#utility.yul\":23541:23620   */\n      pop\n      jump\t// out\n        /* \"#utility.yul\":23626:23764   */\n    tag_307:\n        /* \"#utility.yul\":23707:23739   */\n      tag_540\n        /* \"#utility.yul\":23733:23738   */\n      dup2\n        /* \"#utility.yul\":23707:23739   */\n      tag_345\n      jump\t// in\n    tag_540:\n        /* \"#utility.yul\":23700:23705   */\n      dup2\n        /* \"#utility.yul\":23697:23740   */\n      eq\n        /* \"#utility.yul\":23687:23689   */\n      tag_541\n      jumpi\n        /* \"#utility.yul\":23754:23755   */\n      0x00\n        /* \"#utility.yul\":23751:23752   */\n      dup1\n        /* \"#utility.yul\":23744:23756   */\n      revert\n        /* \"#utility.yul\":23687:23689   */\n    tag_541:\n        /* \"#utility.yul\":23677:23764   */\n      pop\n      jump\t// out\n        /* \"#utility.yul\":23770:23892   */\n    tag_311:\n        /* \"#utility.yul\":23843:23867   */\n      tag_543\n        /* \"#utility.yul\":23861:23866   */\n      dup2\n        /* \"#utility.yul\":23843:23867   */\n      tag_434\n      jump\t// in\n    tag_543:\n        /* \"#utility.yul\":23836:23841   */\n      dup2\n        /* \"#utility.yul\":23833:23868   */\n      eq\n        /* \"#utility.yul\":23823:23825   */\n      tag_544\n      jumpi\n        /* \"#utility.yul\":23882:23883   */\n      0x00\n        /* \"#utility.yul\":23879:23880   */\n      dup1\n        /* \"#utility.yul\":23872:23884   */\n      revert\n        /* \"#utility.yul\":23823:23825   */\n    tag_544:\n        /* \"#utility.yul\":23813:23892   */\n      pop\n      jump\t// out\n    stop\n    data_fc1f430daf57c886d5fc7ef1ec28d53c3bddbd0b7e3afb182675971bc91c83a5 4c6f616e20417070726f7665642e2046756e64732063616e206e6f7720626520616363657373656420696e20796f75722077616c6c65742e\n\n    auxdata: 0xa264697066735822122097817efc442b8b0985bb445bfdfa74bfc1a016d2c8bc7672e11bfff785c1a2f264736f6c63430008000033\n}\n",
				"bytecode": {
					"linkReferences": {},
					"object": "6080604052600080819055506135588061001a6000396000f3fe6080604052600436106101815760003560e01c806374f6b7b5116100d1578063ba5eceb61161008a578063d186334911610064578063d186334914610610578063e151c8bd1461064d578063e7a7594914610678578063f6117cce146106b557610181565b8063ba5eceb614610578578063cb7e142e146105b5578063cf48dfc4146105e557610181565b806374f6b7b51461041c57806375dc9ad91461044757806394182c36146104845780639ab88914146104c1578063a123c33e146104fe578063ac1c7c991461053b57610181565b80635583a9301161013e5780636bf4c157116101185780636bf4c1571461033957806371593d411461037f578063715eb34d146103bc578063729c7e83146103ec57610181565b80635583a930146102a35780635f9634e0146102e057806364afd1c71461031d57610181565b80631ee3782c14610186578063213455a2146101b657806324b7eb8c146101e157806330b65511146102215780633a178d991461023d578063552bca801461027a575b600080fd5b6101a0600480360381019061019b9190612941565b6106fb565b6040516101ad9190613059565b60405180910390f35b3480156101c257600080fd5b506101cb610be1565b6040516101d891906131db565b60405180910390f35b3480156101ed57600080fd5b50610208600480360381019061020391906128dc565b610caa565b6040516102189493929190612fd7565b60405180910390f35b61023b600480360381019061023691906128dc565b610d0a565b005b34801561024957600080fd5b50610264600480360381019061025f91906128dc565b6110d1565b604051610271919061303e565b60405180910390f35b34801561028657600080fd5b506102a1600480360381019061029c9190612879565b6110f1565b005b3480156102af57600080fd5b506102ca60048036038101906102c591906128dc565b611292565b6040516102d7919061303e565b60405180910390f35b3480156102ec57600080fd5b50610307600480360381019061030291906128dc565b6112b2565b604051610314919061303e565b60405180910390f35b610337600480360381019061033291906128dc565b6112d2565b005b34801561034557600080fd5b50610360600480360381019061035b91906128dc565b611699565b6040516103769a99989796959493929190612f3b565b60405180910390f35b34801561038b57600080fd5b506103a660048036038101906103a191906128dc565b611764565b6040516103b391906131db565b60405180910390f35b6103d660048036038101906103d19190612905565b61177c565b6040516103e39190613059565b60405180910390f35b610406600480360381019061040191906128dc565b611d4b565b604051610413919061303e565b60405180910390f35b34801561042857600080fd5b50610431611eae565b60405161043e919061301c565b60405180910390f35b34801561045357600080fd5b5061046e60048036038101906104699190612850565b61203d565b60405161047b91906131db565b60405180910390f35b34801561049057600080fd5b506104ab60048036038101906104a691906128dc565b612055565b6040516104b8919061303e565b60405180910390f35b3480156104cd57600080fd5b506104e860048036038101906104e391906128dc565b612075565b6040516104f59190612f20565b60405180910390f35b34801561050a57600080fd5b50610525600480360381019061052091906128dc565b6120a8565b6040516105329190612f05565b60405180910390f35b34801561054757600080fd5b50610562600480360381019061055d91906128dc565b6120db565b60405161056f91906131db565b60405180910390f35b34801561058457600080fd5b5061059f600480360381019061059a9190612850565b6120f3565b6040516105ac91906131db565b60405180910390f35b6105cf60048036038101906105ca9190612990565b61210b565b6040516105dc9190613059565b60405180910390f35b3480156105f157600080fd5b506105fa6124be565b604051610607919061301c565b60405180910390f35b34801561061c57600080fd5b5061063760048036038101906106329190612850565b61264d565b60405161064491906131db565b60405180910390f35b34801561065957600080fd5b50610662612665565b60405161066f91906131db565b60405180910390f35b34801561068457600080fd5b5061069f600480360381019061069a91906128dc565b61272e565b6040516106ac91906131db565b60405180910390f35b3480156106c157600080fd5b506106dc60048036038101906106d791906128dc565b612746565b6040516106f29a99989796959493929190612f3b565b60405180910390f35b6060600f8481548110610737577f4e487b7100000000000000000000000000000000000000000000000000000000600052603260045260246000fd5b906000526020600020906008020160020154925060006001600f8054905061075f919061332c565b905060008110156107a5576040517f08c379a000000000000000000000000000000000000000000000000000000000815260040161079c906130bb565b60405180910390fd5b808511156107e8576040517f08c379a00000000000000000000000000000000000000000000000000000000081526004016107df9061319b565b60405180910390fd5b80851015610a0b57600f818154811061082a577f4e487b7100000000000000000000000000000000000000000000000000000000600052603260045260246000fd5b9060005260206000209060080201600f8681548110610872577f4e487b7100000000000000000000000000000000000000000000000000000000600052603260045260246000fd5b90600052602060002090600802016000820160009054906101000a900473ffffffffffffffffffffffffffffffffffffffff168160000160006101000a81548173ffffffffffffffffffffffffffffffffffffffff021916908373ffffffffffffffffffffffffffffffffffffffff1602179055506001820154816001015560028201548160020155600382015481600301556004820160009054906101000a900473ffffffffffffffffffffffffffffffffffffffff168160040160006101000a81548173ffffffffffffffffffffffffffffffffffffffff021916908373ffffffffffffffffffffffffffffffffffffffff16021790555060058201548160050155600682015481600601556007820160009054906101000a900460ff168160070160006101000a81548160ff0219169083151502179055506007820160019054906101000a900460ff168160070160016101000a81548160ff0219169083151502179055506007820160029054906101000a900460ff168160070160026101000a81548160ff0219169083151502179055509050505b600f805480610a43577f4e487b7100000000000000000000000000000000000000000000000000000000600052603160045260246000fd5b6001900381819060005260206000209060080201600080820160006101000a81549073ffffffffffffffffffffffffffffffffffffffff02191690556001820160009055600282016000905560038201600090556004820160006101000a81549073ffffffffffffffffffffffffffffffffffffffff0219169055600582016000905560068201600090556007820160006101000a81549060ff02191690556007820160016101000a81549060ff02191690556007820160026101000a81549060ff02191690555050905560008373ffffffffffffffffffffffffffffffffffffffff166108fc670de0b6b3a764000087610b3e91906132d2565b9081150290604051600060405180830381858888f1935050505090508015610b9f576040518060400160405280601c81526020017f596f7572206f6666657220686173206265656e20726566756e6465640000000081525092505050610bda565b6040518060400160405280601981526020017f4661696c656420746f207472616e736665722066756e64732e00000000000000815250925050505b9392505050565b600080600260003373ffffffffffffffffffffffffffffffffffffffff1673ffffffffffffffffffffffffffffffffffffffff168152602001908152602001600020541415610c65576040517f08c379a0000000000000000000000000000000000000000000000000000000008152600401610c5c9061315b565b60405180910390fd5b600260003373ffffffffffffffffffffffffffffffffffffffff1673ffffffffffffffffffffffffffffffffffffffff16815260200190815260200160002054905090565b60118181548110610cba57600080fd5b90600052602060002090600402016000915090508060000160009054906101000a900473ffffffffffffffffffffffffffffffffffffffff16908060010154908060020154908060030154905084565b60006001600f80549050610d1e919061332c565b90506000811015610d64576040517f08c379a0000000000000000000000000000000000000000000000000000000008152600401610d5b906130bb565b60405180910390fd5b80821115610da7576040517f08c379a0000000000000000000000000000000000000000000000000000000008152600401610d9e9061319b565b60405180910390fd5b80821015610fca57600f8181548110610de9577f4e487b7100000000000000000000000000000000000000000000000000000000600052603260045260246000fd5b9060005260206000209060080201600f8381548110610e31577f4e487b7100000000000000000000000000000000000000000000000000000000600052603260045260246000fd5b90600052602060002090600802016000820160009054906101000a900473ffffffffffffffffffffffffffffffffffffffff168160000160006101000a81548173ffffffffffffffffffffffffffffffffffffffff021916908373ffffffffffffffffffffffffffffffffffffffff1602179055506001820154816001015560028201548160020155600382015481600301556004820160009054906101000a900473ffffffffffffffffffffffffffffffffffffffff168160040160006101000a81548173ffffffffffffffffffffffffffffffffffffffff021916908373ffffffffffffffffffffffffffffffffffffffff16021790555060058201548160050155600682015481600601556007820160009054906101000a900460ff168160070160006101000a81548160ff0219169083151502179055506007820160019054906101000a900460ff168160070160016101000a81548160ff0219169083151502179055506007820160029054906101000a900460ff168160070160026101000a81548160ff0219169083151502179055509050505b600f805480611002577f4e487b7100000000000000000000000000000000000000000000000000000000600052603160045260246000fd5b6001900381819060005260206000209060080201600080820160006101000a81549073ffffffffffffffffffffffffffffffffffffffff02191690556001820160009055600282016000905560038201600090556004820160006101000a81549073ffffffffffffffffffffffffffffffffffffffff0219169055600582016000905560068201600090556007820160006101000a81549060ff02191690556007820160016101000a81549060ff02191690556007820160026101000a81549060ff0219169055505090555050565b600b6020528060005260406000206000915054906101000a900460ff1681565b82600260008673ffffffffffffffffffffffffffffffffffffffff1673ffffffffffffffffffffffffffffffffffffffff1681526020019081526020016000208190555081600360008673ffffffffffffffffffffffffffffffffffffffff1673ffffffffffffffffffffffffffffffffffffffff1681526020019081526020016000208190555080600460008673ffffffffffffffffffffffffffffffffffffffff1673ffffffffffffffffffffffffffffffffffffffff16815260200190815260200160002081905550600060405180608001604052808673ffffffffffffffffffffffffffffffffffffffff168152602001858152602001838152602001848152509050601181908060018154018082558091505060019003906000526020600020906004020160009091909190915060008201518160000160006101000a81548173ffffffffffffffffffffffffffffffffffffffff021916908373ffffffffffffffffffffffffffffffffffffffff16021790555060208201518160010155604082015181600201556060820151816003015550505050505050565b600e6020528060005260406000206000915054906101000a900460ff1681565b600c6020528060005260406000206000915054906101000a900460ff1681565b600060016010805490506112e6919061332c565b9050600081101561132c576040517f08c379a0000000000000000000000000000000000000000000000000000000008152600401611323906130bb565b60405180910390fd5b8082111561136f576040517f08c379a00000000000000000000000000000000000000000000000000000000081526004016113669061319b565b60405180910390fd5b8082101561159257601081815481106113b1577f4e487b7100000000000000000000000000000000000000000000000000000000600052603260045260246000fd5b9060005260206000209060080201601083815481106113f9577f4e487b7100000000000000000000000000000000000000000000000000000000600052603260045260246000fd5b90600052602060002090600802016000820160009054906101000a900473ffffffffffffffffffffffffffffffffffffffff168160000160006101000a81548173ffffffffffffffffffffffffffffffffffffffff021916908373ffffffffffffffffffffffffffffffffffffffff1602179055506001820154816001015560028201548160020155600382015481600301556004820160009054906101000a900473ffffffffffffffffffffffffffffffffffffffff168160040160006101000a81548173ffffffffffffffffffffffffffffffffffffffff021916908373ffffffffffffffffffffffffffffffffffffffff16021790555060058201548160050155600682015481600601556007820160009054906101000a900460ff168160070160006101000a81548160ff0219169083151502179055506007820160019054906101000a900460ff168160070160016101000a81548160ff0219169083151502179055506007820160029054906101000a900460ff168160070160026101000a81548160ff0219169083151502179055509050505b60108054806115ca577f4e487b7100000000000000000000000000000000000000000000000000000000600052603160045260246000fd5b6001900381819060005260206000209060080201600080820160006101000a81549073ffffffffffffffffffffffffffffffffffffffff02191690556001820160009055600282016000905560038201600090556004820160006101000a81549073ffffffffffffffffffffffffffffffffffffffff0219169055600582016000905560068201600090556007820160006101000a81549060ff02191690556007820160016101000a81549060ff02191690556007820160026101000a81549060ff0219169055505090555050565b601081815481106116a957600080fd5b90600052602060002090600802016000915090508060000160009054906101000a900473ffffffffffffffffffffffffffffffffffffffff16908060010154908060020154908060030154908060040160009054906101000a900473ffffffffffffffffffffffffffffffffffffffff16908060050154908060060154908060070160009054906101000a900460ff16908060070160019054906101000a900460ff16908060070160029054906101000a900460ff1690508a565b60086020528060005260406000206000915090505481565b60606000600f84815481106117ba577f4e487b7100000000000000000000000000000000000000000000000000000000600052603260045260246000fd5b9060005260206000209060080201600201549050600f8481548110611808577f4e487b7100000000000000000000000000000000000000000000000000000000600052603260045260246000fd5b906000526020600020906008020160000160009054906101000a900473ffffffffffffffffffffffffffffffffffffffff1673ffffffffffffffffffffffffffffffffffffffff163373ffffffffffffffffffffffffffffffffffffffff1614156118a8576040517f08c379a000000000000000000000000000000000000000000000000000000000815260040161189f906130fb565b60405180910390fd5b60006118b2610be1565b905060006118be612665565b905061012c821015611905576040517f08c379a00000000000000000000000000000000000000000000000000000000081526004016118fc9061307b565b60405180910390fd5b600f868154811061193f577f4e487b7100000000000000000000000000000000000000000000000000000000600052603260045260246000fd5b906000526020600020906008020160060154600561195d91906132d2565b81101561199f576040517f08c379a0000000000000000000000000000000000000000000000000000000008152600401611996906131bb565b60405180910390fd5b6000600f87815481106119db577f4e487b7100000000000000000000000000000000000000000000000000000000600052603260045260246000fd5b906000526020600020906008020160070160006101000a81548160ff02191690831515021790555033600f8781548110611a3e577f4e487b7100000000000000000000000000000000000000000000000000000000600052603260045260246000fd5b906000526020600020906008020160040160006101000a81548173ffffffffffffffffffffffffffffffffffffffff021916908373ffffffffffffffffffffffffffffffffffffffff1602179055506010600f8781548110611ac9577f4e487b7100000000000000000000000000000000000000000000000000000000600052603260045260246000fd5b906000526020600020906008020190806001815401808255809150506001900390600052602060002090600802016000909190919091506000820160009054906101000a900473ffffffffffffffffffffffffffffffffffffffff168160000160006101000a81548173ffffffffffffffffffffffffffffffffffffffff021916908373ffffffffffffffffffffffffffffffffffffffff1602179055506001820154816001015560028201548160020155600382015481600301556004820160009054906101000a900473ffffffffffffffffffffffffffffffffffffffff168160040160006101000a81548173ffffffffffffffffffffffffffffffffffffffff021916908373ffffffffffffffffffffffffffffffffffffffff16021790555060058201548160050155600682015481600601556007820160009054906101000a900460ff168160070160006101000a81548160ff0219169083151502179055506007820160019054906101000a900460ff168160070160016101000a81548160ff0219169083151502179055506007820160029054906101000a900460ff168160070160026101000a81548160ff0219169083151502179055505050611c9286610d0a565b60008573ffffffffffffffffffffffffffffffffffffffff166108fc670de0b6b3a764000086611cc291906132d2565b9081150290604051600060405180830381858888f1935050505090508015611d08576040518060600160405280603881526020016134eb60389139945050505050611d45565b6040518060400160405280602081526020017f4572726f723a204661696c656420746f207472616e736665722066756e64732e8152509450505050505b92915050565b6000343373ffffffffffffffffffffffffffffffffffffffff16311015611da7576040517f08c379a0000000000000000000000000000000000000000000000000000000008152600401611d9e906130db565b60405180910390fd5b34471015611dea576040517f08c379a0000000000000000000000000000000000000000000000000000000008152600401611de19061317b565b60405180910390fd5b60108281548110611e24577f4e487b7100000000000000000000000000000000000000000000000000000000600052603260045260246000fd5b906000526020600020906008020160000160009054906101000a900473ffffffffffffffffffffffffffffffffffffffff1673ffffffffffffffffffffffffffffffffffffffff166108fc349081150290604051600060405180830381858888f19350505050158015611e9b573d6000803e3d6000fd5b50611ea5826112d2565b60019050919050565b6060600f805480602002602001604051908101604052809291908181526020016000905b828210156120345783829060005260206000209060080201604051806101400160405290816000820160009054906101000a900473ffffffffffffffffffffffffffffffffffffffff1673ffffffffffffffffffffffffffffffffffffffff1673ffffffffffffffffffffffffffffffffffffffff1681526020016001820154815260200160028201548152602001600382015481526020016004820160009054906101000a900473ffffffffffffffffffffffffffffffffffffffff1673ffffffffffffffffffffffffffffffffffffffff1673ffffffffffffffffffffffffffffffffffffffff16815260200160058201548152602001600682015481526020016007820160009054906101000a900460ff161515151581526020016007820160019054906101000a900460ff161515151581526020016007820160029054906101000a900460ff16151515158152505081526020019060010190611ed2565b50505050905090565b60026020528060005260406000206000915090505481565b600d6020528060005260406000206000915054906101000a900460ff1681565b60066020528060005260406000206000915054906101000a900473ffffffffffffffffffffffffffffffffffffffff1681565b600a6020528060005260406000206000915054906101000a900473ffffffffffffffffffffffffffffffffffffffff1681565b60096020528060005260406000206000915090505481565b60046020528060005260406000206000915090505481565b606060008411801561211d5750600083115b80156121295750600082115b612168576040517f08c379a000000000000000000000000000000000000000000000000000000000815260040161215f9061313b565b60405180910390fd5b6005600081548092919061217b906133ed565b91905055503360066000600554815260200190815260200160002060006101000a81548173ffffffffffffffffffffffffffffffffffffffff021916908373ffffffffffffffffffffffffffffffffffffffff16021790555083600760006005548152602001908152602001600020819055508260086000600554815260200190815260200160002081905550816009600060055481526020019081526020016000208190555060006040518061014001604052803373ffffffffffffffffffffffffffffffffffffffff16815260200160055481526020018681526020018481526020013373ffffffffffffffffffffffffffffffffffffffff1681526020018581526020018560648661229091906132a1565b8861229b91906132d2565b6122a591906132d2565b876122b0919061324b565b81526020016001151581526020016000151581526020016000151581525090506000600f805490509050600f82908060018154018082558091505060019003906000526020600020906008020160009091909190915060008201518160000160006101000a81548173ffffffffffffffffffffffffffffffffffffffff021916908373ffffffffffffffffffffffffffffffffffffffff16021790555060208201518160010155604082015181600201556060820151816003015560808201518160040160006101000a81548173ffffffffffffffffffffffffffffffffffffffff021916908373ffffffffffffffffffffffffffffffffffffffff16021790555060a0820151816005015560c0820151816006015560e08201518160070160006101000a81548160ff0219169083151502179055506101008201518160070160016101000a81548160ff0219169083151502179055506101208201518160070160026101000a81548160ff0219169083151502179055505050600181612437919061324b565b600f805490501461247d576040517f08c379a00000000000000000000000000000000000000000000000000000000081526004016124749061309b565b60405180910390fd5b6040518060400160405280600d81526020017f4f66666572204372656174656400000000000000000000000000000000000000815250925050509392505050565b60606010805480602002602001604051908101604052809291908181526020016000905b828210156126445783829060005260206000209060080201604051806101400160405290816000820160009054906101000a900473ffffffffffffffffffffffffffffffffffffffff1673ffffffffffffffffffffffffffffffffffffffff1673ffffffffffffffffffffffffffffffffffffffff1681526020016001820154815260200160028201548152602001600382015481526020016004820160009054906101000a900473ffffffffffffffffffffffffffffffffffffffff1673ffffffffffffffffffffffffffffffffffffffff1673ffffffffffffffffffffffffffffffffffffffff16815260200160058201548152602001600682015481526020016007820160009054906101000a900460ff161515151581526020016007820160019054906101000a900460ff161515151581526020016007820160029054906101000a900460ff161515151581525050815260200190600101906124e2565b50505050905090565b60036020528060005260406000206000915090505481565b600080600360003373ffffffffffffffffffffffffffffffffffffffff1673ffffffffffffffffffffffffffffffffffffffff1681526020019081526020016000205414156126e9576040517f08c379a00000000000000000000000000000000000000000000000000000000081526004016126e09061311b565b60405180910390fd5b600360003373ffffffffffffffffffffffffffffffffffffffff1673ffffffffffffffffffffffffffffffffffffffff16815260200190815260200160002054905090565b60076020528060005260406000206000915090505481565b600f818154811061275657600080fd5b90600052602060002090600802016000915090508060000160009054906101000a900473ffffffffffffffffffffffffffffffffffffffff16908060010154908060020154908060030154908060040160009054906101000a900473ffffffffffffffffffffffffffffffffffffffff16908060050154908060060154908060070160009054906101000a900460ff16908060070160019054906101000a900460ff16908060070160029054906101000a900460ff1690508a565b600081359050612820816134a5565b92915050565b600081359050612835816134bc565b92915050565b60008135905061284a816134d3565b92915050565b60006020828403121561286257600080fd5b600061287084828501612811565b91505092915050565b6000806000806080858703121561288f57600080fd5b600061289d87828801612811565b94505060206128ae8782880161283b565b93505060406128bf8782880161283b565b92505060606128d08782880161283b565b91505092959194509250565b6000602082840312156128ee57600080fd5b60006128fc8482850161283b565b91505092915050565b6000806040838503121561291857600080fd5b60006129268582860161283b565b925050602061293785828601612826565b9150509250929050565b60008060006060848603121561295657600080fd5b60006129648682870161283b565b93505060206129758682870161283b565b925050604061298686828701612826565b9150509250925092565b6000806000606084860312156129a557600080fd5b60006129b38682870161283b565b93505060206129c48682870161283b565b92505060406129d58682870161283b565b9150509250925092565b60006129eb8383612e1b565b6101408301905092915050565b612a0181613372565b82525050565b612a1081613372565b82525050565b612a1f81613360565b82525050565b612a2e81613360565b82525050565b6000612a3f82613206565b612a498185613229565b9350612a54836131f6565b8060005b83811015612a85578151612a6c88826129df565b9750612a778361321c565b925050600181019050612a58565b5085935050505092915050565b612a9b81613384565b82525050565b612aaa81613384565b82525050565b6000612abb82613211565b612ac5818561323a565b9350612ad58185602086016133ba565b612ade81613494565b840191505092915050565b6000612af6601d8361323a565b91507f596f7572206372656469742073636f726520697320746f6f206c6f772e0000006000830152602082019050919050565b6000612b3660228361323a565b91507f4572726f72206372656174696e6720616e206f666665722c207472792061676160008301527f696e0000000000000000000000000000000000000000000000000000000000006020830152604082019050919050565b6000612b9c60198361323a565b91507f4e6f206f666665727320657869737420746f2064656c657465000000000000006000830152602082019050919050565b6000612bdc60148361323a565b91507f496e73756666696369656e742062616c616e63650000000000000000000000006000830152602082019050919050565b6000612c1c60238361323a565b91507f596f752063616e6e6f74206170706c7920666f7220796f7572206f776e206c6f60008301527f616e2e00000000000000000000000000000000000000000000000000000000006020830152604082019050919050565b6000612c82601d8361323a565b91507f4572726f722067657474696e6720796f7572206e657420696e636f6d650000006000830152602082019050919050565b6000612cc2601b8361323a565b91507f46696c6c20696e20746865207265717569726564206669656c647300000000006000830152602082019050919050565b6000612d02601f8361323a565b91507f4572726f722067657474696e6720796f7572206372656469742073636f7265006000830152602082019050919050565b6000612d42601e8361323a565b91507f496e73756666696369656e742066756e647320696e20636f6e747261637400006000830152602082019050919050565b6000612d82601d8361323a565b91507f4f6666657220646f6573206e6f7420657869737420696e2061727261790000006000830152602082019050919050565b6000612dc2602b8361323a565b91507f596f757220696e636f6d65206c6576656c20697320746f6f206c6f7720666f7260008301527f2074686973206c6f616e2e0000000000000000000000000000000000000000006020830152604082019050919050565b61014082016000820151612e3260008501826129f8565b506020820151612e456020850182612ee7565b506040820151612e586040850182612ee7565b506060820151612e6b6060850182612ee7565b506080820151612e7e6080850182612a16565b5060a0820151612e9160a0850182612ee7565b5060c0820151612ea460c0850182612ee7565b5060e0820151612eb760e0850182612a92565b50610100820151612ecc610100850182612a92565b50610120820151612ee1610120850182612a92565b50505050565b612ef0816133b0565b82525050565b612eff816133b0565b82525050565b6000602082019050612f1a6000830184612a25565b92915050565b6000602082019050612f356000830184612a07565b92915050565b600061014082019050612f51600083018d612a07565b612f5e602083018c612ef6565b612f6b604083018b612ef6565b612f78606083018a612ef6565b612f856080830189612a25565b612f9260a0830188612ef6565b612f9f60c0830187612ef6565b612fac60e0830186612aa1565b612fba610100830185612aa1565b612fc8610120830184612aa1565b9b9a5050505050505050505050565b6000608082019050612fec6000830187612a25565b612ff96020830186612ef6565b6130066040830185612ef6565b6130136060830184612ef6565b95945050505050565b600060208201905081810360008301526130368184612a34565b905092915050565b60006020820190506130536000830184612aa1565b92915050565b600060208201905081810360008301526130738184612ab0565b905092915050565b6000602082019050818103600083015261309481612ae9565b9050919050565b600060208201905081810360008301526130b481612b29565b9050919050565b600060208201905081810360008301526130d481612b8f565b9050919050565b600060208201905081810360008301526130f481612bcf565b9050919050565b6000602082019050818103600083015261311481612c0f565b9050919050565b6000602082019050818103600083015261313481612c75565b9050919050565b6000602082019050818103600083015261315481612cb5565b9050919050565b6000602082019050818103600083015261317481612cf5565b9050919050565b6000602082019050818103600083015261319481612d35565b9050919050565b600060208201905081810360008301526131b481612d75565b9050919050565b600060208201905081810360008301526131d481612db5565b9050919050565b60006020820190506131f06000830184612ef6565b92915050565b6000819050602082019050919050565b600081519050919050565b600081519050919050565b6000602082019050919050565b600082825260208201905092915050565b600082825260208201905092915050565b6000613256826133b0565b9150613261836133b0565b9250827fffffffffffffffffffffffffffffffffffffffffffffffffffffffffffffffff0382111561329657613295613436565b5b828201905092915050565b60006132ac826133b0565b91506132b7836133b0565b9250826132c7576132c6613465565b5b828204905092915050565b60006132dd826133b0565b91506132e8836133b0565b9250817fffffffffffffffffffffffffffffffffffffffffffffffffffffffffffffffff048311821515161561332157613320613436565b5b828202905092915050565b6000613337826133b0565b9150613342836133b0565b92508282101561335557613354613436565b5b828203905092915050565b600061336b82613390565b9050919050565b600061337d82613390565b9050919050565b60008115159050919050565b600073ffffffffffffffffffffffffffffffffffffffff82169050919050565b6000819050919050565b60005b838110156133d85780820151818401526020810190506133bd565b838111156133e7576000848401525b50505050565b60006133f8826133b0565b91507fffffffffffffffffffffffffffffffffffffffffffffffffffffffffffffffff82141561342b5761342a613436565b5b600182019050919050565b7f4e487b7100000000000000000000000000000000000000000000000000000000600052601160045260246000fd5b7f4e487b7100000000000000000000000000000000000000000000000000000000600052601260045260246000fd5b6000601f19601f8301169050919050565b6134ae81613360565b81146134b957600080fd5b50565b6134c581613372565b81146134d057600080fd5b50565b6134dc816133b0565b81146134e757600080fd5b5056fe4c6f616e20417070726f7665642e2046756e64732063616e206e6f7720626520616363657373656420696e20796f75722077616c6c65742ea264697066735822122097817efc442b8b0985bb445bfdfa74bfc1a016d2c8bc7672e11bfff785c1a2f264736f6c63430008000033",
					"opcodes": "PUSH1 0x80 PUSH1 0x40 MSTORE PUSH1 0x0 DUP1 DUP2 SWAP1 SSTORE POP PUSH2 0x3558 DUP1 PUSH2 0x1A PUSH1 0x0 CODECOPY PUSH1 0x0 RETURN INVALID PUSH1 0x80 PUSH1 0x40 MSTORE PUSH1 0x4 CALLDATASIZE LT PUSH2 0x181 JUMPI PUSH1 0x0 CALLDATALOAD PUSH1 0xE0 SHR DUP1 PUSH4 0x74F6B7B5 GT PUSH2 0xD1 JUMPI DUP1 PUSH4 0xBA5ECEB6 GT PUSH2 0x8A JUMPI DUP1 PUSH4 0xD1863349 GT PUSH2 0x64 JUMPI DUP1 PUSH4 0xD1863349 EQ PUSH2 0x610 JUMPI DUP1 PUSH4 0xE151C8BD EQ PUSH2 0x64D JUMPI DUP1 PUSH4 0xE7A75949 EQ PUSH2 0x678 JUMPI DUP1 PUSH4 0xF6117CCE EQ PUSH2 0x6B5 JUMPI PUSH2 0x181 JUMP JUMPDEST DUP1 PUSH4 0xBA5ECEB6 EQ PUSH2 0x578 JUMPI DUP1 PUSH4 0xCB7E142E EQ PUSH2 0x5B5 JUMPI DUP1 PUSH4 0xCF48DFC4 EQ PUSH2 0x5E5 JUMPI PUSH2 0x181 JUMP JUMPDEST DUP1 PUSH4 0x74F6B7B5 EQ PUSH2 0x41C JUMPI DUP1 PUSH4 0x75DC9AD9 EQ PUSH2 0x447 JUMPI DUP1 PUSH4 0x94182C36 EQ PUSH2 0x484 JUMPI DUP1 PUSH4 0x9AB88914 EQ PUSH2 0x4C1 JUMPI DUP1 PUSH4 0xA123C33E EQ PUSH2 0x4FE JUMPI DUP1 PUSH4 0xAC1C7C99 EQ PUSH2 0x53B JUMPI PUSH2 0x181 JUMP JUMPDEST DUP1 PUSH4 0x5583A930 GT PUSH2 0x13E JUMPI DUP1 PUSH4 0x6BF4C157 GT PUSH2 0x118 JUMPI DUP1 PUSH4 0x6BF4C157 EQ PUSH2 0x339 JUMPI DUP1 PUSH4 0x71593D41 EQ PUSH2 0x37F JUMPI DUP1 PUSH4 0x715EB34D EQ PUSH2 0x3BC JUMPI DUP1 PUSH4 0x729C7E83 EQ PUSH2 0x3EC JUMPI PUSH2 0x181 JUMP JUMPDEST DUP1 PUSH4 0x5583A930 EQ PUSH2 0x2A3 JUMPI DUP1 PUSH4 0x5F9634E0 EQ PUSH2 0x2E0 JUMPI DUP1 PUSH4 0x64AFD1C7 EQ PUSH2 0x31D JUMPI PUSH2 0x181 JUMP JUMPDEST DUP1 PUSH4 0x1EE3782C EQ PUSH2 0x186 JUMPI DUP1 PUSH4 0x213455A2 EQ PUSH2 0x1B6 JUMPI DUP1 PUSH4 0x24B7EB8C EQ PUSH2 0x1E1 JUMPI DUP1 PUSH4 0x30B65511 EQ PUSH2 0x221 JUMPI DUP1 PUSH4 0x3A178D99 EQ PUSH2 0x23D JUMPI DUP1 PUSH4 0x552BCA80 EQ PUSH2 0x27A JUMPI JUMPDEST PUSH1 0x0 DUP1 REVERT JUMPDEST PUSH2 0x1A0 PUSH1 0x4 DUP1 CALLDATASIZE SUB DUP2 ADD SWAP1 PUSH2 0x19B SWAP2 SWAP1 PUSH2 0x2941 JUMP JUMPDEST PUSH2 0x6FB JUMP JUMPDEST PUSH1 0x40 MLOAD PUSH2 0x1AD SWAP2 SWAP1 PUSH2 0x3059 JUMP JUMPDEST PUSH1 0x40 MLOAD DUP1 SWAP2 SUB SWAP1 RETURN JUMPDEST CALLVALUE DUP1 ISZERO PUSH2 0x1C2 JUMPI PUSH1 0x0 DUP1 REVERT JUMPDEST POP PUSH2 0x1CB PUSH2 0xBE1 JUMP JUMPDEST PUSH1 0x40 MLOAD PUSH2 0x1D8 SWAP2 SWAP1 PUSH2 0x31DB JUMP JUMPDEST PUSH1 0x40 MLOAD DUP1 SWAP2 SUB SWAP1 RETURN JUMPDEST CALLVALUE DUP1 ISZERO PUSH2 0x1ED JUMPI PUSH1 0x0 DUP1 REVERT JUMPDEST POP PUSH2 0x208 PUSH1 0x4 DUP1 CALLDATASIZE SUB DUP2 ADD SWAP1 PUSH2 0x203 SWAP2 SWAP1 PUSH2 0x28DC JUMP JUMPDEST PUSH2 0xCAA JUMP JUMPDEST PUSH1 0x40 MLOAD PUSH2 0x218 SWAP5 SWAP4 SWAP3 SWAP2 SWAP1 PUSH2 0x2FD7 JUMP JUMPDEST PUSH1 0x40 MLOAD DUP1 SWAP2 SUB SWAP1 RETURN JUMPDEST PUSH2 0x23B PUSH1 0x4 DUP1 CALLDATASIZE SUB DUP2 ADD SWAP1 PUSH2 0x236 SWAP2 SWAP1 PUSH2 0x28DC JUMP JUMPDEST PUSH2 0xD0A JUMP JUMPDEST STOP JUMPDEST CALLVALUE DUP1 ISZERO PUSH2 0x249 JUMPI PUSH1 0x0 DUP1 REVERT JUMPDEST POP PUSH2 0x264 PUSH1 0x4 DUP1 CALLDATASIZE SUB DUP2 ADD SWAP1 PUSH2 0x25F SWAP2 SWAP1 PUSH2 0x28DC JUMP JUMPDEST PUSH2 0x10D1 JUMP JUMPDEST PUSH1 0x40 MLOAD PUSH2 0x271 SWAP2 SWAP1 PUSH2 0x303E JUMP JUMPDEST PUSH1 0x40 MLOAD DUP1 SWAP2 SUB SWAP1 RETURN JUMPDEST CALLVALUE DUP1 ISZERO PUSH2 0x286 JUMPI PUSH1 0x0 DUP1 REVERT JUMPDEST POP PUSH2 0x2A1 PUSH1 0x4 DUP1 CALLDATASIZE SUB DUP2 ADD SWAP1 PUSH2 0x29C SWAP2 SWAP1 PUSH2 0x2879 JUMP JUMPDEST PUSH2 0x10F1 JUMP JUMPDEST STOP JUMPDEST CALLVALUE DUP1 ISZERO PUSH2 0x2AF JUMPI PUSH1 0x0 DUP1 REVERT JUMPDEST POP PUSH2 0x2CA PUSH1 0x4 DUP1 CALLDATASIZE SUB DUP2 ADD SWAP1 PUSH2 0x2C5 SWAP2 SWAP1 PUSH2 0x28DC JUMP JUMPDEST PUSH2 0x1292 JUMP JUMPDEST PUSH1 0x40 MLOAD PUSH2 0x2D7 SWAP2 SWAP1 PUSH2 0x303E JUMP JUMPDEST PUSH1 0x40 MLOAD DUP1 SWAP2 SUB SWAP1 RETURN JUMPDEST CALLVALUE DUP1 ISZERO PUSH2 0x2EC JUMPI PUSH1 0x0 DUP1 REVERT JUMPDEST POP PUSH2 0x307 PUSH1 0x4 DUP1 CALLDATASIZE SUB DUP2 ADD SWAP1 PUSH2 0x302 SWAP2 SWAP1 PUSH2 0x28DC JUMP JUMPDEST PUSH2 0x12B2 JUMP JUMPDEST PUSH1 0x40 MLOAD PUSH2 0x314 SWAP2 SWAP1 PUSH2 0x303E JUMP JUMPDEST PUSH1 0x40 MLOAD DUP1 SWAP2 SUB SWAP1 RETURN JUMPDEST PUSH2 0x337 PUSH1 0x4 DUP1 CALLDATASIZE SUB DUP2 ADD SWAP1 PUSH2 0x332 SWAP2 SWAP1 PUSH2 0x28DC JUMP JUMPDEST PUSH2 0x12D2 JUMP JUMPDEST STOP JUMPDEST CALLVALUE DUP1 ISZERO PUSH2 0x345 JUMPI PUSH1 0x0 DUP1 REVERT JUMPDEST POP PUSH2 0x360 PUSH1 0x4 DUP1 CALLDATASIZE SUB DUP2 ADD SWAP1 PUSH2 0x35B SWAP2 SWAP1 PUSH2 0x28DC JUMP JUMPDEST PUSH2 0x1699 JUMP JUMPDEST PUSH1 0x40 MLOAD PUSH2 0x376 SWAP11 SWAP10 SWAP9 SWAP8 SWAP7 SWAP6 SWAP5 SWAP4 SWAP3 SWAP2 SWAP1 PUSH2 0x2F3B JUMP JUMPDEST PUSH1 0x40 MLOAD DUP1 SWAP2 SUB SWAP1 RETURN JUMPDEST CALLVALUE DUP1 ISZERO PUSH2 0x38B JUMPI PUSH1 0x0 DUP1 REVERT JUMPDEST POP PUSH2 0x3A6 PUSH1 0x4 DUP1 CALLDATASIZE SUB DUP2 ADD SWAP1 PUSH2 0x3A1 SWAP2 SWAP1 PUSH2 0x28DC JUMP JUMPDEST PUSH2 0x1764 JUMP JUMPDEST PUSH1 0x40 MLOAD PUSH2 0x3B3 SWAP2 SWAP1 PUSH2 0x31DB JUMP JUMPDEST PUSH1 0x40 MLOAD DUP1 SWAP2 SUB SWAP1 RETURN JUMPDEST PUSH2 0x3D6 PUSH1 0x4 DUP1 CALLDATASIZE SUB DUP2 ADD SWAP1 PUSH2 0x3D1 SWAP2 SWAP1 PUSH2 0x2905 JUMP JUMPDEST PUSH2 0x177C JUMP JUMPDEST PUSH1 0x40 MLOAD PUSH2 0x3E3 SWAP2 SWAP1 PUSH2 0x3059 JUMP JUMPDEST PUSH1 0x40 MLOAD DUP1 SWAP2 SUB SWAP1 RETURN JUMPDEST PUSH2 0x406 PUSH1 0x4 DUP1 CALLDATASIZE SUB DUP2 ADD SWAP1 PUSH2 0x401 SWAP2 SWAP1 PUSH2 0x28DC JUMP JUMPDEST PUSH2 0x1D4B JUMP JUMPDEST PUSH1 0x40 MLOAD PUSH2 0x413 SWAP2 SWAP1 PUSH2 0x303E JUMP JUMPDEST PUSH1 0x40 MLOAD DUP1 SWAP2 SUB SWAP1 RETURN JUMPDEST CALLVALUE DUP1 ISZERO PUSH2 0x428 JUMPI PUSH1 0x0 DUP1 REVERT JUMPDEST POP PUSH2 0x431 PUSH2 0x1EAE JUMP JUMPDEST PUSH1 0x40 MLOAD PUSH2 0x43E SWAP2 SWAP1 PUSH2 0x301C JUMP JUMPDEST PUSH1 0x40 MLOAD DUP1 SWAP2 SUB SWAP1 RETURN JUMPDEST CALLVALUE DUP1 ISZERO PUSH2 0x453 JUMPI PUSH1 0x0 DUP1 REVERT JUMPDEST POP PUSH2 0x46E PUSH1 0x4 DUP1 CALLDATASIZE SUB DUP2 ADD SWAP1 PUSH2 0x469 SWAP2 SWAP1 PUSH2 0x2850 JUMP JUMPDEST PUSH2 0x203D JUMP JUMPDEST PUSH1 0x40 MLOAD PUSH2 0x47B SWAP2 SWAP1 PUSH2 0x31DB JUMP JUMPDEST PUSH1 0x40 MLOAD DUP1 SWAP2 SUB SWAP1 RETURN JUMPDEST CALLVALUE DUP1 ISZERO PUSH2 0x490 JUMPI PUSH1 0x0 DUP1 REVERT JUMPDEST POP PUSH2 0x4AB PUSH1 0x4 DUP1 CALLDATASIZE SUB DUP2 ADD SWAP1 PUSH2 0x4A6 SWAP2 SWAP1 PUSH2 0x28DC JUMP JUMPDEST PUSH2 0x2055 JUMP JUMPDEST PUSH1 0x40 MLOAD PUSH2 0x4B8 SWAP2 SWAP1 PUSH2 0x303E JUMP JUMPDEST PUSH1 0x40 MLOAD DUP1 SWAP2 SUB SWAP1 RETURN JUMPDEST CALLVALUE DUP1 ISZERO PUSH2 0x4CD JUMPI PUSH1 0x0 DUP1 REVERT JUMPDEST POP PUSH2 0x4E8 PUSH1 0x4 DUP1 CALLDATASIZE SUB DUP2 ADD SWAP1 PUSH2 0x4E3 SWAP2 SWAP1 PUSH2 0x28DC JUMP JUMPDEST PUSH2 0x2075 JUMP JUMPDEST PUSH1 0x40 MLOAD PUSH2 0x4F5 SWAP2 SWAP1 PUSH2 0x2F20 JUMP JUMPDEST PUSH1 0x40 MLOAD DUP1 SWAP2 SUB SWAP1 RETURN JUMPDEST CALLVALUE DUP1 ISZERO PUSH2 0x50A JUMPI PUSH1 0x0 DUP1 REVERT JUMPDEST POP PUSH2 0x525 PUSH1 0x4 DUP1 CALLDATASIZE SUB DUP2 ADD SWAP1 PUSH2 0x520 SWAP2 SWAP1 PUSH2 0x28DC JUMP JUMPDEST PUSH2 0x20A8 JUMP JUMPDEST PUSH1 0x40 MLOAD PUSH2 0x532 SWAP2 SWAP1 PUSH2 0x2F05 JUMP JUMPDEST PUSH1 0x40 MLOAD DUP1 SWAP2 SUB SWAP1 RETURN JUMPDEST CALLVALUE DUP1 ISZERO PUSH2 0x547 JUMPI PUSH1 0x0 DUP1 REVERT JUMPDEST POP PUSH2 0x562 PUSH1 0x4 DUP1 CALLDATASIZE SUB DUP2 ADD SWAP1 PUSH2 0x55D SWAP2 SWAP1 PUSH2 0x28DC JUMP JUMPDEST PUSH2 0x20DB JUMP JUMPDEST PUSH1 0x40 MLOAD PUSH2 0x56F SWAP2 SWAP1 PUSH2 0x31DB JUMP JUMPDEST PUSH1 0x40 MLOAD DUP1 SWAP2 SUB SWAP1 RETURN JUMPDEST CALLVALUE DUP1 ISZERO PUSH2 0x584 JUMPI PUSH1 0x0 DUP1 REVERT JUMPDEST POP PUSH2 0x59F PUSH1 0x4 DUP1 CALLDATASIZE SUB DUP2 ADD SWAP1 PUSH2 0x59A SWAP2 SWAP1 PUSH2 0x2850 JUMP JUMPDEST PUSH2 0x20F3 JUMP JUMPDEST PUSH1 0x40 MLOAD PUSH2 0x5AC SWAP2 SWAP1 PUSH2 0x31DB JUMP JUMPDEST PUSH1 0x40 MLOAD DUP1 SWAP2 SUB SWAP1 RETURN JUMPDEST PUSH2 0x5CF PUSH1 0x4 DUP1 CALLDATASIZE SUB DUP2 ADD SWAP1 PUSH2 0x5CA SWAP2 SWAP1 PUSH2 0x2990 JUMP JUMPDEST PUSH2 0x210B JUMP JUMPDEST PUSH1 0x40 MLOAD PUSH2 0x5DC SWAP2 SWAP1 PUSH2 0x3059 JUMP JUMPDEST PUSH1 0x40 MLOAD DUP1 SWAP2 SUB SWAP1 RETURN JUMPDEST CALLVALUE DUP1 ISZERO PUSH2 0x5F1 JUMPI PUSH1 0x0 DUP1 REVERT JUMPDEST POP PUSH2 0x5FA PUSH2 0x24BE JUMP JUMPDEST PUSH1 0x40 MLOAD PUSH2 0x607 SWAP2 SWAP1 PUSH2 0x301C JUMP JUMPDEST PUSH1 0x40 MLOAD DUP1 SWAP2 SUB SWAP1 RETURN JUMPDEST CALLVALUE DUP1 ISZERO PUSH2 0x61C JUMPI PUSH1 0x0 DUP1 REVERT JUMPDEST POP PUSH2 0x637 PUSH1 0x4 DUP1 CALLDATASIZE SUB DUP2 ADD SWAP1 PUSH2 0x632 SWAP2 SWAP1 PUSH2 0x2850 JUMP JUMPDEST PUSH2 0x264D JUMP JUMPDEST PUSH1 0x40 MLOAD PUSH2 0x644 SWAP2 SWAP1 PUSH2 0x31DB JUMP JUMPDEST PUSH1 0x40 MLOAD DUP1 SWAP2 SUB SWAP1 RETURN JUMPDEST CALLVALUE DUP1 ISZERO PUSH2 0x659 JUMPI PUSH1 0x0 DUP1 REVERT JUMPDEST POP PUSH2 0x662 PUSH2 0x2665 JUMP JUMPDEST PUSH1 0x40 MLOAD PUSH2 0x66F SWAP2 SWAP1 PUSH2 0x31DB JUMP JUMPDEST PUSH1 0x40 MLOAD DUP1 SWAP2 SUB SWAP1 RETURN JUMPDEST CALLVALUE DUP1 ISZERO PUSH2 0x684 JUMPI PUSH1 0x0 DUP1 REVERT JUMPDEST POP PUSH2 0x69F PUSH1 0x4 DUP1 CALLDATASIZE SUB DUP2 ADD SWAP1 PUSH2 0x69A SWAP2 SWAP1 PUSH2 0x28DC JUMP JUMPDEST PUSH2 0x272E JUMP JUMPDEST PUSH1 0x40 MLOAD PUSH2 0x6AC SWAP2 SWAP1 PUSH2 0x31DB JUMP JUMPDEST PUSH1 0x40 MLOAD DUP1 SWAP2 SUB SWAP1 RETURN JUMPDEST CALLVALUE DUP1 ISZERO PUSH2 0x6C1 JUMPI PUSH1 0x0 DUP1 REVERT JUMPDEST POP PUSH2 0x6DC PUSH1 0x4 DUP1 CALLDATASIZE SUB DUP2 ADD SWAP1 PUSH2 0x6D7 SWAP2 SWAP1 PUSH2 0x28DC JUMP JUMPDEST PUSH2 0x2746 JUMP JUMPDEST PUSH1 0x40 MLOAD PUSH2 0x6F2 SWAP11 SWAP10 SWAP9 SWAP8 SWAP7 SWAP6 SWAP5 SWAP4 SWAP3 SWAP2 SWAP1 PUSH2 0x2F3B JUMP JUMPDEST PUSH1 0x40 MLOAD DUP1 SWAP2 SUB SWAP1 RETURN JUMPDEST PUSH1 0x60 PUSH1 0xF DUP5 DUP2 SLOAD DUP2 LT PUSH2 0x737 JUMPI PUSH32 0x4E487B7100000000000000000000000000000000000000000000000000000000 PUSH1 0x0 MSTORE PUSH1 0x32 PUSH1 0x4 MSTORE PUSH1 0x24 PUSH1 0x0 REVERT JUMPDEST SWAP1 PUSH1 0x0 MSTORE PUSH1 0x20 PUSH1 0x0 KECCAK256 SWAP1 PUSH1 0x8 MUL ADD PUSH1 0x2 ADD SLOAD SWAP3 POP PUSH1 0x0 PUSH1 0x1 PUSH1 0xF DUP1 SLOAD SWAP1 POP PUSH2 0x75F SWAP2 SWAP1 PUSH2 0x332C JUMP JUMPDEST SWAP1 POP PUSH1 0x0 DUP2 LT ISZERO PUSH2 0x7A5 JUMPI PUSH1 0x40 MLOAD PUSH32 0x8C379A000000000000000000000000000000000000000000000000000000000 DUP2 MSTORE PUSH1 0x4 ADD PUSH2 0x79C SWAP1 PUSH2 0x30BB JUMP JUMPDEST PUSH1 0x40 MLOAD DUP1 SWAP2 SUB SWAP1 REVERT JUMPDEST DUP1 DUP6 GT ISZERO PUSH2 0x7E8 JUMPI PUSH1 0x40 MLOAD PUSH32 0x8C379A000000000000000000000000000000000000000000000000000000000 DUP2 MSTORE PUSH1 0x4 ADD PUSH2 0x7DF SWAP1 PUSH2 0x319B JUMP JUMPDEST PUSH1 0x40 MLOAD DUP1 SWAP2 SUB SWAP1 REVERT JUMPDEST DUP1 DUP6 LT ISZERO PUSH2 0xA0B JUMPI PUSH1 0xF DUP2 DUP2 SLOAD DUP2 LT PUSH2 0x82A JUMPI PUSH32 0x4E487B7100000000000000000000000000000000000000000000000000000000 PUSH1 0x0 MSTORE PUSH1 0x32 PUSH1 0x4 MSTORE PUSH1 0x24 PUSH1 0x0 REVERT JUMPDEST SWAP1 PUSH1 0x0 MSTORE PUSH1 0x20 PUSH1 0x0 KECCAK256 SWAP1 PUSH1 0x8 MUL ADD PUSH1 0xF DUP7 DUP2 SLOAD DUP2 LT PUSH2 0x872 JUMPI PUSH32 0x4E487B7100000000000000000000000000000000000000000000000000000000 PUSH1 0x0 MSTORE PUSH1 0x32 PUSH1 0x4 MSTORE PUSH1 0x24 PUSH1 0x0 REVERT JUMPDEST SWAP1 PUSH1 0x0 MSTORE PUSH1 0x20 PUSH1 0x0 KECCAK256 SWAP1 PUSH1 0x8 MUL ADD PUSH1 0x0 DUP3 ADD PUSH1 0x0 SWAP1 SLOAD SWAP1 PUSH2 0x100 EXP SWAP1 DIV PUSH20 0xFFFFFFFFFFFFFFFFFFFFFFFFFFFFFFFFFFFFFFFF AND DUP2 PUSH1 0x0 ADD PUSH1 0x0 PUSH2 0x100 EXP DUP2 SLOAD DUP2 PUSH20 0xFFFFFFFFFFFFFFFFFFFFFFFFFFFFFFFFFFFFFFFF MUL NOT AND SWAP1 DUP4 PUSH20 0xFFFFFFFFFFFFFFFFFFFFFFFFFFFFFFFFFFFFFFFF AND MUL OR SWAP1 SSTORE POP PUSH1 0x1 DUP3 ADD SLOAD DUP2 PUSH1 0x1 ADD SSTORE PUSH1 0x2 DUP3 ADD SLOAD DUP2 PUSH1 0x2 ADD SSTORE PUSH1 0x3 DUP3 ADD SLOAD DUP2 PUSH1 0x3 ADD SSTORE PUSH1 0x4 DUP3 ADD PUSH1 0x0 SWAP1 SLOAD SWAP1 PUSH2 0x100 EXP SWAP1 DIV PUSH20 0xFFFFFFFFFFFFFFFFFFFFFFFFFFFFFFFFFFFFFFFF AND DUP2 PUSH1 0x4 ADD PUSH1 0x0 PUSH2 0x100 EXP DUP2 SLOAD DUP2 PUSH20 0xFFFFFFFFFFFFFFFFFFFFFFFFFFFFFFFFFFFFFFFF MUL NOT AND SWAP1 DUP4 PUSH20 0xFFFFFFFFFFFFFFFFFFFFFFFFFFFFFFFFFFFFFFFF AND MUL OR SWAP1 SSTORE POP PUSH1 0x5 DUP3 ADD SLOAD DUP2 PUSH1 0x5 ADD SSTORE PUSH1 0x6 DUP3 ADD SLOAD DUP2 PUSH1 0x6 ADD SSTORE PUSH1 0x7 DUP3 ADD PUSH1 0x0 SWAP1 SLOAD SWAP1 PUSH2 0x100 EXP SWAP1 DIV PUSH1 0xFF AND DUP2 PUSH1 0x7 ADD PUSH1 0x0 PUSH2 0x100 EXP DUP2 SLOAD DUP2 PUSH1 0xFF MUL NOT AND SWAP1 DUP4 ISZERO ISZERO MUL OR SWAP1 SSTORE POP PUSH1 0x7 DUP3 ADD PUSH1 0x1 SWAP1 SLOAD SWAP1 PUSH2 0x100 EXP SWAP1 DIV PUSH1 0xFF AND DUP2 PUSH1 0x7 ADD PUSH1 0x1 PUSH2 0x100 EXP DUP2 SLOAD DUP2 PUSH1 0xFF MUL NOT AND SWAP1 DUP4 ISZERO ISZERO MUL OR SWAP1 SSTORE POP PUSH1 0x7 DUP3 ADD PUSH1 0x2 SWAP1 SLOAD SWAP1 PUSH2 0x100 EXP SWAP1 DIV PUSH1 0xFF AND DUP2 PUSH1 0x7 ADD PUSH1 0x2 PUSH2 0x100 EXP DUP2 SLOAD DUP2 PUSH1 0xFF MUL NOT AND SWAP1 DUP4 ISZERO ISZERO MUL OR SWAP1 SSTORE POP SWAP1 POP POP JUMPDEST PUSH1 0xF DUP1 SLOAD DUP1 PUSH2 0xA43 JUMPI PUSH32 0x4E487B7100000000000000000000000000000000000000000000000000000000 PUSH1 0x0 MSTORE PUSH1 0x31 PUSH1 0x4 MSTORE PUSH1 0x24 PUSH1 0x0 REVERT JUMPDEST PUSH1 0x1 SWAP1 SUB DUP2 DUP2 SWAP1 PUSH1 0x0 MSTORE PUSH1 0x20 PUSH1 0x0 KECCAK256 SWAP1 PUSH1 0x8 MUL ADD PUSH1 0x0 DUP1 DUP3 ADD PUSH1 0x0 PUSH2 0x100 EXP DUP2 SLOAD SWAP1 PUSH20 0xFFFFFFFFFFFFFFFFFFFFFFFFFFFFFFFFFFFFFFFF MUL NOT AND SWAP1 SSTORE PUSH1 0x1 DUP3 ADD PUSH1 0x0 SWAP1 SSTORE PUSH1 0x2 DUP3 ADD PUSH1 0x0 SWAP1 SSTORE PUSH1 0x3 DUP3 ADD PUSH1 0x0 SWAP1 SSTORE PUSH1 0x4 DUP3 ADD PUSH1 0x0 PUSH2 0x100 EXP DUP2 SLOAD SWAP1 PUSH20 0xFFFFFFFFFFFFFFFFFFFFFFFFFFFFFFFFFFFFFFFF MUL NOT AND SWAP1 SSTORE PUSH1 0x5 DUP3 ADD PUSH1 0x0 SWAP1 SSTORE PUSH1 0x6 DUP3 ADD PUSH1 0x0 SWAP1 SSTORE PUSH1 0x7 DUP3 ADD PUSH1 0x0 PUSH2 0x100 EXP DUP2 SLOAD SWAP1 PUSH1 0xFF MUL NOT AND SWAP1 SSTORE PUSH1 0x7 DUP3 ADD PUSH1 0x1 PUSH2 0x100 EXP DUP2 SLOAD SWAP1 PUSH1 0xFF MUL NOT AND SWAP1 SSTORE PUSH1 0x7 DUP3 ADD PUSH1 0x2 PUSH2 0x100 EXP DUP2 SLOAD SWAP1 PUSH1 0xFF MUL NOT AND SWAP1 SSTORE POP POP SWAP1 SSTORE PUSH1 0x0 DUP4 PUSH20 0xFFFFFFFFFFFFFFFFFFFFFFFFFFFFFFFFFFFFFFFF AND PUSH2 0x8FC PUSH8 0xDE0B6B3A7640000 DUP8 PUSH2 0xB3E SWAP2 SWAP1 PUSH2 0x32D2 JUMP JUMPDEST SWAP1 DUP2 ISZERO MUL SWAP1 PUSH1 0x40 MLOAD PUSH1 0x0 PUSH1 0x40 MLOAD DUP1 DUP4 SUB DUP2 DUP6 DUP9 DUP9 CALL SWAP4 POP POP POP POP SWAP1 POP DUP1 ISZERO PUSH2 0xB9F JUMPI PUSH1 0x40 MLOAD DUP1 PUSH1 0x40 ADD PUSH1 0x40 MSTORE DUP1 PUSH1 0x1C DUP2 MSTORE PUSH1 0x20 ADD PUSH32 0x596F7572206F6666657220686173206265656E20726566756E64656400000000 DUP2 MSTORE POP SWAP3 POP POP POP PUSH2 0xBDA JUMP JUMPDEST PUSH1 0x40 MLOAD DUP1 PUSH1 0x40 ADD PUSH1 0x40 MSTORE DUP1 PUSH1 0x19 DUP2 MSTORE PUSH1 0x20 ADD PUSH32 0x4661696C656420746F207472616E736665722066756E64732E00000000000000 DUP2 MSTORE POP SWAP3 POP POP POP JUMPDEST SWAP4 SWAP3 POP POP POP JUMP JUMPDEST PUSH1 0x0 DUP1 PUSH1 0x2 PUSH1 0x0 CALLER PUSH20 0xFFFFFFFFFFFFFFFFFFFFFFFFFFFFFFFFFFFFFFFF AND PUSH20 0xFFFFFFFFFFFFFFFFFFFFFFFFFFFFFFFFFFFFFFFF AND DUP2 MSTORE PUSH1 0x20 ADD SWAP1 DUP2 MSTORE PUSH1 0x20 ADD PUSH1 0x0 KECCAK256 SLOAD EQ ISZERO PUSH2 0xC65 JUMPI PUSH1 0x40 MLOAD PUSH32 0x8C379A000000000000000000000000000000000000000000000000000000000 DUP2 MSTORE PUSH1 0x4 ADD PUSH2 0xC5C SWAP1 PUSH2 0x315B JUMP JUMPDEST PUSH1 0x40 MLOAD DUP1 SWAP2 SUB SWAP1 REVERT JUMPDEST PUSH1 0x2 PUSH1 0x0 CALLER PUSH20 0xFFFFFFFFFFFFFFFFFFFFFFFFFFFFFFFFFFFFFFFF AND PUSH20 0xFFFFFFFFFFFFFFFFFFFFFFFFFFFFFFFFFFFFFFFF AND DUP2 MSTORE PUSH1 0x20 ADD SWAP1 DUP2 MSTORE PUSH1 0x20 ADD PUSH1 0x0 KECCAK256 SLOAD SWAP1 POP SWAP1 JUMP JUMPDEST PUSH1 0x11 DUP2 DUP2 SLOAD DUP2 LT PUSH2 0xCBA JUMPI PUSH1 0x0 DUP1 REVERT JUMPDEST SWAP1 PUSH1 0x0 MSTORE PUSH1 0x20 PUSH1 0x0 KECCAK256 SWAP1 PUSH1 0x4 MUL ADD PUSH1 0x0 SWAP2 POP SWAP1 POP DUP1 PUSH1 0x0 ADD PUSH1 0x0 SWAP1 SLOAD SWAP1 PUSH2 0x100 EXP SWAP1 DIV PUSH20 0xFFFFFFFFFFFFFFFFFFFFFFFFFFFFFFFFFFFFFFFF AND SWAP1 DUP1 PUSH1 0x1 ADD SLOAD SWAP1 DUP1 PUSH1 0x2 ADD SLOAD SWAP1 DUP1 PUSH1 0x3 ADD SLOAD SWAP1 POP DUP5 JUMP JUMPDEST PUSH1 0x0 PUSH1 0x1 PUSH1 0xF DUP1 SLOAD SWAP1 POP PUSH2 0xD1E SWAP2 SWAP1 PUSH2 0x332C JUMP JUMPDEST SWAP1 POP PUSH1 0x0 DUP2 LT ISZERO PUSH2 0xD64 JUMPI PUSH1 0x40 MLOAD PUSH32 0x8C379A000000000000000000000000000000000000000000000000000000000 DUP2 MSTORE PUSH1 0x4 ADD PUSH2 0xD5B SWAP1 PUSH2 0x30BB JUMP JUMPDEST PUSH1 0x40 MLOAD DUP1 SWAP2 SUB SWAP1 REVERT JUMPDEST DUP1 DUP3 GT ISZERO PUSH2 0xDA7 JUMPI PUSH1 0x40 MLOAD PUSH32 0x8C379A000000000000000000000000000000000000000000000000000000000 DUP2 MSTORE PUSH1 0x4 ADD PUSH2 0xD9E SWAP1 PUSH2 0x319B JUMP JUMPDEST PUSH1 0x40 MLOAD DUP1 SWAP2 SUB SWAP1 REVERT JUMPDEST DUP1 DUP3 LT ISZERO PUSH2 0xFCA JUMPI PUSH1 0xF DUP2 DUP2 SLOAD DUP2 LT PUSH2 0xDE9 JUMPI PUSH32 0x4E487B7100000000000000000000000000000000000000000000000000000000 PUSH1 0x0 MSTORE PUSH1 0x32 PUSH1 0x4 MSTORE PUSH1 0x24 PUSH1 0x0 REVERT JUMPDEST SWAP1 PUSH1 0x0 MSTORE PUSH1 0x20 PUSH1 0x0 KECCAK256 SWAP1 PUSH1 0x8 MUL ADD PUSH1 0xF DUP4 DUP2 SLOAD DUP2 LT PUSH2 0xE31 JUMPI PUSH32 0x4E487B7100000000000000000000000000000000000000000000000000000000 PUSH1 0x0 MSTORE PUSH1 0x32 PUSH1 0x4 MSTORE PUSH1 0x24 PUSH1 0x0 REVERT JUMPDEST SWAP1 PUSH1 0x0 MSTORE PUSH1 0x20 PUSH1 0x0 KECCAK256 SWAP1 PUSH1 0x8 MUL ADD PUSH1 0x0 DUP3 ADD PUSH1 0x0 SWAP1 SLOAD SWAP1 PUSH2 0x100 EXP SWAP1 DIV PUSH20 0xFFFFFFFFFFFFFFFFFFFFFFFFFFFFFFFFFFFFFFFF AND DUP2 PUSH1 0x0 ADD PUSH1 0x0 PUSH2 0x100 EXP DUP2 SLOAD DUP2 PUSH20 0xFFFFFFFFFFFFFFFFFFFFFFFFFFFFFFFFFFFFFFFF MUL NOT AND SWAP1 DUP4 PUSH20 0xFFFFFFFFFFFFFFFFFFFFFFFFFFFFFFFFFFFFFFFF AND MUL OR SWAP1 SSTORE POP PUSH1 0x1 DUP3 ADD SLOAD DUP2 PUSH1 0x1 ADD SSTORE PUSH1 0x2 DUP3 ADD SLOAD DUP2 PUSH1 0x2 ADD SSTORE PUSH1 0x3 DUP3 ADD SLOAD DUP2 PUSH1 0x3 ADD SSTORE PUSH1 0x4 DUP3 ADD PUSH1 0x0 SWAP1 SLOAD SWAP1 PUSH2 0x100 EXP SWAP1 DIV PUSH20 0xFFFFFFFFFFFFFFFFFFFFFFFFFFFFFFFFFFFFFFFF AND DUP2 PUSH1 0x4 ADD PUSH1 0x0 PUSH2 0x100 EXP DUP2 SLOAD DUP2 PUSH20 0xFFFFFFFFFFFFFFFFFFFFFFFFFFFFFFFFFFFFFFFF MUL NOT AND SWAP1 DUP4 PUSH20 0xFFFFFFFFFFFFFFFFFFFFFFFFFFFFFFFFFFFFFFFF AND MUL OR SWAP1 SSTORE POP PUSH1 0x5 DUP3 ADD SLOAD DUP2 PUSH1 0x5 ADD SSTORE PUSH1 0x6 DUP3 ADD SLOAD DUP2 PUSH1 0x6 ADD SSTORE PUSH1 0x7 DUP3 ADD PUSH1 0x0 SWAP1 SLOAD SWAP1 PUSH2 0x100 EXP SWAP1 DIV PUSH1 0xFF AND DUP2 PUSH1 0x7 ADD PUSH1 0x0 PUSH2 0x100 EXP DUP2 SLOAD DUP2 PUSH1 0xFF MUL NOT AND SWAP1 DUP4 ISZERO ISZERO MUL OR SWAP1 SSTORE POP PUSH1 0x7 DUP3 ADD PUSH1 0x1 SWAP1 SLOAD SWAP1 PUSH2 0x100 EXP SWAP1 DIV PUSH1 0xFF AND DUP2 PUSH1 0x7 ADD PUSH1 0x1 PUSH2 0x100 EXP DUP2 SLOAD DUP2 PUSH1 0xFF MUL NOT AND SWAP1 DUP4 ISZERO ISZERO MUL OR SWAP1 SSTORE POP PUSH1 0x7 DUP3 ADD PUSH1 0x2 SWAP1 SLOAD SWAP1 PUSH2 0x100 EXP SWAP1 DIV PUSH1 0xFF AND DUP2 PUSH1 0x7 ADD PUSH1 0x2 PUSH2 0x100 EXP DUP2 SLOAD DUP2 PUSH1 0xFF MUL NOT AND SWAP1 DUP4 ISZERO ISZERO MUL OR SWAP1 SSTORE POP SWAP1 POP POP JUMPDEST PUSH1 0xF DUP1 SLOAD DUP1 PUSH2 0x1002 JUMPI PUSH32 0x4E487B7100000000000000000000000000000000000000000000000000000000 PUSH1 0x0 MSTORE PUSH1 0x31 PUSH1 0x4 MSTORE PUSH1 0x24 PUSH1 0x0 REVERT JUMPDEST PUSH1 0x1 SWAP1 SUB DUP2 DUP2 SWAP1 PUSH1 0x0 MSTORE PUSH1 0x20 PUSH1 0x0 KECCAK256 SWAP1 PUSH1 0x8 MUL ADD PUSH1 0x0 DUP1 DUP3 ADD PUSH1 0x0 PUSH2 0x100 EXP DUP2 SLOAD SWAP1 PUSH20 0xFFFFFFFFFFFFFFFFFFFFFFFFFFFFFFFFFFFFFFFF MUL NOT AND SWAP1 SSTORE PUSH1 0x1 DUP3 ADD PUSH1 0x0 SWAP1 SSTORE PUSH1 0x2 DUP3 ADD PUSH1 0x0 SWAP1 SSTORE PUSH1 0x3 DUP3 ADD PUSH1 0x0 SWAP1 SSTORE PUSH1 0x4 DUP3 ADD PUSH1 0x0 PUSH2 0x100 EXP DUP2 SLOAD SWAP1 PUSH20 0xFFFFFFFFFFFFFFFFFFFFFFFFFFFFFFFFFFFFFFFF MUL NOT AND SWAP1 SSTORE PUSH1 0x5 DUP3 ADD PUSH1 0x0 SWAP1 SSTORE PUSH1 0x6 DUP3 ADD PUSH1 0x0 SWAP1 SSTORE PUSH1 0x7 DUP3 ADD PUSH1 0x0 PUSH2 0x100 EXP DUP2 SLOAD SWAP1 PUSH1 0xFF MUL NOT AND SWAP1 SSTORE PUSH1 0x7 DUP3 ADD PUSH1 0x1 PUSH2 0x100 EXP DUP2 SLOAD SWAP1 PUSH1 0xFF MUL NOT AND SWAP1 SSTORE PUSH1 0x7 DUP3 ADD PUSH1 0x2 PUSH2 0x100 EXP DUP2 SLOAD SWAP1 PUSH1 0xFF MUL NOT AND SWAP1 SSTORE POP POP SWAP1 SSTORE POP POP JUMP JUMPDEST PUSH1 0xB PUSH1 0x20 MSTORE DUP1 PUSH1 0x0 MSTORE PUSH1 0x40 PUSH1 0x0 KECCAK256 PUSH1 0x0 SWAP2 POP SLOAD SWAP1 PUSH2 0x100 EXP SWAP1 DIV PUSH1 0xFF AND DUP2 JUMP JUMPDEST DUP3 PUSH1 0x2 PUSH1 0x0 DUP7 PUSH20 0xFFFFFFFFFFFFFFFFFFFFFFFFFFFFFFFFFFFFFFFF AND PUSH20 0xFFFFFFFFFFFFFFFFFFFFFFFFFFFFFFFFFFFFFFFF AND DUP2 MSTORE PUSH1 0x20 ADD SWAP1 DUP2 MSTORE PUSH1 0x20 ADD PUSH1 0x0 KECCAK256 DUP2 SWAP1 SSTORE POP DUP2 PUSH1 0x3 PUSH1 0x0 DUP7 PUSH20 0xFFFFFFFFFFFFFFFFFFFFFFFFFFFFFFFFFFFFFFFF AND PUSH20 0xFFFFFFFFFFFFFFFFFFFFFFFFFFFFFFFFFFFFFFFF AND DUP2 MSTORE PUSH1 0x20 ADD SWAP1 DUP2 MSTORE PUSH1 0x20 ADD PUSH1 0x0 KECCAK256 DUP2 SWAP1 SSTORE POP DUP1 PUSH1 0x4 PUSH1 0x0 DUP7 PUSH20 0xFFFFFFFFFFFFFFFFFFFFFFFFFFFFFFFFFFFFFFFF AND PUSH20 0xFFFFFFFFFFFFFFFFFFFFFFFFFFFFFFFFFFFFFFFF AND DUP2 MSTORE PUSH1 0x20 ADD SWAP1 DUP2 MSTORE PUSH1 0x20 ADD PUSH1 0x0 KECCAK256 DUP2 SWAP1 SSTORE POP PUSH1 0x0 PUSH1 0x40 MLOAD DUP1 PUSH1 0x80 ADD PUSH1 0x40 MSTORE DUP1 DUP7 PUSH20 0xFFFFFFFFFFFFFFFFFFFFFFFFFFFFFFFFFFFFFFFF AND DUP2 MSTORE PUSH1 0x20 ADD DUP6 DUP2 MSTORE PUSH1 0x20 ADD DUP4 DUP2 MSTORE PUSH1 0x20 ADD DUP5 DUP2 MSTORE POP SWAP1 POP PUSH1 0x11 DUP2 SWAP1 DUP1 PUSH1 0x1 DUP2 SLOAD ADD DUP1 DUP3 SSTORE DUP1 SWAP2 POP POP PUSH1 0x1 SWAP1 SUB SWAP1 PUSH1 0x0 MSTORE PUSH1 0x20 PUSH1 0x0 KECCAK256 SWAP1 PUSH1 0x4 MUL ADD PUSH1 0x0 SWAP1 SWAP2 SWAP1 SWAP2 SWAP1 SWAP2 POP PUSH1 0x0 DUP3 ADD MLOAD DUP2 PUSH1 0x0 ADD PUSH1 0x0 PUSH2 0x100 EXP DUP2 SLOAD DUP2 PUSH20 0xFFFFFFFFFFFFFFFFFFFFFFFFFFFFFFFFFFFFFFFF MUL NOT AND SWAP1 DUP4 PUSH20 0xFFFFFFFFFFFFFFFFFFFFFFFFFFFFFFFFFFFFFFFF AND MUL OR SWAP1 SSTORE POP PUSH1 0x20 DUP3 ADD MLOAD DUP2 PUSH1 0x1 ADD SSTORE PUSH1 0x40 DUP3 ADD MLOAD DUP2 PUSH1 0x2 ADD SSTORE PUSH1 0x60 DUP3 ADD MLOAD DUP2 PUSH1 0x3 ADD SSTORE POP POP POP POP POP POP POP JUMP JUMPDEST PUSH1 0xE PUSH1 0x20 MSTORE DUP1 PUSH1 0x0 MSTORE PUSH1 0x40 PUSH1 0x0 KECCAK256 PUSH1 0x0 SWAP2 POP SLOAD SWAP1 PUSH2 0x100 EXP SWAP1 DIV PUSH1 0xFF AND DUP2 JUMP JUMPDEST PUSH1 0xC PUSH1 0x20 MSTORE DUP1 PUSH1 0x0 MSTORE PUSH1 0x40 PUSH1 0x0 KECCAK256 PUSH1 0x0 SWAP2 POP SLOAD SWAP1 PUSH2 0x100 EXP SWAP1 DIV PUSH1 0xFF AND DUP2 JUMP JUMPDEST PUSH1 0x0 PUSH1 0x1 PUSH1 0x10 DUP1 SLOAD SWAP1 POP PUSH2 0x12E6 SWAP2 SWAP1 PUSH2 0x332C JUMP JUMPDEST SWAP1 POP PUSH1 0x0 DUP2 LT ISZERO PUSH2 0x132C JUMPI PUSH1 0x40 MLOAD PUSH32 0x8C379A000000000000000000000000000000000000000000000000000000000 DUP2 MSTORE PUSH1 0x4 ADD PUSH2 0x1323 SWAP1 PUSH2 0x30BB JUMP JUMPDEST PUSH1 0x40 MLOAD DUP1 SWAP2 SUB SWAP1 REVERT JUMPDEST DUP1 DUP3 GT ISZERO PUSH2 0x136F JUMPI PUSH1 0x40 MLOAD PUSH32 0x8C379A000000000000000000000000000000000000000000000000000000000 DUP2 MSTORE PUSH1 0x4 ADD PUSH2 0x1366 SWAP1 PUSH2 0x319B JUMP JUMPDEST PUSH1 0x40 MLOAD DUP1 SWAP2 SUB SWAP1 REVERT JUMPDEST DUP1 DUP3 LT ISZERO PUSH2 0x1592 JUMPI PUSH1 0x10 DUP2 DUP2 SLOAD DUP2 LT PUSH2 0x13B1 JUMPI PUSH32 0x4E487B7100000000000000000000000000000000000000000000000000000000 PUSH1 0x0 MSTORE PUSH1 0x32 PUSH1 0x4 MSTORE PUSH1 0x24 PUSH1 0x0 REVERT JUMPDEST SWAP1 PUSH1 0x0 MSTORE PUSH1 0x20 PUSH1 0x0 KECCAK256 SWAP1 PUSH1 0x8 MUL ADD PUSH1 0x10 DUP4 DUP2 SLOAD DUP2 LT PUSH2 0x13F9 JUMPI PUSH32 0x4E487B7100000000000000000000000000000000000000000000000000000000 PUSH1 0x0 MSTORE PUSH1 0x32 PUSH1 0x4 MSTORE PUSH1 0x24 PUSH1 0x0 REVERT JUMPDEST SWAP1 PUSH1 0x0 MSTORE PUSH1 0x20 PUSH1 0x0 KECCAK256 SWAP1 PUSH1 0x8 MUL ADD PUSH1 0x0 DUP3 ADD PUSH1 0x0 SWAP1 SLOAD SWAP1 PUSH2 0x100 EXP SWAP1 DIV PUSH20 0xFFFFFFFFFFFFFFFFFFFFFFFFFFFFFFFFFFFFFFFF AND DUP2 PUSH1 0x0 ADD PUSH1 0x0 PUSH2 0x100 EXP DUP2 SLOAD DUP2 PUSH20 0xFFFFFFFFFFFFFFFFFFFFFFFFFFFFFFFFFFFFFFFF MUL NOT AND SWAP1 DUP4 PUSH20 0xFFFFFFFFFFFFFFFFFFFFFFFFFFFFFFFFFFFFFFFF AND MUL OR SWAP1 SSTORE POP PUSH1 0x1 DUP3 ADD SLOAD DUP2 PUSH1 0x1 ADD SSTORE PUSH1 0x2 DUP3 ADD SLOAD DUP2 PUSH1 0x2 ADD SSTORE PUSH1 0x3 DUP3 ADD SLOAD DUP2 PUSH1 0x3 ADD SSTORE PUSH1 0x4 DUP3 ADD PUSH1 0x0 SWAP1 SLOAD SWAP1 PUSH2 0x100 EXP SWAP1 DIV PUSH20 0xFFFFFFFFFFFFFFFFFFFFFFFFFFFFFFFFFFFFFFFF AND DUP2 PUSH1 0x4 ADD PUSH1 0x0 PUSH2 0x100 EXP DUP2 SLOAD DUP2 PUSH20 0xFFFFFFFFFFFFFFFFFFFFFFFFFFFFFFFFFFFFFFFF MUL NOT AND SWAP1 DUP4 PUSH20 0xFFFFFFFFFFFFFFFFFFFFFFFFFFFFFFFFFFFFFFFF AND MUL OR SWAP1 SSTORE POP PUSH1 0x5 DUP3 ADD SLOAD DUP2 PUSH1 0x5 ADD SSTORE PUSH1 0x6 DUP3 ADD SLOAD DUP2 PUSH1 0x6 ADD SSTORE PUSH1 0x7 DUP3 ADD PUSH1 0x0 SWAP1 SLOAD SWAP1 PUSH2 0x100 EXP SWAP1 DIV PUSH1 0xFF AND DUP2 PUSH1 0x7 ADD PUSH1 0x0 PUSH2 0x100 EXP DUP2 SLOAD DUP2 PUSH1 0xFF MUL NOT AND SWAP1 DUP4 ISZERO ISZERO MUL OR SWAP1 SSTORE POP PUSH1 0x7 DUP3 ADD PUSH1 0x1 SWAP1 SLOAD SWAP1 PUSH2 0x100 EXP SWAP1 DIV PUSH1 0xFF AND DUP2 PUSH1 0x7 ADD PUSH1 0x1 PUSH2 0x100 EXP DUP2 SLOAD DUP2 PUSH1 0xFF MUL NOT AND SWAP1 DUP4 ISZERO ISZERO MUL OR SWAP1 SSTORE POP PUSH1 0x7 DUP3 ADD PUSH1 0x2 SWAP1 SLOAD SWAP1 PUSH2 0x100 EXP SWAP1 DIV PUSH1 0xFF AND DUP2 PUSH1 0x7 ADD PUSH1 0x2 PUSH2 0x100 EXP DUP2 SLOAD DUP2 PUSH1 0xFF MUL NOT AND SWAP1 DUP4 ISZERO ISZERO MUL OR SWAP1 SSTORE POP SWAP1 POP POP JUMPDEST PUSH1 0x10 DUP1 SLOAD DUP1 PUSH2 0x15CA JUMPI PUSH32 0x4E487B7100000000000000000000000000000000000000000000000000000000 PUSH1 0x0 MSTORE PUSH1 0x31 PUSH1 0x4 MSTORE PUSH1 0x24 PUSH1 0x0 REVERT JUMPDEST PUSH1 0x1 SWAP1 SUB DUP2 DUP2 SWAP1 PUSH1 0x0 MSTORE PUSH1 0x20 PUSH1 0x0 KECCAK256 SWAP1 PUSH1 0x8 MUL ADD PUSH1 0x0 DUP1 DUP3 ADD PUSH1 0x0 PUSH2 0x100 EXP DUP2 SLOAD SWAP1 PUSH20 0xFFFFFFFFFFFFFFFFFFFFFFFFFFFFFFFFFFFFFFFF MUL NOT AND SWAP1 SSTORE PUSH1 0x1 DUP3 ADD PUSH1 0x0 SWAP1 SSTORE PUSH1 0x2 DUP3 ADD PUSH1 0x0 SWAP1 SSTORE PUSH1 0x3 DUP3 ADD PUSH1 0x0 SWAP1 SSTORE PUSH1 0x4 DUP3 ADD PUSH1 0x0 PUSH2 0x100 EXP DUP2 SLOAD SWAP1 PUSH20 0xFFFFFFFFFFFFFFFFFFFFFFFFFFFFFFFFFFFFFFFF MUL NOT AND SWAP1 SSTORE PUSH1 0x5 DUP3 ADD PUSH1 0x0 SWAP1 SSTORE PUSH1 0x6 DUP3 ADD PUSH1 0x0 SWAP1 SSTORE PUSH1 0x7 DUP3 ADD PUSH1 0x0 PUSH2 0x100 EXP DUP2 SLOAD SWAP1 PUSH1 0xFF MUL NOT AND SWAP1 SSTORE PUSH1 0x7 DUP3 ADD PUSH1 0x1 PUSH2 0x100 EXP DUP2 SLOAD SWAP1 PUSH1 0xFF MUL NOT AND SWAP1 SSTORE PUSH1 0x7 DUP3 ADD PUSH1 0x2 PUSH2 0x100 EXP DUP2 SLOAD SWAP1 PUSH1 0xFF MUL NOT AND SWAP1 SSTORE POP POP SWAP1 SSTORE POP POP JUMP JUMPDEST PUSH1 0x10 DUP2 DUP2 SLOAD DUP2 LT PUSH2 0x16A9 JUMPI PUSH1 0x0 DUP1 REVERT JUMPDEST SWAP1 PUSH1 0x0 MSTORE PUSH1 0x20 PUSH1 0x0 KECCAK256 SWAP1 PUSH1 0x8 MUL ADD PUSH1 0x0 SWAP2 POP SWAP1 POP DUP1 PUSH1 0x0 ADD PUSH1 0x0 SWAP1 SLOAD SWAP1 PUSH2 0x100 EXP SWAP1 DIV PUSH20 0xFFFFFFFFFFFFFFFFFFFFFFFFFFFFFFFFFFFFFFFF AND SWAP1 DUP1 PUSH1 0x1 ADD SLOAD SWAP1 DUP1 PUSH1 0x2 ADD SLOAD SWAP1 DUP1 PUSH1 0x3 ADD SLOAD SWAP1 DUP1 PUSH1 0x4 ADD PUSH1 0x0 SWAP1 SLOAD SWAP1 PUSH2 0x100 EXP SWAP1 DIV PUSH20 0xFFFFFFFFFFFFFFFFFFFFFFFFFFFFFFFFFFFFFFFF AND SWAP1 DUP1 PUSH1 0x5 ADD SLOAD SWAP1 DUP1 PUSH1 0x6 ADD SLOAD SWAP1 DUP1 PUSH1 0x7 ADD PUSH1 0x0 SWAP1 SLOAD SWAP1 PUSH2 0x100 EXP SWAP1 DIV PUSH1 0xFF AND SWAP1 DUP1 PUSH1 0x7 ADD PUSH1 0x1 SWAP1 SLOAD SWAP1 PUSH2 0x100 EXP SWAP1 DIV PUSH1 0xFF AND SWAP1 DUP1 PUSH1 0x7 ADD PUSH1 0x2 SWAP1 SLOAD SWAP1 PUSH2 0x100 EXP SWAP1 DIV PUSH1 0xFF AND SWAP1 POP DUP11 JUMP JUMPDEST PUSH1 0x8 PUSH1 0x20 MSTORE DUP1 PUSH1 0x0 MSTORE PUSH1 0x40 PUSH1 0x0 KECCAK256 PUSH1 0x0 SWAP2 POP SWAP1 POP SLOAD DUP2 JUMP JUMPDEST PUSH1 0x60 PUSH1 0x0 PUSH1 0xF DUP5 DUP2 SLOAD DUP2 LT PUSH2 0x17BA JUMPI PUSH32 0x4E487B7100000000000000000000000000000000000000000000000000000000 PUSH1 0x0 MSTORE PUSH1 0x32 PUSH1 0x4 MSTORE PUSH1 0x24 PUSH1 0x0 REVERT JUMPDEST SWAP1 PUSH1 0x0 MSTORE PUSH1 0x20 PUSH1 0x0 KECCAK256 SWAP1 PUSH1 0x8 MUL ADD PUSH1 0x2 ADD SLOAD SWAP1 POP PUSH1 0xF DUP5 DUP2 SLOAD DUP2 LT PUSH2 0x1808 JUMPI PUSH32 0x4E487B7100000000000000000000000000000000000000000000000000000000 PUSH1 0x0 MSTORE PUSH1 0x32 PUSH1 0x4 MSTORE PUSH1 0x24 PUSH1 0x0 REVERT JUMPDEST SWAP1 PUSH1 0x0 MSTORE PUSH1 0x20 PUSH1 0x0 KECCAK256 SWAP1 PUSH1 0x8 MUL ADD PUSH1 0x0 ADD PUSH1 0x0 SWAP1 SLOAD SWAP1 PUSH2 0x100 EXP SWAP1 DIV PUSH20 0xFFFFFFFFFFFFFFFFFFFFFFFFFFFFFFFFFFFFFFFF AND PUSH20 0xFFFFFFFFFFFFFFFFFFFFFFFFFFFFFFFFFFFFFFFF AND CALLER PUSH20 0xFFFFFFFFFFFFFFFFFFFFFFFFFFFFFFFFFFFFFFFF AND EQ ISZERO PUSH2 0x18A8 JUMPI PUSH1 0x40 MLOAD PUSH32 0x8C379A000000000000000000000000000000000000000000000000000000000 DUP2 MSTORE PUSH1 0x4 ADD PUSH2 0x189F SWAP1 PUSH2 0x30FB JUMP JUMPDEST PUSH1 0x40 MLOAD DUP1 SWAP2 SUB SWAP1 REVERT JUMPDEST PUSH1 0x0 PUSH2 0x18B2 PUSH2 0xBE1 JUMP JUMPDEST SWAP1 POP PUSH1 0x0 PUSH2 0x18BE PUSH2 0x2665 JUMP JUMPDEST SWAP1 POP PUSH2 0x12C DUP3 LT ISZERO PUSH2 0x1905 JUMPI PUSH1 0x40 MLOAD PUSH32 0x8C379A000000000000000000000000000000000000000000000000000000000 DUP2 MSTORE PUSH1 0x4 ADD PUSH2 0x18FC SWAP1 PUSH2 0x307B JUMP JUMPDEST PUSH1 0x40 MLOAD DUP1 SWAP2 SUB SWAP1 REVERT JUMPDEST PUSH1 0xF DUP7 DUP2 SLOAD DUP2 LT PUSH2 0x193F JUMPI PUSH32 0x4E487B7100000000000000000000000000000000000000000000000000000000 PUSH1 0x0 MSTORE PUSH1 0x32 PUSH1 0x4 MSTORE PUSH1 0x24 PUSH1 0x0 REVERT JUMPDEST SWAP1 PUSH1 0x0 MSTORE PUSH1 0x20 PUSH1 0x0 KECCAK256 SWAP1 PUSH1 0x8 MUL ADD PUSH1 0x6 ADD SLOAD PUSH1 0x5 PUSH2 0x195D SWAP2 SWAP1 PUSH2 0x32D2 JUMP JUMPDEST DUP2 LT ISZERO PUSH2 0x199F JUMPI PUSH1 0x40 MLOAD PUSH32 0x8C379A000000000000000000000000000000000000000000000000000000000 DUP2 MSTORE PUSH1 0x4 ADD PUSH2 0x1996 SWAP1 PUSH2 0x31BB JUMP JUMPDEST PUSH1 0x40 MLOAD DUP1 SWAP2 SUB SWAP1 REVERT JUMPDEST PUSH1 0x0 PUSH1 0xF DUP8 DUP2 SLOAD DUP2 LT PUSH2 0x19DB JUMPI PUSH32 0x4E487B7100000000000000000000000000000000000000000000000000000000 PUSH1 0x0 MSTORE PUSH1 0x32 PUSH1 0x4 MSTORE PUSH1 0x24 PUSH1 0x0 REVERT JUMPDEST SWAP1 PUSH1 0x0 MSTORE PUSH1 0x20 PUSH1 0x0 KECCAK256 SWAP1 PUSH1 0x8 MUL ADD PUSH1 0x7 ADD PUSH1 0x0 PUSH2 0x100 EXP DUP2 SLOAD DUP2 PUSH1 0xFF MUL NOT AND SWAP1 DUP4 ISZERO ISZERO MUL OR SWAP1 SSTORE POP CALLER PUSH1 0xF DUP8 DUP2 SLOAD DUP2 LT PUSH2 0x1A3E JUMPI PUSH32 0x4E487B7100000000000000000000000000000000000000000000000000000000 PUSH1 0x0 MSTORE PUSH1 0x32 PUSH1 0x4 MSTORE PUSH1 0x24 PUSH1 0x0 REVERT JUMPDEST SWAP1 PUSH1 0x0 MSTORE PUSH1 0x20 PUSH1 0x0 KECCAK256 SWAP1 PUSH1 0x8 MUL ADD PUSH1 0x4 ADD PUSH1 0x0 PUSH2 0x100 EXP DUP2 SLOAD DUP2 PUSH20 0xFFFFFFFFFFFFFFFFFFFFFFFFFFFFFFFFFFFFFFFF MUL NOT AND SWAP1 DUP4 PUSH20 0xFFFFFFFFFFFFFFFFFFFFFFFFFFFFFFFFFFFFFFFF AND MUL OR SWAP1 SSTORE POP PUSH1 0x10 PUSH1 0xF DUP8 DUP2 SLOAD DUP2 LT PUSH2 0x1AC9 JUMPI PUSH32 0x4E487B7100000000000000000000000000000000000000000000000000000000 PUSH1 0x0 MSTORE PUSH1 0x32 PUSH1 0x4 MSTORE PUSH1 0x24 PUSH1 0x0 REVERT JUMPDEST SWAP1 PUSH1 0x0 MSTORE PUSH1 0x20 PUSH1 0x0 KECCAK256 SWAP1 PUSH1 0x8 MUL ADD SWAP1 DUP1 PUSH1 0x1 DUP2 SLOAD ADD DUP1 DUP3 SSTORE DUP1 SWAP2 POP POP PUSH1 0x1 SWAP1 SUB SWAP1 PUSH1 0x0 MSTORE PUSH1 0x20 PUSH1 0x0 KECCAK256 SWAP1 PUSH1 0x8 MUL ADD PUSH1 0x0 SWAP1 SWAP2 SWAP1 SWAP2 SWAP1 SWAP2 POP PUSH1 0x0 DUP3 ADD PUSH1 0x0 SWAP1 SLOAD SWAP1 PUSH2 0x100 EXP SWAP1 DIV PUSH20 0xFFFFFFFFFFFFFFFFFFFFFFFFFFFFFFFFFFFFFFFF AND DUP2 PUSH1 0x0 ADD PUSH1 0x0 PUSH2 0x100 EXP DUP2 SLOAD DUP2 PUSH20 0xFFFFFFFFFFFFFFFFFFFFFFFFFFFFFFFFFFFFFFFF MUL NOT AND SWAP1 DUP4 PUSH20 0xFFFFFFFFFFFFFFFFFFFFFFFFFFFFFFFFFFFFFFFF AND MUL OR SWAP1 SSTORE POP PUSH1 0x1 DUP3 ADD SLOAD DUP2 PUSH1 0x1 ADD SSTORE PUSH1 0x2 DUP3 ADD SLOAD DUP2 PUSH1 0x2 ADD SSTORE PUSH1 0x3 DUP3 ADD SLOAD DUP2 PUSH1 0x3 ADD SSTORE PUSH1 0x4 DUP3 ADD PUSH1 0x0 SWAP1 SLOAD SWAP1 PUSH2 0x100 EXP SWAP1 DIV PUSH20 0xFFFFFFFFFFFFFFFFFFFFFFFFFFFFFFFFFFFFFFFF AND DUP2 PUSH1 0x4 ADD PUSH1 0x0 PUSH2 0x100 EXP DUP2 SLOAD DUP2 PUSH20 0xFFFFFFFFFFFFFFFFFFFFFFFFFFFFFFFFFFFFFFFF MUL NOT AND SWAP1 DUP4 PUSH20 0xFFFFFFFFFFFFFFFFFFFFFFFFFFFFFFFFFFFFFFFF AND MUL OR SWAP1 SSTORE POP PUSH1 0x5 DUP3 ADD SLOAD DUP2 PUSH1 0x5 ADD SSTORE PUSH1 0x6 DUP3 ADD SLOAD DUP2 PUSH1 0x6 ADD SSTORE PUSH1 0x7 DUP3 ADD PUSH1 0x0 SWAP1 SLOAD SWAP1 PUSH2 0x100 EXP SWAP1 DIV PUSH1 0xFF AND DUP2 PUSH1 0x7 ADD PUSH1 0x0 PUSH2 0x100 EXP DUP2 SLOAD DUP2 PUSH1 0xFF MUL NOT AND SWAP1 DUP4 ISZERO ISZERO MUL OR SWAP1 SSTORE POP PUSH1 0x7 DUP3 ADD PUSH1 0x1 SWAP1 SLOAD SWAP1 PUSH2 0x100 EXP SWAP1 DIV PUSH1 0xFF AND DUP2 PUSH1 0x7 ADD PUSH1 0x1 PUSH2 0x100 EXP DUP2 SLOAD DUP2 PUSH1 0xFF MUL NOT AND SWAP1 DUP4 ISZERO ISZERO MUL OR SWAP1 SSTORE POP PUSH1 0x7 DUP3 ADD PUSH1 0x2 SWAP1 SLOAD SWAP1 PUSH2 0x100 EXP SWAP1 DIV PUSH1 0xFF AND DUP2 PUSH1 0x7 ADD PUSH1 0x2 PUSH2 0x100 EXP DUP2 SLOAD DUP2 PUSH1 0xFF MUL NOT AND SWAP1 DUP4 ISZERO ISZERO MUL OR SWAP1 SSTORE POP POP POP PUSH2 0x1C92 DUP7 PUSH2 0xD0A JUMP JUMPDEST PUSH1 0x0 DUP6 PUSH20 0xFFFFFFFFFFFFFFFFFFFFFFFFFFFFFFFFFFFFFFFF AND PUSH2 0x8FC PUSH8 0xDE0B6B3A7640000 DUP7 PUSH2 0x1CC2 SWAP2 SWAP1 PUSH2 0x32D2 JUMP JUMPDEST SWAP1 DUP2 ISZERO MUL SWAP1 PUSH1 0x40 MLOAD PUSH1 0x0 PUSH1 0x40 MLOAD DUP1 DUP4 SUB DUP2 DUP6 DUP9 DUP9 CALL SWAP4 POP POP POP POP SWAP1 POP DUP1 ISZERO PUSH2 0x1D08 JUMPI PUSH1 0x40 MLOAD DUP1 PUSH1 0x60 ADD PUSH1 0x40 MSTORE DUP1 PUSH1 0x38 DUP2 MSTORE PUSH1 0x20 ADD PUSH2 0x34EB PUSH1 0x38 SWAP2 CODECOPY SWAP5 POP POP POP POP POP PUSH2 0x1D45 JUMP JUMPDEST PUSH1 0x40 MLOAD DUP1 PUSH1 0x40 ADD PUSH1 0x40 MSTORE DUP1 PUSH1 0x20 DUP2 MSTORE PUSH1 0x20 ADD PUSH32 0x4572726F723A204661696C656420746F207472616E736665722066756E64732E DUP2 MSTORE POP SWAP5 POP POP POP POP POP JUMPDEST SWAP3 SWAP2 POP POP JUMP JUMPDEST PUSH1 0x0 CALLVALUE CALLER PUSH20 0xFFFFFFFFFFFFFFFFFFFFFFFFFFFFFFFFFFFFFFFF AND BALANCE LT ISZERO PUSH2 0x1DA7 JUMPI PUSH1 0x40 MLOAD PUSH32 0x8C379A000000000000000000000000000000000000000000000000000000000 DUP2 MSTORE PUSH1 0x4 ADD PUSH2 0x1D9E SWAP1 PUSH2 0x30DB JUMP JUMPDEST PUSH1 0x40 MLOAD DUP1 SWAP2 SUB SWAP1 REVERT JUMPDEST CALLVALUE SELFBALANCE LT ISZERO PUSH2 0x1DEA JUMPI PUSH1 0x40 MLOAD PUSH32 0x8C379A000000000000000000000000000000000000000000000000000000000 DUP2 MSTORE PUSH1 0x4 ADD PUSH2 0x1DE1 SWAP1 PUSH2 0x317B JUMP JUMPDEST PUSH1 0x40 MLOAD DUP1 SWAP2 SUB SWAP1 REVERT JUMPDEST PUSH1 0x10 DUP3 DUP2 SLOAD DUP2 LT PUSH2 0x1E24 JUMPI PUSH32 0x4E487B7100000000000000000000000000000000000000000000000000000000 PUSH1 0x0 MSTORE PUSH1 0x32 PUSH1 0x4 MSTORE PUSH1 0x24 PUSH1 0x0 REVERT JUMPDEST SWAP1 PUSH1 0x0 MSTORE PUSH1 0x20 PUSH1 0x0 KECCAK256 SWAP1 PUSH1 0x8 MUL ADD PUSH1 0x0 ADD PUSH1 0x0 SWAP1 SLOAD SWAP1 PUSH2 0x100 EXP SWAP1 DIV PUSH20 0xFFFFFFFFFFFFFFFFFFFFFFFFFFFFFFFFFFFFFFFF AND PUSH20 0xFFFFFFFFFFFFFFFFFFFFFFFFFFFFFFFFFFFFFFFF AND PUSH2 0x8FC CALLVALUE SWAP1 DUP2 ISZERO MUL SWAP1 PUSH1 0x40 MLOAD PUSH1 0x0 PUSH1 0x40 MLOAD DUP1 DUP4 SUB DUP2 DUP6 DUP9 DUP9 CALL SWAP4 POP POP POP POP ISZERO DUP1 ISZERO PUSH2 0x1E9B JUMPI RETURNDATASIZE PUSH1 0x0 DUP1 RETURNDATACOPY RETURNDATASIZE PUSH1 0x0 REVERT JUMPDEST POP PUSH2 0x1EA5 DUP3 PUSH2 0x12D2 JUMP JUMPDEST PUSH1 0x1 SWAP1 POP SWAP2 SWAP1 POP JUMP JUMPDEST PUSH1 0x60 PUSH1 0xF DUP1 SLOAD DUP1 PUSH1 0x20 MUL PUSH1 0x20 ADD PUSH1 0x40 MLOAD SWAP1 DUP2 ADD PUSH1 0x40 MSTORE DUP1 SWAP3 SWAP2 SWAP1 DUP2 DUP2 MSTORE PUSH1 0x20 ADD PUSH1 0x0 SWAP1 JUMPDEST DUP3 DUP3 LT ISZERO PUSH2 0x2034 JUMPI DUP4 DUP3 SWAP1 PUSH1 0x0 MSTORE PUSH1 0x20 PUSH1 0x0 KECCAK256 SWAP1 PUSH1 0x8 MUL ADD PUSH1 0x40 MLOAD DUP1 PUSH2 0x140 ADD PUSH1 0x40 MSTORE SWAP1 DUP2 PUSH1 0x0 DUP3 ADD PUSH1 0x0 SWAP1 SLOAD SWAP1 PUSH2 0x100 EXP SWAP1 DIV PUSH20 0xFFFFFFFFFFFFFFFFFFFFFFFFFFFFFFFFFFFFFFFF AND PUSH20 0xFFFFFFFFFFFFFFFFFFFFFFFFFFFFFFFFFFFFFFFF AND PUSH20 0xFFFFFFFFFFFFFFFFFFFFFFFFFFFFFFFFFFFFFFFF AND DUP2 MSTORE PUSH1 0x20 ADD PUSH1 0x1 DUP3 ADD SLOAD DUP2 MSTORE PUSH1 0x20 ADD PUSH1 0x2 DUP3 ADD SLOAD DUP2 MSTORE PUSH1 0x20 ADD PUSH1 0x3 DUP3 ADD SLOAD DUP2 MSTORE PUSH1 0x20 ADD PUSH1 0x4 DUP3 ADD PUSH1 0x0 SWAP1 SLOAD SWAP1 PUSH2 0x100 EXP SWAP1 DIV PUSH20 0xFFFFFFFFFFFFFFFFFFFFFFFFFFFFFFFFFFFFFFFF AND PUSH20 0xFFFFFFFFFFFFFFFFFFFFFFFFFFFFFFFFFFFFFFFF AND PUSH20 0xFFFFFFFFFFFFFFFFFFFFFFFFFFFFFFFFFFFFFFFF AND DUP2 MSTORE PUSH1 0x20 ADD PUSH1 0x5 DUP3 ADD SLOAD DUP2 MSTORE PUSH1 0x20 ADD PUSH1 0x6 DUP3 ADD SLOAD DUP2 MSTORE PUSH1 0x20 ADD PUSH1 0x7 DUP3 ADD PUSH1 0x0 SWAP1 SLOAD SWAP1 PUSH2 0x100 EXP SWAP1 DIV PUSH1 0xFF AND ISZERO ISZERO ISZERO ISZERO DUP2 MSTORE PUSH1 0x20 ADD PUSH1 0x7 DUP3 ADD PUSH1 0x1 SWAP1 SLOAD SWAP1 PUSH2 0x100 EXP SWAP1 DIV PUSH1 0xFF AND ISZERO ISZERO ISZERO ISZERO DUP2 MSTORE PUSH1 0x20 ADD PUSH1 0x7 DUP3 ADD PUSH1 0x2 SWAP1 SLOAD SWAP1 PUSH2 0x100 EXP SWAP1 DIV PUSH1 0xFF AND ISZERO ISZERO ISZERO ISZERO DUP2 MSTORE POP POP DUP2 MSTORE PUSH1 0x20 ADD SWAP1 PUSH1 0x1 ADD SWAP1 PUSH2 0x1ED2 JUMP JUMPDEST POP POP POP POP SWAP1 POP SWAP1 JUMP JUMPDEST PUSH1 0x2 PUSH1 0x20 MSTORE DUP1 PUSH1 0x0 MSTORE PUSH1 0x40 PUSH1 0x0 KECCAK256 PUSH1 0x0 SWAP2 POP SWAP1 POP SLOAD DUP2 JUMP JUMPDEST PUSH1 0xD PUSH1 0x20 MSTORE DUP1 PUSH1 0x0 MSTORE PUSH1 0x40 PUSH1 0x0 KECCAK256 PUSH1 0x0 SWAP2 POP SLOAD SWAP1 PUSH2 0x100 EXP SWAP1 DIV PUSH1 0xFF AND DUP2 JUMP JUMPDEST PUSH1 0x6 PUSH1 0x20 MSTORE DUP1 PUSH1 0x0 MSTORE PUSH1 0x40 PUSH1 0x0 KECCAK256 PUSH1 0x0 SWAP2 POP SLOAD SWAP1 PUSH2 0x100 EXP SWAP1 DIV PUSH20 0xFFFFFFFFFFFFFFFFFFFFFFFFFFFFFFFFFFFFFFFF AND DUP2 JUMP JUMPDEST PUSH1 0xA PUSH1 0x20 MSTORE DUP1 PUSH1 0x0 MSTORE PUSH1 0x40 PUSH1 0x0 KECCAK256 PUSH1 0x0 SWAP2 POP SLOAD SWAP1 PUSH2 0x100 EXP SWAP1 DIV PUSH20 0xFFFFFFFFFFFFFFFFFFFFFFFFFFFFFFFFFFFFFFFF AND DUP2 JUMP JUMPDEST PUSH1 0x9 PUSH1 0x20 MSTORE DUP1 PUSH1 0x0 MSTORE PUSH1 0x40 PUSH1 0x0 KECCAK256 PUSH1 0x0 SWAP2 POP SWAP1 POP SLOAD DUP2 JUMP JUMPDEST PUSH1 0x4 PUSH1 0x20 MSTORE DUP1 PUSH1 0x0 MSTORE PUSH1 0x40 PUSH1 0x0 KECCAK256 PUSH1 0x0 SWAP2 POP SWAP1 POP SLOAD DUP2 JUMP JUMPDEST PUSH1 0x60 PUSH1 0x0 DUP5 GT DUP1 ISZERO PUSH2 0x211D JUMPI POP PUSH1 0x0 DUP4 GT JUMPDEST DUP1 ISZERO PUSH2 0x2129 JUMPI POP PUSH1 0x0 DUP3 GT JUMPDEST PUSH2 0x2168 JUMPI PUSH1 0x40 MLOAD PUSH32 0x8C379A000000000000000000000000000000000000000000000000000000000 DUP2 MSTORE PUSH1 0x4 ADD PUSH2 0x215F SWAP1 PUSH2 0x313B JUMP JUMPDEST PUSH1 0x40 MLOAD DUP1 SWAP2 SUB SWAP1 REVERT JUMPDEST PUSH1 0x5 PUSH1 0x0 DUP2 SLOAD DUP1 SWAP3 SWAP2 SWAP1 PUSH2 0x217B SWAP1 PUSH2 0x33ED JUMP JUMPDEST SWAP2 SWAP1 POP SSTORE POP CALLER PUSH1 0x6 PUSH1 0x0 PUSH1 0x5 SLOAD DUP2 MSTORE PUSH1 0x20 ADD SWAP1 DUP2 MSTORE PUSH1 0x20 ADD PUSH1 0x0 KECCAK256 PUSH1 0x0 PUSH2 0x100 EXP DUP2 SLOAD DUP2 PUSH20 0xFFFFFFFFFFFFFFFFFFFFFFFFFFFFFFFFFFFFFFFF MUL NOT AND SWAP1 DUP4 PUSH20 0xFFFFFFFFFFFFFFFFFFFFFFFFFFFFFFFFFFFFFFFF AND MUL OR SWAP1 SSTORE POP DUP4 PUSH1 0x7 PUSH1 0x0 PUSH1 0x5 SLOAD DUP2 MSTORE PUSH1 0x20 ADD SWAP1 DUP2 MSTORE PUSH1 0x20 ADD PUSH1 0x0 KECCAK256 DUP2 SWAP1 SSTORE POP DUP3 PUSH1 0x8 PUSH1 0x0 PUSH1 0x5 SLOAD DUP2 MSTORE PUSH1 0x20 ADD SWAP1 DUP2 MSTORE PUSH1 0x20 ADD PUSH1 0x0 KECCAK256 DUP2 SWAP1 SSTORE POP DUP2 PUSH1 0x9 PUSH1 0x0 PUSH1 0x5 SLOAD DUP2 MSTORE PUSH1 0x20 ADD SWAP1 DUP2 MSTORE PUSH1 0x20 ADD PUSH1 0x0 KECCAK256 DUP2 SWAP1 SSTORE POP PUSH1 0x0 PUSH1 0x40 MLOAD DUP1 PUSH2 0x140 ADD PUSH1 0x40 MSTORE DUP1 CALLER PUSH20 0xFFFFFFFFFFFFFFFFFFFFFFFFFFFFFFFFFFFFFFFF AND DUP2 MSTORE PUSH1 0x20 ADD PUSH1 0x5 SLOAD DUP2 MSTORE PUSH1 0x20 ADD DUP7 DUP2 MSTORE PUSH1 0x20 ADD DUP5 DUP2 MSTORE PUSH1 0x20 ADD CALLER PUSH20 0xFFFFFFFFFFFFFFFFFFFFFFFFFFFFFFFFFFFFFFFF AND DUP2 MSTORE PUSH1 0x20 ADD DUP6 DUP2 MSTORE PUSH1 0x20 ADD DUP6 PUSH1 0x64 DUP7 PUSH2 0x2290 SWAP2 SWAP1 PUSH2 0x32A1 JUMP JUMPDEST DUP9 PUSH2 0x229B SWAP2 SWAP1 PUSH2 0x32D2 JUMP JUMPDEST PUSH2 0x22A5 SWAP2 SWAP1 PUSH2 0x32D2 JUMP JUMPDEST DUP8 PUSH2 0x22B0 SWAP2 SWAP1 PUSH2 0x324B JUMP JUMPDEST DUP2 MSTORE PUSH1 0x20 ADD PUSH1 0x1 ISZERO ISZERO DUP2 MSTORE PUSH1 0x20 ADD PUSH1 0x0 ISZERO ISZERO DUP2 MSTORE PUSH1 0x20 ADD PUSH1 0x0 ISZERO ISZERO DUP2 MSTORE POP SWAP1 POP PUSH1 0x0 PUSH1 0xF DUP1 SLOAD SWAP1 POP SWAP1 POP PUSH1 0xF DUP3 SWAP1 DUP1 PUSH1 0x1 DUP2 SLOAD ADD DUP1 DUP3 SSTORE DUP1 SWAP2 POP POP PUSH1 0x1 SWAP1 SUB SWAP1 PUSH1 0x0 MSTORE PUSH1 0x20 PUSH1 0x0 KECCAK256 SWAP1 PUSH1 0x8 MUL ADD PUSH1 0x0 SWAP1 SWAP2 SWAP1 SWAP2 SWAP1 SWAP2 POP PUSH1 0x0 DUP3 ADD MLOAD DUP2 PUSH1 0x0 ADD PUSH1 0x0 PUSH2 0x100 EXP DUP2 SLOAD DUP2 PUSH20 0xFFFFFFFFFFFFFFFFFFFFFFFFFFFFFFFFFFFFFFFF MUL NOT AND SWAP1 DUP4 PUSH20 0xFFFFFFFFFFFFFFFFFFFFFFFFFFFFFFFFFFFFFFFF AND MUL OR SWAP1 SSTORE POP PUSH1 0x20 DUP3 ADD MLOAD DUP2 PUSH1 0x1 ADD SSTORE PUSH1 0x40 DUP3 ADD MLOAD DUP2 PUSH1 0x2 ADD SSTORE PUSH1 0x60 DUP3 ADD MLOAD DUP2 PUSH1 0x3 ADD SSTORE PUSH1 0x80 DUP3 ADD MLOAD DUP2 PUSH1 0x4 ADD PUSH1 0x0 PUSH2 0x100 EXP DUP2 SLOAD DUP2 PUSH20 0xFFFFFFFFFFFFFFFFFFFFFFFFFFFFFFFFFFFFFFFF MUL NOT AND SWAP1 DUP4 PUSH20 0xFFFFFFFFFFFFFFFFFFFFFFFFFFFFFFFFFFFFFFFF AND MUL OR SWAP1 SSTORE POP PUSH1 0xA0 DUP3 ADD MLOAD DUP2 PUSH1 0x5 ADD SSTORE PUSH1 0xC0 DUP3 ADD MLOAD DUP2 PUSH1 0x6 ADD SSTORE PUSH1 0xE0 DUP3 ADD MLOAD DUP2 PUSH1 0x7 ADD PUSH1 0x0 PUSH2 0x100 EXP DUP2 SLOAD DUP2 PUSH1 0xFF MUL NOT AND SWAP1 DUP4 ISZERO ISZERO MUL OR SWAP1 SSTORE POP PUSH2 0x100 DUP3 ADD MLOAD DUP2 PUSH1 0x7 ADD PUSH1 0x1 PUSH2 0x100 EXP DUP2 SLOAD DUP2 PUSH1 0xFF MUL NOT AND SWAP1 DUP4 ISZERO ISZERO MUL OR SWAP1 SSTORE POP PUSH2 0x120 DUP3 ADD MLOAD DUP2 PUSH1 0x7 ADD PUSH1 0x2 PUSH2 0x100 EXP DUP2 SLOAD DUP2 PUSH1 0xFF MUL NOT AND SWAP1 DUP4 ISZERO ISZERO MUL OR SWAP1 SSTORE POP POP POP PUSH1 0x1 DUP2 PUSH2 0x2437 SWAP2 SWAP1 PUSH2 0x324B JUMP JUMPDEST PUSH1 0xF DUP1 SLOAD SWAP1 POP EQ PUSH2 0x247D JUMPI PUSH1 0x40 MLOAD PUSH32 0x8C379A000000000000000000000000000000000000000000000000000000000 DUP2 MSTORE PUSH1 0x4 ADD PUSH2 0x2474 SWAP1 PUSH2 0x309B JUMP JUMPDEST PUSH1 0x40 MLOAD DUP1 SWAP2 SUB SWAP1 REVERT JUMPDEST PUSH1 0x40 MLOAD DUP1 PUSH1 0x40 ADD PUSH1 0x40 MSTORE DUP1 PUSH1 0xD DUP2 MSTORE PUSH1 0x20 ADD PUSH32 0x4F66666572204372656174656400000000000000000000000000000000000000 DUP2 MSTORE POP SWAP3 POP POP POP SWAP4 SWAP3 POP POP POP JUMP JUMPDEST PUSH1 0x60 PUSH1 0x10 DUP1 SLOAD DUP1 PUSH1 0x20 MUL PUSH1 0x20 ADD PUSH1 0x40 MLOAD SWAP1 DUP2 ADD PUSH1 0x40 MSTORE DUP1 SWAP3 SWAP2 SWAP1 DUP2 DUP2 MSTORE PUSH1 0x20 ADD PUSH1 0x0 SWAP1 JUMPDEST DUP3 DUP3 LT ISZERO PUSH2 0x2644 JUMPI DUP4 DUP3 SWAP1 PUSH1 0x0 MSTORE PUSH1 0x20 PUSH1 0x0 KECCAK256 SWAP1 PUSH1 0x8 MUL ADD PUSH1 0x40 MLOAD DUP1 PUSH2 0x140 ADD PUSH1 0x40 MSTORE SWAP1 DUP2 PUSH1 0x0 DUP3 ADD PUSH1 0x0 SWAP1 SLOAD SWAP1 PUSH2 0x100 EXP SWAP1 DIV PUSH20 0xFFFFFFFFFFFFFFFFFFFFFFFFFFFFFFFFFFFFFFFF AND PUSH20 0xFFFFFFFFFFFFFFFFFFFFFFFFFFFFFFFFFFFFFFFF AND PUSH20 0xFFFFFFFFFFFFFFFFFFFFFFFFFFFFFFFFFFFFFFFF AND DUP2 MSTORE PUSH1 0x20 ADD PUSH1 0x1 DUP3 ADD SLOAD DUP2 MSTORE PUSH1 0x20 ADD PUSH1 0x2 DUP3 ADD SLOAD DUP2 MSTORE PUSH1 0x20 ADD PUSH1 0x3 DUP3 ADD SLOAD DUP2 MSTORE PUSH1 0x20 ADD PUSH1 0x4 DUP3 ADD PUSH1 0x0 SWAP1 SLOAD SWAP1 PUSH2 0x100 EXP SWAP1 DIV PUSH20 0xFFFFFFFFFFFFFFFFFFFFFFFFFFFFFFFFFFFFFFFF AND PUSH20 0xFFFFFFFFFFFFFFFFFFFFFFFFFFFFFFFFFFFFFFFF AND PUSH20 0xFFFFFFFFFFFFFFFFFFFFFFFFFFFFFFFFFFFFFFFF AND DUP2 MSTORE PUSH1 0x20 ADD PUSH1 0x5 DUP3 ADD SLOAD DUP2 MSTORE PUSH1 0x20 ADD PUSH1 0x6 DUP3 ADD SLOAD DUP2 MSTORE PUSH1 0x20 ADD PUSH1 0x7 DUP3 ADD PUSH1 0x0 SWAP1 SLOAD SWAP1 PUSH2 0x100 EXP SWAP1 DIV PUSH1 0xFF AND ISZERO ISZERO ISZERO ISZERO DUP2 MSTORE PUSH1 0x20 ADD PUSH1 0x7 DUP3 ADD PUSH1 0x1 SWAP1 SLOAD SWAP1 PUSH2 0x100 EXP SWAP1 DIV PUSH1 0xFF AND ISZERO ISZERO ISZERO ISZERO DUP2 MSTORE PUSH1 0x20 ADD PUSH1 0x7 DUP3 ADD PUSH1 0x2 SWAP1 SLOAD SWAP1 PUSH2 0x100 EXP SWAP1 DIV PUSH1 0xFF AND ISZERO ISZERO ISZERO ISZERO DUP2 MSTORE POP POP DUP2 MSTORE PUSH1 0x20 ADD SWAP1 PUSH1 0x1 ADD SWAP1 PUSH2 0x24E2 JUMP JUMPDEST POP POP POP POP SWAP1 POP SWAP1 JUMP JUMPDEST PUSH1 0x3 PUSH1 0x20 MSTORE DUP1 PUSH1 0x0 MSTORE PUSH1 0x40 PUSH1 0x0 KECCAK256 PUSH1 0x0 SWAP2 POP SWAP1 POP SLOAD DUP2 JUMP JUMPDEST PUSH1 0x0 DUP1 PUSH1 0x3 PUSH1 0x0 CALLER PUSH20 0xFFFFFFFFFFFFFFFFFFFFFFFFFFFFFFFFFFFFFFFF AND PUSH20 0xFFFFFFFFFFFFFFFFFFFFFFFFFFFFFFFFFFFFFFFF AND DUP2 MSTORE PUSH1 0x20 ADD SWAP1 DUP2 MSTORE PUSH1 0x20 ADD PUSH1 0x0 KECCAK256 SLOAD EQ ISZERO PUSH2 0x26E9 JUMPI PUSH1 0x40 MLOAD PUSH32 0x8C379A000000000000000000000000000000000000000000000000000000000 DUP2 MSTORE PUSH1 0x4 ADD PUSH2 0x26E0 SWAP1 PUSH2 0x311B JUMP JUMPDEST PUSH1 0x40 MLOAD DUP1 SWAP2 SUB SWAP1 REVERT JUMPDEST PUSH1 0x3 PUSH1 0x0 CALLER PUSH20 0xFFFFFFFFFFFFFFFFFFFFFFFFFFFFFFFFFFFFFFFF AND PUSH20 0xFFFFFFFFFFFFFFFFFFFFFFFFFFFFFFFFFFFFFFFF AND DUP2 MSTORE PUSH1 0x20 ADD SWAP1 DUP2 MSTORE PUSH1 0x20 ADD PUSH1 0x0 KECCAK256 SLOAD SWAP1 POP SWAP1 JUMP JUMPDEST PUSH1 0x7 PUSH1 0x20 MSTORE DUP1 PUSH1 0x0 MSTORE PUSH1 0x40 PUSH1 0x0 KECCAK256 PUSH1 0x0 SWAP2 POP SWAP1 POP SLOAD DUP2 JUMP JUMPDEST PUSH1 0xF DUP2 DUP2 SLOAD DUP2 LT PUSH2 0x2756 JUMPI PUSH1 0x0 DUP1 REVERT JUMPDEST SWAP1 PUSH1 0x0 MSTORE PUSH1 0x20 PUSH1 0x0 KECCAK256 SWAP1 PUSH1 0x8 MUL ADD PUSH1 0x0 SWAP2 POP SWAP1 POP DUP1 PUSH1 0x0 ADD PUSH1 0x0 SWAP1 SLOAD SWAP1 PUSH2 0x100 EXP SWAP1 DIV PUSH20 0xFFFFFFFFFFFFFFFFFFFFFFFFFFFFFFFFFFFFFFFF AND SWAP1 DUP1 PUSH1 0x1 ADD SLOAD SWAP1 DUP1 PUSH1 0x2 ADD SLOAD SWAP1 DUP1 PUSH1 0x3 ADD SLOAD SWAP1 DUP1 PUSH1 0x4 ADD PUSH1 0x0 SWAP1 SLOAD SWAP1 PUSH2 0x100 EXP SWAP1 DIV PUSH20 0xFFFFFFFFFFFFFFFFFFFFFFFFFFFFFFFFFFFFFFFF AND SWAP1 DUP1 PUSH1 0x5 ADD SLOAD SWAP1 DUP1 PUSH1 0x6 ADD SLOAD SWAP1 DUP1 PUSH1 0x7 ADD PUSH1 0x0 SWAP1 SLOAD SWAP1 PUSH2 0x100 EXP SWAP1 DIV PUSH1 0xFF AND SWAP1 DUP1 PUSH1 0x7 ADD PUSH1 0x1 SWAP1 SLOAD SWAP1 PUSH2 0x100 EXP SWAP1 DIV PUSH1 0xFF AND SWAP1 DUP1 PUSH1 0x7 ADD PUSH1 0x2 SWAP1 SLOAD SWAP1 PUSH2 0x100 EXP SWAP1 DIV PUSH1 0xFF AND SWAP1 POP DUP11 JUMP JUMPDEST PUSH1 0x0 DUP2 CALLDATALOAD SWAP1 POP PUSH2 0x2820 DUP2 PUSH2 0x34A5 JUMP JUMPDEST SWAP3 SWAP2 POP POP JUMP JUMPDEST PUSH1 0x0 DUP2 CALLDATALOAD SWAP1 POP PUSH2 0x2835 DUP2 PUSH2 0x34BC JUMP JUMPDEST SWAP3 SWAP2 POP POP JUMP JUMPDEST PUSH1 0x0 DUP2 CALLDATALOAD SWAP1 POP PUSH2 0x284A DUP2 PUSH2 0x34D3 JUMP JUMPDEST SWAP3 SWAP2 POP POP JUMP JUMPDEST PUSH1 0x0 PUSH1 0x20 DUP3 DUP5 SUB SLT ISZERO PUSH2 0x2862 JUMPI PUSH1 0x0 DUP1 REVERT JUMPDEST PUSH1 0x0 PUSH2 0x2870 DUP5 DUP3 DUP6 ADD PUSH2 0x2811 JUMP JUMPDEST SWAP2 POP POP SWAP3 SWAP2 POP POP JUMP JUMPDEST PUSH1 0x0 DUP1 PUSH1 0x0 DUP1 PUSH1 0x80 DUP6 DUP8 SUB SLT ISZERO PUSH2 0x288F JUMPI PUSH1 0x0 DUP1 REVERT JUMPDEST PUSH1 0x0 PUSH2 0x289D DUP8 DUP3 DUP9 ADD PUSH2 0x2811 JUMP JUMPDEST SWAP5 POP POP PUSH1 0x20 PUSH2 0x28AE DUP8 DUP3 DUP9 ADD PUSH2 0x283B JUMP JUMPDEST SWAP4 POP POP PUSH1 0x40 PUSH2 0x28BF DUP8 DUP3 DUP9 ADD PUSH2 0x283B JUMP JUMPDEST SWAP3 POP POP PUSH1 0x60 PUSH2 0x28D0 DUP8 DUP3 DUP9 ADD PUSH2 0x283B JUMP JUMPDEST SWAP2 POP POP SWAP3 SWAP6 SWAP2 SWAP5 POP SWAP3 POP JUMP JUMPDEST PUSH1 0x0 PUSH1 0x20 DUP3 DUP5 SUB SLT ISZERO PUSH2 0x28EE JUMPI PUSH1 0x0 DUP1 REVERT JUMPDEST PUSH1 0x0 PUSH2 0x28FC DUP5 DUP3 DUP6 ADD PUSH2 0x283B JUMP JUMPDEST SWAP2 POP POP SWAP3 SWAP2 POP POP JUMP JUMPDEST PUSH1 0x0 DUP1 PUSH1 0x40 DUP4 DUP6 SUB SLT ISZERO PUSH2 0x2918 JUMPI PUSH1 0x0 DUP1 REVERT JUMPDEST PUSH1 0x0 PUSH2 0x2926 DUP6 DUP3 DUP7 ADD PUSH2 0x283B JUMP JUMPDEST SWAP3 POP POP PUSH1 0x20 PUSH2 0x2937 DUP6 DUP3 DUP7 ADD PUSH2 0x2826 JUMP JUMPDEST SWAP2 POP POP SWAP3 POP SWAP3 SWAP1 POP JUMP JUMPDEST PUSH1 0x0 DUP1 PUSH1 0x0 PUSH1 0x60 DUP5 DUP7 SUB SLT ISZERO PUSH2 0x2956 JUMPI PUSH1 0x0 DUP1 REVERT JUMPDEST PUSH1 0x0 PUSH2 0x2964 DUP7 DUP3 DUP8 ADD PUSH2 0x283B JUMP JUMPDEST SWAP4 POP POP PUSH1 0x20 PUSH2 0x2975 DUP7 DUP3 DUP8 ADD PUSH2 0x283B JUMP JUMPDEST SWAP3 POP POP PUSH1 0x40 PUSH2 0x2986 DUP7 DUP3 DUP8 ADD PUSH2 0x2826 JUMP JUMPDEST SWAP2 POP POP SWAP3 POP SWAP3 POP SWAP3 JUMP JUMPDEST PUSH1 0x0 DUP1 PUSH1 0x0 PUSH1 0x60 DUP5 DUP7 SUB SLT ISZERO PUSH2 0x29A5 JUMPI PUSH1 0x0 DUP1 REVERT JUMPDEST PUSH1 0x0 PUSH2 0x29B3 DUP7 DUP3 DUP8 ADD PUSH2 0x283B JUMP JUMPDEST SWAP4 POP POP PUSH1 0x20 PUSH2 0x29C4 DUP7 DUP3 DUP8 ADD PUSH2 0x283B JUMP JUMPDEST SWAP3 POP POP PUSH1 0x40 PUSH2 0x29D5 DUP7 DUP3 DUP8 ADD PUSH2 0x283B JUMP JUMPDEST SWAP2 POP POP SWAP3 POP SWAP3 POP SWAP3 JUMP JUMPDEST PUSH1 0x0 PUSH2 0x29EB DUP4 DUP4 PUSH2 0x2E1B JUMP JUMPDEST PUSH2 0x140 DUP4 ADD SWAP1 POP SWAP3 SWAP2 POP POP JUMP JUMPDEST PUSH2 0x2A01 DUP2 PUSH2 0x3372 JUMP JUMPDEST DUP3 MSTORE POP POP JUMP JUMPDEST PUSH2 0x2A10 DUP2 PUSH2 0x3372 JUMP JUMPDEST DUP3 MSTORE POP POP JUMP JUMPDEST PUSH2 0x2A1F DUP2 PUSH2 0x3360 JUMP JUMPDEST DUP3 MSTORE POP POP JUMP JUMPDEST PUSH2 0x2A2E DUP2 PUSH2 0x3360 JUMP JUMPDEST DUP3 MSTORE POP POP JUMP JUMPDEST PUSH1 0x0 PUSH2 0x2A3F DUP3 PUSH2 0x3206 JUMP JUMPDEST PUSH2 0x2A49 DUP2 DUP6 PUSH2 0x3229 JUMP JUMPDEST SWAP4 POP PUSH2 0x2A54 DUP4 PUSH2 0x31F6 JUMP JUMPDEST DUP1 PUSH1 0x0 JUMPDEST DUP4 DUP2 LT ISZERO PUSH2 0x2A85 JUMPI DUP2 MLOAD PUSH2 0x2A6C DUP9 DUP3 PUSH2 0x29DF JUMP JUMPDEST SWAP8 POP PUSH2 0x2A77 DUP4 PUSH2 0x321C JUMP JUMPDEST SWAP3 POP POP PUSH1 0x1 DUP2 ADD SWAP1 POP PUSH2 0x2A58 JUMP JUMPDEST POP DUP6 SWAP4 POP POP POP POP SWAP3 SWAP2 POP POP JUMP JUMPDEST PUSH2 0x2A9B DUP2 PUSH2 0x3384 JUMP JUMPDEST DUP3 MSTORE POP POP JUMP JUMPDEST PUSH2 0x2AAA DUP2 PUSH2 0x3384 JUMP JUMPDEST DUP3 MSTORE POP POP JUMP JUMPDEST PUSH1 0x0 PUSH2 0x2ABB DUP3 PUSH2 0x3211 JUMP JUMPDEST PUSH2 0x2AC5 DUP2 DUP6 PUSH2 0x323A JUMP JUMPDEST SWAP4 POP PUSH2 0x2AD5 DUP2 DUP6 PUSH1 0x20 DUP7 ADD PUSH2 0x33BA JUMP JUMPDEST PUSH2 0x2ADE DUP2 PUSH2 0x3494 JUMP JUMPDEST DUP5 ADD SWAP2 POP POP SWAP3 SWAP2 POP POP JUMP JUMPDEST PUSH1 0x0 PUSH2 0x2AF6 PUSH1 0x1D DUP4 PUSH2 0x323A JUMP JUMPDEST SWAP2 POP PUSH32 0x596F7572206372656469742073636F726520697320746F6F206C6F772E000000 PUSH1 0x0 DUP4 ADD MSTORE PUSH1 0x20 DUP3 ADD SWAP1 POP SWAP2 SWAP1 POP JUMP JUMPDEST PUSH1 0x0 PUSH2 0x2B36 PUSH1 0x22 DUP4 PUSH2 0x323A JUMP JUMPDEST SWAP2 POP PUSH32 0x4572726F72206372656174696E6720616E206F666665722C2074727920616761 PUSH1 0x0 DUP4 ADD MSTORE PUSH32 0x696E000000000000000000000000000000000000000000000000000000000000 PUSH1 0x20 DUP4 ADD MSTORE PUSH1 0x40 DUP3 ADD SWAP1 POP SWAP2 SWAP1 POP JUMP JUMPDEST PUSH1 0x0 PUSH2 0x2B9C PUSH1 0x19 DUP4 PUSH2 0x323A JUMP JUMPDEST SWAP2 POP PUSH32 0x4E6F206F666665727320657869737420746F2064656C65746500000000000000 PUSH1 0x0 DUP4 ADD MSTORE PUSH1 0x20 DUP3 ADD SWAP1 POP SWAP2 SWAP1 POP JUMP JUMPDEST PUSH1 0x0 PUSH2 0x2BDC PUSH1 0x14 DUP4 PUSH2 0x323A JUMP JUMPDEST SWAP2 POP PUSH32 0x496E73756666696369656E742062616C616E6365000000000000000000000000 PUSH1 0x0 DUP4 ADD MSTORE PUSH1 0x20 DUP3 ADD SWAP1 POP SWAP2 SWAP1 POP JUMP JUMPDEST PUSH1 0x0 PUSH2 0x2C1C PUSH1 0x23 DUP4 PUSH2 0x323A JUMP JUMPDEST SWAP2 POP PUSH32 0x596F752063616E6E6F74206170706C7920666F7220796F7572206F776E206C6F PUSH1 0x0 DUP4 ADD MSTORE PUSH32 0x616E2E0000000000000000000000000000000000000000000000000000000000 PUSH1 0x20 DUP4 ADD MSTORE PUSH1 0x40 DUP3 ADD SWAP1 POP SWAP2 SWAP1 POP JUMP JUMPDEST PUSH1 0x0 PUSH2 0x2C82 PUSH1 0x1D DUP4 PUSH2 0x323A JUMP JUMPDEST SWAP2 POP PUSH32 0x4572726F722067657474696E6720796F7572206E657420696E636F6D65000000 PUSH1 0x0 DUP4 ADD MSTORE PUSH1 0x20 DUP3 ADD SWAP1 POP SWAP2 SWAP1 POP JUMP JUMPDEST PUSH1 0x0 PUSH2 0x2CC2 PUSH1 0x1B DUP4 PUSH2 0x323A JUMP JUMPDEST SWAP2 POP PUSH32 0x46696C6C20696E20746865207265717569726564206669656C64730000000000 PUSH1 0x0 DUP4 ADD MSTORE PUSH1 0x20 DUP3 ADD SWAP1 POP SWAP2 SWAP1 POP JUMP JUMPDEST PUSH1 0x0 PUSH2 0x2D02 PUSH1 0x1F DUP4 PUSH2 0x323A JUMP JUMPDEST SWAP2 POP PUSH32 0x4572726F722067657474696E6720796F7572206372656469742073636F726500 PUSH1 0x0 DUP4 ADD MSTORE PUSH1 0x20 DUP3 ADD SWAP1 POP SWAP2 SWAP1 POP JUMP JUMPDEST PUSH1 0x0 PUSH2 0x2D42 PUSH1 0x1E DUP4 PUSH2 0x323A JUMP JUMPDEST SWAP2 POP PUSH32 0x496E73756666696369656E742066756E647320696E20636F6E74726163740000 PUSH1 0x0 DUP4 ADD MSTORE PUSH1 0x20 DUP3 ADD SWAP1 POP SWAP2 SWAP1 POP JUMP JUMPDEST PUSH1 0x0 PUSH2 0x2D82 PUSH1 0x1D DUP4 PUSH2 0x323A JUMP JUMPDEST SWAP2 POP PUSH32 0x4F6666657220646F6573206E6F7420657869737420696E206172726179000000 PUSH1 0x0 DUP4 ADD MSTORE PUSH1 0x20 DUP3 ADD SWAP1 POP SWAP2 SWAP1 POP JUMP JUMPDEST PUSH1 0x0 PUSH2 0x2DC2 PUSH1 0x2B DUP4 PUSH2 0x323A JUMP JUMPDEST SWAP2 POP PUSH32 0x596F757220696E636F6D65206C6576656C20697320746F6F206C6F7720666F72 PUSH1 0x0 DUP4 ADD MSTORE PUSH32 0x2074686973206C6F616E2E000000000000000000000000000000000000000000 PUSH1 0x20 DUP4 ADD MSTORE PUSH1 0x40 DUP3 ADD SWAP1 POP SWAP2 SWAP1 POP JUMP JUMPDEST PUSH2 0x140 DUP3 ADD PUSH1 0x0 DUP3 ADD MLOAD PUSH2 0x2E32 PUSH1 0x0 DUP6 ADD DUP3 PUSH2 0x29F8 JUMP JUMPDEST POP PUSH1 0x20 DUP3 ADD MLOAD PUSH2 0x2E45 PUSH1 0x20 DUP6 ADD DUP3 PUSH2 0x2EE7 JUMP JUMPDEST POP PUSH1 0x40 DUP3 ADD MLOAD PUSH2 0x2E58 PUSH1 0x40 DUP6 ADD DUP3 PUSH2 0x2EE7 JUMP JUMPDEST POP PUSH1 0x60 DUP3 ADD MLOAD PUSH2 0x2E6B PUSH1 0x60 DUP6 ADD DUP3 PUSH2 0x2EE7 JUMP JUMPDEST POP PUSH1 0x80 DUP3 ADD MLOAD PUSH2 0x2E7E PUSH1 0x80 DUP6 ADD DUP3 PUSH2 0x2A16 JUMP JUMPDEST POP PUSH1 0xA0 DUP3 ADD MLOAD PUSH2 0x2E91 PUSH1 0xA0 DUP6 ADD DUP3 PUSH2 0x2EE7 JUMP JUMPDEST POP PUSH1 0xC0 DUP3 ADD MLOAD PUSH2 0x2EA4 PUSH1 0xC0 DUP6 ADD DUP3 PUSH2 0x2EE7 JUMP JUMPDEST POP PUSH1 0xE0 DUP3 ADD MLOAD PUSH2 0x2EB7 PUSH1 0xE0 DUP6 ADD DUP3 PUSH2 0x2A92 JUMP JUMPDEST POP PUSH2 0x100 DUP3 ADD MLOAD PUSH2 0x2ECC PUSH2 0x100 DUP6 ADD DUP3 PUSH2 0x2A92 JUMP JUMPDEST POP PUSH2 0x120 DUP3 ADD MLOAD PUSH2 0x2EE1 PUSH2 0x120 DUP6 ADD DUP3 PUSH2 0x2A92 JUMP JUMPDEST POP POP POP POP JUMP JUMPDEST PUSH2 0x2EF0 DUP2 PUSH2 0x33B0 JUMP JUMPDEST DUP3 MSTORE POP POP JUMP JUMPDEST PUSH2 0x2EFF DUP2 PUSH2 0x33B0 JUMP JUMPDEST DUP3 MSTORE POP POP JUMP JUMPDEST PUSH1 0x0 PUSH1 0x20 DUP3 ADD SWAP1 POP PUSH2 0x2F1A PUSH1 0x0 DUP4 ADD DUP5 PUSH2 0x2A25 JUMP JUMPDEST SWAP3 SWAP2 POP POP JUMP JUMPDEST PUSH1 0x0 PUSH1 0x20 DUP3 ADD SWAP1 POP PUSH2 0x2F35 PUSH1 0x0 DUP4 ADD DUP5 PUSH2 0x2A07 JUMP JUMPDEST SWAP3 SWAP2 POP POP JUMP JUMPDEST PUSH1 0x0 PUSH2 0x140 DUP3 ADD SWAP1 POP PUSH2 0x2F51 PUSH1 0x0 DUP4 ADD DUP14 PUSH2 0x2A07 JUMP JUMPDEST PUSH2 0x2F5E PUSH1 0x20 DUP4 ADD DUP13 PUSH2 0x2EF6 JUMP JUMPDEST PUSH2 0x2F6B PUSH1 0x40 DUP4 ADD DUP12 PUSH2 0x2EF6 JUMP JUMPDEST PUSH2 0x2F78 PUSH1 0x60 DUP4 ADD DUP11 PUSH2 0x2EF6 JUMP JUMPDEST PUSH2 0x2F85 PUSH1 0x80 DUP4 ADD DUP10 PUSH2 0x2A25 JUMP JUMPDEST PUSH2 0x2F92 PUSH1 0xA0 DUP4 ADD DUP9 PUSH2 0x2EF6 JUMP JUMPDEST PUSH2 0x2F9F PUSH1 0xC0 DUP4 ADD DUP8 PUSH2 0x2EF6 JUMP JUMPDEST PUSH2 0x2FAC PUSH1 0xE0 DUP4 ADD DUP7 PUSH2 0x2AA1 JUMP JUMPDEST PUSH2 0x2FBA PUSH2 0x100 DUP4 ADD DUP6 PUSH2 0x2AA1 JUMP JUMPDEST PUSH2 0x2FC8 PUSH2 0x120 DUP4 ADD DUP5 PUSH2 0x2AA1 JUMP JUMPDEST SWAP12 SWAP11 POP POP POP POP POP POP POP POP POP POP POP JUMP JUMPDEST PUSH1 0x0 PUSH1 0x80 DUP3 ADD SWAP1 POP PUSH2 0x2FEC PUSH1 0x0 DUP4 ADD DUP8 PUSH2 0x2A25 JUMP JUMPDEST PUSH2 0x2FF9 PUSH1 0x20 DUP4 ADD DUP7 PUSH2 0x2EF6 JUMP JUMPDEST PUSH2 0x3006 PUSH1 0x40 DUP4 ADD DUP6 PUSH2 0x2EF6 JUMP JUMPDEST PUSH2 0x3013 PUSH1 0x60 DUP4 ADD DUP5 PUSH2 0x2EF6 JUMP JUMPDEST SWAP6 SWAP5 POP POP POP POP POP JUMP JUMPDEST PUSH1 0x0 PUSH1 0x20 DUP3 ADD SWAP1 POP DUP2 DUP2 SUB PUSH1 0x0 DUP4 ADD MSTORE PUSH2 0x3036 DUP2 DUP5 PUSH2 0x2A34 JUMP JUMPDEST SWAP1 POP SWAP3 SWAP2 POP POP JUMP JUMPDEST PUSH1 0x0 PUSH1 0x20 DUP3 ADD SWAP1 POP PUSH2 0x3053 PUSH1 0x0 DUP4 ADD DUP5 PUSH2 0x2AA1 JUMP JUMPDEST SWAP3 SWAP2 POP POP JUMP JUMPDEST PUSH1 0x0 PUSH1 0x20 DUP3 ADD SWAP1 POP DUP2 DUP2 SUB PUSH1 0x0 DUP4 ADD MSTORE PUSH2 0x3073 DUP2 DUP5 PUSH2 0x2AB0 JUMP JUMPDEST SWAP1 POP SWAP3 SWAP2 POP POP JUMP JUMPDEST PUSH1 0x0 PUSH1 0x20 DUP3 ADD SWAP1 POP DUP2 DUP2 SUB PUSH1 0x0 DUP4 ADD MSTORE PUSH2 0x3094 DUP2 PUSH2 0x2AE9 JUMP JUMPDEST SWAP1 POP SWAP2 SWAP1 POP JUMP JUMPDEST PUSH1 0x0 PUSH1 0x20 DUP3 ADD SWAP1 POP DUP2 DUP2 SUB PUSH1 0x0 DUP4 ADD MSTORE PUSH2 0x30B4 DUP2 PUSH2 0x2B29 JUMP JUMPDEST SWAP1 POP SWAP2 SWAP1 POP JUMP JUMPDEST PUSH1 0x0 PUSH1 0x20 DUP3 ADD SWAP1 POP DUP2 DUP2 SUB PUSH1 0x0 DUP4 ADD MSTORE PUSH2 0x30D4 DUP2 PUSH2 0x2B8F JUMP JUMPDEST SWAP1 POP SWAP2 SWAP1 POP JUMP JUMPDEST PUSH1 0x0 PUSH1 0x20 DUP3 ADD SWAP1 POP DUP2 DUP2 SUB PUSH1 0x0 DUP4 ADD MSTORE PUSH2 0x30F4 DUP2 PUSH2 0x2BCF JUMP JUMPDEST SWAP1 POP SWAP2 SWAP1 POP JUMP JUMPDEST PUSH1 0x0 PUSH1 0x20 DUP3 ADD SWAP1 POP DUP2 DUP2 SUB PUSH1 0x0 DUP4 ADD MSTORE PUSH2 0x3114 DUP2 PUSH2 0x2C0F JUMP JUMPDEST SWAP1 POP SWAP2 SWAP1 POP JUMP JUMPDEST PUSH1 0x0 PUSH1 0x20 DUP3 ADD SWAP1 POP DUP2 DUP2 SUB PUSH1 0x0 DUP4 ADD MSTORE PUSH2 0x3134 DUP2 PUSH2 0x2C75 JUMP JUMPDEST SWAP1 POP SWAP2 SWAP1 POP JUMP JUMPDEST PUSH1 0x0 PUSH1 0x20 DUP3 ADD SWAP1 POP DUP2 DUP2 SUB PUSH1 0x0 DUP4 ADD MSTORE PUSH2 0x3154 DUP2 PUSH2 0x2CB5 JUMP JUMPDEST SWAP1 POP SWAP2 SWAP1 POP JUMP JUMPDEST PUSH1 0x0 PUSH1 0x20 DUP3 ADD SWAP1 POP DUP2 DUP2 SUB PUSH1 0x0 DUP4 ADD MSTORE PUSH2 0x3174 DUP2 PUSH2 0x2CF5 JUMP JUMPDEST SWAP1 POP SWAP2 SWAP1 POP JUMP JUMPDEST PUSH1 0x0 PUSH1 0x20 DUP3 ADD SWAP1 POP DUP2 DUP2 SUB PUSH1 0x0 DUP4 ADD MSTORE PUSH2 0x3194 DUP2 PUSH2 0x2D35 JUMP JUMPDEST SWAP1 POP SWAP2 SWAP1 POP JUMP JUMPDEST PUSH1 0x0 PUSH1 0x20 DUP3 ADD SWAP1 POP DUP2 DUP2 SUB PUSH1 0x0 DUP4 ADD MSTORE PUSH2 0x31B4 DUP2 PUSH2 0x2D75 JUMP JUMPDEST SWAP1 POP SWAP2 SWAP1 POP JUMP JUMPDEST PUSH1 0x0 PUSH1 0x20 DUP3 ADD SWAP1 POP DUP2 DUP2 SUB PUSH1 0x0 DUP4 ADD MSTORE PUSH2 0x31D4 DUP2 PUSH2 0x2DB5 JUMP JUMPDEST SWAP1 POP SWAP2 SWAP1 POP JUMP JUMPDEST PUSH1 0x0 PUSH1 0x20 DUP3 ADD SWAP1 POP PUSH2 0x31F0 PUSH1 0x0 DUP4 ADD DUP5 PUSH2 0x2EF6 JUMP JUMPDEST SWAP3 SWAP2 POP POP JUMP JUMPDEST PUSH1 0x0 DUP2 SWAP1 POP PUSH1 0x20 DUP3 ADD SWAP1 POP SWAP2 SWAP1 POP JUMP JUMPDEST PUSH1 0x0 DUP2 MLOAD SWAP1 POP SWAP2 SWAP1 POP JUMP JUMPDEST PUSH1 0x0 DUP2 MLOAD SWAP1 POP SWAP2 SWAP1 POP JUMP JUMPDEST PUSH1 0x0 PUSH1 0x20 DUP3 ADD SWAP1 POP SWAP2 SWAP1 POP JUMP JUMPDEST PUSH1 0x0 DUP3 DUP3 MSTORE PUSH1 0x20 DUP3 ADD SWAP1 POP SWAP3 SWAP2 POP POP JUMP JUMPDEST PUSH1 0x0 DUP3 DUP3 MSTORE PUSH1 0x20 DUP3 ADD SWAP1 POP SWAP3 SWAP2 POP POP JUMP JUMPDEST PUSH1 0x0 PUSH2 0x3256 DUP3 PUSH2 0x33B0 JUMP JUMPDEST SWAP2 POP PUSH2 0x3261 DUP4 PUSH2 0x33B0 JUMP JUMPDEST SWAP3 POP DUP3 PUSH32 0xFFFFFFFFFFFFFFFFFFFFFFFFFFFFFFFFFFFFFFFFFFFFFFFFFFFFFFFFFFFFFFFF SUB DUP3 GT ISZERO PUSH2 0x3296 JUMPI PUSH2 0x3295 PUSH2 0x3436 JUMP JUMPDEST JUMPDEST DUP3 DUP3 ADD SWAP1 POP SWAP3 SWAP2 POP POP JUMP JUMPDEST PUSH1 0x0 PUSH2 0x32AC DUP3 PUSH2 0x33B0 JUMP JUMPDEST SWAP2 POP PUSH2 0x32B7 DUP4 PUSH2 0x33B0 JUMP JUMPDEST SWAP3 POP DUP3 PUSH2 0x32C7 JUMPI PUSH2 0x32C6 PUSH2 0x3465 JUMP JUMPDEST JUMPDEST DUP3 DUP3 DIV SWAP1 POP SWAP3 SWAP2 POP POP JUMP JUMPDEST PUSH1 0x0 PUSH2 0x32DD DUP3 PUSH2 0x33B0 JUMP JUMPDEST SWAP2 POP PUSH2 0x32E8 DUP4 PUSH2 0x33B0 JUMP JUMPDEST SWAP3 POP DUP2 PUSH32 0xFFFFFFFFFFFFFFFFFFFFFFFFFFFFFFFFFFFFFFFFFFFFFFFFFFFFFFFFFFFFFFFF DIV DUP4 GT DUP3 ISZERO ISZERO AND ISZERO PUSH2 0x3321 JUMPI PUSH2 0x3320 PUSH2 0x3436 JUMP JUMPDEST JUMPDEST DUP3 DUP3 MUL SWAP1 POP SWAP3 SWAP2 POP POP JUMP JUMPDEST PUSH1 0x0 PUSH2 0x3337 DUP3 PUSH2 0x33B0 JUMP JUMPDEST SWAP2 POP PUSH2 0x3342 DUP4 PUSH2 0x33B0 JUMP JUMPDEST SWAP3 POP DUP3 DUP3 LT ISZERO PUSH2 0x3355 JUMPI PUSH2 0x3354 PUSH2 0x3436 JUMP JUMPDEST JUMPDEST DUP3 DUP3 SUB SWAP1 POP SWAP3 SWAP2 POP POP JUMP JUMPDEST PUSH1 0x0 PUSH2 0x336B DUP3 PUSH2 0x3390 JUMP JUMPDEST SWAP1 POP SWAP2 SWAP1 POP JUMP JUMPDEST PUSH1 0x0 PUSH2 0x337D DUP3 PUSH2 0x3390 JUMP JUMPDEST SWAP1 POP SWAP2 SWAP1 POP JUMP JUMPDEST PUSH1 0x0 DUP2 ISZERO ISZERO SWAP1 POP SWAP2 SWAP1 POP JUMP JUMPDEST PUSH1 0x0 PUSH20 0xFFFFFFFFFFFFFFFFFFFFFFFFFFFFFFFFFFFFFFFF DUP3 AND SWAP1 POP SWAP2 SWAP1 POP JUMP JUMPDEST PUSH1 0x0 DUP2 SWAP1 POP SWAP2 SWAP1 POP JUMP JUMPDEST PUSH1 0x0 JUMPDEST DUP4 DUP2 LT ISZERO PUSH2 0x33D8 JUMPI DUP1 DUP3 ADD MLOAD DUP2 DUP5 ADD MSTORE PUSH1 0x20 DUP2 ADD SWAP1 POP PUSH2 0x33BD JUMP JUMPDEST DUP4 DUP2 GT ISZERO PUSH2 0x33E7 JUMPI PUSH1 0x0 DUP5 DUP5 ADD MSTORE JUMPDEST POP POP POP POP JUMP JUMPDEST PUSH1 0x0 PUSH2 0x33F8 DUP3 PUSH2 0x33B0 JUMP JUMPDEST SWAP2 POP PUSH32 0xFFFFFFFFFFFFFFFFFFFFFFFFFFFFFFFFFFFFFFFFFFFFFFFFFFFFFFFFFFFFFFFF DUP3 EQ ISZERO PUSH2 0x342B JUMPI PUSH2 0x342A PUSH2 0x3436 JUMP JUMPDEST JUMPDEST PUSH1 0x1 DUP3 ADD SWAP1 POP SWAP2 SWAP1 POP JUMP JUMPDEST PUSH32 0x4E487B7100000000000000000000000000000000000000000000000000000000 PUSH1 0x0 MSTORE PUSH1 0x11 PUSH1 0x4 MSTORE PUSH1 0x24 PUSH1 0x0 REVERT JUMPDEST PUSH32 0x4E487B7100000000000000000000000000000000000000000000000000000000 PUSH1 0x0 MSTORE PUSH1 0x12 PUSH1 0x4 MSTORE PUSH1 0x24 PUSH1 0x0 REVERT JUMPDEST PUSH1 0x0 PUSH1 0x1F NOT PUSH1 0x1F DUP4 ADD AND SWAP1 POP SWAP2 SWAP1 POP JUMP JUMPDEST PUSH2 0x34AE DUP2 PUSH2 0x3360 JUMP JUMPDEST DUP2 EQ PUSH2 0x34B9 JUMPI PUSH1 0x0 DUP1 REVERT JUMPDEST POP JUMP JUMPDEST PUSH2 0x34C5 DUP2 PUSH2 0x3372 JUMP JUMPDEST DUP2 EQ PUSH2 0x34D0 JUMPI PUSH1 0x0 DUP1 REVERT JUMPDEST POP JUMP JUMPDEST PUSH2 0x34DC DUP2 PUSH2 0x33B0 JUMP JUMPDEST DUP2 EQ PUSH2 0x34E7 JUMPI PUSH1 0x0 DUP1 REVERT JUMPDEST POP JUMP INVALID 0x4C PUSH16 0x616E20417070726F7665642E2046756E PUSH5 0x732063616E KECCAK256 PUSH15 0x6F7720626520616363657373656420 PUSH10 0x6E20796F75722077616C PUSH13 0x65742EA2646970667358221220 SWAP8 DUP2 PUSH31 0xFC442B8B0985BB445BFDFA74BFC1A016D2C8BC7672E11BFFF785C1A2F26473 PUSH16 0x6C634300080000330000000000000000 "
				},
				"gasEstimates": {
					"creation": {
						"codeDepositCost": "2731200",
						"executionCost": "7959",
						"totalCost": "2739159"
					},
					"external": {
						"add_customer(address,uint256,uint256,uint256)": "infinite",
						"apply_for_loan(uint256,address)": "infinite",
						"borrowerBalance(address)": "1559",
						"borrowerCredit(address)": "1559",
						"borrowerIncomePY(address)": "1558",
						"create_offer(uint256,uint256,uint256)": "infinite",
						"customerArray(uint256)": "infinite",
						"delete_offer(uint256,uint256,address)": "infinite",
						"get_credit_score()": "2187",
						"get_myLoans()": "infinite",
						"get_net_income()": "2207",
						"get_offers()": "infinite",
						"isAvailable(uint256)": "1608",
						"isDeleted(uint256)": "1563",
						"isDue(uint256)": "1542",
						"isMine(uint256)": "1564",
						"lender(uint256)": "1628",
						"myLoans(uint256)": "infinite",
						"offerAmount(uint256)": "infinite",
						"offerDuration(uint256)": "infinite",
						"offerRate(uint256)": "infinite",
						"offersArray(uint256)": "infinite",
						"owner(uint256)": "1650",
						"remove_my_loan(uint256)": "infinite",
						"remove_offer(uint256)": "infinite",
						"repay_loan(uint256)": "infinite"
					}
				},
				"methodIdentifiers": {
					"add_customer(address,uint256,uint256,uint256)": "552bca80",
					"apply_for_loan(uint256,address)": "715eb34d",
					"borrowerBalance(address)": "ba5eceb6",
					"borrowerCredit(address)": "75dc9ad9",
					"borrowerIncomePY(address)": "d1863349",
					"create_offer(uint256,uint256,uint256)": "cb7e142e",
					"customerArray(uint256)": "24b7eb8c",
					"delete_offer(uint256,uint256,address)": "1ee3782c",
					"get_credit_score()": "213455a2",
					"get_myLoans()": "cf48dfc4",
					"get_net_income()": "e151c8bd",
					"get_offers()": "74f6b7b5",
					"isAvailable(uint256)": "3a178d99",
					"isDeleted(uint256)": "94182c36",
					"isDue(uint256)": "5583a930",
					"isMine(uint256)": "5f9634e0",
					"lender(uint256)": "9ab88914",
					"myLoans(uint256)": "6bf4c157",
					"offerAmount(uint256)": "e7a75949",
					"offerDuration(uint256)": "71593d41",
					"offerRate(uint256)": "ac1c7c99",
					"offersArray(uint256)": "f6117cce",
					"owner(uint256)": "a123c33e",
					"remove_my_loan(uint256)": "64afd1c7",
					"remove_offer(uint256)": "30b65511",
					"repay_loan(uint256)": "729c7e83"
				}
			},
			"storageLayout": {
				"storage": [
					{
						"astId": 3,
						"contract": "contracts/P2P_Loanify.sol:P2PLoanify",
						"label": "contractBalance",
						"offset": 0,
						"slot": "0",
						"type": "t_uint256"
					},
					{
						"astId": 13,
						"contract": "contracts/P2P_Loanify.sol:P2PLoanify",
						"label": "borrowerAddress",
						"offset": 0,
						"slot": "1",
						"type": "t_address"
					},
					{
						"astId": 17,
						"contract": "contracts/P2P_Loanify.sol:P2PLoanify",
						"label": "borrowerCredit",
						"offset": 0,
						"slot": "2",
						"type": "t_mapping(t_address,t_uint256)"
					},
					{
						"astId": 21,
						"contract": "contracts/P2P_Loanify.sol:P2PLoanify",
						"label": "borrowerIncomePY",
						"offset": 0,
						"slot": "3",
						"type": "t_mapping(t_address,t_uint256)"
					},
					{
						"astId": 25,
						"contract": "contracts/P2P_Loanify.sol:P2PLoanify",
						"label": "borrowerBalance",
						"offset": 0,
						"slot": "4",
						"type": "t_mapping(t_address,t_uint256)"
					},
					{
						"astId": 36,
						"contract": "contracts/P2P_Loanify.sol:P2PLoanify",
						"label": "offerID",
						"offset": 0,
						"slot": "5",
						"type": "t_uint256"
					},
					{
						"astId": 40,
						"contract": "contracts/P2P_Loanify.sol:P2PLoanify",
						"label": "lender",
						"offset": 0,
						"slot": "6",
						"type": "t_mapping(t_uint256,t_address_payable)"
					},
					{
						"astId": 44,
						"contract": "contracts/P2P_Loanify.sol:P2PLoanify",
						"label": "offerAmount",
						"offset": 0,
						"slot": "7",
						"type": "t_mapping(t_uint256,t_uint256)"
					},
					{
						"astId": 48,
						"contract": "contracts/P2P_Loanify.sol:P2PLoanify",
						"label": "offerDuration",
						"offset": 0,
						"slot": "8",
						"type": "t_mapping(t_uint256,t_uint256)"
					},
					{
						"astId": 52,
						"contract": "contracts/P2P_Loanify.sol:P2PLoanify",
						"label": "offerRate",
						"offset": 0,
						"slot": "9",
						"type": "t_mapping(t_uint256,t_uint256)"
					},
					{
						"astId": 56,
						"contract": "contracts/P2P_Loanify.sol:P2PLoanify",
						"label": "owner",
						"offset": 0,
						"slot": "10",
						"type": "t_mapping(t_uint256,t_address)"
					},
					{
						"astId": 60,
						"contract": "contracts/P2P_Loanify.sol:P2PLoanify",
						"label": "isAvailable",
						"offset": 0,
						"slot": "11",
						"type": "t_mapping(t_uint256,t_bool)"
					},
					{
						"astId": 64,
						"contract": "contracts/P2P_Loanify.sol:P2PLoanify",
						"label": "isMine",
						"offset": 0,
						"slot": "12",
						"type": "t_mapping(t_uint256,t_bool)"
					},
					{
						"astId": 68,
						"contract": "contracts/P2P_Loanify.sol:P2PLoanify",
						"label": "isDeleted",
						"offset": 0,
						"slot": "13",
						"type": "t_mapping(t_uint256,t_bool)"
					},
					{
						"astId": 72,
						"contract": "contracts/P2P_Loanify.sol:P2PLoanify",
						"label": "isDue",
						"offset": 0,
						"slot": "14",
						"type": "t_mapping(t_uint256,t_bool)"
					},
					{
						"astId": 97,
						"contract": "contracts/P2P_Loanify.sol:P2PLoanify",
						"label": "offersArray",
						"offset": 0,
						"slot": "15",
						"type": "t_array(t_struct(offerSchema)93_storage)dyn_storage"
					},
					{
						"astId": 101,
						"contract": "contracts/P2P_Loanify.sol:P2PLoanify",
						"label": "myLoans",
						"offset": 0,
						"slot": "16",
						"type": "t_array(t_struct(offerSchema)93_storage)dyn_storage"
					},
					{
						"astId": 402,
						"contract": "contracts/P2P_Loanify.sol:P2PLoanify",
						"label": "customerArray",
						"offset": 0,
						"slot": "17",
						"type": "t_array(t_struct(borrowerSchema)34_storage)dyn_storage"
					}
				],
				"types": {
					"t_address": {
						"encoding": "inplace",
						"label": "address",
						"numberOfBytes": "20"
					},
					"t_address_payable": {
						"encoding": "inplace",
						"label": "address payable",
						"numberOfBytes": "20"
					},
					"t_array(t_struct(borrowerSchema)34_storage)dyn_storage": {
						"base": "t_struct(borrowerSchema)34_storage",
						"encoding": "dynamic_array",
						"label": "struct P2PLoanify.borrowerSchema[]",
						"numberOfBytes": "32"
					},
					"t_array(t_struct(offerSchema)93_storage)dyn_storage": {
						"base": "t_struct(offerSchema)93_storage",
						"encoding": "dynamic_array",
						"label": "struct P2PLoanify.offerSchema[]",
						"numberOfBytes": "32"
					},
					"t_bool": {
						"encoding": "inplace",
						"label": "bool",
						"numberOfBytes": "1"
					},
					"t_mapping(t_address,t_uint256)": {
						"encoding": "mapping",
						"key": "t_address",
						"label": "mapping(address => uint256)",
						"numberOfBytes": "32",
						"value": "t_uint256"
					},
					"t_mapping(t_uint256,t_address)": {
						"encoding": "mapping",
						"key": "t_uint256",
						"label": "mapping(uint256 => address)",
						"numberOfBytes": "32",
						"value": "t_address"
					},
					"t_mapping(t_uint256,t_address_payable)": {
						"encoding": "mapping",
						"key": "t_uint256",
						"label": "mapping(uint256 => address payable)",
						"numberOfBytes": "32",
						"value": "t_address_payable"
					},
					"t_mapping(t_uint256,t_bool)": {
						"encoding": "mapping",
						"key": "t_uint256",
						"label": "mapping(uint256 => bool)",
						"numberOfBytes": "32",
						"value": "t_bool"
					},
					"t_mapping(t_uint256,t_uint256)": {
						"encoding": "mapping",
						"key": "t_uint256",
						"label": "mapping(uint256 => uint256)",
						"numberOfBytes": "32",
						"value": "t_uint256"
					},
					"t_struct(borrowerSchema)34_storage": {
						"encoding": "inplace",
						"label": "struct P2PLoanify.borrowerSchema",
						"members": [
							{
								"astId": 27,
								"contract": "contracts/P2P_Loanify.sol:P2PLoanify",
								"label": "borrowerAddress",
								"offset": 0,
								"slot": "0",
								"type": "t_address"
							},
							{
								"astId": 29,
								"contract": "contracts/P2P_Loanify.sol:P2PLoanify",
								"label": "borrowerCredit",
								"offset": 0,
								"slot": "1",
								"type": "t_uint256"
							},
							{
								"astId": 31,
								"contract": "contracts/P2P_Loanify.sol:P2PLoanify",
								"label": "borrowerBalance",
								"offset": 0,
								"slot": "2",
								"type": "t_uint256"
							},
							{
								"astId": 33,
								"contract": "contracts/P2P_Loanify.sol:P2PLoanify",
								"label": "borrowerIncomePY",
								"offset": 0,
								"slot": "3",
								"type": "t_uint256"
							}
						],
						"numberOfBytes": "128"
					},
					"t_struct(offerSchema)93_storage": {
						"encoding": "inplace",
						"label": "struct P2PLoanify.offerSchema",
						"members": [
							{
								"astId": 74,
								"contract": "contracts/P2P_Loanify.sol:P2PLoanify",
								"label": "lender",
								"offset": 0,
								"slot": "0",
								"type": "t_address_payable"
							},
							{
								"astId": 76,
								"contract": "contracts/P2P_Loanify.sol:P2PLoanify",
								"label": "offerID",
								"offset": 0,
								"slot": "1",
								"type": "t_uint256"
							},
							{
								"astId": 78,
								"contract": "contracts/P2P_Loanify.sol:P2PLoanify",
								"label": "offer_amount",
								"offset": 0,
								"slot": "2",
								"type": "t_uint256"
							},
							{
								"astId": 80,
								"contract": "contracts/P2P_Loanify.sol:P2PLoanify",
								"label": "lend_rate",
								"offset": 0,
								"slot": "3",
								"type": "t_uint256"
							},
							{
								"astId": 82,
								"contract": "contracts/P2P_Loanify.sol:P2PLoanify",
								"label": "owner",
								"offset": 0,
								"slot": "4",
								"type": "t_address"
							},
							{
								"astId": 84,
								"contract": "contracts/P2P_Loanify.sol:P2PLoanify",
								"label": "lend_duration",
								"offset": 0,
								"slot": "5",
								"type": "t_uint256"
							},
							{
								"astId": 86,
								"contract": "contracts/P2P_Loanify.sol:P2PLoanify",
								"label": "lend_repayment",
								"offset": 0,
								"slot": "6",
								"type": "t_uint256"
							},
							{
								"astId": 88,
								"contract": "contracts/P2P_Loanify.sol:P2PLoanify",
								"label": "isAvailable",
								"offset": 0,
								"slot": "7",
								"type": "t_bool"
							},
							{
								"astId": 90,
								"contract": "contracts/P2P_Loanify.sol:P2PLoanify",
								"label": "isCancelled",
								"offset": 1,
								"slot": "7",
								"type": "t_bool"
							},
							{
								"astId": 92,
								"contract": "contracts/P2P_Loanify.sol:P2PLoanify",
								"label": "isDue",
								"offset": 2,
								"slot": "7",
								"type": "t_bool"
							}
						],
						"numberOfBytes": "256"
					},
					"t_uint256": {
						"encoding": "inplace",
						"label": "uint256",
						"numberOfBytes": "32"
					}
				}
			},
			"userdoc": {
				"kind": "user",
				"methods": {},
				"version": 1
			}
		}
	}
}