{
	"contracts/1_Storage.sol": {
		"myFirstContract": {
			"abi": [
				{
					"inputs": [
						{
							"internalType": "int256",
							"name": "a",
							"type": "int256"
						},
						{
							"internalType": "int256",
							"name": "b",
							"type": "int256"
						}
					],
					"name": "addNumber",
					"outputs": [
						{
							"internalType": "int256",
							"name": "",
							"type": "int256"
						}
					],
					"stateMutability": "view",
					"type": "function"
				},
				{
					"inputs": [
						{
							"internalType": "uint256",
							"name": "number",
							"type": "uint256"
						}
					],
					"name": "changeNumber",
					"outputs": [],
					"stateMutability": "nonpayable",
					"type": "function"
				},
				{
					"inputs": [
						{
							"internalType": "string",
							"name": "",
							"type": "string"
						}
					],
					"name": "phonenumbers",
					"outputs": [
						{
							"internalType": "uint256",
							"name": "",
							"type": "uint256"
						}
					],
					"stateMutability": "view",
					"type": "function"
				},
				{
					"inputs": [],
					"name": "viewNumber",
					"outputs": [
						{
							"internalType": "uint256",
							"name": "",
							"type": "uint256"
						}
					],
					"stateMutability": "view",
					"type": "function"
				}
			],
			"devdoc": {
				"kind": "dev",
				"methods": {},
				"version": 1
			},
			"evm": {
				"assembly": "    /* \"contracts/1_Storage.sol\":24:862  contract myFirstContract{... */\n  mstore(0x40, 0x80)\n  callvalue\n  dup1\n  iszero\n  tag_1\n  jumpi\n  0x00\n  dup1\n  revert\ntag_1:\n  pop\n  dataSize(sub_0)\n  dup1\n  dataOffset(sub_0)\n  0x00\n  codecopy\n  0x00\n  return\nstop\n\nsub_0: assembly {\n        /* \"contracts/1_Storage.sol\":24:862  contract myFirstContract{... */\n      mstore(0x40, 0x80)\n      callvalue\n      dup1\n      iszero\n      tag_1\n      jumpi\n      0x00\n      dup1\n      revert\n    tag_1:\n      pop\n      jumpi(tag_2, lt(calldatasize, 0x04))\n      shr(0xe0, calldataload(0x00))\n      dup1\n      0x07391dd6\n      eq\n      tag_3\n      jumpi\n      dup1\n      0x22d51f26\n      eq\n      tag_4\n      jumpi\n      dup1\n      0x60de3002\n      eq\n      tag_5\n      jumpi\n      dup1\n      0xd811a0f7\n      eq\n      tag_6\n      jumpi\n    tag_2:\n      0x00\n      dup1\n      revert\n        /* \"contracts/1_Storage.sol\":341:420  function changeNumber(uint256 number) public {... */\n    tag_3:\n      tag_7\n      0x04\n      dup1\n      calldatasize\n      sub\n      dup2\n      add\n      swap1\n      tag_8\n      swap2\n      swap1\n      tag_9\n      jump\t// in\n    tag_8:\n      tag_10\n      jump\t// in\n    tag_7:\n      stop\n        /* \"contracts/1_Storage.sol\":173:219  mapping(string => uint256) public phonenumbers */\n    tag_4:\n      tag_11\n      0x04\n      dup1\n      calldatasize\n      sub\n      dup2\n      add\n      swap1\n      tag_12\n      swap2\n      swap1\n      tag_13\n      jump\t// in\n    tag_12:\n      tag_14\n      jump\t// in\n    tag_11:\n      mload(0x40)\n      tag_15\n      swap2\n      swap1\n      tag_16\n      jump\t// in\n    tag_15:\n      mload(0x40)\n      dup1\n      swap2\n      sub\n      swap1\n      return\n        /* \"contracts/1_Storage.sol\":226:335  function addNumber(int a, int b) view public returns(int){... */\n    tag_5:\n      tag_17\n      0x04\n      dup1\n      calldatasize\n      sub\n      dup2\n      add\n      swap1\n      tag_18\n      swap2\n      swap1\n      tag_19\n      jump\t// in\n    tag_18:\n      tag_20\n      jump\t// in\n    tag_17:\n      mload(0x40)\n      tag_21\n      swap2\n      swap1\n      tag_22\n      jump\t// in\n    tag_21:\n      mload(0x40)\n      dup1\n      swap2\n      sub\n      swap1\n      return\n        /* \"contracts/1_Storage.sol\":425:507  function viewNumber() view public returns(uint256){... */\n    tag_6:\n      tag_23\n      tag_24\n      jump\t// in\n    tag_23:\n      mload(0x40)\n      tag_25\n      swap2\n      swap1\n      tag_16\n      jump\t// in\n    tag_25:\n      mload(0x40)\n      dup1\n      swap2\n      sub\n      swap1\n      return\n        /* \"contracts/1_Storage.sol\":341:420  function changeNumber(uint256 number) public {... */\n    tag_10:\n        /* \"contracts/1_Storage.sol\":407:413  number */\n      dup1\n        /* \"contracts/1_Storage.sol\":396:404  myNumber */\n      0x00\n        /* \"contracts/1_Storage.sol\":396:413  myNumber = number */\n      dup2\n      swap1\n      sstore\n      pop\n        /* \"contracts/1_Storage.sol\":341:420  function changeNumber(uint256 number) public {... */\n      pop\n      jump\t// out\n        /* \"contracts/1_Storage.sol\":173:219  mapping(string => uint256) public phonenumbers */\n    tag_14:\n      0x03\n      dup2\n      dup1\n      mload\n      0x20\n      dup2\n      add\n      dup3\n      add\n      dup1\n      mload\n      dup5\n      dup3\n      mstore\n      0x20\n      dup4\n      add\n      0x20\n      dup6\n      add\n      keccak256\n      dup2\n      dup4\n      mstore\n      dup1\n      swap6\n      pop\n      pop\n      pop\n      pop\n      pop\n      pop\n      0x00\n      swap2\n      pop\n      swap1\n      pop\n      sload\n      dup2\n      jump\t// out\n        /* \"contracts/1_Storage.sol\":226:335  function addNumber(int a, int b) view public returns(int){... */\n    tag_20:\n        /* \"contracts/1_Storage.sol\":279:282  int */\n      0x00\n        /* \"contracts/1_Storage.sol\":293:300  int sum */\n      dup1\n        /* \"contracts/1_Storage.sol\":307:308  b */\n      dup3\n        /* \"contracts/1_Storage.sol\":303:304  a */\n      dup5\n        /* \"contracts/1_Storage.sol\":303:308  a + b */\n      tag_28\n      swap2\n      swap1\n      tag_29\n      jump\t// in\n    tag_28:\n        /* \"contracts/1_Storage.sol\":293:308  int sum = a + b */\n      swap1\n      pop\n        /* \"contracts/1_Storage.sol\":325:328  sum */\n      dup1\n        /* \"contracts/1_Storage.sol\":318:328  return sum */\n      swap2\n      pop\n      pop\n        /* \"contracts/1_Storage.sol\":226:335  function addNumber(int a, int b) view public returns(int){... */\n      swap3\n      swap2\n      pop\n      pop\n      jump\t// out\n        /* \"contracts/1_Storage.sol\":425:507  function viewNumber() view public returns(uint256){... */\n    tag_24:\n        /* \"contracts/1_Storage.sol\":467:474  uint256 */\n      0x00\n        /* \"contracts/1_Storage.sol\":492:500  myNumber */\n      dup1\n      sload\n        /* \"contracts/1_Storage.sol\":485:500  return myNumber */\n      swap1\n      pop\n        /* \"contracts/1_Storage.sol\":425:507  function viewNumber() view public returns(uint256){... */\n      swap1\n      jump\t// out\n        /* \"#utility.yul\":7:419   */\n    tag_32:\n        /* \"#utility.yul\":85:90   */\n      0x00\n        /* \"#utility.yul\":110:176   */\n      tag_34\n        /* \"#utility.yul\":126:175   */\n      tag_35\n        /* \"#utility.yul\":168:174   */\n      dup5\n        /* \"#utility.yul\":126:175   */\n      tag_36\n      jump\t// in\n    tag_35:\n        /* \"#utility.yul\":110:176   */\n      tag_37\n      jump\t// in\n    tag_34:\n        /* \"#utility.yul\":101:176   */\n      swap1\n      pop\n        /* \"#utility.yul\":199:205   */\n      dup3\n        /* \"#utility.yul\":192:197   */\n      dup2\n        /* \"#utility.yul\":185:206   */\n      mstore\n        /* \"#utility.yul\":237:241   */\n      0x20\n        /* \"#utility.yul\":230:235   */\n      dup2\n        /* \"#utility.yul\":226:242   */\n      add\n        /* \"#utility.yul\":275:278   */\n      dup5\n        /* \"#utility.yul\":266:272   */\n      dup5\n        /* \"#utility.yul\":261:264   */\n      dup5\n        /* \"#utility.yul\":257:273   */\n      add\n        /* \"#utility.yul\":254:279   */\n      gt\n        /* \"#utility.yul\":251:363   */\n      iszero\n      tag_38\n      jumpi\n        /* \"#utility.yul\":282:361   */\n      tag_39\n      tag_40\n      jump\t// in\n    tag_39:\n        /* \"#utility.yul\":251:363   */\n    tag_38:\n        /* \"#utility.yul\":372:413   */\n      tag_41\n        /* \"#utility.yul\":406:412   */\n      dup5\n        /* \"#utility.yul\":401:404   */\n      dup3\n        /* \"#utility.yul\":396:399   */\n      dup6\n        /* \"#utility.yul\":372:413   */\n      tag_42\n      jump\t// in\n    tag_41:\n        /* \"#utility.yul\":91:419   */\n      pop\n        /* \"#utility.yul\":7:419   */\n      swap4\n      swap3\n      pop\n      pop\n      pop\n      jump\t// out\n        /* \"#utility.yul\":425:562   */\n    tag_43:\n        /* \"#utility.yul\":470:475   */\n      0x00\n        /* \"#utility.yul\":508:514   */\n      dup2\n        /* \"#utility.yul\":495:515   */\n      calldataload\n        /* \"#utility.yul\":486:515   */\n      swap1\n      pop\n        /* \"#utility.yul\":524:556   */\n      tag_45\n        /* \"#utility.yul\":550:555   */\n      dup2\n        /* \"#utility.yul\":524:556   */\n      tag_46\n      jump\t// in\n    tag_45:\n        /* \"#utility.yul\":425:562   */\n      swap3\n      swap2\n      pop\n      pop\n      jump\t// out\n        /* \"#utility.yul\":582:922   */\n    tag_47:\n        /* \"#utility.yul\":638:643   */\n      0x00\n        /* \"#utility.yul\":687:690   */\n      dup3\n        /* \"#utility.yul\":680:684   */\n      0x1f\n        /* \"#utility.yul\":672:678   */\n      dup4\n        /* \"#utility.yul\":668:685   */\n      add\n        /* \"#utility.yul\":664:691   */\n      slt\n        /* \"#utility.yul\":654:776   */\n      tag_49\n      jumpi\n        /* \"#utility.yul\":695:774   */\n      tag_50\n      tag_51\n      jump\t// in\n    tag_50:\n        /* \"#utility.yul\":654:776   */\n    tag_49:\n        /* \"#utility.yul\":812:818   */\n      dup2\n        /* \"#utility.yul\":799:819   */\n      calldataload\n        /* \"#utility.yul\":837:916   */\n      tag_52\n        /* \"#utility.yul\":912:915   */\n      dup5\n        /* \"#utility.yul\":904:910   */\n      dup3\n        /* \"#utility.yul\":897:901   */\n      0x20\n        /* \"#utility.yul\":889:895   */\n      dup7\n        /* \"#utility.yul\":885:902   */\n      add\n        /* \"#utility.yul\":837:916   */\n      tag_32\n      jump\t// in\n    tag_52:\n        /* \"#utility.yul\":828:916   */\n      swap2\n      pop\n        /* \"#utility.yul\":644:922   */\n      pop\n        /* \"#utility.yul\":582:922   */\n      swap3\n      swap2\n      pop\n      pop\n      jump\t// out\n        /* \"#utility.yul\":928:1067   */\n    tag_53:\n        /* \"#utility.yul\":974:979   */\n      0x00\n        /* \"#utility.yul\":1012:1018   */\n      dup2\n        /* \"#utility.yul\":999:1019   */\n      calldataload\n        /* \"#utility.yul\":990:1019   */\n      swap1\n      pop\n        /* \"#utility.yul\":1028:1061   */\n      tag_55\n        /* \"#utility.yul\":1055:1060   */\n      dup2\n        /* \"#utility.yul\":1028:1061   */\n      tag_56\n      jump\t// in\n    tag_55:\n        /* \"#utility.yul\":928:1067   */\n      swap3\n      swap2\n      pop\n      pop\n      jump\t// out\n        /* \"#utility.yul\":1073:1543   */\n    tag_19:\n        /* \"#utility.yul\":1139:1145   */\n      0x00\n        /* \"#utility.yul\":1147:1153   */\n      dup1\n        /* \"#utility.yul\":1196:1198   */\n      0x40\n        /* \"#utility.yul\":1184:1193   */\n      dup4\n        /* \"#utility.yul\":1175:1182   */\n      dup6\n        /* \"#utility.yul\":1171:1194   */\n      sub\n        /* \"#utility.yul\":1167:1199   */\n      slt\n        /* \"#utility.yul\":1164:1283   */\n      iszero\n      tag_58\n      jumpi\n        /* \"#utility.yul\":1202:1281   */\n      tag_59\n      tag_60\n      jump\t// in\n    tag_59:\n        /* \"#utility.yul\":1164:1283   */\n    tag_58:\n        /* \"#utility.yul\":1322:1323   */\n      0x00\n        /* \"#utility.yul\":1347:1399   */\n      tag_61\n        /* \"#utility.yul\":1391:1398   */\n      dup6\n        /* \"#utility.yul\":1382:1388   */\n      dup3\n        /* \"#utility.yul\":1371:1380   */\n      dup7\n        /* \"#utility.yul\":1367:1389   */\n      add\n        /* \"#utility.yul\":1347:1399   */\n      tag_43\n      jump\t// in\n    tag_61:\n        /* \"#utility.yul\":1337:1399   */\n      swap3\n      pop\n        /* \"#utility.yul\":1293:1409   */\n      pop\n        /* \"#utility.yul\":1448:1450   */\n      0x20\n        /* \"#utility.yul\":1474:1526   */\n      tag_62\n        /* \"#utility.yul\":1518:1525   */\n      dup6\n        /* \"#utility.yul\":1509:1515   */\n      dup3\n        /* \"#utility.yul\":1498:1507   */\n      dup7\n        /* \"#utility.yul\":1494:1516   */\n      add\n        /* \"#utility.yul\":1474:1526   */\n      tag_43\n      jump\t// in\n    tag_62:\n        /* \"#utility.yul\":1464:1526   */\n      swap2\n      pop\n        /* \"#utility.yul\":1419:1536   */\n      pop\n        /* \"#utility.yul\":1073:1543   */\n      swap3\n      pop\n      swap3\n      swap1\n      pop\n      jump\t// out\n        /* \"#utility.yul\":1549:2058   */\n    tag_13:\n        /* \"#utility.yul\":1618:1624   */\n      0x00\n        /* \"#utility.yul\":1667:1669   */\n      0x20\n        /* \"#utility.yul\":1655:1664   */\n      dup3\n        /* \"#utility.yul\":1646:1653   */\n      dup5\n        /* \"#utility.yul\":1642:1665   */\n      sub\n        /* \"#utility.yul\":1638:1670   */\n      slt\n        /* \"#utility.yul\":1635:1754   */\n      iszero\n      tag_64\n      jumpi\n        /* \"#utility.yul\":1673:1752   */\n      tag_65\n      tag_60\n      jump\t// in\n    tag_65:\n        /* \"#utility.yul\":1635:1754   */\n    tag_64:\n        /* \"#utility.yul\":1821:1822   */\n      0x00\n        /* \"#utility.yul\":1810:1819   */\n      dup3\n        /* \"#utility.yul\":1806:1823   */\n      add\n        /* \"#utility.yul\":1793:1824   */\n      calldataload\n        /* \"#utility.yul\":1851:1869   */\n      0xffffffffffffffff\n        /* \"#utility.yul\":1843:1849   */\n      dup2\n        /* \"#utility.yul\":1840:1870   */\n      gt\n        /* \"#utility.yul\":1837:1954   */\n      iszero\n      tag_66\n      jumpi\n        /* \"#utility.yul\":1873:1952   */\n      tag_67\n      tag_68\n      jump\t// in\n    tag_67:\n        /* \"#utility.yul\":1837:1954   */\n    tag_66:\n        /* \"#utility.yul\":1978:2041   */\n      tag_69\n        /* \"#utility.yul\":2033:2040   */\n      dup5\n        /* \"#utility.yul\":2024:2030   */\n      dup3\n        /* \"#utility.yul\":2013:2022   */\n      dup6\n        /* \"#utility.yul\":2009:2031   */\n      add\n        /* \"#utility.yul\":1978:2041   */\n      tag_47\n      jump\t// in\n    tag_69:\n        /* \"#utility.yul\":1968:2041   */\n      swap2\n      pop\n        /* \"#utility.yul\":1764:2051   */\n      pop\n        /* \"#utility.yul\":1549:2058   */\n      swap3\n      swap2\n      pop\n      pop\n      jump\t// out\n        /* \"#utility.yul\":2064:2393   */\n    tag_9:\n        /* \"#utility.yul\":2123:2129   */\n      0x00\n        /* \"#utility.yul\":2172:2174   */\n      0x20\n        /* \"#utility.yul\":2160:2169   */\n      dup3\n        /* \"#utility.yul\":2151:2158   */\n      dup5\n        /* \"#utility.yul\":2147:2170   */\n      sub\n        /* \"#utility.yul\":2143:2175   */\n      slt\n        /* \"#utility.yul\":2140:2259   */\n      iszero\n      tag_71\n      jumpi\n        /* \"#utility.yul\":2178:2257   */\n      tag_72\n      tag_60\n      jump\t// in\n    tag_72:\n        /* \"#utility.yul\":2140:2259   */\n    tag_71:\n        /* \"#utility.yul\":2298:2299   */\n      0x00\n        /* \"#utility.yul\":2323:2376   */\n      tag_73\n        /* \"#utility.yul\":2368:2375   */\n      dup5\n        /* \"#utility.yul\":2359:2365   */\n      dup3\n        /* \"#utility.yul\":2348:2357   */\n      dup6\n        /* \"#utility.yul\":2344:2366   */\n      add\n        /* \"#utility.yul\":2323:2376   */\n      tag_53\n      jump\t// in\n    tag_73:\n        /* \"#utility.yul\":2313:2376   */\n      swap2\n      pop\n        /* \"#utility.yul\":2269:2386   */\n      pop\n        /* \"#utility.yul\":2064:2393   */\n      swap3\n      swap2\n      pop\n      pop\n      jump\t// out\n        /* \"#utility.yul\":2399:2514   */\n    tag_74:\n        /* \"#utility.yul\":2484:2507   */\n      tag_76\n        /* \"#utility.yul\":2501:2506   */\n      dup2\n        /* \"#utility.yul\":2484:2507   */\n      tag_77\n      jump\t// in\n    tag_76:\n        /* \"#utility.yul\":2479:2482   */\n      dup3\n        /* \"#utility.yul\":2472:2508   */\n      mstore\n        /* \"#utility.yul\":2399:2514   */\n      pop\n      pop\n      jump\t// out\n        /* \"#utility.yul\":2520:2638   */\n    tag_78:\n        /* \"#utility.yul\":2607:2631   */\n      tag_80\n        /* \"#utility.yul\":2625:2630   */\n      dup2\n        /* \"#utility.yul\":2607:2631   */\n      tag_81\n      jump\t// in\n    tag_80:\n        /* \"#utility.yul\":2602:2605   */\n      dup3\n        /* \"#utility.yul\":2595:2632   */\n      mstore\n        /* \"#utility.yul\":2520:2638   */\n      pop\n      pop\n      jump\t// out\n        /* \"#utility.yul\":2644:2862   */\n    tag_22:\n        /* \"#utility.yul\":2735:2739   */\n      0x00\n        /* \"#utility.yul\":2773:2775   */\n      0x20\n        /* \"#utility.yul\":2762:2771   */\n      dup3\n        /* \"#utility.yul\":2758:2776   */\n      add\n        /* \"#utility.yul\":2750:2776   */\n      swap1\n      pop\n        /* \"#utility.yul\":2786:2855   */\n      tag_83\n        /* \"#utility.yul\":2852:2853   */\n      0x00\n        /* \"#utility.yul\":2841:2850   */\n      dup4\n        /* \"#utility.yul\":2837:2854   */\n      add\n        /* \"#utility.yul\":2828:2834   */\n      dup5\n        /* \"#utility.yul\":2786:2855   */\n      tag_74\n      jump\t// in\n    tag_83:\n        /* \"#utility.yul\":2644:2862   */\n      swap3\n      swap2\n      pop\n      pop\n      jump\t// out\n        /* \"#utility.yul\":2868:3090   */\n    tag_16:\n        /* \"#utility.yul\":2961:2965   */\n      0x00\n        /* \"#utility.yul\":2999:3001   */\n      0x20\n        /* \"#utility.yul\":2988:2997   */\n      dup3\n        /* \"#utility.yul\":2984:3002   */\n      add\n        /* \"#utility.yul\":2976:3002   */\n      swap1\n      pop\n        /* \"#utility.yul\":3012:3083   */\n      tag_85\n        /* \"#utility.yul\":3080:3081   */\n      0x00\n        /* \"#utility.yul\":3069:3078   */\n      dup4\n        /* \"#utility.yul\":3065:3082   */\n      add\n        /* \"#utility.yul\":3056:3062   */\n      dup5\n        /* \"#utility.yul\":3012:3083   */\n      tag_78\n      jump\t// in\n    tag_85:\n        /* \"#utility.yul\":2868:3090   */\n      swap3\n      swap2\n      pop\n      pop\n      jump\t// out\n        /* \"#utility.yul\":3096:3225   */\n    tag_37:\n        /* \"#utility.yul\":3130:3136   */\n      0x00\n        /* \"#utility.yul\":3157:3177   */\n      tag_87\n      tag_88\n      jump\t// in\n    tag_87:\n        /* \"#utility.yul\":3147:3177   */\n      swap1\n      pop\n        /* \"#utility.yul\":3186:3219   */\n      tag_89\n        /* \"#utility.yul\":3214:3218   */\n      dup3\n        /* \"#utility.yul\":3206:3212   */\n      dup3\n        /* \"#utility.yul\":3186:3219   */\n      tag_90\n      jump\t// in\n    tag_89:\n        /* \"#utility.yul\":3096:3225   */\n      swap2\n      swap1\n      pop\n      jump\t// out\n        /* \"#utility.yul\":3231:3306   */\n    tag_88:\n        /* \"#utility.yul\":3264:3270   */\n      0x00\n        /* \"#utility.yul\":3297:3299   */\n      0x40\n        /* \"#utility.yul\":3291:3300   */\n      mload\n        /* \"#utility.yul\":3281:3300   */\n      swap1\n      pop\n        /* \"#utility.yul\":3231:3306   */\n      swap1\n      jump\t// out\n        /* \"#utility.yul\":3312:3620   */\n    tag_36:\n        /* \"#utility.yul\":3374:3378   */\n      0x00\n        /* \"#utility.yul\":3464:3482   */\n      0xffffffffffffffff\n        /* \"#utility.yul\":3456:3462   */\n      dup3\n        /* \"#utility.yul\":3453:3483   */\n      gt\n        /* \"#utility.yul\":3450:3506   */\n      iszero\n      tag_93\n      jumpi\n        /* \"#utility.yul\":3486:3504   */\n      tag_94\n      tag_95\n      jump\t// in\n    tag_94:\n        /* \"#utility.yul\":3450:3506   */\n    tag_93:\n        /* \"#utility.yul\":3524:3553   */\n      tag_96\n        /* \"#utility.yul\":3546:3552   */\n      dup3\n        /* \"#utility.yul\":3524:3553   */\n      tag_97\n      jump\t// in\n    tag_96:\n        /* \"#utility.yul\":3516:3553   */\n      swap1\n      pop\n        /* \"#utility.yul\":3608:3612   */\n      0x20\n        /* \"#utility.yul\":3602:3606   */\n      dup2\n        /* \"#utility.yul\":3598:3613   */\n      add\n        /* \"#utility.yul\":3590:3613   */\n      swap1\n      pop\n        /* \"#utility.yul\":3312:3620   */\n      swap2\n      swap1\n      pop\n      jump\t// out\n        /* \"#utility.yul\":3626:4151   */\n    tag_29:\n        /* \"#utility.yul\":3665:3668   */\n      0x00\n        /* \"#utility.yul\":3684:3703   */\n      tag_99\n        /* \"#utility.yul\":3701:3702   */\n      dup3\n        /* \"#utility.yul\":3684:3703   */\n      tag_77\n      jump\t// in\n    tag_99:\n        /* \"#utility.yul\":3679:3703   */\n      swap2\n      pop\n        /* \"#utility.yul\":3717:3736   */\n      tag_100\n        /* \"#utility.yul\":3734:3735   */\n      dup4\n        /* \"#utility.yul\":3717:3736   */\n      tag_77\n      jump\t// in\n    tag_100:\n        /* \"#utility.yul\":3712:3736   */\n      swap3\n      pop\n        /* \"#utility.yul\":3905:3906   */\n      dup2\n        /* \"#utility.yul\":3837:3903   */\n      0x7fffffffffffffffffffffffffffffffffffffffffffffffffffffffffffffff\n        /* \"#utility.yul\":3833:3907   */\n      sub\n        /* \"#utility.yul\":3830:3831   */\n      dup4\n        /* \"#utility.yul\":3826:3908   */\n      sgt\n        /* \"#utility.yul\":3821:3822   */\n      0x00\n        /* \"#utility.yul\":3818:3819   */\n      dup4\n        /* \"#utility.yul\":3814:3823   */\n      slt\n        /* \"#utility.yul\":3807:3824   */\n      iszero\n        /* \"#utility.yul\":3803:3909   */\n      and\n        /* \"#utility.yul\":3800:3932   */\n      iszero\n      tag_101\n      jumpi\n        /* \"#utility.yul\":3912:3930   */\n      tag_102\n      tag_103\n      jump\t// in\n    tag_102:\n        /* \"#utility.yul\":3800:3932   */\n    tag_101:\n        /* \"#utility.yul\":4092:4093   */\n      dup2\n        /* \"#utility.yul\":4024:4090   */\n      0x8000000000000000000000000000000000000000000000000000000000000000\n        /* \"#utility.yul\":4020:4094   */\n      sub\n        /* \"#utility.yul\":4017:4018   */\n      dup4\n        /* \"#utility.yul\":4013:4095   */\n      slt\n        /* \"#utility.yul\":4009:4010   */\n      0x00\n        /* \"#utility.yul\":4006:4007   */\n      dup4\n        /* \"#utility.yul\":4002:4011   */\n      slt\n        /* \"#utility.yul\":3998:4096   */\n      and\n        /* \"#utility.yul\":3995:4119   */\n      iszero\n      tag_104\n      jumpi\n        /* \"#utility.yul\":4099:4117   */\n      tag_105\n      tag_103\n      jump\t// in\n    tag_105:\n        /* \"#utility.yul\":3995:4119   */\n    tag_104:\n        /* \"#utility.yul\":4143:4144   */\n      dup3\n        /* \"#utility.yul\":4140:4141   */\n      dup3\n        /* \"#utility.yul\":4136:4145   */\n      add\n        /* \"#utility.yul\":4129:4145   */\n      swap1\n      pop\n        /* \"#utility.yul\":3626:4151   */\n      swap3\n      swap2\n      pop\n      pop\n      jump\t// out\n        /* \"#utility.yul\":4157:4233   */\n    tag_77:\n        /* \"#utility.yul\":4193:4200   */\n      0x00\n        /* \"#utility.yul\":4222:4227   */\n      dup2\n        /* \"#utility.yul\":4211:4227   */\n      swap1\n      pop\n        /* \"#utility.yul\":4157:4233   */\n      swap2\n      swap1\n      pop\n      jump\t// out\n        /* \"#utility.yul\":4239:4316   */\n    tag_81:\n        /* \"#utility.yul\":4276:4283   */\n      0x00\n        /* \"#utility.yul\":4305:4310   */\n      dup2\n        /* \"#utility.yul\":4294:4310   */\n      swap1\n      pop\n        /* \"#utility.yul\":4239:4316   */\n      swap2\n      swap1\n      pop\n      jump\t// out\n        /* \"#utility.yul\":4322:4476   */\n    tag_42:\n        /* \"#utility.yul\":4406:4412   */\n      dup3\n        /* \"#utility.yul\":4401:4404   */\n      dup2\n        /* \"#utility.yul\":4396:4399   */\n      dup4\n        /* \"#utility.yul\":4383:4413   */\n      calldatacopy\n        /* \"#utility.yul\":4468:4469   */\n      0x00\n        /* \"#utility.yul\":4459:4465   */\n      dup4\n        /* \"#utility.yul\":4454:4457   */\n      dup4\n        /* \"#utility.yul\":4450:4466   */\n      add\n        /* \"#utility.yul\":4443:4470   */\n      mstore\n        /* \"#utility.yul\":4322:4476   */\n      pop\n      pop\n      pop\n      jump\t// out\n        /* \"#utility.yul\":4482:4763   */\n    tag_90:\n        /* \"#utility.yul\":4565:4592   */\n      tag_110\n        /* \"#utility.yul\":4587:4591   */\n      dup3\n        /* \"#utility.yul\":4565:4592   */\n      tag_97\n      jump\t// in\n    tag_110:\n        /* \"#utility.yul\":4557:4563   */\n      dup2\n        /* \"#utility.yul\":4553:4593   */\n      add\n        /* \"#utility.yul\":4695:4701   */\n      dup2\n        /* \"#utility.yul\":4683:4693   */\n      dup2\n        /* \"#utility.yul\":4680:4702   */\n      lt\n        /* \"#utility.yul\":4659:4677   */\n      0xffffffffffffffff\n        /* \"#utility.yul\":4647:4657   */\n      dup3\n        /* \"#utility.yul\":4644:4678   */\n      gt\n        /* \"#utility.yul\":4641:4703   */\n      or\n        /* \"#utility.yul\":4638:4726   */\n      iszero\n      tag_111\n      jumpi\n        /* \"#utility.yul\":4706:4724   */\n      tag_112\n      tag_95\n      jump\t// in\n    tag_112:\n        /* \"#utility.yul\":4638:4726   */\n    tag_111:\n        /* \"#utility.yul\":4746:4756   */\n      dup1\n        /* \"#utility.yul\":4742:4744   */\n      0x40\n        /* \"#utility.yul\":4735:4757   */\n      mstore\n        /* \"#utility.yul\":4525:4763   */\n      pop\n        /* \"#utility.yul\":4482:4763   */\n      pop\n      pop\n      jump\t// out\n        /* \"#utility.yul\":4769:4949   */\n    tag_103:\n        /* \"#utility.yul\":4817:4894   */\n      0x4e487b7100000000000000000000000000000000000000000000000000000000\n        /* \"#utility.yul\":4814:4815   */\n      0x00\n        /* \"#utility.yul\":4807:4895   */\n      mstore\n        /* \"#utility.yul\":4914:4918   */\n      0x11\n        /* \"#utility.yul\":4911:4912   */\n      0x04\n        /* \"#utility.yul\":4904:4919   */\n      mstore\n        /* \"#utility.yul\":4938:4942   */\n      0x24\n        /* \"#utility.yul\":4935:4936   */\n      0x00\n        /* \"#utility.yul\":4928:4943   */\n      revert\n        /* \"#utility.yul\":4955:5135   */\n    tag_95:\n        /* \"#utility.yul\":5003:5080   */\n      0x4e487b7100000000000000000000000000000000000000000000000000000000\n        /* \"#utility.yul\":5000:5001   */\n      0x00\n        /* \"#utility.yul\":4993:5081   */\n      mstore\n        /* \"#utility.yul\":5100:5104   */\n      0x41\n        /* \"#utility.yul\":5097:5098   */\n      0x04\n        /* \"#utility.yul\":5090:5105   */\n      mstore\n        /* \"#utility.yul\":5124:5128   */\n      0x24\n        /* \"#utility.yul\":5121:5122   */\n      0x00\n        /* \"#utility.yul\":5114:5129   */\n      revert\n        /* \"#utility.yul\":5141:5258   */\n    tag_51:\n        /* \"#utility.yul\":5250:5251   */\n      0x00\n        /* \"#utility.yul\":5247:5248   */\n      dup1\n        /* \"#utility.yul\":5240:5252   */\n      revert\n        /* \"#utility.yul\":5264:5381   */\n    tag_40:\n        /* \"#utility.yul\":5373:5374   */\n      0x00\n        /* \"#utility.yul\":5370:5371   */\n      dup1\n        /* \"#utility.yul\":5363:5375   */\n      revert\n        /* \"#utility.yul\":5387:5504   */\n    tag_68:\n        /* \"#utility.yul\":5496:5497   */\n      0x00\n        /* \"#utility.yul\":5493:5494   */\n      dup1\n        /* \"#utility.yul\":5486:5498   */\n      revert\n        /* \"#utility.yul\":5510:5627   */\n    tag_60:\n        /* \"#utility.yul\":5619:5620   */\n      0x00\n        /* \"#utility.yul\":5616:5617   */\n      dup1\n        /* \"#utility.yul\":5609:5621   */\n      revert\n        /* \"#utility.yul\":5633:5735   */\n    tag_97:\n        /* \"#utility.yul\":5674:5680   */\n      0x00\n        /* \"#utility.yul\":5725:5727   */\n      0x1f\n        /* \"#utility.yul\":5721:5728   */\n      not\n        /* \"#utility.yul\":5716:5718   */\n      0x1f\n        /* \"#utility.yul\":5709:5714   */\n      dup4\n        /* \"#utility.yul\":5705:5719   */\n      add\n        /* \"#utility.yul\":5701:5729   */\n      and\n        /* \"#utility.yul\":5691:5729   */\n      swap1\n      pop\n        /* \"#utility.yul\":5633:5735   */\n      swap2\n      swap1\n      pop\n      jump\t// out\n        /* \"#utility.yul\":5741:5861   */\n    tag_46:\n        /* \"#utility.yul\":5813:5836   */\n      tag_121\n        /* \"#utility.yul\":5830:5835   */\n      dup2\n        /* \"#utility.yul\":5813:5836   */\n      tag_77\n      jump\t// in\n    tag_121:\n        /* \"#utility.yul\":5806:5811   */\n      dup2\n        /* \"#utility.yul\":5803:5837   */\n      eq\n        /* \"#utility.yul\":5793:5855   */\n      tag_122\n      jumpi\n        /* \"#utility.yul\":5851:5852   */\n      0x00\n        /* \"#utility.yul\":5848:5849   */\n      dup1\n        /* \"#utility.yul\":5841:5853   */\n      revert\n        /* \"#utility.yul\":5793:5855   */\n    tag_122:\n        /* \"#utility.yul\":5741:5861   */\n      pop\n      jump\t// out\n        /* \"#utility.yul\":5867:5989   */\n    tag_56:\n        /* \"#utility.yul\":5940:5964   */\n      tag_124\n        /* \"#utility.yul\":5958:5963   */\n      dup2\n        /* \"#utility.yul\":5940:5964   */\n      tag_81\n      jump\t// in\n    tag_124:\n        /* \"#utility.yul\":5933:5938   */\n      dup2\n        /* \"#utility.yul\":5930:5965   */\n      eq\n        /* \"#utility.yul\":5920:5983   */\n      tag_125\n      jumpi\n        /* \"#utility.yul\":5979:5980   */\n      0x00\n        /* \"#utility.yul\":5976:5977   */\n      dup1\n        /* \"#utility.yul\":5969:5981   */\n      revert\n        /* \"#utility.yul\":5920:5983   */\n    tag_125:\n        /* \"#utility.yul\":5867:5989   */\n      pop\n      jump\t// out\n\n    auxdata: 0xa2646970667358221220dfc3cb329605ce5f2303c7ff2801b15e99fdf4de8a0386538c2a95758135fa7764736f6c63430008070033\n}\n",
				"bytecode": {
					"linkReferences": {},
					"object": "608060405234801561001057600080fd5b50610510806100206000396000f3fe608060405234801561001057600080fd5b506004361061004c5760003560e01c806307391dd61461005157806322d51f261461006d57806360de30021461009d578063d811a0f7146100cd575b600080fd5b61006b6004803603810190610066919061026a565b6100eb565b005b61008760048036038101906100829190610221565b6100f5565b60405161009491906102d0565b60405180910390f35b6100b760048036038101906100b291906101e1565b610123565b6040516100c491906102b5565b60405180910390f35b6100d561013e565b6040516100e291906102d0565b60405180910390f35b8060008190555050565b6003818051602081018201805184825260208301602085012081835280955050505050506000915090505481565b60008082846101329190610341565b90508091505092915050565b60008054905090565b600061015a61015584610310565b6102eb565b9050828152602081018484840111156101765761017561048c565b5b6101818482856103e9565b509392505050565b600081359050610198816104ac565b92915050565b600082601f8301126101b3576101b2610487565b5b81356101c3848260208601610147565b91505092915050565b6000813590506101db816104c3565b92915050565b600080604083850312156101f8576101f7610496565b5b600061020685828601610189565b925050602061021785828601610189565b9150509250929050565b60006020828403121561023757610236610496565b5b600082013567ffffffffffffffff81111561025557610254610491565b5b6102618482850161019e565b91505092915050565b6000602082840312156102805761027f610496565b5b600061028e848285016101cc565b91505092915050565b6102a0816103d5565b82525050565b6102af816103df565b82525050565b60006020820190506102ca6000830184610297565b92915050565b60006020820190506102e560008301846102a6565b92915050565b60006102f5610306565b905061030182826103f8565b919050565b6000604051905090565b600067ffffffffffffffff82111561032b5761032a610458565b5b6103348261049b565b9050602081019050919050565b600061034c826103d5565b9150610357836103d5565b9250817f7fffffffffffffffffffffffffffffffffffffffffffffffffffffffffffffff0383136000831215161561039257610391610429565b5b817f80000000000000000000000000000000000000000000000000000000000000000383126000831216156103ca576103c9610429565b5b828201905092915050565b6000819050919050565b6000819050919050565b82818337600083830152505050565b6104018261049b565b810181811067ffffffffffffffff821117156104205761041f610458565b5b80604052505050565b7f4e487b7100000000000000000000000000000000000000000000000000000000600052601160045260246000fd5b7f4e487b7100000000000000000000000000000000000000000000000000000000600052604160045260246000fd5b600080fd5b600080fd5b600080fd5b600080fd5b6000601f19601f8301169050919050565b6104b5816103d5565b81146104c057600080fd5b50565b6104cc816103df565b81146104d757600080fd5b5056fea2646970667358221220dfc3cb329605ce5f2303c7ff2801b15e99fdf4de8a0386538c2a95758135fa7764736f6c63430008070033",
					"opcodes": "PUSH1 0x80 PUSH1 0x40 MSTORE CALLVALUE DUP1 ISZERO PUSH2 0x10 JUMPI PUSH1 0x0 DUP1 REVERT JUMPDEST POP PUSH2 0x510 DUP1 PUSH2 0x20 PUSH1 0x0 CODECOPY PUSH1 0x0 RETURN INVALID PUSH1 0x80 PUSH1 0x40 MSTORE CALLVALUE DUP1 ISZERO PUSH2 0x10 JUMPI PUSH1 0x0 DUP1 REVERT JUMPDEST POP PUSH1 0x4 CALLDATASIZE LT PUSH2 0x4C JUMPI PUSH1 0x0 CALLDATALOAD PUSH1 0xE0 SHR DUP1 PUSH4 0x7391DD6 EQ PUSH2 0x51 JUMPI DUP1 PUSH4 0x22D51F26 EQ PUSH2 0x6D JUMPI DUP1 PUSH4 0x60DE3002 EQ PUSH2 0x9D JUMPI DUP1 PUSH4 0xD811A0F7 EQ PUSH2 0xCD JUMPI JUMPDEST PUSH1 0x0 DUP1 REVERT JUMPDEST PUSH2 0x6B PUSH1 0x4 DUP1 CALLDATASIZE SUB DUP2 ADD SWAP1 PUSH2 0x66 SWAP2 SWAP1 PUSH2 0x26A JUMP JUMPDEST PUSH2 0xEB JUMP JUMPDEST STOP JUMPDEST PUSH2 0x87 PUSH1 0x4 DUP1 CALLDATASIZE SUB DUP2 ADD SWAP1 PUSH2 0x82 SWAP2 SWAP1 PUSH2 0x221 JUMP JUMPDEST PUSH2 0xF5 JUMP JUMPDEST PUSH1 0x40 MLOAD PUSH2 0x94 SWAP2 SWAP1 PUSH2 0x2D0 JUMP JUMPDEST PUSH1 0x40 MLOAD DUP1 SWAP2 SUB SWAP1 RETURN JUMPDEST PUSH2 0xB7 PUSH1 0x4 DUP1 CALLDATASIZE SUB DUP2 ADD SWAP1 PUSH2 0xB2 SWAP2 SWAP1 PUSH2 0x1E1 JUMP JUMPDEST PUSH2 0x123 JUMP JUMPDEST PUSH1 0x40 MLOAD PUSH2 0xC4 SWAP2 SWAP1 PUSH2 0x2B5 JUMP JUMPDEST PUSH1 0x40 MLOAD DUP1 SWAP2 SUB SWAP1 RETURN JUMPDEST PUSH2 0xD5 PUSH2 0x13E JUMP JUMPDEST PUSH1 0x40 MLOAD PUSH2 0xE2 SWAP2 SWAP1 PUSH2 0x2D0 JUMP JUMPDEST PUSH1 0x40 MLOAD DUP1 SWAP2 SUB SWAP1 RETURN JUMPDEST DUP1 PUSH1 0x0 DUP2 SWAP1 SSTORE POP POP JUMP JUMPDEST PUSH1 0x3 DUP2 DUP1 MLOAD PUSH1 0x20 DUP2 ADD DUP3 ADD DUP1 MLOAD DUP5 DUP3 MSTORE PUSH1 0x20 DUP4 ADD PUSH1 0x20 DUP6 ADD KECCAK256 DUP2 DUP4 MSTORE DUP1 SWAP6 POP POP POP POP POP POP PUSH1 0x0 SWAP2 POP SWAP1 POP SLOAD DUP2 JUMP JUMPDEST PUSH1 0x0 DUP1 DUP3 DUP5 PUSH2 0x132 SWAP2 SWAP1 PUSH2 0x341 JUMP JUMPDEST SWAP1 POP DUP1 SWAP2 POP POP SWAP3 SWAP2 POP POP JUMP JUMPDEST PUSH1 0x0 DUP1 SLOAD SWAP1 POP SWAP1 JUMP JUMPDEST PUSH1 0x0 PUSH2 0x15A PUSH2 0x155 DUP5 PUSH2 0x310 JUMP JUMPDEST PUSH2 0x2EB JUMP JUMPDEST SWAP1 POP DUP3 DUP2 MSTORE PUSH1 0x20 DUP2 ADD DUP5 DUP5 DUP5 ADD GT ISZERO PUSH2 0x176 JUMPI PUSH2 0x175 PUSH2 0x48C JUMP JUMPDEST JUMPDEST PUSH2 0x181 DUP5 DUP3 DUP6 PUSH2 0x3E9 JUMP JUMPDEST POP SWAP4 SWAP3 POP POP POP JUMP JUMPDEST PUSH1 0x0 DUP2 CALLDATALOAD SWAP1 POP PUSH2 0x198 DUP2 PUSH2 0x4AC JUMP JUMPDEST SWAP3 SWAP2 POP POP JUMP JUMPDEST PUSH1 0x0 DUP3 PUSH1 0x1F DUP4 ADD SLT PUSH2 0x1B3 JUMPI PUSH2 0x1B2 PUSH2 0x487 JUMP JUMPDEST JUMPDEST DUP2 CALLDATALOAD PUSH2 0x1C3 DUP5 DUP3 PUSH1 0x20 DUP7 ADD PUSH2 0x147 JUMP JUMPDEST SWAP2 POP POP SWAP3 SWAP2 POP POP JUMP JUMPDEST PUSH1 0x0 DUP2 CALLDATALOAD SWAP1 POP PUSH2 0x1DB DUP2 PUSH2 0x4C3 JUMP JUMPDEST SWAP3 SWAP2 POP POP JUMP JUMPDEST PUSH1 0x0 DUP1 PUSH1 0x40 DUP4 DUP6 SUB SLT ISZERO PUSH2 0x1F8 JUMPI PUSH2 0x1F7 PUSH2 0x496 JUMP JUMPDEST JUMPDEST PUSH1 0x0 PUSH2 0x206 DUP6 DUP3 DUP7 ADD PUSH2 0x189 JUMP JUMPDEST SWAP3 POP POP PUSH1 0x20 PUSH2 0x217 DUP6 DUP3 DUP7 ADD PUSH2 0x189 JUMP JUMPDEST SWAP2 POP POP SWAP3 POP SWAP3 SWAP1 POP JUMP JUMPDEST PUSH1 0x0 PUSH1 0x20 DUP3 DUP5 SUB SLT ISZERO PUSH2 0x237 JUMPI PUSH2 0x236 PUSH2 0x496 JUMP JUMPDEST JUMPDEST PUSH1 0x0 DUP3 ADD CALLDATALOAD PUSH8 0xFFFFFFFFFFFFFFFF DUP2 GT ISZERO PUSH2 0x255 JUMPI PUSH2 0x254 PUSH2 0x491 JUMP JUMPDEST JUMPDEST PUSH2 0x261 DUP5 DUP3 DUP6 ADD PUSH2 0x19E JUMP JUMPDEST SWAP2 POP POP SWAP3 SWAP2 POP POP JUMP JUMPDEST PUSH1 0x0 PUSH1 0x20 DUP3 DUP5 SUB SLT ISZERO PUSH2 0x280 JUMPI PUSH2 0x27F PUSH2 0x496 JUMP JUMPDEST JUMPDEST PUSH1 0x0 PUSH2 0x28E DUP5 DUP3 DUP6 ADD PUSH2 0x1CC JUMP JUMPDEST SWAP2 POP POP SWAP3 SWAP2 POP POP JUMP JUMPDEST PUSH2 0x2A0 DUP2 PUSH2 0x3D5 JUMP JUMPDEST DUP3 MSTORE POP POP JUMP JUMPDEST PUSH2 0x2AF DUP2 PUSH2 0x3DF JUMP JUMPDEST DUP3 MSTORE POP POP JUMP JUMPDEST PUSH1 0x0 PUSH1 0x20 DUP3 ADD SWAP1 POP PUSH2 0x2CA PUSH1 0x0 DUP4 ADD DUP5 PUSH2 0x297 JUMP JUMPDEST SWAP3 SWAP2 POP POP JUMP JUMPDEST PUSH1 0x0 PUSH1 0x20 DUP3 ADD SWAP1 POP PUSH2 0x2E5 PUSH1 0x0 DUP4 ADD DUP5 PUSH2 0x2A6 JUMP JUMPDEST SWAP3 SWAP2 POP POP JUMP JUMPDEST PUSH1 0x0 PUSH2 0x2F5 PUSH2 0x306 JUMP JUMPDEST SWAP1 POP PUSH2 0x301 DUP3 DUP3 PUSH2 0x3F8 JUMP JUMPDEST SWAP2 SWAP1 POP JUMP JUMPDEST PUSH1 0x0 PUSH1 0x40 MLOAD SWAP1 POP SWAP1 JUMP JUMPDEST PUSH1 0x0 PUSH8 0xFFFFFFFFFFFFFFFF DUP3 GT ISZERO PUSH2 0x32B JUMPI PUSH2 0x32A PUSH2 0x458 JUMP JUMPDEST JUMPDEST PUSH2 0x334 DUP3 PUSH2 0x49B JUMP JUMPDEST SWAP1 POP PUSH1 0x20 DUP2 ADD SWAP1 POP SWAP2 SWAP1 POP JUMP JUMPDEST PUSH1 0x0 PUSH2 0x34C DUP3 PUSH2 0x3D5 JUMP JUMPDEST SWAP2 POP PUSH2 0x357 DUP4 PUSH2 0x3D5 JUMP JUMPDEST SWAP3 POP DUP2 PUSH32 0x7FFFFFFFFFFFFFFFFFFFFFFFFFFFFFFFFFFFFFFFFFFFFFFFFFFFFFFFFFFFFFFF SUB DUP4 SGT PUSH1 0x0 DUP4 SLT ISZERO AND ISZERO PUSH2 0x392 JUMPI PUSH2 0x391 PUSH2 0x429 JUMP JUMPDEST JUMPDEST DUP2 PUSH32 0x8000000000000000000000000000000000000000000000000000000000000000 SUB DUP4 SLT PUSH1 0x0 DUP4 SLT AND ISZERO PUSH2 0x3CA JUMPI PUSH2 0x3C9 PUSH2 0x429 JUMP JUMPDEST JUMPDEST DUP3 DUP3 ADD SWAP1 POP SWAP3 SWAP2 POP POP JUMP JUMPDEST PUSH1 0x0 DUP2 SWAP1 POP SWAP2 SWAP1 POP JUMP JUMPDEST PUSH1 0x0 DUP2 SWAP1 POP SWAP2 SWAP1 POP JUMP JUMPDEST DUP3 DUP2 DUP4 CALLDATACOPY PUSH1 0x0 DUP4 DUP4 ADD MSTORE POP POP POP JUMP JUMPDEST PUSH2 0x401 DUP3 PUSH2 0x49B JUMP JUMPDEST DUP2 ADD DUP2 DUP2 LT PUSH8 0xFFFFFFFFFFFFFFFF DUP3 GT OR ISZERO PUSH2 0x420 JUMPI PUSH2 0x41F PUSH2 0x458 JUMP JUMPDEST JUMPDEST DUP1 PUSH1 0x40 MSTORE POP POP POP JUMP JUMPDEST PUSH32 0x4E487B7100000000000000000000000000000000000000000000000000000000 PUSH1 0x0 MSTORE PUSH1 0x11 PUSH1 0x4 MSTORE PUSH1 0x24 PUSH1 0x0 REVERT JUMPDEST PUSH32 0x4E487B7100000000000000000000000000000000000000000000000000000000 PUSH1 0x0 MSTORE PUSH1 0x41 PUSH1 0x4 MSTORE PUSH1 0x24 PUSH1 0x0 REVERT JUMPDEST PUSH1 0x0 DUP1 REVERT JUMPDEST PUSH1 0x0 DUP1 REVERT JUMPDEST PUSH1 0x0 DUP1 REVERT JUMPDEST PUSH1 0x0 DUP1 REVERT JUMPDEST PUSH1 0x0 PUSH1 0x1F NOT PUSH1 0x1F DUP4 ADD AND SWAP1 POP SWAP2 SWAP1 POP JUMP JUMPDEST PUSH2 0x4B5 DUP2 PUSH2 0x3D5 JUMP JUMPDEST DUP2 EQ PUSH2 0x4C0 JUMPI PUSH1 0x0 DUP1 REVERT JUMPDEST POP JUMP JUMPDEST PUSH2 0x4CC DUP2 PUSH2 0x3DF JUMP JUMPDEST DUP2 EQ PUSH2 0x4D7 JUMPI PUSH1 0x0 DUP1 REVERT JUMPDEST POP JUMP INVALID LOG2 PUSH5 0x6970667358 0x22 SLT KECCAK256 0xDF 0xC3 0xCB ORIGIN SWAP7 SDIV 0xCE 0x5F 0x23 SUB 0xC7 SELFDESTRUCT 0x28 ADD 0xB1 0x5E SWAP10 REVERT DELEGATECALL 0xDE DUP11 SUB DUP7 MSTORE8 DUP13 0x2A SWAP6 PUSH22 0x8135FA7764736F6C6343000807003300000000000000 "
				},
				"gasEstimates": {
					"creation": {
						"codeDepositCost": "259200",
						"executionCost": "300",
						"totalCost": "259500"
					},
					"external": {
						"addNumber(int256,int256)": "infinite",
						"changeNumber(uint256)": "22498",
						"phonenumbers(string)": "infinite",
						"viewNumber()": "2481"
					}
				},
				"methodIdentifiers": {
					"addNumber(int256,int256)": "60de3002",
					"changeNumber(uint256)": "07391dd6",
					"phonenumbers(string)": "22d51f26",
					"viewNumber()": "d811a0f7"
				}
			},
			"storageLayout": {
				"storage": [
					{
						"astId": 3,
						"contract": "contracts/1_Storage.sol:myFirstContract",
						"label": "myNumber",
						"offset": 0,
						"slot": "0",
						"type": "t_uint256"
					},
					{
						"astId": 5,
						"contract": "contracts/1_Storage.sol:myFirstContract",
						"label": "name",
						"offset": 0,
						"slot": "1",
						"type": "t_string_storage"
					},
					{
						"astId": 8,
						"contract": "contracts/1_Storage.sol:myFirstContract",
						"label": "names",
						"offset": 0,
						"slot": "2",
						"type": "t_array(t_string_storage)dyn_storage"
					},
					{
						"astId": 16,
						"contract": "contracts/1_Storage.sol:myFirstContract",
						"label": "phonenumbers",
						"offset": 0,
						"slot": "3",
						"type": "t_mapping(t_string_memory_ptr,t_uint256)"
					}
				],
				"types": {
					"t_array(t_string_storage)dyn_storage": {
						"base": "t_string_storage",
						"encoding": "dynamic_array",
						"label": "string[]",
						"numberOfBytes": "32"
					},
					"t_mapping(t_string_memory_ptr,t_uint256)": {
						"encoding": "mapping",
						"key": "t_string_memory_ptr",
						"label": "mapping(string => uint256)",
						"numberOfBytes": "32",
						"value": "t_uint256"
					},
					"t_string_memory_ptr": {
						"encoding": "bytes",
						"label": "string",
						"numberOfBytes": "32"
					},
					"t_string_storage": {
						"encoding": "bytes",
						"label": "string",
						"numberOfBytes": "32"
					},
					"t_uint256": {
						"encoding": "inplace",
						"label": "uint256",
						"numberOfBytes": "32"
					}
				}
			},
			"userdoc": {
				"kind": "user",
				"methods": {},
				"version": 1
			}
		}
	}
}